:20000000003C01209577000039FB021039FB021039FB021039FB021039FB021039FB0210D3
:1C00200039FB021039FB021039FB021039FB021039FB021039FB021011FB021002
:20003C002DE9F0470646B078ADF1400D022840F04382CE4D3088A5F124042188222815DC64
:20005C00222800F0B581002800F02F82801E012840F22782801E00F01982DFF84083401F87
:20007C000C280ED9173800F0B78119E0273800F09E80401E52D00A3830D0001F00F090818A
:20009C000EE0DFE810F0F701DF017501D501CA01BF01B501AC010D000D0032010301BA0072
:2000BC00062001218DF82D000DF12D020B46812005F004FEB068002800F0FE810AF016F95C
:2000DC0009900AF00FF90A90B06809F073FD0020B0600A980AF002F9099865E00021B06868
:2000FC008DF82E10024690B1206A80B11188405C400806D2D8A009F061F801208DF82E00EA
:20011C0003E00920114609F01BFB012302E001238DF82E3032200DF12E02CAE1B768B878CA
:20013C00012823D1A08CB7F8009097F803A007F104080125000A1AD3B8F1000F17D0206A9F
:20015C0019F80000400812D3042008F075FC041C0DD0A4F80090A01C4146524605F030FC93
:20017C000820214609F0ECFA002500E006253888BC788DF81B50032106AAADF81800042329
:20019C008DF81A40282005F099FD0AF0AFF807900AF0A8F80890B06809F00CFD0020B060DD
:2001BC0008980AF09BF807980AF094F884E10024B0688DF82F4040B181780288082007F0A9
:2001DC002BFD01280AD0012302E001238DF82F30272003210DF12F0205F070FD0AF086F856
:2001FC0004900AF07FF80590B06809F0E3FC0598B4600AF073F80498D6E7B76800253879F5
:20021C0097F80A908DF8315068B13878207778786077387AA0777878F8B941464871387A10
:20023C00087108F01DFF09F10904204608F004FC5FEA000808BF042010D0B91C224605F062
:20025C00BFFB152003210DF13102012305F036FD1220414609F074FA09E005208DF831000E
:20027C0003210DF131020123152005F027FD0AF03DF802900AF036F80390B06809F09AFC78
:20029C000398B5600AF02AF802988DE70020B7688DF8320077B9A08C00F0800100F48070C1
:2002BC00084300F00981012314200DF132028DF83230FEE0A18C01F0800201F48070104336
:2002DC0007D0142003210DF13202012305F0F6FC2988080A03D30720394609F031FAB97802
:2002FC003A88042007F098FCE6E0B768B91C3A78C87922777A780025627749798DF8335071
:20031C0000F1080A5046A17708F096FB5FEA00091DD0B91C524605F053FB607F50B9414629
:20033C004871A07F087108F09BFE0620494609F007FA05E0052162A08DF8331008F03EFF06
:20035C00132003210DF13302012305F0B7FC09F0CDFF009009F0C6FF0190B06809F02AFC50
:20037C000198B56009F0BAFF00981DE7C42700204FF6FF7700208F428DF8390006D1B16800
:20039C00088820800C2009F0DBF902E001208DF839000B200DF1390276E0C046E00F002088
:2003BC00052001218DF82C000BAA0B46812081E0002094F83270B5688DF8300003210CAA27
:2003DC000123781E84F83200222005F077FC0520294609F0B5F96FE009F0B4FC6CE000214F
:2003FC0011208DF8341009F0ABF910200DAA4BE0002110208DF8351009F0A2F90F200DF15C
:20041C00350241E00020B1688DF836000F2009F097F90E200DF1360236E00020B1688DF884
:20043C0037000E2009F08CF90D200DF137022BE00020B1688DF838000D2009F081F90C208C
:20045C000EAA21E000210B208DF83A1009F078F90A200DF13A0217E0436F6E6E48616E64DE
:20047C006C6520646F6573206E6F742065786973743A20000020B1688DF83B000A2009F090
:20049C005FF909200DF13B02012312E00025042003210FAA01238DF83C5005F00FFC0320F0
:2004BC0096E7B06808F004FA06E004F1240200200C23032105F002FC10B0BDE8F087C0464C
:2004DC00416F41206661696C656420746F20696E69742C20737461747573203D200070478F
:2004FC002DE9FC47D44C0F460546F80B80F006826078DFF85883B90F80F0AA81B90880F0AE
:20051C009D81F90A80F00281390B80F0CC80380907D2F80FC0F0288227F0804706F062FDFD
:20053C0022E209F08EFD814609F0EAF8002800F0B480082009F0ECFC002840F0AE808020FA
:20055C0009F0E6FC002840F0A880684605F086FA012803D10098002800F09F8094F8410266
:20057C00002840F09A8000250126E8B209F0E0FB48B1837A3BB1867290F9090006FA00F0D7
:20059C00C0B208F0C3FA6D1C032DEED3032084F8200004F5CC7009F050FD484609F09AFE45
:2005BC00D34800252A460168056050F8081CD14940F8085C04F15C0009F022F8404600682D
:2005DC00006B8047A168401A010BA06AC1F1FF3282422CBF08444FF0FF30A06294F82C004E
:2005FC0020B12069A16AB1EBC02F25D909F098F8294600B13146081C1BD0BF4840F609017B
:20061C0001804580417B06F00F0221F00F010A434273017B05F00F0321F00F0143EA0102BE
:20063C0002732946416009F0E9FB418811F4406FFBD084F82C60A56207F0FCFBCE48294672
:20065C000560022008F0F4FE022008F0A7FB112004F03EFC207818B96068483009F0FFFC55
:20067C00C648007810B90E2004F032FC94F82D0020B184F82D50052008F090FBC0486062CA
:20069C0084F82050B4F9B000B4F9B210884214BF0220072005F058FE02E0484609F01AFED4
:2006BC0027F008073AE720B1042008F077FB00206070656808F0E0F838B12846ED696FF4DB
:2006DC00807100224FF00073A847E06858B140460068006B8047E2686168801AC860000BF9
:2006FC00C8600026E660A74904F15C00002208F087FF0221D4F89C0084F8201018B104F174
:20071C00DC0009F0B2FC27F4006707E709F099FC064608F0F5FFD4F894100028894600F0AD
:20073C008480002900F081809749042504F15C00002284F8205008F063FF304609F0CAFD87
:20075C0004F5CC7009F079FC40460068006B8047E0604FF0010884F80180284608F036FB9E
:20077C00D9F810006060D9F81000416AC90803D3036A294600229847404606F003FE606867
:20079C0080F81580606804F023FD6568D5F808A040F60A02D01F564600F1010C00E01E4603
:2007BC00736833B119888A4203D0884218BF8C45F5D100217160727B08F00F0322F00F02DA
:2007DC0013437373D9F80C201288904224D06046904221D02B8E03B3696305F130025180C7
:2007FC0095F83C0001F00F0320F00F00034385F83C3095F83D0008F00F0320F00F0003438A
:20081C0085F83D307260707B01F00F0520F00F0045EA0001717300E0E160504609F0EEFA45
:20083C005146404608F004FE02E0304609F052FD27F4806798E0C046001F002002F072FAC8
:20085C00D4F89C0008B927F002078DE08C0100104E4A116841F08001116020B1042008F008
:20087C009DFA0020607009F0ECFB8246D8F85400016804208847D0B1287DC0B1A068B0B1AD
:20089C008146D8F800002E69006B8047A0EB09002861000B2861B04202D2801940082861FB
:2008BC0040F6C41181422CBFB0F5967F2961504609F010FD07F0E0FF80B1EE6928466FF454
:2008DC00807100224FF00073B047D4F89400002808BF47F0020701D006F084FB2846AD69E7
:2008FC0000214FF080630A46A84727F000573BE014100440197500002443002009F0A1FBBF
:20091C00D4F8AC6066B306F1280106C90A234FF0E0450B40154008BF002B21D106F12801A6
:20093C0091E8000306F1280595E8060006F1280322EA090221EA080183E8060009F0CAFCFB
:20095C00B16879B1B9F1000F08BFB8F1000F09D03069B6F93010B5684B464246A84701E099
:20097C0009F0B8FC27F4804727B104F1DC00394609F07BFBBDE8FC87000004604EC3000098
:20099C00CD440000E13D0000FD960000CC21084000202DE9F0470146ADF1180D09F096FC42
:2009BC00A34E06F10801086010B9032007F0F2FB06F11C0009F060FA9E4DF0604FF0010A07
:2009DC0085F800A09C48A86008F022F9DFF86C9299F80000002840F0B880994F78680028F9
:2009FC0038D107F14008404609F08EF90624BC659448786597F87000002464F3020087F88D
:200A1C00700097F8700064F3C30087F87000B7F8700020F47C7040F43470A7F8700097F8AD
:200A3C0071003C6464F3820087F87100204608F0F7FEA7F872008549834807F160024346E0
:200A5C00786707F1900000F017F9786000287CD02B7801E0002453467C853C6341F60900A6
:200A7C003885A046C7F82C8097F8340020F00F0040F0020087F8340097F8340064F3041057
:200A9C0087F8340097F8340064F3461087F83400204603B9504697F8341060F3C71187F82F
:200ABC00341097F835006AF3030087F8350097F83500252364F3071087F83500644A87F8A3
:200ADC00363097F8370064F3060087F8370097F837004FF4867E4FF48A7C07F1140164F301
:200AFC00C71087F8370007F10803FB632046B96310FB0CF18B181C7105285C7101EB020347
:200B1C00A3F806E008BFC2F8642503D0511801F58A711960401CC0B20628E9DBC9F80C20DB
:200B3C00C9F81080C9F81420C9F8188009F10C007861102008F03AFA071C05D03C1D4146E7
:200B5C00204609F0BFFB3C60EF60434F434A41480197434902920024009070234FF4C8576C
:200B7C0001F1140220469446147010FB03C21471401C1782C0B254710828F6DB39484860E2
:200B9C003949087818B1012818BF02280ED1081D6A4601460DCA81E80D003448344FC9F83C
:200BBC0004005046C9F8087004F0A4FFDFF8C480B06821464FF080424FF0FF3309F07EFB31
:200BDC00F06809F077FB0028F2D109F08FFB0490F06808F06AFF0746049809F07BFB002FF4
:200BFC00EED03888012819D112E0E868006809F05DFB039060B1017A58F82110884709F0E5
:200C1C0075FB8146039808F0D5FF484609F062FBE868006809F04EFB0028E6D009F066FB04
:200C3C000490384608F0C6FF049809F053FBC7E7E8170020A03300205D9A0000102E0020D1
:200C5C00182B0020FB950000683500209CC000007836002021880000D9430000E53E0000B6
:200C7C0008240020ED9F0000C8350020E589000045930000B0C100002DE9F04FDFF84C92A2
:200C9C0004460D460020ADF1440D01461F460D9016460E9183460F91D9F808A0CDF840B0B1
:200CBC0005F058FC262803D005F054FC252825D1308843F6070181420ED040F60201814290
:200CDC0006D0B0F5C15F19D1F07B022816DD43E0F07B022812DD3FE096F8240002280DDD5F
:200CFC00307C0F2838D13169C1F31421B1F5803F04D00F2830D1B1F5A02F2DD1002D2BD05D
:200D1C0056B328784FF0010808FA00F01AEA000F22D03046594609F09AF965606C4DA660AA
:200D3C00A86980B110A800900DA90EAA0FAB304603F0CCF90E980B214FF6FF72502308F0C4
:200D5C0052FAFF2808D009F07CF982462878022804DB504609F0BEFA5C46B2E000286DD16C
:200D7C0001F00EFD5B495C4E086840F00200086009A8C9F8006009F051F8584E58497078C0
:200D9C0009AA0B9005F1DC0006F076FE554905F58C7009AA06F070FE09A809F01EF8192108
:200DBC0009AB3078504A0A9005F15C0007F0C0FB4E4A05F178001A2109AB07F0B9FB4C494E
:200DDC005A4605F5AA70134607F0D2FA49495A4605F5CC70134607F0CBFA47480068C0F300
:200DFC00814030B1454A05F1300004215B4608F037FAB078012802D10E2004F047FA05F114
:200E1C009C0008F058FF05F1940008F054FF594685F82C1085F82010072085F84002A96200
:200E3C00A960374B197085F82D100526E960354A2E6104206A6208F0FBFA287805EB800158
:200E5C00401CC1F8B440C0B22870504609F042FA1FB901A808F058FF01AF38684FF4FA76C5
:200E7C00E6602060B86941466062388A6175E082F869E062786800280CBF40F6C41059460D
:200E9C0020612148E06120622175A061F86800B1E061786900B12062B86800B1A061C822D0
:200EBC0004F13000594605F011FD04F14800594608F0ECF815495A4604F1B000134607F0A4
:200EDC0057FA204611B0BDE8F08FC046CC210840001F002000200940110000E04CC3000077
:200EFC00899B0000D94B00001975000041710000DD960000ED990000B44F00506D7D000018
:200F1C0054430020CD440000EF1C000021A000002DE9F04F0746F88916468A46ADF1440DE3
:200F3C00C01D80B2054606F027F88F4CFF280BD1284602F091FC854204DD641C207800B9E2
:200F5C0005200EE1012000E000206178D9B916B1022E18D1B8B1387AFE88BD888DF82C005E
:200F7C000023009309AAADF82A60E18E94F83300ADF82850032303F029F89DF834003874C3
:200F9C00BDF83060BE81BD8955B3FE8946B3AD1B4FF000091FFA85F84D463A7C761B202E15
:200FBC00D4BFB6B22026E06808EB050189B2334601EB423101AA08F0EAFF0AEB050101A850
:200FDC00324608F07DFA58B9AD19FE89ADB2AE42E3DCB9F1010F1CBF4846B88140F0BA80DC
:200FFC0094F83310E58EE06801AA04238846490308F0CDFF019800F0FF007E2806D1404610
:20101C007C2107F083FE019800F0FF007C2840F0A580F88942F20102C11D8EB2A9198A42BA
:20103C0040F39A80F9883A7AC1F301238DF83910B98843EA82038DF838308A1007468DF820
:20105C003A200423C0F3851201F0030142EA81128DF83B2010FB03F1FA1D01F0FC017B197D
:20107C0090B28DF83C101FFA83FB0D282BDB50463946002208F034FF024605210EA808F0F1
:20109C002FFF9DF83C103B4600F03F07524641EAA011B8008DF83C1040F0020096278DF8FD
:2010BC003D0029468DF83E70404606F00BFF074659460EAA07234046677006F003FF384311
:2010DC0060704DD135E004F1240051463A4604F077FC0EA90A68381900F1240948460979B2
:2010FC0002607B1D0171002204F1240099B208F0F7FE9DF83C10962300F03F078DF83E3032
:20111C0041EAA011B8008DF83C10334640F002000EAF49468DF83D003A68B8790A60BA8816
:20113C00887140468A8004F12402294606F0CAFE6070E18EAD194FEA8807AAB28919E18690
:20115C0007EBC8010919A1F84C2048B14046594606F0D8FD607803E0052000E001206070F7
:20117C00C0B211B0BDE8F08F803100202DE9F04F824C4FF0FF0A00254FF0100BADF1240D72
:20119C0084F834A004F1300984F832A065E00C2015FB0096E068690306AA042308F0F7FED8
:2011BC0006F116079DF818009DF8193038700698F375C0F38541032903D09621B1EB106F7C
:2011DC0038D1C0F30140F8703878FF2830D0FE282ED07E282CD007A807F0CAF9E0686903D4
:2011FC004FF088524FF4005308F0D1FE64484FF4005650F8041D361FB6B2B1F1FF3F06F11B
:20121C00885201D1032EF4D810684FF00108414600F0FF03FF2B18BF8846491C000A052964
:20123C00F6DB1060079808F089FC4644FE8001E0A7F806B038787C280BD0782809D07028B7
:20125C0004D0FE2808BF84F8325004E084F8345001E084F833506D1CEDB2E078A84296DC13
:20127C0094F83310FF2920D194F83420FF2A15D194F832200025FF2A18D0521C92FBF0F18B
:20129C004143521A91B28A0002EBC1024A44978B002F08BF84F832A003D00A4684F83320DF
:2012BC000225214691F8331000E00125FF2910D1002684F83360304603F0AAFD6178084340
:2012DC0060707E21304607F021FD2146E07891F8331094F83220FF2A14D1491C91FBF0F2AE
:2012FC004243891AC8B284F8320003F091FD61780843607094F83200FE2107F007FD2046CF
:20131C0090F8331084F8311094F8332010462F46810001EBC0014944898BA570781EE1869E
:20133C0002D0401E23D025E0172923D91046C91F01AA89B204F0F6FA9DF80F00C00816D3D0
:20135C0000200090BDF81220E18E94F833000323891AC91F01AA89B202F038FE50B9BDF82F
:20137C00101039B19DF8140006F0CCFC02E0002002F072FA09B0BDE8F08FC04680310020CC
:20139C00002000112DE9FE4F9B4615468946824608F057FE7B49019008680CAF504508BFA1
:2013BC0048687B4C6FF0010828B1B03008F00DFD002840F0D68008F029F8061C00F0DB8043
:2013DC0004F5CC7008F039FE0023B4F9B000C6F80C90401C86F832306FF31F30A4F8B0007A
:2013FC00C6F808B0B4F8B00030866748C6F810A097E80C0020210027B8461940104006F19B
:20141C00180383E80300424686F8332006F1200383E88001E8683064287C86F844002868EE
:20143C007063287986F83800A868F0636869B064A869F064287F86F85000687F86F851008E
:20145C002F7C27B9EF6817B1012086F844002F795FB999F80C0000F00F00022805D1012066
:20147C0086F83800D9F808007063484608274568002D18BF002F70D100886FF30900B0F578
:20149C00305F18BF022506D196F83300082540F0100086F8330006F1180090E80C004146D3
:2014BC0006F1180745EA0200194387E80300D4F8D400824507D194F8D800410824BF00F03C
:2014DC00FE0084F8D80031480768002F39D004F19C000090D4F8A410D4F8A82004F19405BB
:2014FC002B463046B84710F1030F10D0B6F93010B4F9B020914207D0B4F9B01001F6FF710D
:20151C006FF31F31A4F8B01010F1020F1BD010F1030F18D096F83300B6F9308040F08000D9
:20153C0086F8330000278AF8F4702868864205D0F068007B00F00F0002281CD105F052FD77
:20155C0019E06FF00200B4F9B010804601F6FF716FF31F31A4F8B01005E07F1E2846FFB2CC
:20157C0085E76FF0020894F8D80040F0040084F8D800C4F8D4A0019808F0ACFE4046BDE8F8
:20159C00FE8FC046B41F0020FFEFFF9FE8350020001F00202DE9F04F8246ADF11C0D01F0CC
:2015BC00EFF86948007804F0D5FF684C002615280DDC152814D0012821D90C381FD0401E62
:2015DC0024D0401E01280BD9401F09D012E0173815D0801E1AD0401E18BFB0F1020009D1F8
:2015FC0008F070FA022807D008F06CFA012803D008F068FA21680DE005211F2608E008F0F7
:20161C0061FA0228F6D101210E4601E003210726204601604E4AD068C0F38150012804D1A1
:20163C0012680120120E9040064308F059FBDFF828B1DFF82081FF2240185B46401E471C6B
:20165C00C8F800007F1E03F8012BFBD1DAF80020002702F0FF03FE2B1CD0D4463B4601253B
:20167C0002F0FF04FF2C0ED0A04205D3A14203D805FA04F4264201D0022062E002F0FF0251
:20169C0027430BF802305CF8042F5B1C02F0FF04FE2CE7D1092003F0F9FD3048C0F800A0D8
:2016BC002F48012107F0F2FC364C00254FF00109A84609FA05F0064214D1074207BF05F089
:2016DC00FF0141F4C0411BF805005AF82010254802F0E2F9E8B24FF0FF3107F0D1FFC4F858
:2016FC00008001E0042020601A4800686D1C241D8542DED904A808F070FB1B4C20781C4A43
:20171C0005901A48102104AB06F012FF684608F085FB6068184902901648CDF80C806A468F
:20173C0006F0AAF9154951F80D0C20F4F85040F4005041F80D0C124AC1F8FF9F4046C2F80F
:20175C00009007B0BDE8F08F55430020F4350020A84F0050F0350020C842002044430020A4
:20177C0000420020007FC76778C300000843002099990000504200207D8200000D3009402F
:20179C002C000940844100202DE9F04F724C002704F19400ADF1140DB946B846056802974E
:2017BC008246CDF80C903DB3D4F8A800B84203D1D4F8A400B8421DD0D4F8A4600EB3D4F8FE
:2017DC00A4102869096988421BD195F83300400917D3D4F8A860A6B90127D4F8A400C0689A
:2017FC0040880028F9D0D4F8A400C06840880128F3D006E0012704E004F1DC00022108F0EA
:20181C0034FC002D43D087F0010B03A802AA594604F004FC5FEA000809D0012F07D0039902
:20183C0029B104F5AA7008F025FA4D462FE0002D2DD04A48066856B3B8F1000F27D0039869
:20185C0028BBCDF800B002980190D4F8A400D4F8A8100AF108035246B047401E02D0401ED2
:20187C0008D014E0029800B9284601214B460091014605E001230093D4F8A400D4F8A410A8
:20189C000069B1F930104A4601F07EFD60E0002F5ED0002D5CD060682969884252D1B8F1F7
:2018BC00000F0BD0039848B1D4F8A40030B9D4F8A80018B9082007F029F949E0082008F066
:2018DC00A3F895F8330004F1DC06C0F3001028B9504607F073FEC4F8A40004E0504607F047
:2018FC006DFEC4F8A800A8691D49C0430860A8694A6810434860E869C04341F8080CE8696B
:20191C0051F8042C104341F8040CEC680820294607F08EFD204607F067FD2088A0F6020028
:20193C0040B141F21E01401A04D041F6E671401A012803D80120214607F07AFD4FF0804138
:20195C00304603E004F1DC004FF4806108F08DFB05B0BDE8F08FC046001F0020EC3500203E
:20197C00101004402DE9FF415848574908605848FFF710FE4FF08058D8F8D801554C036879
:20199C0001210A4620469847D8F8D8014268012120469047022007F019FA032007F016FA6C
:2019BC004D484E49016000258560C5600561856105628562C5624562494941604949416180
:2019DC004949C161494901634949416349498163284603F069FD05F0A3FE06F07DFE40F295
:2019FC0005104549ADF8000005208DF80A000220ADF8080008208DF80B000A680DF10200D6
:201A1C000260898881803D483D4C0390201D07F065F94FF42F70A0804FF0FF30A060E06053
:201A3C00C820E0804FF4E120E06200F0EFFD354E042106F13400476827B1491E00F1080026
:201A5C00F9D103E0192101702F4F476008F006F8592186F82E10802186F82F1008F09AF9D8
:201A7C002A482D4F039E20609DF80A30BE61BDF8082087F82830BDF80010FA840DF1020452
:201A9C00B984226807F129010A60A08888809DF80B0006F0D1FF29469DF80B20386204F084
:201ABC0015FF01261A499DF80B000E60194987F82F004046086006F0D3FD08F0F3FB284646
:201ADC000090BDE8FF81C046E4350020B181000010C10000004003408C420020C554000069
:201AFC00E57B00006D6700004D6A0000419B00008D6C0000F5810000E8120050F59F0000B6
:201B1C00C8320020E03100206D700000E59F0000701A444290200240A02700202DE9FC4FB3
:201B3C0083F0004301E02DE9FC4F1F03FF0847EAD2574FEA42284FEA43095FEA595906D114
:201B5C0047EA080A1CBF00210020BDE8FC8F57F000575FF4E06E1EF1FF0EF14505D14FF034
:201B7C000000190D0905BDE8FC8F002B05D55FF0000AD8F100086AEB07070C03E40844EA2A
:201B9C00D0544FEA40254FEA4106760D08D144EA050A19BF00210020191C101CBDE8FC8FA4
:201BBC0044F00054764504D10020090D0905BDE8FC8F002904D55FF0000A6D426AEB040416
:201BDC00B6EB090E08D5A2463C465746AA464546D046CEF1000E4E46BEF1360F5CBF4FF00D
:201BFC00000B23E0BEF1000F04BF4FF0000B1AE0CEF1390ABAF120092EBF08FA09FB07FA2C
:201C1C000AFB4BEA080BDEF1200A07FA0AFA38BFBA4647FA0EF72DBF28FA0EF8AEF1200E3F
:201C3C004AFA0EF8D04415EB08057C4154EA050A02BF00210020BDE8FC8F002C58BF4FF05F
:201C5C00000A06D55FF0010A5FF0000E6D426EEB0404A6F101066D006441FAD515F4806E46
:201C7C0011D005F480794BEA090B15F5806554F1000428BF761C0BD205F400795BEA090BD3
:201C9C0008BF25F4006525F4E0656D0044EB0404B61CDEBF00210020BDE8FC8F5FF4E06E60
:201CBC001EF1FF0E76450AD34FF0000013F00043FF21C900C91D09051943BDE8FC8F27053A
:201CDC0047EA1530210B41EA065141EACA71BDE8FC8F704701282DE9F84F40F0B080DFF8BA
:201CFC008491D9F83401012840F0A6800220C9F8340107F051FE012006F012FE5FEA000858
:201D1C0005D00120C9F8340107F054FE99E0112008F0F8F800280CBF00250125102008F07A
:201D3C00F1F808B145F002050F2008F0EBF808B145F00405444CA06A00680146012088476F
:201D5C00012805D099F83801012818BF002703D1002001F011FE012708F0CEF8DFF8ECA03B
:201D7C0040080AD20026206A80680146504688478346BBF1040FF6D000E0012630460021F3
:201D9C004FF0FF3200F022FF012E0ED0BBF1010F05D1206A40680121024650469047324983
:201DBC006C39086840F003000860206840690146284688470B2008F0A5F8254E30B1206806
:201DDC00C06A3146091D0246088890470A2008F099F828B12068C06A31460246088890470D
:201DFC001C4903200124C9F834011B4E0C6000233360284605F060FF0128FAD1174D2868EF
:201E1C00042006F08DFD0646154804602868012F02D1204601F0B0FD08F056F8082006F0FA
:201E3C007FFD0746C9F8344107F0C4FD57EA060018BF4FF0FF3804E06FF0040801E06FF0AC
:201E5C0001084046BDE8F88FB801001000400340E2BF0000282008600C2008402C20094005
:201E7C000C400940A02C002090220840F8B5074661485F4C001DC26A0168B7F5C067C2F343
:201E9C000722C4F81071C1F38441C4F81421C069C4F81811C0F38120C4F8280100F0A380FC
:201EBC0094F830616EB9C4F82C71D4F81801C4F82001D4F81461C4F81C61D4F82851C4F82C
:201EDC002451D4F82C01D4F81451002854BF02236FF0010304F59072116800EB4000C0180D
:201EFC00431000EB937001EBA0011160D4F82011C4F81C5100291CDD1E293DDDD4F82401ED
:201F1C0030B93429B4BF15391E21C4F8201125E02A29BABFD4F820010B381E20C4F8200156
:201F3C00D4F81C013E28D4BF401C3F20C4F81C011FE0D4F82401032812D011F10A0FA6BF92
:201F5C00D4F820010B300120C4F82001D4F81C010028CCBF401E0020C4F81C01032009E040
:201F7C0011F1140FA6BFD4F8200115300120C4F820010020C4F824014FF08057D7F8A40100
:201F9C00B4F81C111B4D40684FF47F4208230646009128463021B047D7F8A40101214FF4A1
:201FBC000032112340680091064604212846B047D7F8A401B4F8201140684FF4F802122325
:201FDC000646009104212846B047D7F8A401B4F8241140684FF440620A2304460091202153
:201FFC002846A047F8BD002084F83001F8BDC046A02C002000A00C4000A00C402DE9F8431E
:20201C005F4CDFF868815B4DD4F83C0100286ED0574E401E0AD0401E60D0401E1CD0401E0F
:20203C0053D0401E1AD0401E33D02FE04E4801250221006884F83A51702204234068009169
:20205C00002107464046B847356004F1500007F0F2FF2846BDE8F883022100E003214FF0BB
:20207C008059D9F8A40184F83A1140680025702204232946074600954046B847D9F8A4015C
:20209C00C0687022294613460125DAE70320BDE8F88300262E606E6028688008FCD2686840
:2020BC008008FCD2374834490127001D06600E200F6002F00DFF022006F070FEC4F83C618D
:2020DC0084F83B610220BDE8F8830520C4F83C010027376030688008FCD242E00320C4F8BF
:2020FC003C010027376030688008FCD239E0234F01260F202E6042F62A21C7F80B004FF0E0
:20211C008059C7F80F10D9F8A40140684FF4C072072302218446404600910021E047D9F812
:20213C00A401C06800214FF4C072072384464046E0472E6028688008FCD394F83901C7F885
:20215C001B6018B9032100200E4602E0002028630321C4F83C6147F8011C686068688008F9
:20217C00FCD20020BDE8F883A401001000A00C4058600C4054600C4004800C4001400C4033
:20219C00A02C002038500C402DE9F04F5F4C0C3C94F8318094F832A04FEA880000EBC8000C
:2021BC000019B0F84C00ADF1240D0025ADF81C0004F1300008904FEA8A0000EBCA000019F3
:2021DC00B0F84C60657006A806F0D2F9AB46BDF81C106078162951DD002840F09080BDF817
:2021FC001C0001AAC01F81B2ADF81C10404603F099FBBDF81210BDF81C200D46E81D05F1F6
:20221C00100387B2934273D89DF80E0096286FD19DF80F00420827D2800825D3BDF81C005D
:20223C00CDF800B0401B1FFA80F99DF80D20BDF81C004346401A80B206F04EFC70B9E068C7
:20225C00C6F1885209EB48393B46D21B494602F5005207F09CFEF619B6B205E0BDF81C0058
:20227C00401EADF81C0043E0BDF81C00401BADF81C00BDF81C1060781629ADDC00283ED15B
:20229C004FF6F0704FF40051C6EA0040C6EA0141E1FA40F01FFAA0F283B2102102F188521E
:2022BC00504605F00FFE617808436070069807F045FC08994FEA8A0000EBCA004018868326
:2022DC00BDF81C70A4F84470A4F84060B4F9422094F83D100123504606F0AEFF94F83E10F6
:2022FC00B4F944205046022306F0A6FF58460AE0404607A904F07EFF01283FF468AF06981B
:20231C0007F01CFC102009B0BDE8F08F8C3100202DE9FE4F064693460868DBF8004007781E
:20233C004FF000081D46C246242F00F1010008602AD10778401C532F086025D1E41C24F058
:20235C000304241D54F8040CE861CBF80040288B0090A968EA6930685B4607F09FFF824634
:20237C00306838B1A8685045D8BFA0F1010A306850443060DBF80040286846464FF00108B5
:20239C00EE60A0EB0A002860662F06D0B8F1000F6CD1E8690770012067E0288B012808D072
:2023BC00E41D24F007040834A4F1080090E800030EE0E41C24F00304241D54F8040C019056
:2023DC009DED010A10EE100A06F0E2FA804689462BA20CCA4946404603F030FF28BF0027E5
:2023FC0005D2286989F000490127401E286126A20CCA4946404603F064FF33D3404605F0FE
:20241C0095FF064607F0BCF90B46024649464046FFF784FB1EA20CCA01F0D6FE05F086FF1C
:20243C000146686904220A2304F038FD411EE9612E2300F8013C69692A69E8690A23091AB7
:20245C00E960521A314604F029FD002F08BFE86105D0411EE9612D2700F8017CE869696971
:20247C00081A02E004A0E8610720E860CBF800405046BDE8FE8FC046286572726F72290094
:20249C0000000000000000000000C0FFFFFFDF41000000000088C3402DE9F84F5A4C4FF670
:2024BC00DF760025A6F1600808F170072C3C07F10809A06A4FF0FF3107F0ECFE0028F8D05C
:2024DC00A088400A01D305F005FA07F0C7FAE1882389E580A2882581114343EA0102A280FE
:2024FC0007F058FCA188080A04D308EA010021F08001A080C80907D3606A07F007FBA18827
:20251C00656221F04001A180480921D3E26907F0E1FCC0B9104607F0CDFE28B994F90030D2
:20253C00002B03D4E0690BE094F90030A18801F02000034307D1606907F0BCFE10B9606928
:20255C0002F006FCA18807EA010021F01001A08088092BD394F90000002827DC07F07EFA58
:20257C008346206A07F087FA8246584607F012FCBAF1000F0BD0504606F04AFE20B994F93A
:20259C000000401C207002E0504607F062FDA0883040A080206A07F08DFE30B9A08840F060
:2025BC002000A080A06A07F071FEA188080980D394F9000000287FF47CAF07F04FFA834666
:2025DC00A06907F058FA8246584607F0E3FBBAF1000F06D0504606F01BFE10B1504607F0CF
:2025FC0038FDA08809EA0000A080A06907F062FE00287FF45EAFA08840F00800A080A06ABD
:20261C0007F044FE55E7C0460C3200202DE9F043514C6078ADF17C0D002840F09A8001204D
:20263C0060700026A680314666620A46104607F029FEA0623146084607F020FE606131464B
:20265C00084607F01BFEA0613146084607F016FE20623146084607F011FE404DE061AF68FD
:20267C000197EB6802932A7C8DF80C20697C8DF80D10E888ADF8000005F114008CC804A9C0
:20269C008CC18CC88CC10DC881E80D0034480D90344F0E9707F0E2F9334F0DA906C9804605
:2026BC0007F1140080E80600BDF80000388007F02DF9B8603A88B868314604F007F9BDF8E0
:2026DC00000007F023F9F8603A88F868314604F0FDF8264F26489DF80D90B86005F0E2FDF0
:2026FC002448254B079004A90893484605F0C0FE20213246786007F04FFC07F0AFF9814689
:20271C00802278683E8007F10C0107F04AFC484607F040FB404607F03DFB04F13400314606
:20273C00202204F0D3F80FA831463C22082307F0A1FDA88807F0EAF8206150B11690A888CF
:20275C0002270FA9324617900C48159707F08EFDE0601FB0BDE8F083E0310020C832002069
:20277C00119B0000AD4600004C350020F43000205D960000453700003D960000B52400009E
:20279C002DE9F0435A4C94F84201ADF1140D002840F093804B484C4E4FF00108027B3368A8
:2027BC00416884F84281814684F84121C3F38147C4F86C11BFB9D9F81000A0B156F8085C5D
:2027DC0007F076FB64210246C5F306604143B1FBF2F23E49002304F1940005F0C9FD3C4903
:2027FC004FF00040086001A807F0C2FB00252F4604F10C00029501AB8DF80470354903958C
:20281C003A4605F0B5FD01A807F0B2FB04F150000822029501AB8DF804702F49039505F078
:20283C00A7FD2E4A04F1D80032213B4605F080FE2C4A2B4F04F1F4002C212B463D6005F023
:20285C0077FE294899F80D3000783068C0F381501BB1032803D184F8398103281FD00228CF
:20287C001DD001281BD14FF08059D9F8A4011F4C406803214FF040521C2307460091294618
:20289C002046B847D9F8A401406829464FF4007209230746CDF800802046B84706E03868CC
:2028BC0040F040003860022006F090FA56F8040CC00802D2284606F089FA05B00020BDE8F7
:2028DC00F083C046F4C20000B44F0050019C000000A10C40D74B0000B97F0000F5920000EF
:2028FC0090220840C16A00005543002000A00C40A02C00202DE9FE4F04F02AFA04F028FA76
:20291C008046584800257024A0F1140B0BF1140610E0387801F04AF997F90000294605F0EE
:20293C00E3FC387810FB046050F8100C7860384605F0F0FEDBF808707968404606F02CFE0E
:20295C000028E6D19BF81400012818D1387810FB046050F8101C40F80C1C387810FB0461B0
:20297C0011F8671C05F0DCF8397811FB046101F8580C38788BF803003878BDE8FE8F3C789B
:20299C00B946BF68009441E097F800A099F8000051468046CDF804A0CB01A3EB011306F056
:2029BC00E9FD4FEAC814A4EB0814A4199B196C3C6C3B08BB504606F0DDFD00BB9889A18966
:2029DC00884211DB81420ADB1979207981420FDB88420FDBD86DE16D884209D20AE0227934
:2029FC005143814204DA05E01A795043884201DACDF80480019C03E0504606F0BBFD0024A5
:202A1C00A24508BFB946BF686D1CEDB2B9F1000F09D047B1052D06DA99F80000397804F0CC
:202A3C004DFC0028B0D10098844204D0214604F045FC012800D10094009DEC01A4EB0514FA
:202A5C00A41954F8100C14F8671C44F80C0C284605F066F804F8580C28468BF80300BDE898
:202A7C00FE8FC0461C2400202DE9FF4107467D68BE680C4607F0E5FA2978012903D107F0DB
:202A9C0029FC002091E00121297007F023FC207868706078A87060686860A068A860E0684B
:202ABC00E86020692861207D2875607D6875A07DA875A069A861207F2877607F4FF00008FC
:202ADC0043466877A07F2B63C5F82080A8771C466C626C63AC62AC6385F82C4085F82D405A
:202AFC0085F8B84185F8B941706802F0CFFB384602F028FC384602F00BFB78B92C48006822
:202B1C00C068014630688847706802F0E1F907F098FA2C7007F0DEFB274645E0684607F0F3
:202B3C005CF9327B05F17C00B1680192214A00976B4605F0FDFC684607F070F9316902917D
:202B5C001D49009705F198006A4604F095FFA87830B905F1D400214606F098FA17482861EC
:202B7C00687830B905F59270214606F08FFA1448E860684607F0FCF901948DF8004005F5FC
:202B9C00BA70104902970A226B4605F0F1FBB169F26905F13C0007F006F90B4A05F16800EF
:202BBC0004213B4606F05CFB38460090BDE8FF81D0010010952E00003D73000005A00000DA
:202BDC00D39F000021810000699E00002DE9F0478246484E4E4C56F80C0C904689468008E6
:202BFC002AD245480068810D28D2051704F134000068006880476D1CC0F13E0110F1020FD9
:202C1C004FEAE101D8BF07218D42B8BF0D1C3B480068C0F30320401B102803DA0028D8BF5F
:202C3C00012000E00F20364900F00F0040F0F00081F84D00087801E03248306000203249DE
:202C5C00324F256808603868A96927208847324D304805F1300211682B460840106003F165
:202C7C007800006820F48070A8672068016B4FF4806088472068016B4FF4816088472068F0
:202C9C00016B4FF4C0608847244901200860C5F88091286056F80C0C800806D2B8F1FF3F81
:202CBC0014BF40464FF0404030603868E8698008FCD3072004F0E4FD0228FAD1BAF1010F5C
:202CDC0013D0206A164E8168304688470428F8D0012804D1206A4268032130469047D5F875
:202CFC00180220F00300C5F818022068806B8047BDE8F0871C000940B44F00500C13005037
:202D1C000D620840FD0000400C4009402C200940B8010010FFFFFEFE0C2008402820086092
:202D3C00004003402DE9F84F504CD4F89C00D4F89C60002800F095800546E86840F60301C9
:202D5C0008274A1C02E040687F1EFFB260B15FB10388994218BF9A42F5D129692CC8303103
:202D7C002CC189C881E8890006F1280090E800034FF0000A06F12807D34687E8000CB16851
:202D9C0021B357464FF0E24A07EA08001AEA090508BF002813D036A090E80C0002EA08020E
:202DBC0013EA090308BF002A04D0B5683069B6F93010A847504607EA080800EA0909B568E5
:202DDC003069B6F930104B464246A84707F039F90546B4F9B200401C6FF31F30A4F8B20019
:202DFC00214886F833B06FF00207378606F0E6FB284607F06FFAB4F9B000B4F9B21088428D
:202E1C002FD16068D4F8B460D4F8B87090F8F41000290CBF0520072003F096FA58462EB12E
:202E3C0096F8F45005B9306886F8F4B05E462FB197F8F45005B93E6887F8F4B0864238BF8F
:202E5C00061C66B1B6F1FF3F0BD007F031F8B6FBF0F104F5CC7006F00DFFBDE8F88F06F052
:202E7C00B7FDBDE8F88FC0469C1F0020001F0020F0FFFFFFFFFFFF8E2DE9F0478046D8F8DB
:202E9C0008603068076CD8F8045047646A6CA96B286C17F4F06FA0EB020937D1F8091FD25C
:202EBC00780979D3B9B196F82100464A145C601E814294BF0C1C641E4046214605F04CFDA7
:202EDC00A86B001BA863A86B002865D105F19800012107F0CAF84046494605F065FE5BE01B
:202EFC000029F8D0404605F037FD014695F82D00A96318B9A86B00284ED101E00020A863D2
:202F1C0005F19800012107F0B0F845E0F80A21D24FF0000A544603E0A86B401EA863A96BD6
:202F3C0091B14046012105F017FD3068446814F00F04C0F804A0EFD0296BAB6B686B491E28
:202F5C002963401E6863EBB905F19800012107F08CF813E0306844680022202904F00F0428
:202F7C004260CCBF4FF0200A8A464046514605F0F3FCCAF120008145C8BF814649464046CA
:202F9C0005F012FEEC77404604F008FF706A18B10246214640469047B80910D3AF6A77B198
:202FBC004046394605F02CFDA862AD6A3DB996F820000549095C4046C91904F0FBFABDE864
:202FDC00F087C046A0C30000ACC300002DE9F0470646880FC0F09080002004F0D3F9474827
:202FFC0006F00CFF464C40F60A09A4F8009000256580207B05F00F0120F00F00014321730C
:20301C006560607B4FF0010808F00F0720F00F0047EA00013046617302F0DAF8D6F808A0C9
:20303C004A462146D01F574600F1010C00E027467C6834B123889A4203D0984218BF9C45F1
:20305C00F5D179607A7B2F4C05F00F0322F00F0213437B73D4F8943033B1DA6812889042B5
:20307C0024D06046904221D0338E03B3756306F13002558096F83C0005F00F0320F00F009A
:20309C00034386F83C3096F83D0008F00F0320F00F00034386F83D304A60487B05F00F0648
:2030BC0020F00F0046EA00054D7300E0A56006F035FE1548606294F82D0080B913480068FE
:2030DC0001684046884701280FD0787B08F00F0120F00F00014379730D4E666205E005F0C7
:2030FC0087F90028FBD004F07DFF504606F086FE5146404606F09CF9BDE8F08701010E04E9
:20311C0024430020001F0020FD040000E0010010ED7900002DE9FC4706467568D6F808809D
:20313C002F780FB1AF6B1FB14FF0FF30BDE8FC8729630024EC77171C6C631BD005F13C0951
:20315C0006F07FFF82466946484605F071F9002820D4504607F0BEF89DF80000296B08707B
:20317C00686B296B7F1E00F10100686301F101012963E5D169786A6B286B0129A0EB02003C
:20319C00286305D1E868296B0346304698476A6B144659E0AF63D8F80010086B40F40070BF
:2031BC000863D8F80010886B40F4FA608863504607F090F805F5DC7006F002FB687805F514
:2031DC00DC7768BB06F03DFF95F82D1069B1696B59B1A96B49B1AC6307F07CF805F5DC709B
:2031FC0006F0DEFA686BBDE8FC8707F073F8696805F59276304606F0DFFD0028F2D0AC6374
:20321C003046214606F0D8FD0028EBD0384606F0C7FA1022696B286BEA77401A2863E1E72B
:20323C0006F00FFF95F82D1061B1696B51B1A96B41B1AC6307F04EF805F19800012106F0C4
:20325C0014FF01E007F046F82046BDE8FC8770472DE9F04F05468846ADF1140D1C46D5F888
:20327C0008B00E990092DBF80400019108EB0401884238BF6FF003047BD3404E30684FF006
:20329C00FF3106F099FD3E48019F01684FF0000978081CD23846CDF80C90800827D334B3C9
:2032BC003046DBF800200099066823464244491E521E11F8010F12F8015F054085421CBF52
:2032DC006FF00604301C52D15B1EF2D10FE034EA010701EA040202D02A480068121801EAF7
:2032FC000801284604F038F9002803903CD1DBF8005004F0BFFE27464544DDF800A002907D
:20331C0002E0BF1BB244AD1997B1082F8CBF08263E1C06F096FE049029463246504606F036
:20333C00CBFA8146049806F0D5FFB9F1000FE8D0029805F0E5FFB9F1000F12D10198C0089E
:20335C0012D38CB1DBF8000000994044491E401E10F8012F11F8013F9A4202D1641EF7D100
:20337C0002E04FF0FF3003900448039C006806F076FE204605B0BDE8F08FC04638430020B1
:20339C00404300203C4300202DE9FE4F0CAF1D468B465FEA02083E78009014BF4FF0804A08
:2033BC004FF0005A06F04DFE0324DFF804910190BBF1FF3F14D1D9F8A410009806F026FDEE
:2033DC0058B9D9F8A810009806F020FD00280CBFD9F89470D9F8A87008E0D9F8A47005E029
:2033FC0000985946002205F0FFF80746002F59D097F8330030F07F0053D04C46D4F8A40041
:20341C00B84219D0D4F8A800B84215D000982A463346394602F030FD002842D094F8200055
:20343C0001283CD094F82000042838D0214904F1DC0006F01AFE32E0D4F8A40053460022D5
:20345C0005F0F0F8D4F8A8005346002205F0EAF8B8F1000F14BF1848184805F0C5FFB6B102
:20347C00D4F8A40000224FF0807305F0DBF8D4F8A80000224FF0807305F0D4F83869C4F8BE
:20349C00D40094F8D80040F0010084F8D80035B1D4F8941000982A46334602F0EDFC8324FA
:2034BC0000E00424019806F015FF2046BDE8FE8F001F00200200004001000204010001041F
:2034DC002DE9FE4F0CAF90460C46814697F800B0019303F03DFC02904548017D092980F283
:2034FC00818001258246284606F044F8032803D06D1C092DF7DB75E0029A681E4CF250315C
:20351C00C6B2F0015218A0EB061050441430A0F87090F101C460A1EB0611C2650AEB0103D2
:20353C005A67C26D0AF114090AEB0103B8F10C0F426603F12404A4F8008053DBB8F5C85FC8
:20355C0050DC019BB8682371E0655A22E28084F808B084F80AB07968284604F0B7FA4FF40F
:20357C00A070B0FBF8F0401C82B2501C08FB00F060800298F96806F084FD40F6C41101FB44
:20359C0008F1814204D2B0FBF1F01218521C92B22846114604F0C4FAF101A1EB061149447C
:2035BC00087601278AF801708AF802508AF8035006F09CFE00900C2005F0F8FC0746009893
:2035DC0006F088FE77B1E8013D70A0EB0510484450F8100C7860384605F09CF8284600F0C8
:2035FC00DFFF10B10120BDE8FE8F0020BDE8FE8F08240020464A2DE9F04178CAADF1280D33
:20361C0002A978C13CCA81E83C00434E414CD6F826100025E161D6F82A106585012884F8DF
:20363C0020104FEA112284F821204FEA114184F8221026D094F8340065F3030084F834001B
:20365C00378C606A29462163A7B140F6C41101FB07F2824209D394F8230020F00F0040F0D8
:20367C00040084F82300642001E001FB1700606201462DE094F8230020F00F0040F00100FE
:20369C0023E094F8340020F00F0040F0020084F83400D6F82200206394F83410012060F393
:2036BC00C71184F83410378C37B994F82320294660F30302104608E094F8232040F6C411F5
:2036DC00794322F00F0242F0040084F823006162059106F00BFE8046104FB07F114BF870AA
:2036FC000F4829468DE80300606802AA04F12801FDF748FE2080404606F0ECFDB4F90000F2
:20371C0000284CBF02200120B8700AB0BDE8F08164C20000182B0020A0330020102E002045
:20373C0002008080155600002DE9F84F164606F095F9474D009047482F88B0F8009080465B
:20375C005EB3B819814538BFA9EB07067FB905F10C0BD8F808009BF800100446FE2916D1F5
:20377C00F3190BF10101721E5B1E9A4609E0D8F8080005F10C0B05F10C01324607EB060AEF
:20379C000446C01902F01CF91FFA8AF72F8058460021324603F09AF803E0D8F8084005F1ED
:2037BC000C0B4FF0000A2CE06078217801EB0021091D88B2514604469047641CA1B22F8861
:2037DC00D8F8084008F108038F420ADD60187A1A401E10F8016FFE2E03D0521E01F10101B4
:2037FC00F7D1B94203D07F1A7F1EBFB200E05746091918682F803A46491C02F0E1F8B8F842
:20381C0000906078267806EB0026701D81450EDBB8420ADC301D81B2204606F05FF93619D0
:20383C003179814203D1504604E0032002E0A5F800A00420AA6808B9002AB5D16868594659
:20385C00802206F0AEFB009806F0A4FABDE8F88FF43000204C3500202DE9F84F454D814618
:20387C00686910B18047002853D0002051D1012085F83F0095F8317095F83260E8686A461C
:20389C000423790306F083FB009810F4403F40D138460621F82206F047F8009A05F1300411
:2038BC00B800F82300EBC700001900F1180802F0FF0088F80030702803D03846702105F02D
:2038DC0025FAE86871036A46042306F060FB009800F0FF00FE2803D03046FE2105F016FAA7
:2038FC0030460621FE2206F01FF84FF0FE0BB00000EBC60004EB000A001900F1180484F89E
:20391C0000B0B8F80400A5F84200FEF73DFC102802D10020BDE8F88FB9F1000F0CBF10200F
:20393C004846B5F84010C1F500518842CCBF78217C21304605F0EAF9384601F069FA687056
:20395C000621FC22304605F0EFFFFC20207085F8327085F8316085F83360BAF81C00594657
:20397C00E886384605F0D2F9E88EC0F5005000B2BDE8F88F803100202DE9F843434D444CE4
:20399C003E4EDFF8FC80DFF800910746012F44D139480068006801460120884701283CD075
:2039BC0096F83801002838D108342068C0F38140C8B940460068B0B154F8080C000834BF90
:2039DC004FF480504FF440502E4908600A2006F022FB4846006901460120884706F1940010
:2039FC0006F029FB01E005F0EDFC0121206886F83811C0F3814010B94046006848B906F03F
:203A1C007BFA800905D28020A860286840F080002860032005F0DAF92BE057BB03F04EFB01
:203A3C00A068C0F38140A8B94046006890B106F1940006F002FB2068000834BF4FF4825147
:203A5C004FF44151134A48461160006910B101460020884796F8380158B12868802720F0A2
:203A7C00800028600320AF6005F098F9002086F838010020BDE8F883E0010010A02C002076
:203A9C0004C30000A8A00C40F4C2000090220840AC4F005028A10C402DE9F84F0E460746A1
:203ABC005FFA86F9300824BF3A484640DFF8E8A04FEA8908394C5AF8081007F4E02507EAE6
:203ADC000602B5F5E02F04EA020486EA010007EA000021EA0701C0F3006044EA010401D188
:203AFC00610E14D307F4E021084310D004F4E020B0F5A02007D0B0F5803004BF24F4003495
:203B1C0044F4A02403E024F4803444F4C0242448012505FA09FBC0F800B006F092FA5146AC
:203B3C00220A41444A70230C8B70220ECA7006F0D1FB1C4CDFF8708020682946002501FA62
:203B5C0009F4044218BF0D1C35B9F80D04D34146C6F3805001F80900380E0DD306F071FAA3
:203B7C00310E34BF0021211C0E4A1268A24311430C4A116006F0AEFB35B1F80D04D34046E0
:203B9C00C6F3805100F809100548C0F800B0BDE8F88FC046006000A000100840007F077F2A
:203BBC00E0200260D0200240002002402DE9FC47044603F0CDF8804606F094FB3E4B009034
:203BDC00702014FB00F69A19143252F8201C404606F057FA32F8601C40F6C4156943B0FBDC
:203BFC00F1F0401C52F80C1C02F8670C404606F048FA32F8607C9C199B19294601FB07F5F9
:203C1C0032F8606C52F8207CB0FBF5F0401C12F8675C02F8680C32F8600C42F8147C45439D
:203C3C0001FB057042F8140CA0F6983042F8140C12F8670C33F8462C4FF4C87A583C8946E3
:203C5C0070435043B0FBFAF0401CD86012E06079A6892779A16D638A401CAD196071781CBD
:203C7C00207109FB0610A06505FB03F0B0FBFAF0401C6066676EA66D4046F61B314605F0E3
:203C9C008BFC0028E3D106F5DA61404605F084FC0028DCD142F20F40494600EB4700B0FBB0
:203CBC00F1F0401CE081607DA0750098E66506F015FBBDE8FC87C046082400202DE9F843A4
:203CDC003F4C3E4D407AE178A268AB6B66680E386ED0401E60D0401E07D0401E55D0401E89
:203CFC0051D0401E4AD0BDE8F88306F0FFFA814606F0F8FA8046A86B0168084606F0C3F90F
:203D1C00002833D00079032830D1084606F0BBF900F108010E78407A0830C7B2B00924BF38
:203D3C007F1CFFB204F11C003A4601F049FEA86B056806F0DBFAAB6804F11C062BB1A968F0
:203D5C0000220A71A9680968A96006F0C3FA484606F0C0FA404606F0C1FA6FB3E1786468B0
:203D7C003A4600203346A047BDE8F883484606F0B1FA404606F0B2FABDE8F8830120FFF779
:203D9C0039FCBDE8F8830220F9E7186804F05AFFE178A26800200EE0022700220420A770EC
:203DBC001346B047A86B006804F04CFF3846E6E70220A07015209047BDE8F883182B0020D1
:203DDC00102E00203F482DE9F04F001FADF1140D00F1A40100F1940B8046029100F1A80196
:203DFC0003914FF4804005F071FFE8B14FF00450D0F89813D8F8046090F88503C3F3885733
:203E1C00C1F31501C0F38002C1F31501B8050143B06841EAC2716A4600F066FED8F804006E
:203E3C008168012005F004FB002702260DF10409234D049759F8044F236883B3206880692D
:203E5C0005F044FF824620680023524604F0EAFB1AF00A0F08D1BAF1000F20D0206847F4C1
:203E7C008047C8F8AC001AE020681449AB688069014023EA0100A8602068C1692A6822EA71
:203E9C00010028602168102005F0D2FA21680BF1080005F05DFA049847F002072060761E3A
:203EBC00C8D127B108F1DC00394606F0DEF801F0F7FBFDF769FC05B0BDE8F08FFDBFFFFF86
:203EDC000C100440041F0020F0B50D460646ADF1140D06F00BFA0490032005F067F80746CD
:203EFC00049806F0F7F9002F6CD03E707020364C7D7015FB0040A0F1580110F8442C10F852
:203F1C00550CBA701E28C4BF03203870387803280BD026781EB901202070002004E0887886
:203F3C00401C8870C878401CC8700E6D2EB1C878022802DDCE64002008656078A17818B919
:203F5C00207D002830D028E08D422DD10025A5702B461EE0F07A009006F10C030193706995
:203F7C000290B069039071683289B37A3078FFF7A7FAA070E068C069E06000B9256106F0F1
:203F9C00B5F90490304605F015FE049806F0A2F9A378E66836B93BB96570FEF7ABFC00F06B
:203FBC00FFFA01E0002BD5D00320394604F00CFC40B906F09BF90490384605F0FBFD04987F
:203FDC0006F088F905B0F0BD082400202DE9F04715468046287A0C46ADF1180D00F03F014B
:203FFC00E8880E9F6FF39F2040EA0130A9889946172C6FF39F2141EA003A5FD3324EE41F7D
:20401C0040466A46A4B2214601F08CFC9DF80B1088083DD348083BD22A7AEB8819F00F003C
:20403C0018D0401E12D0401E07D0401E18BF042047D1009850450DD02AE09DF80800904213
:20405C0026D1BDF80600984204D021E09DF8080090421DD197B109F0F00010280ED1BA89FB
:20407C00BB686846002103F0EDF978B9F988B868BA884018396805F023FA38B968460EC8C5
:20409C000EC503C885E8030000201AE09DF80B10C8080BD3BDF80E00844204DC2146404628
:2040BC0003F030FE02E0241AA4B205E00020FFF7D3FB96F83380F48E162CA0D80020A881BE
:2040DC000A2006B0BDE8F087803100202DE9F8431D463C4B9433089C1B68C3F38018DB099C
:2040FC0015D20388A3F6020343B141F21E069B1B04D000F11A030B60C06903E000F1120334
:20411C000B604069106000202860206056E00388A3F60203F3B141F21E069B1B17D041F6A9
:20413C00E6769B1B05D0876AC36A90F82460BC4603E0D0F820C0436A002600F11A070F6071
:20415C00C1691160C5F800C02360007E0DE0466A836A01E08669C36900F112070F60416981
:20417C0011602E602360C67B007C00F00707286888B140F203714FF6FF72052305F033F879
:20419C008146B9F1050F06DA3046394602F037FD296841F82900206880B140F203714FF6EC
:2041BC00FF72052305F01FF80546052D06DA3046FF2102F024FD216841F825004046BDE826
:2041DC00F883C046402108402DE9FC4191EA03084CBF4FF000484FF000084FEAC32545EA97
:2041FC0052554FEAC2264FEA43077F0D11BF45F0004500210020BDE8FC815FF4E06E1EF16F
:20421C00FF0E774555D04FEAC12343EA50534FEAC0224FEA4104640D11BF43F00043002136
:20423C000020BDE8FC81744543D0E419A3FB0501A3FB06E7A2FB06631EEB030E57F10007B9
:20425C0051F10001A2FB05631EEB060E57F1000751F10001FF1851F10001C01951F10001D5
:20427C004CBF4FF4806E4FF4007E10EB0E0051F1000148BF641C01D4400049415FF44077A9
:20429C00FF37E41BDEBF00210020BDE8FC8117F58067BC420DD24FEAD02040EA41504FEAE0
:2042BC0041014FEA113141EA045141EA0801BDE8FC810020FF21C900C91D090551EA08010E
:2042DC00BDE8FC812DE9FE433A4D3B4C81468846164605F1080004F10801086002F016FEE0
:2042FC0005F0E0FD0028FBD029460A7905F0DAFD01285DD002F03002102A0CBF0125022553
:20431C004879002854D1892004F096FB071C4FD0A468A7F800904FF40070A7F8070087F8F0
:20433C0002803E714FF00009A7F80590B7F80700B7F80510FD704FF00908401A202802DCFD
:20435C0086B20EB911E020262146354648464A883B18A3F80B2031F8043B6D1E07EB0002C9
:20437C0000F10400A2F80930F1D108EB860083B201213A46242001F0A1FCB7F80500801928
:20439C00A7F80500B7F80700B7F8051080348842D3DC05F0ABFF009005F0A4FF01903846E0
:2043BC0005F008FC019805F099FF009805F092FFBDE8FE83E00F0020C03400202DE9F04F06
:2043DC00994692468B46ADF1140D029002F0C0FCDFF8D88009EB0A020390521F127801A9D3
:2043FC000A709DF8041070201BFB0084583C09EB0A00CF1107D110F8061C802903D08129BA
:20441C0018BF4EB200D17F2650F8045C05F06EFF0090082004F0CAFD0746009805F05AFF83
:20443C00002F40D087F803A098F8010098F80030C7F80490012887F802B00ED16BB9E16CB1
:20445C00039805F01EFE47F23052824205D22165E5640120787084F84960012BF2B204D09D
:20447C00656584F84A2000200CE0E56400212165A07D6075667884F84920701C607088F8E3
:20449C00001001207870029839463870012004F09BF940B905F02AFF0090384605F08AFBDE
:2044BC00009805F017FF05B0BDE8F08F0824002070B5324C0D46A80850D2E8085DD301250A
:2044DC000420657004F082FC2D480068006B8047A060606804F194060146306870B1006986
:2044FC00064649B18E4207D0716AC90803D3036A0421002298477575314661604868214962
:20451C0000780860022004F061FC112000F0BEFE1D48007884F8205010B90E2000F0B6FEEB
:20453C0060684168886808B9C86810B1174805F065FC17490720002608601649174B0E6053
:20455C00154D4E600A68636245EA020008601A2005F079FD192005F076FD70BDFEF7E2FB1A
:20457C00204600F19C01096811B902F03BFD70BDDC3045F0020105F078FD70BD001F00207F
:20459C008C010010D02108404EC3000051000706000004601410044002400040E92F000054
:2045BC00F8B58DF800009DF8000004F0E3FF012628B19DF8000004F0DDFF03285ED19DF8EE
:2045DC000010324C702011FB0040A0F1580548380178102907DC052905DB4088B0F5077F51
:2045FC0001DC282801DA0420F8BD2548DFF898C04178012912D1C27881788A4207DD9DF8E4
:20461C00003099420ADC9DF80010914206DC007861466F461C31401839780170287DAB68E0
:20463C00D5F85CE0EA89AF6E252803D0262818BF272802D11349994220D16146C1F8263080
:20465C00C877C1F822E04FF60123C1F82A70934214DD0A84032001F04DFA78B99DF8000013
:20467C0004F088FF032808D1207D082805DA9DF800002870207D401C207500263046F8BDE7
:20469C00C0C10000D6BE898EA0330020082400202DE9FC41DFF8DC8000280E4647D03449FD
:2046BC000878401C08706846012104F0FFFA9DF800406846012104F0F9FA9DF8000004EBBD
:2046DC000024A4B204F1080080B205F01FF9071C03D03C8007F1080078605FB1B81C012178
:2046FC0004F0E4FAF81C012104F0E0FA7868398804F0DCFADFB14346BD78D8881C6A996A26
:20471C009A696D116D1E07D06D1E09D06D1E03D0384605F09EFC0AE040F02000224601E048
:20473C0040F00800D88010463A4604F057FC444666B1606AE18848B10F4A107841F0400190
:20475C00401C1070A06AE18005F0A0FDE06905F0B1FD18B1606905F0ADFD30B9E08840F0C6
:20477C001000E080A06A05F091FDBDE8FC81C04671360020E0310020703600202DE9F843E9
:20479C0007467D68BE6890460C4605F05AFC814630682B78026B02F4807203B11AB14846CE
:2047BC0005F098FD56E005F5BA7005F046FC2C620024EC776C623168086B40F48070086344
:2047DC00484605F087FD05F2B91004F0F9FF4146384604F015F905F2B919A862A8B9384651
:2047FC00414602F0E7FEA878D0B9A96805F1D40005F0E2FAE8B1AC621020E87731462846CF
:20481C0001F0C4F905F2B91022E005F01AFC3268916B41F02001916305F05CFDA87810B1F6
:20483C002046BDE8F883A96805F1D40005F0C4FA10B9686ABDE8F8833846414602F0BAFEDE
:20485C001020AC623146E877284601F09FF9484604F0A6FF4FF0FF30BDE8F8832DE9FC4723
:20487C00804698F80000032856D1D8F80440304D207890B960784119C97C05F1140651B971
:20489C0004F016FD0021C0B201F0DEFF60780121801900F8011C002708E02078032802D147
:2048BC00607804F0D7FD05F11406012705F01EFD814605F017FD82466078811911F8011CC4
:2048DC00012923D12E780EB3012F1FD0194D702610FB0650476802F03BFA6178A47811FBE4
:2048FC0006F16A186D18167D15F90E5C3F1A0C2004F0A2F8BF08011C08D00E80002088701E
:20491C004F600D7201204C7203F090FB504605F0E5FC484605F0DEFC05F0E8FC0090D8F8EE
:20493C00040005F047F9009805F0D4FCBDE8FC87E8170020082400202A4AB0B5D2F87C42D1
:20495C00B4F1FF3F08BF002404F0A8FF042847D1D2F878021268070F02F0FF027F2A88BFD7
:20497C00002204F09BFF4FF0FF3104280AD13846012835D9801E03D0401E03D1153200E076
:20499C000B3251B214292BDB2048174F0025103805603868806C80471448006820B1144894
:2049BC000068204600F034F8124813490560134F0A686FF35B4247EA02000860104908689F
:2049DC00C0F30130012806D10A680E48104040F400320A6008600C4908680028FCD1B0BD60
:2049FC00FEE7C046A0100050F001001080012843800520438C210840482003400000390101
:204A1C0028000940EFFFFCFC0C006842940460422D4A2DE9F04180462E4C5068800806D21D
:204A3C00106804F14D01000C40F0F000087028484FF001214FF08057C0F8041407F5F876DA
:204A5C000088D7F8F0019568204F016828468847A80E03D2680E24BF022020703068426808
:204A7C002946404690471F48F4300068C0F305313970410A39BF402184F823104021E174C0
:204A9C00800900F0380040F46050A7F85C0030688168284688471049104A0AE0105C947897
:204ABC00131D844299BF184410F8010C18444078086008684B689842FCD10228EED108499B
:204ADC0001200860BDE8F081AC4F00500EB00C4000A00C400962084000600C4070C3000048
:204AFC009404604218130050F0B50E460021ADF1140D0191029103911446049103AB02AA0A
:204B1C0004A9009101A9FFF7E1FA8325310824D2E0B1039F87B10499C6F3150271B1019856
:204B3C0040F22B210280384604F033FB0298049902F02CF8039826E0C6F3150240B1019871
:204B5C0000884FF6FF71814202D132E0C6F31502019802806280102029E0002829D0039991
:204B7C00A9B10499C6F3150699B101984FF6FF720280084632462B2104F00BFB02980499F0
:204B9C0002F01EF9049815212180606012E0C6F3150670B102982B21324604F0FAFAFF2869
:204BBC0007D001984FF6FF71018066601420208000E00325284605B0F0BD70472DE9FE4FA7
:204BDC00DFF8C08098F8410200284FD0002501212C4698F8412201FA04F0104203D1641C47
:204BFC00032CF6D342E098F841221020A040104218BF0D1C05F025FA98F841221121A14010
:204C1C008A4388F8412205F065FBE0B205F090F860B3877A57B390F9099019490768012D25
:204C3C00446851F82960019710D0017A02290DD100F1100191E8000C00274FF0805317EA1D
:204C5C000B0703EA0A0108BF002901D101F0BEFD012D04D0009600224FF0006303E000225F
:204C7C004FF00073009201984946A04798F8410220B108F58C70002105F0F7F9BDE8FE8FF0
:204C9C0094300440001F00202DE9F04105F016F94FF08058D8F8E8014068804705F02CF90D
:204CBC00054605F00C000C283FD0E80822D204F045FA234F3C6806460120014604F0DFFD98
:204CDC0039687143884215D21E4DF020B0FBF4F0311A284605F0C6FA284605F0BFFA00BF5F
:204CFC0000BF0120FCF7F6FF00BF00BF284605F0B1FA20E000BF00BF280918D208F5EC744E
:204D1C00206880680146104888470428F8D0690903D2002818BF002000D1012003F0C2FE9A
:204D3C000A4801210160006803E000BF00BF05F078F900BF00BF05F0C7F8BDE8F081C04605
:204D5C00C8C30000AC2C0020004003402C2009402DE9F843054604F081FE0446284604F0E1
:204D7C008AFE0746204605F015F8002F47D0254D686A18B104F0CAFE002068623888001D04
:204D9C0080B204F0C3FD041C0DD038782070388800126070B878A070F878E07079683A888F
:204DBC00201D00F00DFE6C6234B3174E38883188001D1FFA80F905F08DF898B9D6F8108034
:204DDC0049450FDBF06821464A46401C00F0F8FD0E48A6F806900121017008F10100306107
:204DFC0003F04CF8B8784011012818BF032803D195F90000401E2870384605F02AF9BDE821
:204E1C00F883C046E03100204C350020763600202DE9FC412D4C05466069002710B18047C8
:204E3C0000284CD0002F4AD1E068226A690305F0A4F8002841D40C2004F1300815FB00F061
:204E5C0026184044173001783036FE29AEBF0121491CC9B20170009840F0FF0061F31F20ED
:204E7C0019496A460423014300912846394603F029F8607038B9A800FF2100EBC50040444A
:204E9C008175032444762846FF214FF0FF323B4604F0D2F92846FF214FF0FF32012304F0CB
:204EBC00CBF92846FF214FF0FF32022304F0C4F91020B083FF24347602E0012700E00B27F2
:204EDC003846BDE8FC81C04600000F96803100202DE9B043044605F0B4F8284981466218F4
:204EFC0092F84A01401EC7B2002F82F84A713ED1264800EB84000478408834F07F078046E6
:204F1C0014D1E0090BD21E4800688069014640468847404602F0B4FC0228FAD121E001EB6D
:204F3C008801D1F86011002088471AE04FF08055D5F8B801006A014640468847D5F8B80183
:204F5C00806A014640468847D5F8B801006B01464046884701210B4A0B48116001688908ED
:204F7C00FCD304F03F00152801DAFFF7B1FF484605F0B0F90020BDE8B083C046A02C00203F
:204F9C00B80100102820086028200840B8BF0000FEB505462878002840D0401E41D168685F
:204FBC000028074650D097F90810284C7F2924DA11F17F0F21DD204690F8312090F93030C8
:204FDC00C2F1100616FB03F3066A12FB0131091180F830103988885D00090ED3ADF8081017
:204FFC0097F908008DF80A00787A02AA042301218DF80B00832000F061FE3988206AA68C88
:20501C000A5C06EA0200C0080BD3BE784EB9C8B27A7A97F90810FFF755F902E06868FAF73C
:20503C00FFFF686880B105F061F9009005F05AF90190686804F0BEFD00206860019805F0A8
:20505C004DF9009805F046F9FEBDC046A02700202DE9FF4105462D4F2878401E42D0401EEF
:20507C000AD0C01E44D16868008803F069FD002847D004F0EFF93BE06C68208803F060FD94
:20509C00064604F077FAE8B9701EC0B2C101A1EB00111D484218938CE28804F10C089A4216
:2050BC000AD1401825220021303001F00FFC3046414602F00BFD1BE0304603F08FFD1337AC
:2050DC000020B855E07A009004F10C070197D4F811000290D4F80210E288237A207800F021
:2050FC00D1FB05E068688078012804BF0120387005F0FCF80390686804F05CFD039805F03D
:20511C00E9F80090BDE8FF8108240020E8170020F0B585686A7D2C49ADF1140D42F000464D
:20513C002B7DAC7D009646680027FF2C41EA03024FF00203019202D0E87DFF2800D13FB1C6
:20515C00EA7DA87D11430423039140F000400290FE2106F154004DF82310694600F04EF9CE
:20517C003066306E002808BF381C2AD0174C29688C4214BF13220F22697D03F0F7FD28684A
:20519C00844214BF14221022297D306E03F0EEFDA97DFF2902D0E87DFF2800D187B128688B
:2051BC00844214BF15221122306E03F0DFFD2868844214BF16221222E97D306E03F0D6FD04
:2051DC00012005B0F0BDC0460000C0A000100040034630B50020ADF1140D01900246029200
:2051FC00039298685C7D428001880492A1F60201C9B141F21E05491B15D041F6E675491B9B
:20521C00012920D8417E012C62F38201417606D0018B21F47C7141F43471018313E0018B94
:20523C0062F30911F9E7417C012C62F38201417405D0018A21F47C7141F4347102E0018AE3
:20525C0062F3091101825A7504A902AA03AB009101A9FEF73BFF50B1019800884FF6FF7129
:20527C00814204D10298049901F0AAFD03E00298049901F08BFC04481830016809B10298C8
:20529C00884705B030BDC046001F0020F8B5064604F0D7FE264D0746711991F84A01421CFE
:2052BC00002881F84A213DD1224C04EB8604267806F03F00152801DAFFF7E8FF648836F0F7
:2052DC007F0014D1F0090BD21B4800684069014620468847204602F0EFFC0128FAD121E050
:2052FC0005EB8405D5F86011012088471AE04FF08055D5F8B801C069014620468847D5F8E5
:20531C00B801406A014620468847D5F8B801C06A0146204688470121084A094811600168C7
:20533C008908FCD3384604F0D5FF0020F8BDC046A02C0020B8BF0000B801001028200860F4
:20535C0028200840FEB54FF0805684684568D6F8D0112068C9688847216822488A6B1040D1
:20537C00886340F2F2712068204B41641E4994F8210094F82020085C9A5C21681043486338
:20539C00684604F052FE1C4FDFF868E0D6F8D0112B7FDFF85CC06A7FA87F496857F8237086
:2053BC005EF82260AA695CF820300D46206801993E433343A8472168C86A40F01000C862C2
:2053DC002168086B40F001000863A07D0027FF2802D0E07DFF2800D11FB1086B40F4404090
:2053FC000863FEBD0DF8FFFFA6C30000B2C3000008C3000088C3000030C300002DE9F04734
:20541C000E46071C14BF002E002042D0DFF888A04FF0FF31504604F0CFFC3178DFF87C9077
:20543C00FE2910D01F4802680020FF2906D08A422AD31E2928DC59F821502DBB401C16F832
:20545C002010FE29F1D100243C607C60BC603178FE291AD0351D4FF00108FF290ED01F29BD
:20547C000CDA08FA01F049F821707A680C49104356F824207860384603F0E2F915F8041BF9
:20549C00641CFE29E9D100E00027504604F0E7FD3846BDE8F087C046004200208441002033
:2054BC00007FC767F0350020F0B5284C06462078ADF11C0D032846D1002568461822257036
:2054DC0008236570294604F041FD6846294603F03DFD20612E22294604F1300001F0F6F980
:2054FC0004F13C00FF210A2201F0F0F903F08CFD3146284602F00AFD04F11801E06004F09D
:20551C0041FD226AE169B1FBF2F0C0B284F830000228C4BF022084F83000E070B2F5005FDE
:20553C0004D1E768B1EB403F00D317B9012020700AE0FF2084F833004FF40050E086FBF719
:20555C0015FE607800E0607007B0F0BD803100203EB50020014604F0B9FE264C211D086042
:20557C0010B9032002F016FE04F10C0004F084FC1F4BA060042084F8310018686FF0360553
:20559C00006884F830508047062805D1002220200121134600F092FB606800214FF080427C
:2055BC004FF0FF3304F08AFEA06804F083FE0028F2D104F09BFE0090A06804F076FA0546A6
:2055DC00009804F087FE002DEED02846FFF7E0FC04F08CFE019004F085FE0290284604F0F9
:2055FC00E9FA029804F07AFE019804F073FEDBE7E8010010A02700202DE9F0411E461746FE
:20561C0004F070FE244DA978002480464FF4000014EA060300EA070008BF002808D0012964
:20563C0006D1204610210246134601F0DBFEA9782046022210EA060402EA070208BF002AE0
:20565C0009D14FF0004110EA060401EA070208BF002A11D11AE0012918D110490988B1F56C
:20567C0000610ED0A1F5406103290AD9891F022907D9A1F2FB3111B128700E2102E00F217C
:20569C0000E011210246134601F0ACFE404604F025FEBDE8F081C046102E0020422B0020FC
:2056BC002DE9F047254EDFF89890002501244FF0020A4FF01108E8B204F03AFB071C38D034
:2056DC00B87A012835D197F90900113004FA00F0C14346F8041C31680843306097F9090016
:2056FC0004FA00F0C0B204F08FF907F11000002103F0A0FC0146812909D1B86918B1002124
:20571C0003F098FC0146812908BF87F80AA081290FD0A9F1040097F9091090F8412208FA48
:20573C0001F1114380F84112002100F58C7004F09CFC6D1C032DBED3BDE8F0870C100440D8
:20575C00041F0020F0B520480127F84201D002F04BFB204D204F214EBD4206D203CD047804
:20577C00A4003459401CA047F6E71D48002800D08047164D164FBD4202D210CDA047FAE758
:20579C00F0BD03251BE0416808300A1C2A400BD11A1C2A40AB4305D0046804300C6004312C
:2057BC00043BF9D1131C05D0047801300C700131013BF9D1021C2A4001D0A843043003687C
:2057DC00002BE0D17047C046FFFFFFFF000000000000000050C6000078C6000020C60000DE
:2057FC0075F402102DE9F0470F46064604F02EFDEFF311898246202080F31188D6F808801F
:20581C00474533D01D481E4B0068002F05D49C690125BD4004EBC70401E01C180025307DD6
:20583C0001281AD1304604F00DFD306C04F042FD18B1F1685868884358601869864204D073
:20585C002046314604F0FAFC04E020685C61314604F082FB586828435860B760F56034646D
:20587C00002F44BF002058610120188189F31188504604F0DFFC4046BDE8F087E4BB00008C
:20589C00B42F00202DE9F04F09AF9B4692460546ADF11C0DD7F80890D7F804803E7805910B
:2058BC0001F056FA1E4C0690601C007801280DD00096CDF80480CDF8089006980390059986
:2058DC0052465B462846FDF7FBFD26E004F00EFD0490202003F06AFB0746049804F0FAFC15
:2058FC00E368D7B13D8005987860A7F808A0C7F8149087F80AB0069DBD610022FE724146CA
:20591C00FA610A6807F10C052A60097929712069002B0CBFE760C761276107B0BDE8F08F9E
:20593C00082400207CB506462448006814460D4607236A4605EB463104F029FB9DF8000013
:20595C009DF80010A58183109DF802209DF801009DF8045001F0030140EA012026749DF828
:20597C000310E080891141EA82019DF80320237240EA03309206120D42EAA502E2819DF824
:20599C0005509DF80420A18041EA003102F00302920142EAA50262729DF806509DF805208A
:2059BC002160962DA57202F0030206BF42F00402101C42F00100E0727CBDC0468C310020AF
:2059DC00002A4AD05FEA000C8B071CD1830722D1102A08D370B4103A78C978C0103AFBD203
:2059FC0070BC103238D0042A2CD3082A05D30C2A24BF08C908C008C908C008C908C0920761
:205A1C002AD0920F22E00B780370491C401C521E22D08B07F7D1C30714D18307D8D0121F48
:205A3C0012D308C903801B0C4380001D121FF8D20AE008C903701B0A43701B0A83701B0ACC
:205A5C00C370001D121FF4D2121D05D00B780370491C401C521EF9D1604670472DE9F84F34
:205A7C008146002100200A46C9F80000684600F0D5FADFF87C8000264FF0FF354FF0190AB6
:205A9C0034460746E0B204F053F9C8B1837ABBB1017A0126022917D04246516892F842327C
:205ABC004069CA8A0969891813FB0A1103F0ECFB834604F0FDF9BBFBF0F0854288BF051C3F
:205ADC00641C032CDED300E000251FB1012E04D0012F05D0012E04D005E00098854200D94D
:205AFC00009DC9F800503E43F0B2BDE8F88FC046001F00202DE9F843074604F0F3FB0024A4
:205B1C0006463846401E25D0401E21D0401E1DD11D4D103DEF7F04F0E9FB804604F0E2FB1D
:205B3C0081461648224607701548EF771346032513210570184601F055FC0446484604F0EC
:205B5C00CDFB404604F0C6FB8CB904E002240EE0022500E001250B48057044B901208DF851
:205B7C00005007216A46034601F03CFC0446304604F0B4FB2046BDE8F883C0464E2B0020E7
:205B9C00102E0020C8350020B0330020F8B50C46054604F056FA2268916B21F02001916331
:205BBC0004F098FB286E217D012202F0D3F9286E217D012202F0FAFC286E217D002203F0A5
:205BDC00D5F8286EA17D002203F0D0F8A878012807D005F1D4004FF0FF3104F0EDF8206891
:205BFC0003E0206881690909FCD20D4E86420CBF10221422217D286E03F0B8F8A17D0027E2
:205C1C00FF2902D0E07DFF2800D13FB12068864214BF15221122286E03F0A8F8F8BDC046B8
:205C3C00001000408B4208BF824204D90B1C021C002100207047002B08BF002A0BD10B1C67
:205C5C00021C00210020002B08BF002A1CBFC943C04300F010B9F0B51C4615460B4602460F
:205C7C0000200021B4FA84F6202E04BFB5FA85F62036B3FA83F7202F04BFB2FA82F7203759
:205C9C00F61BB6F1200727BF05FA07F400257F42B4403EBF25FA07F73C43B540A34208BF15
:205CBC00AA4201D3521BA341404149416D0845EAC4756408761EF1D5F0BD70472DE9F0415E
:205CDC00044608461D469046401E03D0801E3AD1792600E0592605F1080080B203F016FEC8
:205CFC00071C30D03D80BE70B8F1000FFC7008D007F1080078602A46414607F10800FFF7B9
:205D1C005FFE03F0ABFE8046104DB878EC69AB88A96A6A6900264011401E05D0401E04D0D1
:205D3C00401E18BF042607D12246104643F010033A46AB8003F052F9404604F02BF816B1BF
:205D5C00384603F0E3FEBDE8F081C046E03100204FF00451002081F8E903012081F8D503FD
:205D7C00022081F8E603032081F82504042081F8EE03052081F85F04062081F877040720EE
:205D9C0081F82004082081F81204092081F814040A2081F82F040B2081F823040C2081F893
:205DBC0060040D2081F86A040E2081F83F040F2081F8E103102081F8F303112081F86C0420
:205DDC00122081F86B04132081F81D04142081F87804152081F8FC030148C1F884047047A9
:205DFC00BD4200212DE9F04106467468B56804F028F98046A06A58B928688169090907D280
:205E1C00006B400A04D2404604F064FABDE8F08104F5BA7004F011F900274046A76204F022
:205E3C0059FAA97D3846FF2902D0E97DFF2900D118B120462946FFF7A9FE04F002F92A683A
:205E5C00916B21F0200191632A68116B21F48071116304F03FFA04F2B91003F0A1FC616A35
:205E7C00206A2769626A401A2062216A3B4630469847BDE8F08170472DE9FE4F01902148B9
:205E9C0000F194063768994692460D460024804600E03F6897B3BD42FBD1D7F800B0019814
:205EBC00394603F0B3FF18B3384600224FF0805302F0B8FB06F10800B9F1000F00900ED05A
:205EDC00384600224FF0807302F0ACFB286998F8D830C8F8D40043F0010088F8D80030467C
:205EFC00394603F05BFA0098394603F031FA641CBAF1000F18BF5FEA0B07CED12046BDE874
:205F1C00FE8FC046001F00202DE9F043054620480068ADF1140D05EB000904F087F9071CE0
:205F3C0016D004F0ACF8064604F090F980466868012807D100246C60EF604046AE6004F0A0
:205F5C0079F921E0E868874204D1404604F072F901201AE0384603F0A3FE02970024C7F836
:205F7C0018D0484669463246039402F085FEE86804F085F8B04203DAE8683146FFF732FCE1
:205F9C00404604F057F9BC61204605B0BDE8F083BCC30000F8B51C4ED6F86001016801207C
:205FBC00884701282ED0D6F82401184DC4683C21012200232846A047002808BF002022D052
:205FDC002F8817F0010704D14FF00120C5F80404288830688047012F04BF4FF08070C5F8F7
:205FFC0004040D4A0A480B4F936901681069D161A0EB9000C91A07FB01F3190C814228BFA7
:20601C00081C10610120F8BD8000001000A00C403020094040420F00E8340020DFF880C000
:20603C00F8B50B1C04464FF000050FD0DCF894702E466FB1F868007B00F00F00022803D0C0
:20605C003F68002FF6D103E03E4601E0DCF8946016B302B11660F068007B012500F00F008D
:20607C00022819D1012B09D03069C28A9CF8423200691921801813FB010103E03169088DA1
:20609C00C9680918706B03F0FFF8206003F010FF2168B1FBF0F000E0002020602846F8BD93
:2060BC00001F0020F8B51F4CA0F5C060D4F81011C4F82C010029B8BF49420028B8BF404296
:2060DC0081422BDA4FF08057D7F8A401B4F81411154D40684FF47F420823064600912846FD
:2060FC003021B047D7F8A401B4F8181140684FF4F80212230646009104212846B047D7F8A3
:20611C00A401B4F8281140684FF440620A230646009120212846B047012000E0002084F8FF
:20613C003001F8BDA02C002000A00C407CB5204C3C3CE06B00680146042088471B4D0228F1
:20615C001AD0032818D001282FD12068406803214FF040521C230646009128460021B04736
:20617C002068406801214FF4007209230446009128460021A0477CBD2068406803214FF0B3
:20619C0040521C230646009128460021B0472068406801214FF40072092304460091284633
:2061BC000021A047022002F0F9FD7CBD00A00C40E00100101B49B0B509684BF2F52250437A
:2061DC000027040A01F44021B1F5802F03D116480068800C00D38FB14FF08055D5F8EC01BC
:2061FC000068804702F0E4F8D5F8E011C96888472111C01000B2484304EBE0340B480078BB
:20621C0030B90B48006820F07F402418640802E0084880F8407108480460210C4160012742
:20623C008760B0BDB44F00508C130050E02D002010200940A02C00207C600C4010B5994252
:20625C0001D1904233D050EA020404D141EA03046400002C2BD050EA410401D19C4226E074
:20627C004C006415641C07D15C006415641C03D1DC0FB4EBD1741AE0002B0CD4002916D4D5
:20629C00994214D190EA020401D490420FE0002A0DD101240BE0002909DC8B4207D190EAC7
:2062BC00020401D4824202E0002800D10124EFF3008454BF44F0005424F0005484F30088BB
:2062DC0010BD10B58B4201D1824233D052EA000404D143EA01046400002C2BD052EA430455
:2062FC0001D18C4226E05C006415641C07D14C006415641C03D1CC0FB4EBD3741AE00029B2
:20631C000CD4002B16D48B4214D192EA000401D482420FE000280DD101240BE0002B09DC8C
:20633C00994207D192EA000401D4904202E0002A00D10124EFF3008454BF44F0005424F050
:20635C00005484F3008810BDF8B5054603F079FE1D4C064604F1D8010878A84304F1B40503
:20637C0008702868002808BF002706D02868B03003F02BFD002700B10127686838B1B030E9
:20639C0003F023FD0025384318BF01252F4694F8D800A0B9012F12D0D4F8D40078B1416A79
:2063BC0089080CD3056A304603F094FFD4F8D40002210022A8470020C4F8D400F8BD304637
:2063DC0003F088FFF8BDC046001F0020F8B507460024081C08BF0124002302B90123002FCE
:2063FC0033D01AB197F84460002E2ED080B190F844606EB17D6B016CAD08A5EB9105394629
:20641C0003F033FD2D1AB5F1704F04DB002D02DC012C01D019E00124BAB1D068007B00F07D
:20643C000F00022811D1516B386C8D081146A5EB9005384603F019FD01262D1AB5F1704F5A
:20645C0002DB002DD8BF002633431C40E0B2F8BD70B50646B5681D48296874688A6B10409B
:20647C008863002020703046FFF7BCFC304601F095FC2968C86A20F01000C862296814484F
:20649C000A6B10400863206E03F0EAF96868FEF71FFD04F17C0003F0D2FD04F1980003F0B8
:2064BC00E0FDA07818B904F1D40003F0D6FD607818B904F5927003F0D0FD04F5BA7003F0F1
:2064DC00B2FD04F1680003F0EBF870BD0DF8FFFFFEFCFFFF2DE9F04381461948194C006858
:2064FC00ADF1140D04906068F8B9FE20039003A96846FEF783FF04AD0027DFF84C80134E56
:20651C0060606068002F07BF297848EA010129783143039100F0E4FB20B97F1C6D1C042F65
:20653C00EFDB02E0606803F09BF9B9F1020F14BF01200020064905B00870BDE8F083C046DB
:20655C00D4C10000C03400200004C0A0000480A01B200240C8B503F0A1F901461C48036851
:20657C000429C3F34062C3F3C056C3F300674FF0FF302BD1C3F30331491F1BD0C91E24D00F
:20659C00491E1DD0891F21D1180E0ED2980E07D3580E03D2980E03D30F20C8BD1120C8BD4A
:2065BC00002F14BF10200B20C8BD002A14BF0E200D20C8BD56B1002A14BF26202520C8BDEC
:2065DC00002A14BF0A200920C8BD0C20C8BDC04694120050F8B51C4D0446286818B901F06B
:2065FC00CDF9286818B116490978A14201DC002423E0144A0C2114FB01246668A7684FF0BE
:20661C00FF3103F0D9FB114831780268012908BF28680CD039682868531E0B4207D10C4982
:20663C007B6809689A4202D81940994201D0002401E00121317003F012FD2046F8BDC04644
:20665C00EDC2000040C30000384300203C430020404300202DE9F8438146EFF311882020BC
:20667C0080F311880124164E164DF461164F6C60F86A016A14208847D9F81000810C14BF6F
:20669C00000C0420A861386802682321002090470E480068C6F8804200280CBF211C0321CE
:2066BC000B4807680FB141F00401286820F4E02040EA01402860346088F31188BDE8F883A7
:2066DC0000002443002009408401001020BC000080BC00002DE990411B4CDFF870801046B6
:2066FC000022400821D3E11E087830F001071CD1002814BFCB79CB78012BF9D0022BF7D021
:20671C001746032B18BF042B0FD10E4B002806BF0B491F1C191C41B13FB9404608300068D2
:20673C004FF40062FFF74CF9022200202070022A207140460CBF022101210170BDE890810F
:20675C000080002100C000211C000021C034002003B42DE9F04307AFBD681E469046ADF197
:20677C001C0D002D14BF002E042027D01946384601AA00F0E5F8144C04F110010968002837
:20679C0018BF071C19D10846FFF7BEFB81460020009094F83300E18E01AA0323FDF716FC80
:2067BC00C7B237B94146324601A82B4600F04AFE07462069494600F0AFF9F8B207B0BDE800
:2067DC00F04302B07047C04680310020F8B5074603F037FC044677B3B87A60B397F9092098
:2067FC0002F09EFF012303FA02F1CDB240B1144E30681132934098433060DA4346F8042C64
:20681C000020B8610346BB723B7207F110063B60024686E80C000B4A7B6002F51070037873
:20683C001943017092F8420210B1401E82F84202284602F06BF9204603F04CFDF8BDC046A3
:20685C000C100440001F00201CB5044608461B4AADF800408DF80200E0B1032826D1114639
:20687C00086A0019017801F0040301F0080119430DD092F832000021401E82F8320022467E
:20689C00012001F0C9F90E48203000680019002101700BE01046016A09190A7842F00102CA
:2068BC000A7090F83210491C80F83210032001216A460346FFF702FA1CBDC046A027002063
:2068DC00A0270020002213460A46194671B510F0030F0BD0002A82BF00F8011BB2F1010253
:2068FC0010F0030FF6D1002A08BF71BD11F0FF0141EA0121042A18D341EA0141082A0FD39C
:20691C000E46102A08D30C460D46B2F10F0312F00F0272C0103BFCD812F0080F18BF42C042
