:20000000003C01201552010039FB021039FB021039FB021039FB021039FB021039FB021077
:1C00200039FB021039FB021039FB021039FB021039FB021039FB021011FB021002
:20003C0038B586B004468DF805104FF6FF720120ADF80220090ADFF8545AADF8000002239D
:20005C008DF806108DF8043069462A7820461AF03FFE162803D1297820461AF035FE07B025
:20007C0030BD3EB504000D461ED0DFF8240A006822461AF025FEFF2815D00020009000235E
:20009C0001AA294620460FF06DFC60B99DF8040000F075F9C00606D59DF8040000F06FF9BA
:2000BC0010F0040000D001203EBDFEB5164615244FF6FF7290420D4615D100208DF8040082
:2000DC00DFF8C8799DF80400F97988421AD23246294600F03AF800B100249DF80400401C58
:2000FC008DF80400EEE71AF0E7FD50B100F0A2FB40B99DF804003246294600F026F800245F
:20011C0000E014242046FEBD7CB50D46044606214C43164600F080F8A8B900F078F890B938
:20013C009DF80700002E14BF054320EA0505E9B2814206D08DF807506A460821A0B218F067
:20015C00A3FB012076BD002076BD2DE9FC410646344606235C438846154600F05DF80028C7
:20017C0052D100F054F800284ED1DFF82079387A800019F077FE040002D100F02BFA43E08E
:20019C00397AE03689062246090EB0B218F054FB002835D1204600F058F85FEA08000ED1AF
:2001BC003A7A9206120E0021204618F0FEFF38BB3A7A92000021204619F0C0FC16E0214649
:2001DC0000F030F858B9280004D02146002000F029F810B900F0DDFB16E0A0F800808178AE
:2001FC00A9420DD085700DB900210180204600F02CF8397A89062246090EB0B218F044FBDA
:20021C0000F0C7FB012000E00020BDE8F6810622FF21684618F0C9BF20346A460821A0B2CE
:20023C0018F00ABB70B5DFF864381D7A002200E0521CD4B2AC4206D231F824608642F7D1AD
:20025C0001EB840070BD002070BD10B50021DFF83C280AE030F82130DB4320F8213000EBA2
:20027C008103491C9C78E4439C70137A9942F1DB10BD2DE9FE4FDFF814480646207A0F4660
:20029C0091469B46800019F0EDFD5FEA000803D100F0A0F90A206CE00C9D0297B24606278C
:2002BC0017FB0AF7029A07F12000082100F064F88DF80400304600F09FF8227A9200FF2112
:2002DC00404619F03BFC9DF804000090E036217A89064246090EB0B218F0D6FA009E0299C1
:2002FC000643206A082200EBCA0019F013FCBDB10299887900232A4600F001001AF0D8FCAC
:20031C0000281CBF9DF93C00002803D0DFF884170120087007F123002A4600F02CF80643FE
:20033C005FEA090205D007F121001C2100F024F806435FEA0B0205D007F122001C2100F05B
:20035C001BF806430D9A62B107F1240000F013F8054625370EAA0421B8B218F095FA054387
:20037C002E43207D08B100F09AFA404619F072FDF0B2BDE8FE8F102180B218F085BAE0B505
:20039C000623584320306A46082180B218F054FA10B99DF807000EBD00200EBDDFF8EC06E8
:2003BC00007808210EF09CBA38B50025DFF8DC4619E0206A062313FB05F300EBC50220336A
:2003DC00082198B218F038FA58B1206A0622FF2100EBC50019F0B2FB206A00EBC5010022B6
:2003FC00CA716D1CEDB2E1798D42E2DB207D10B1BDE8314053E231BDF8B5DFF89016DFF800
:20041C009836C9791E680C460A4600E02A46D5B23DB1551ED2B2324412F8017C8742F5D140
:20043C002C46E4B220464D1E07E01718165C7F7817541A680244401C5670A8421A68F4DBB8
:20045C00AC4204DABDE8F840052018F01DBAF1BD70B50024DFF8345600E0641CE879E3B225
:20047C0083420BD22B6AE6B20622FF2103EBC60018F09BFE0028F0D0E0B270BDDFF81C2634
:20049C00117819B1DFF810060168087870BD38B500200024DFF8F45503E0E0B200F008F834
:2004BC00641CEA79E1B2914201D20100F5D032BD2DE9F84F83465D46062313FB05F58EB017
:2004DC0005F1200701AA0821B8B218F0B5F9002873D10622FF2101A818F067FE00286CD1C0
:2004FC00DFF8A865307A800019F0BCFC5FEA000903D100F06FF80A2061E01C22FF2103A820
:20051C0019F01CFB327A9200FF21484619F016FB05F123040AAA1021A0B218F08DF960B99E
:20053C001022FF210AA818F040FE30B99DF80A0001A900F001001AF0B7FB082200F042F822
:20055C0001AA0821B8B218F09FF98DF8000003AA05F1210000F03AF8074605F1220003AA24
:20057C0000F034F8804603AA1021A0B218F08CF9044605F1240003AA102100F028F88246A6
:20059C00253503AA0421A8B248EA070718F07CF92743317A9DF800504AEA070707438906E7
:2005BC000BF1E0034A46090E98B218F06DF90743484619F04FFC3D4300E0002528460FB003
:2005DC00BDE8F08FFF2101A819F0B8BA1C2180B218F05AB9042017F027BF2DE9F84187B076
:2005FC00FF208DF80000DFF8A454E87919F03AFC040003D1FFF7EEFF0A2030E01022FF2185
:20061C0003A819F09BFAEA79FF21204619F096FA0622FFF7D7FF03AA1021022018F034F9CA
:20063C00064603AA1021032018F02EF906436A460121042018F028F90746E979224605207E
:20065C0018F022F9054601AA0621062018F01CF9804600F09EF93E432E4348EA060008B0CC
:20067C00BDE8F081DFF824144088097818F030B8F0B5A9B006460D4614461AF01DFB08B926
:20069C001420ACE0A4220021684619F057FAADF800600DF12607DFF8F463F078B17B8DF818
:2006BC000400F07B8DF8A000279861F30000B17B27908A074CBF0222002220F0020010434D
:2006DC002790CA064CBF4FF48072002220F48070104327908A064CBF4FF40072002220F481
:2006FC000070104327904A064CBF4FF48062002220F480601043279049074CBF0421002123
:20071C0020F0040008432790307C02280CBF0120002078741AF0C4FA412807DB307C00B169
:20073C0008209DF8991008438DF89900B07CB8B10121B974202206F18C010DF1390019F0E4
:20075C00E9F9202206F1AC010DF1590019F0E2F9202206F1CC010DF1790019F0DBF900E040
:20077C00B874707B8DF8050090B1DFF83473102207F110010DF1060019F0CCF99DF89900C2
:20079C00082805D1102239460DF1160019F0C2F9307B8DF8260030B11022DFF808130DF155
:2007BC00270019F0B7F9307948B1022D18BF032D03D1279840F002002790012100E00021C6
:2007DC009DF899000143B0788DF8991000B1042001438DF89910684621461AF05DFA29B09F
:2007FC00F0BD2DE9FC41154615244FF6FF72904288460DD10027A54EF179F8B2884216D235
:20081C002A464146FFF780FC00B100247F1CF3E71AF052FA50B100F00DF840B99DF804002B
:20083C002A464146FFF770FC002400E014242046BDE8F681002100910023417901AA01F05A
:20085C000101801D0FF08EB870B504460D4606204543082B88B0164603D1300758BF2235E8
:20087C0000D521351C220021FFF7ADFE01AA1C21A8B217F0E1FF80B99DF81E00C01F0A280B
:20089C000BD29DF830000090F20801AB02F0010206F0010120461AF0FBF908B070BD38B541
:2008BC001AF0F2F90024794D0FE0286A0622FF2100EBC40018F079FC28B9286A00EBC40125
:2008DC0000201AF0DDF9641CE4B2E8798442ECDB31BD3EB50C46002501460095002301AAF6
:2008FC0020460FF03FF838B99DF80400FFF747FDC00601D401203EBD00203EBD2DE9F04163
:20091C00694F3C6806468846154603E02089B04224D02468002CF9D10C2019F0A3FA040020
:20093C0019D0268184F80A8000202060E07245B10821284618F054FD606018B900F029F88B
:20095C000AE06060396811B93C6004E0014608680028FBD10C600CB9152018E01AF08CF94E
:20097C0008B1002013E00120E0722A4641463046FFF77EFE04464548C06900281CBF43688F
:20099C00002B03D000220021304698472046BDE8F081204619F05EBA38B505464248046874
:2009BC0003E02089A84204D02468002CF9D1012032BDE07A012807D100F05CF820B1334854
:2009DC00007804210DF08CFFE17A491CE1722846C9B200F002F8002032BD38B5022904467F
:2009FC002A4D02D003290DD01EE042F6C921FFF717FB02001CBFE869002818D04368B3B114
:200A1C0005210CE042F6A621FFF70AFB01001CBFE96900290BD04B684BB1024604212046FA
:200A3C0001B0BDE830401847BDE8324000E031BD10B51D4A1468002101E0214624686CB1D6
:200A5C0023898342F9D1206800290CBF10600860606808B119F0FEF9FFF79BFF002010BDED
:200A7C00024604201049096819B10B899342FAD1C87A70470C48006828B1006818B1C17A2C
:200A9C000029FAD17047002070470000D81A0020680F0020D635002064350020D535002001
:200ABC002C3300205C330020683500202DE9F04385B0064600208946009090461C46B17984
:200ADC00002304AA30460EF04DFF20B1FFF7C0FC8DF810001BE0D4B19DF810300620434350
:200AFC0023336A46102198B217F0A6FE78B91022FF21684618F059FB48B9B079314600F090
:200B1C0001001AF0D1F810B1194901200870194F9DF81000F979884227D20120039000949F
:200B3C0043460C980D990E9D019002914A469DF810003146FFF79DFB044655B1397A9DF825
:200B5C0010008906E0302A46090E80B217F09CFE0443200005D09DF81000FFF7A9FCFFF7FE
:200B7C0023FC204605B0BDE8F0831520FAE700BFD6350020D81A00202DE9F84F012017F070
:200B9C0015F8012816D1DFF89866307800211AF06FF8040004BF002017F046FC002020722B
:200BBC00201D0FF08BFE06F00FFD050003D181201AF05AF830E301206871DFF86826DFF833
:200BDC0068064178491C4170A879A0724020317811700EF0F7FC2860616D4A78206DD10692
:200BFC0020D5816C0A681179032908D0816C0868007903280CBF0120002017F015FC206D45
:200C1C00816C0A6890F86C0002F1080701281CBF002017F009FC216D486F296800F5B06058
:200C3C00C8604AE0C16E0A681179032908D0C16E0868007903280CBF0120002017F0F4FBD2
:200C5C00206DC16E0A6890F8980002F1080701281CBF002017F0E8FB226DB5F87401D2F89F
:200C7C00A0102A68DFF8C435DFF8C465D16097F82690B9F1030F1BD8DFE809F002050E113B
:200C9C0001F5B06101E001F53471D16005F59A711888088718880EE001F5355101E001F66E
:200CBC00B871D16005F59A7130880887308802E001F5B061D160A5F8740106222868DFF8FF
:200CDC007465C168DFF8708501F59071C160B91C3878C0F3801085F82E0105F5947018F098
:200CFC0019FF042207F10E0105F1240018F012FF306895F8069000F10C03042207F10E0178
:200D1C0003EB491018F006FF3068AB7900EB4313032207F1120103F1100018F0FBFE05F13B
:200D3C002C09787D89F80200022207F1160105F1300018F0EFFE022207F1180105F132003F
:200D5C0018F0E8FE022207F11A0105F1340018F0E1FEB9F808006884022207F11C0105F16D
:200D7C00360018F0D7FE99F80200B9F80A10400089F802000901B9F80400A9F80A10400069
:200D9C00A9F8040089B2B9F806004000A9F8060003046A8C521CDB0B5A438A4201D280B2FA
:200DBC0030B998F8000080210DF09AFD3B2133E105F12E01284619F053FF0520A8814FF07E
:200DDC001C0A284619F048FF052207F11E0105F1610018F09FFE97F82300400989F800005D
:200DFC0019F036FF688205F59A72618D401AD08005F1610197F82300DFF8407400F01F006D
:200E1C0089F80F00284619F01FFF616D4A78206DD1064CBF816CC16E41F62102086800218B
:200E3C000171A97938681AFB01F142520021AB791AFB03F303445980AA791AFB02F21044D7
:200E5C004160616DDFF8F8034A78D1060DD5DFF8F4138A7851060AD5DFF8EC23138841F2F0
:200E7C000A418B4208BFDFF8E403C5F89C01D5F89C11284688473A68A97902F10E031AFBCB
:200E9C0001F15854AA7938681AFB02F202440020D0733968A87901F10E021AFB00F0115CED
:200EBC0089F80D10606D4178CA061DD595F8960108B917F0B9FAA97938681AFB01F1014483
:200EDC0095F89601421E0A74A87939681AFB00F00844002141743A68A97902F112001AFB2D
:200EFC0001F1002242522BE0A97938681AFB01F10144206D90F840200A74A87939681AFB4B
:200F1C0000F00844216D91F841204274206D3968AB79403001F112021AFB03F34188D1528C
:200F3C0005F5CB710078012200F0030082400A70226D92F84000800814BF01200220087125
:200F5C003968A879DFF808B301F1140231681AFB00F301EB4010D050A87939681AFB00F055
:200F7C000844BC498161DBF814000078C107DBF8141009784CBF1F200F208A07DBF8141082
:200F9C00097848BF40F020004A07DBF81410097848BF40F040000A073168AA7901EB42130F
:200FBC0048BF40F080001872A979306800EB41120B2050723168AA7901EB42100421A64AE0
:200FDC0081721078012806D13168A87901EB40120121D17207E0DBF824003168AA794078CB
:200FFC0001EB4213D8723168A87901EB40121F2111763068AA7900EB421100204876A87993
:20101C000EF024FAAA79316852018850AA7931685201885820B90721284617F095FBFBE0E1
:20103C008E48AA79016801EB021019F009FEA87931688A4B01EB4012196801EB001050602A
:20105C00A979306800EB41125168C9F83C10AA7952018158C9F84410042198F800000DF0A0
:20107C003FFC616D4A783868D10648BF02210AD4A9791AFB01F101440A7C02F00302022AF3
:20109C0014BF04210621B9F8042095F806C04FF4C8738A18698AAA615143B1FBF3F35B1C32
:2010BC006B611AFB0CFCD5F800E06044DEF80CC040F6C41101FB02C2D21AA2F5A8628260FE
:2010DC00AA7938681AFB02F283189A682B689A6000F10C03AA791AFB02F20C309B5C03F0AC
:2010FC00EF038354A8793A681AFB00F002F10C030C321B5C03F07F031354A8793A681AFBD8
:20111C0000F002F10C030C321B5C03F0F00343F002031354AB7938681AFB03F31844427B9F
:20113C0002F0F00242F001024273AA7938681AFB02F2024490682B6818613068AB7999F862
:20115C0002C000F11402686940005B0111FB0C0000F5F660D05095F8960104280DD13068F4
:20117C00AA7900F114034FEA421C143053F80C20AB795B0102F56162C2503068AA7900F1DE
:20119C0014034FEA421C53F80C20C5F83421AA7900EB4210C37C03F0F00343F00403C37406
:2011BC00DBF830003268AB79006802EB431CB9F8062042436423B2FBF3F35943A1F59661FF
:2011DC00CCF81C103068A97900EB4110C27E02F0F00242F00402C276A97938682A681AFB10
:2011FC0001FA00EB0A01516028460E2119F024FD1B4907200870204615F0AAFF19488178F9
:20121C00880704D5AA790021204619F011FD28681549164A41618261BDE8F14F03F0EABC38
:20123C00D50F0020D70F0020780E00208E0F0020900F00209C0E0020C70F0020980E0020E0
:20125C0081010210C00C00209A0F00204DE50110ECDF0100980C0020CC0F0020A40E002089
:20127C00C80F0020200E002079D40000020480802DE9F84F054688B0A978DFF83C66002719
:20129C0010294FF0060A3CD8DFE811F0110012031203120312033C00CF00120312037502BD
:2012BC0015010001C70212034B028D020A036878002826D119F0B8FC044619F0B1FC05462D
:2012DC0019F0AAFC8DF8000022461021022017F0DBFA2A461021032017F0D6FA6A460121BA
:2012FC00042017F0D1FA9DF80000012818BF032807D1012019F08CFC02460621062017F0F6
:20131C00C3FAD5E268780028FBD195F80CB06C8900900023E97801AA01F00101281D0EF036
:20133C0021FB00284FF0010875D19DF80400FFF726F88146BBF1080F307A08BFB846800099
:20135C0018F090FD050003D1042017F06DF8AFE270789DF8041002280CBF0120002000908B
:20137C005B464A462046FFF76FFA1422002102A818F0E4FB9DF804001AFB00F0243002AAD5
:20139C00102180B217F058FAB0B91022FF2102A817F00BFF80B99DF804001AFB00FA0AF123
:2013BC00250306AA042198B217F046FA02AA09F00101204619F028FC317A9DF80400890676
:2013DC00E0302A46090E80B217F036FA98B92846FEF73BFFBA4609E005EB8000018819B157
:2013FC008278204617F044FD0AF1010A317A5FFA8AF08842F0D3B07A30B95FEA897003D5EB
:20141C003178204617F064F99DF80400FEF7F4FF284618F01FFD7078022805D1B8F1000F8A
:20143C0002D0204613F0F0F942E2A888FFF700FB19F0E6FB0028F7D1707D012808D1FFF768
:20145C0026F8706A77750422002118F077FB17E0B07D012803D1FFF7C0F8B77510E00024BC
:20147C000AE0706AE5B2415D012904D1E0B2FFF71FF8716A4F55641CE0B2F1798842F0D331
:20149C00502017F005FEFEF78FFF11E219F0F4FB00280CD0F06900281CBF0468002C07D079
:2014BC00286900906B7B2A7B6989E81CA047FEE168890121F1E168780024002840F01A81CC
:2014DC00A879C10740F116810822002105A818F035FBA88819F0F0FB040076D06F694FB3C7
:2014FC000622002107F1110017F05FFE68B306220021384617F059FED0B9387C00F00108A4
:20151C004FF0000909F1010987F811900020009000230022414607F111000EF023FA00287B
:20153C005FFA89F002D10028ECD101E000280CD1002068610622607900F001008DF81A00A5
:20155C00A11D05A818F0E6FA1FE06F69EFB1387C00F001008DF81A00062207F1110105A882
:20157C0018F0D8FA6079012805D10622A11D04F10C0018F0CFFA062207F11101A01D18F0EE
:20159C00C9FA387C40F002006071A879410720794CBF40F0020000F0FD002071A9790A07C5
:2015BC0054BF00F0DF0040F020002071A9799DF81B00890801F0010108438DF81B00A979E9
:2015DC000A074CBF0821002108E0FFF753FA0028ECD0307804210DF083F9E7E708438DF896
:2015FC001B000020009000239DF81A1004AA05A80EF0B8F920B1FEF72BFF8DF810001AE099
:20161C006869C0B19DF810001AFB00FA0AF123036A46102198B217F00FF960B91022FF21F2
:20163C00684617F0C2FD30B99DF81A0005A900F0010019F039FB9DF81000F179884255D2A6
:20165C00E8680021039105A90269019002924FF6FF78686900902B69AA689DF81000FEF7CE
:20167C0008FE0446AF88B06A48B906F1180100910223924A4146012019F0BEFAB062B16A74
:20169C0019B3FF200390022200230292019307A800900DF11203328B384606F0BBFA68B9E8
:2016BC009DF812009DF8131000EB012290B228B1B06A418992B23846FEF7F7FC328BB06A21
:2016DC000023414619F094FAB062200005D09DF81000FEF7EDFEFEF767FE200007D1707AE5
:2016FC000028A88804D1FFF757F903E01524A888FFF79EF9F06900281CBF4368002B0FD071
:20171C006A78A888012198476878002808D1A879C10705D5F369A88822465C680321A04733
:20173C00BEE0687806281BD1A88819F0C5FAB8B1F17C012904D013D3032907D00CD30FE072
:20175C004179A8880022FFF7D9F809E00022002140F2094004F0D2F9A888052119F044FA97
:20177C00F06900281CBF4368002B03D06A78A888022198479BE000970023E97801AA01F002
:20179C000101281D0EF0EEF80028F3D19DF804001AFB00FA0AF1250305F10C02042198B2D8
:2017BC0017F072F883E0F06900281CBF4368002B03D0A888002200219847707810B9A88801
:2017DC0005216AE0A88819F077FA040070D0A87AC10712D5009700236179002201F0010115
:2017FC00A01D0EF0BFF800281EBF60790028012803D0E868C0F3402028B1307C022807D16F
:20181C00A87A010704D4A888032119F0E9F94FE06179A88805F1080227E02F7BAD882846DE
:20183C0019F04AFA040042D019F026FA00283ED100900023617901AA01F00101A01D0EF0E3
:20185C0091F828BB9DF80400FEF799FD07F00C07042F11D0082F0BD00C2F0FD100F0090197
:20187C0009290BD0617900222846FFF747F81EE010F0090F02D1F5E7C107F3D50122009296
:20189C00A37C9DF8041002462846FEF7DDFF0EE070780028E6D10521284619F0A1F906E00B
:2018BC00FFF7E8F818B1307804210DF019F80127384609B0BDE8F08FD81A0020C2E001005A
:2018DC002DE9F04FADF1240D19F086F914F040FA071C0CD017F0AEFDC84C00268146062129
:2018FC0034F80C0F28B1491E06F10106F8D118F068FD4FF6F878A4F8008067600025A5604F
:20191C00CB4C26707868E060484617F0ABFF04F12C0018F031FB2A46C649206113461020C1
:20193C0007F0DCFF01208DF81900C34E8DF81A0003468DF81B504FF480621F4631468DF88B
:20195C001C7010200DF11907009707F0C7FF0DF11A0040F20242012300903146102007F05D
:20197C00BDFF0DF11B0040F20342012300903146102007F0B3FF07A840F20642012300901E
:20199C003146102007F0AAFFC849102004F1180207F0A4FF2178502016F05EFEC44902463A
:2019BC00102007F09BFFC3491020FB2240F6480307F094FF2178502016F04EFE00950346AD
:2019DC000422C7490195102007F088FF4FF0FF30294612F0D7FFC349A060102007F07EFF0C
:2019FC00C1491020012207F079FFC049C04A102007F074FFDFF800B3E068BE4A00214FF018
:201A1C00FF3319F0E5F8051CF6D00020029006A902AA03A812F058FF002840F09E809DF88F
:201A3C000C000DF10E0116F029FA002840F09280BDF80E00ADF80C0017F0E4FBBDF80C00C3
:201A5C00102840F0858020789DF8181088427FD1029F38884FF6FF71814279D038789138F3
:201A7C004AD00F3815D0801E02D02E386DD06FE0787960286CD17A89C14910204FF6FF73F8
:201A9C0007F02CFFA06804210022BEA316F07BFD5EE0002F5CD0B88918F03DFCD4F808806B
:201ABC00061C03D1B86813F0A1FE51E0B968BA890FF07CF9B0780A210022B7A30090404664
:201ADC0016F061FDB8890090A0680B210022BAA316F059FDA088401C80B2A0800090A06838
:201AFC000C210022B8A316F04EFDB86813F07EFE304615F08BFF2BE078780E3802D0801E7A
:201B1C001ED025E0B88842F20301814220D1B968491C0A6804A80260496841609DF811008C
:201B3C009DF81270954904AA00F0BF008DF8110047F0C6008DF81200102007F0CFFE07E032
:201B5C000820002107F0F0F902E0384602F008F9029810B1029818F09EFBE80FFFF44CAF72
:201B7C00206919F031F800287FF446AF206917F0D6FC051CF4D028786769002800F0DA80D5
:201B9C00401E00F0BB80401E00F09680401E6AD0401E35D0401E40F0E9806868002800F062
:201BBC00E5800178052940F0E1804068018842F251028A4210D042F252028A4240F0D6802E
:201BDC008778A268002F04BF042187A300F0A68080788CA30421A0E08078A26860B9A27888
:201BFC00C1491020012307F079FEC0B2002800F0BD8017F0B0FEB9E08CA3EBE7D81C0020D3
:201C1C006E683078012829D170688378012B15D023BB37F00200606120D14FF6FD70B049BF
:201C3C00B04A00900123102007F058FE16E0C046D01B0020C96A0100195B00005FB94FF651
:201C5C00FD70A749A74A00900023102007F046FE6769C3B213B947F00200606170680028F1
:201C7C0000F0848080E06868B9087FD3017802290CBF4FF001084FF00008B0F802A0D0F801
:201C9C00109090F9067006790C2017F02DFE011C6CD0A1F800A081F80280C1F804900F7251
:201CBC0001204E7215F0EAFF60E0C046918B0100D96C02100D5202106E68707A38B1CDF8A0
:201CDC0000B0A0680421002264A316F05CFCCDF800B08249F2881020002307F0FFFD45E05F
:201CFC006DB600002D450210C3A301006D9B01005BA20100010000C040E20100696808797D
:201D1C00A268097899B1491E0DD0891E2ED1002808BF56A30CD05AA30221009010460022FC
:201D3C0016F031FC22E0002818BF5BA3F4D15FA30221F3E76E68A06831680246B1F10041EF
:201D5C0005D06A48091A04D0C81E02D007E05BA300E05FA310460221002216F014FC306821
:201D7C00B0F1004F02D0706815F050FE686808B115F04CFE284615F049FEF1E6FD380210AA
:201D9C0099FB01104C32434150204368616E6E656C204F70656E00C052544C53205061636C
:201DBC006B65742052656365697665642C20636D64496420256400C05061636B6574204C22
:201DDC00656E3A20256400C04E756D626572206F66207061636B657473207265636569766A
:201DFC0065643A20256400C0436F6E6E656374696F6E6C6573732043544520656E61626C76
:201E1C00656400C0456E61626C6520436F6E6E656374696F6E6C657373204354452066610C
:201E3C00696C65643A20256400C046C053657420436F6E6E656374696F6E6C6573732043C9
:201E5C00544520706172616D6574657273206661696C65643A20256400C046C050617373B4
:201E7C00636F64653A20256400C046C0426F6E642073617665207375636365737300C04691
:201E9C00426F6E642073617665206661696C65643A20256400C046C050616972696E6720BC
:201EBC006661696C3A20256400C046C050616972696E67207374617274656400496E737541
:201EDC006666696369656E74204D656D6F7279004164766572746973696E6700CD7C01003B
:201EFC0091DC01101B99010001780100010000802DE9FE4F04460020009000250CB916F04B
:201F1C0093FA04F1500841F62300D8F8007038807D8002223A737A73694620460CF0AAFD06
:201F3C0008B9072051E2009901B1B860B8682061DFF89C04017884F8B810D8F80400407AA4
:201F5C0014F004FC25302076207EB873FD73D8F80400017D022904BF002016F065FAD8F8A8
:201F7C000400007D012802D10020002104E083280CBF0620022020213874797404F12406EC
:201F9C00DFF850A4DAF83C0041690868717901EB41010844B0F801207A82D8F8040041787C
:201FBC0048060AD5607DC10604D5E07F40F04000E07702E040F04000607507F15C0904F1BC
:201FDC00300089F80050B17E890001F0040189F80010B866607DC10656D5D8F804205178FB
:201FFC008A060CD500F0FE006075D8F80400417811F0030F03D1E07F00F0FE00E077607D9C
:20201C0018F0DEFDA075421C387CC0F38001002392B200F0030018F0CFFDA0831E20A28BAA
:20203C0002F59B7393FBF0F01E2101FB1030C0B208B1C0F11E00821802F59B7262831E20DB
:20205C00A28B02F5967293B293FBF0F001FB1030A283C0B208B1C0F11E008018A08380B23D
:20207C00E27D618B521E50434018608307F13005608BB43080003866062089F80300E17F97
:20209C0041F00801E17720E040F001006075D8F804104A78510744BF40F002006075607DA7
:2020BC0018F08EFDA0750023401C82B2387CC0F3800100F0030018F07FFDA083A08B00F507
:2020DC009670A0833D6689F80350A17D207D61F3050007F18801207508700322607D4870E8
:2020FC008A70B07E800000F0040040F003008870F27ED20002F00802104388700020C8701C
:20211C00C7F89000B08BC0F30B00B083D8F80410CA7D40EA0230B0830022617D01F0FE017E
:20213C0020460BF0B3FF019700271EE01C2010FB07F004EB000B01991C220BF1640017F03C
:20215C00E9FC0BF16C00052101717F1CA28B92000260FFB2DAF83C104A691168737903EBED
:20217C0043031944B1F801204281E07D401E8742DCDB019F204610F041F8E07D012809D03A
:20219C0013D3032808D03EBF04F164007860C8F818500AE07D6008E004F16400786004F10F
:2021BC008001C8F81810C8F8345041F6240038860021798607F13C05B868618B00EB81006C
:2021DC00B8630221822028706970002194F82100E97000F03F00A870D8F80400807D01282A
:2021FC0018BF022803D100F07F00401E04E083280CBF062002202021287169714FF0000B81
:20221C00DAF83C0041690868727902EB42021044B0F80110E980C7F86CB0D8F80400417880
:20223C0011F0030F20D018F0C3FCF866DAF818000078C107DAF8181009784CBF1F200F203C
:20225C008A07DAF81810097848BF40F020004A07DAF81810097848BF40F040000A0748BFA4
:20227C0040F0800089F8140089F815B0D8F80410594A897C01F0030189F81510B07E8000E2
:20229C0000F00400014389F81510F07EC00000F00800014341F0100189F81510107838B181
:2022BC0099F8140000F0FE0041F0400189F8140089F81510E07F18F083FC84F820002046DA
:2022DC0018F072FCE07FC10636D5D8F8040094F820204178521C88074EBFD21EF07F12184F
:2022FC002879C0F380010023D2B200F0030018F063FC30801E22308800F59670C0F11E0179
:20231C0090FBF2F21E2000FB02113171D8F804104878810731884CBF00204FF49B7040188E
:20233C0030807080B86B318832795218A63200EB82007867022002E0C7F874B0002089F844
:20235C00170004F13000C7F8800007F18400D8F804104A78510707D504F13802026099F86E
:20237C00150040F0200007E01C490A685168016099F8150000F0DF0089F81500A17F94F84D
:20239C00200060F30501A17740F60B002882A5F812B0DAF83800008880007865DAF838004D
:2023BC00008800B1072028770220687794F84510E983D8F804004178880744BF0121E98307
:2023DC00009808B10BF010FD0020BDE8FE8F00BFCB350020ECDF0100880E00206C0F00203A
:2023FC002DE9FC47D44C0F460546F80B80F006826078DFF85883B90F80F0AA81B90880F08F
:20241C009D81F90A80F00281390B80F0CC80380907D2F80FC0F0288227F0804711F084FAB4
:20243C0022E217F070FF814616F0E2FD002800F0B480082017F052FE002840F0AE80802069
:20245C0017F04CFE002840F0A88068460EF0E0FD012803D10098002800F09F8094F841026B
:20247C00002840F09A8000250126E8B217F03EFB48B1837A3BB1867290F9090006FA00F04C
:20249C00C0B215F0C7FB6D1C032DEED3032084F8200004F5CC7017F030FF484618F080FB32
:2024BC00D34800252A460168056050F8081CD14940F8085C04F15C0016F0AAFC4046006875
:2024DC00006B8047A168401A010BA06AC1F1FF3282422CBF08444FF0FF30A06294F82C002F
:2024FC0020B12069A16AB1EBC02F25D916F090FD294600B13146081C1BD0BF4840F6090152
:20251C0001804580417B06F00F0221F00F010A434273017B05F00F0321F00F0143EA01029F
:20253C0002732946416017F07DFC418811F4406FFBD084F82C60A56213F042FECE4829465B
:20255C000560022016F0F2FA022015F00FFD11200CF0A0FD207818B96068483017F017FF23
:20257C00C648007810B90E200CF094FD94F82D0020B184F82D50052015F0F8FCC0486062CA
:20259C0084F82050B4F9B000B4F9B210884214BF022007200FF074FE02E0484618F000FB9D
:2025BC0027F008073AE720B1042015F0DFFC00206070656815F0C2F838B12846ED696FF457
:2025DC00807100224FF00073A847E06858B140460068006B8047E2686168801AC860000BDA
:2025FC00C8600026E660A74904F15C00002216F00FFC0221D4F89C0084F8201018B104F1C2
:20261C00DC0017F0DAFE27F4006707E717F07BFE064616F0EDFCD4F894100028894600F061
:20263C008480002900F081809749042504F15C00002284F8205016F0EBFB304618F0B0FAE4
:20265C0004F5CC7017F059FE40460068006B8047E0604FF0010884F80180284615F09EFC19
:20267C00D9F810006060D9F81000416AC90803D3036A294600229847404612F095F86068B0
:20269C0080F8158060680CF0FBFF6568D5F808A040F60A02D01F564600F1010C00E01E4602
:2026BC00736833B119888A4203D0884218BF8C45F5D100217160727B08F00F0322F00F02BB
:2026DC0013437373D9F80C201288904224D06046904221D02B8E03B3696305F130025180A8
:2026FC0095F83C0001F00F0320F00F00034385F83C3095F83D0008F00F0320F00F0003436B
:20271C0085F83D307260707B01F00F0520F00F0045EA0001717300E0E160504617F082FB83
:20273C005146404616F002FA02E0304618F038FA27F4806798E0C046E00F002008F098FBB2
:20275C00D4F89C0008B927F002078DE08C0100104E4A116841F08001116020B1042015F0DC
:20277C0005FC0020607017F0CEFD8246D8F85400016804208847D0B1287DC0B1A068B0B132
:20279C008146D8F800002E69006B8047A0EB09002861000B2861B04202D2801940082861DC
:2027BC0040F6C41181422CBFB0F5967F2961504618F0F6F914F0C2FF80B1EE6928466FF455
:2027DC00807100224FF00073B047D4F89400002808BF47F0020701D011F0A6F82846AD699E
:2027FC0000214FF080630A46A84727F000573BE014100440814C0100A434002017F083FDFD
:20281C00D4F8AC6066B306F1280106C90A234FF0E0450B40154008BF002B21D106F1280187
:20283C0091E8000306F1280595E8060006F1280322EA090221EA080183E8060018F0B0F9EA
:20285C00B16879B1B9F1000F08BFB8F1000F09D03069B6F93010B5684B464246A84701E07A
:20287C0018F09EF927F4804727B104F1DC00394617F0A3FDBDE8FC8700000460EEDE010093
:20289C003DDB000079CF0000ED8F0100CC2108402DE9F84FDFF85854A9780024FF2904BFFA
:2028BC00002015F0C1FDA87817F0DAF8054605F1680605F5C9773168086805F1900808B1E7
:2028DC00EC8311E0B07B002804BFB07E00280BD198F80010002904BF3878002804D1287F54
:2028FC00012804BF688CE8832989E88B4118491C6981284618F050F901281EBFDFF8F40311
:20291C000178012903D12989EC83491C69814FF6FF79B07E01280DD1B28B6989288918F0DA
:20293C0037F938B1298968894A1C93B298422FD0B08B23E098F8000001280FD1B8F8022092
:20295C006989288918F024F940B1298968894A1C93B298421CD0B8F802000FE03878012814
:20297C0016D17A886989288918F012F980B1298968894A1C93B298420AD0788892B2904253
:20299C0006D04844688180B218F0FEF84844E883387801280FD128897988401C80B28842E6
:2029BC0009DB7C793C71022038702346A979224600200BF0C9FE05F59A71087920B12889CE
:2029DC000021401CE9836881B07E012813D12989B08B4B1C9BB298420DD1688118F0D4F8B8
:2029FC00804605F12E008188308C01FB080828460FF008FF03E005F12E01B1F80480EA8BE2
:202A1C00DFF8F492501C00FB08F040F6C41808FB00F100912B68D3F80CE07144D960B74B0D
:202A3C00196809788909032940F0168199F80F30B349DB0740F10081B5F812C000230CFBEA
:202A5C0000FC4FF4C87EBCFBFEFC0CF1010C0B80A861C5F814C085F820204FF01C0BDFF8FB
:202A7C00A4A2AB79DAF8000000F108021BFB03F3D1582A68116100F10801AB79D2686869A1
:202A9C001BFB03F3121ACA50DAF80000AB7900F108021BFB03F3D1582A68916000F10C0220
:202ABC00A9791BFB01F10C30535C03F0F00343F002034354DAF80010AB798A1C1BFB03F378
:202ADC000021D152387908B915F0AEFCDAF80000AA7900F1100138791BFB02F2400888549F
:202AFC00A879DAF800101BFB00F00844002141743879042814D1A879DAF800101BFB00F0C4
:202B1C0001F110021031135C3A7A43EA82030B54AA79DAF800001BFB02F2024420205074D7
:202B3C00DAF80010A87901F112021BFB00F0002111527549A8790A6802F114034FEA401CF6
:202B5C00143253F80C00AB79D5F814C05B0100EB4C00D050B07E02280DD10A68AE7902F182
:202B7C001403760114329859AB7995F82E605B0118FB0600D05005F12E0299F80F00C30710
:202B9C0073D5DAF80000AE7900F108041BFB06F60830A359AC791BFB04F4A3F5A86303516B
:202BBC00DAF80000AE7900F108041BFB06F6A3592C68A36000981B1A23610868AE7900F185
:202BDC00140476011430A359AC79640103F5F6630351387904280BD10868AE7900F1140482
:202BFC0076011430A359AC79640103F5616303510868AC7900F1140364011859C5F8340103
:202C1C00424B186B0C68AE799288006804EB461742436424B2FBF4F408FB04F0A0F59660FB
:202C3C00F8613B480278012A48D10868A97900EB41120120D07248E00B885B1C1FFA83FCE1
:202C5C00BCF1010F11BFB5F812C005F59A7EBEF806C00CF2DC5CF2E6698A41434FF4C873BB
:202C7C00B1FBF3FC0CF1010CF2E6042C0BD10868AE7900F1140476011430A359AC796401CE
:202C9C0003F56163035138790B68AE7904280CBF4FF4AA504FF4E66003F114047601A35981
:202CBC00181A938808FB03F3A3F516739842A7D30821284615F048FD012016E0586A096812
:202CDC00AA79407801EB4213D872A879DAF800102A681BFB00FB01EB0B00506007210D48A8
:202CFC000170284610F0BEFB0020BDE8F28F00BF780E0020D10F0020980C00203C0F002046
:202D1C00BE350020980E00209C0E0020ECDF0100CC0F0020C80F00202DE9FE4F0546DFF8B1
:202D3C002404DFF824640278002A4CD0052A73D0062A00F08080072A18BF082A00F0F780FD
:202D5C000A2A00F0D381112A02D0132A70D0F1E1DFF8F8331878002117F08AFF04001EBF5F
:202D7C00606D407810F00C0F2DD0216DC0064CBF886CC86E0622016801F10805A91C68460E
:202D9C0016F0C8FE287800F00F0105291BD145096946C0F3801017F0F3FE002813D03168B5
:202DBC00684617F0E9FE0746316804F1380017F0E3FE87420DD0606D4178C80604D440F25C
:202DDC00014017F0D5FEBBE1607B40F002006073B6E133681E2010FB07F698190622694640
:202DFC00C01D16F097FE606D4178C806F0D5A17B0129EDD1DFF858038178480605D5E907DF
:202E1C0003D4206D41F20A4102E0206D41F2044141804183418693E117F0A5FA0028FAD174
:202E3C0010F0E8FA012802D0012017F09DFE87E10DF05BFB84E1DFF81C53286817F090FE4B
:202E5C000400F7D020790328F4D1207A00F00F01072937D1C04800684169497A4A1E114298
:202E7C005ED0617A04F10A035A5C02F03F02252A56DBA17A8A09012A52D111F03F0F4FD058
:202E9C00007C16F0EDFDE17ACA074CBF04F1110204F10B028B0748BF921D0B0748BF921C5A
:202EBC00C90648BFD21C1621127852094A43AB498B180A31EB608A5A428699898186DA8934
:202EDC00C2862DE000F00F00082829D1A17A880926D129B3A0480168087C16F0C1FDE17AE5
:202EFC00074688071CD5062201F001015143601800F10C01684616F00DFE207AC009FF287B
:202F1C000ED0694617F03CFE50B1306800F10D01684617F021FE18B90521384615F014FCD1
:202F3C002079032802D0002015F07EFAFEE0DFF830B29BF802000024FF281BD016F090FD4D
:202F5C00804608F16C09D9F8040017F009FE2A460179032901D011000CD08368197801F0FD
:202F7C0003008D06009003D50124009818B9BAE01000FAD0E4E05D7803F1020A34B31AF8A3
:202F9C00010B784B01902C2098F806C01F6810FB0CFC67444FF0010E87F805E0002A1F686B
:202FBC0098F806E007F11A0C019F10FB0EFE07F01F070CF80E7098F806701B6810FB07F080
:202FDC001844019BC3F38113C3761AD10098032808F217171AD0ADB199F8000068B108F199
:202FFC00F4000278012A0DD1564B1A78072A04D0082A04BFC078012804D13D217970012073
:20301C0038709DE0584A1378012BFAD098F8940070B32D1FEDB253462A4640460FF076FA1C
:20303C0000281EBF51490878002807D13D21797001203870306817F08BFD81E04C480168C0
:20305C008847064698F80610DBF804204FF4D07041435018002280F8412108F59E700168BD
:20307C00807949080FF0F2FD42490A68304690470098032819D04048416909788A0708D5E5
:20309C0041690878C1074CBFE81C28461AF8000000E0812089F808002A460098C3B29BF879
:2030BC000200514607F012FA1DE09AF800001CB11B2804BF022D01251C2803D22F490B5CA9
:2030DC009D4205D0B8700721404617F0B5FD0AE01C48017808295146404602D117F00FF99A
:2030FC0001E000F079FAD9F8040020E0244C207830B3244D286817F033FD08B30179032917
:20311C001ED1017A8A0611D5807AE178C0F38112914202BF217900F01F00814206D1A0782B
:20313C00002801BF607800280121A170286817F00BFD05E0002015F077F9862017F094FD01
:20315C00BDE8F78FC80F0020680F0020D50F0020C00C0020BC0A0020540F0020E00700203A
:20317C00780E002040350020D20F0020D1350020881C00208C1C0020ECDF010084E0010014
:20319C00DC340020AC0C00202DE9F04F0F46380589B018D5DFF8EC532888FF280ED0C0B2C1
:2031BC0016F05EFC040009D0A079162117F0C8FC204616F04BFC204617F0BEFCFF202880FA
:2031DC0087F40060DAE1F80508D5022017F0C5F808B10AF0B2FB87F48070CFE1B80604D56B
:2031FC000EF0A7FD87F02000C8E1F8070CD516F001FE30B100218160DFF88C03006800B18A
:20321C00804787F00100B9E1380704D510F0E7FA87F00800B2E1F8060FD500210022002366
:20323C000691059204910393029101920091022017F07EFC87F01000A0E1B8070FD50021F3
:20325C000023069105910491039302910191009101223C2017F06CFC87F002008EE17907CB
:20327C004FF01E08C94EDFF828A340F1CD80C9480022002108920791007817F0F9FC044652
:20329C00C5488178FF2904BF002015F0CDF8A07A16F0E6FB05469AF8000095F82E910028E5
:2032BC0005F5947B69D0606D807A022818BF032807D130680D3017F037FC10B93068C11D97
:2032DC0007915946484617F05BFCA0B3606D807C3368002818BF012804D11946584617F0F7
:2032FC004BFC04E05A464946184617F0E9FCFF2843D018FB00F83068404406225946C01D09
:20331C0016F008FC306810F80810404400F1010BC01D41F0020908900622616DC87A00F075
:20333C00010085F82E01606D00F10C0105F5947016F0F0FB21E05946484617F0F1FBE0B158
:20335C0030685A46494617F0BBFCFF2815D018FB00F8306840440D3017F0E6FB58B93068CB
:20337C0040440D3017F0E0FB002801BF30684044417F012901D149F0020905F12C004B46D7
:20339C00017806914289120905920122698C0491C0880899029140080390CDF800B007986C
:2033BC0001900020A97917F0C3FBD5F89C017B498842A8790CBF0021012117F0ADFB7848C3
:2033DC00AB7902682C214B43134401221A73AB7904684B4323445A73AB7904684B4323448A
:2033FC009A73AB7904684B432344DA73AB79006811FB03F10144002008740720A97909F023
:20341C00AEFF87F00400B9E038060FD5002100230691059104910393029101910091012238
:20343C003B2017F085FB87F08000A7E0F8045DD55C4930680C680D3017F076FB002844D13F
:20345C003068C11D0D3017F063FB3EE0606D4178480704F13E0526D5287802281EBF032840
:20347C006878012830D16978306804F1380217F027FC8146B9F1FF0F15D0306818FB09F943
:20349C0048440D3017F050FB68B930684844C11D0D3017F03DFB30684844C11D062204F137
:2034BC00380016F037FB2878022818BF03280BD130680D3017F038FB30B93068C11D062242
:2034DC0004F1300016F026FB2468002CBED13648DAF8042000784FF4805113F0E1F910B19F
:2034FC008E2017F011FB87F4805047E0B80505D516F088FD2D4901200860FEE7780504D521
:20351C0012F039FE87F4806038E0780405D5812017F0FAFA87F4804030E0B9042DD5244C77
:20353C00206810B1002014F07FFF4FF0FF3020600020204C0FF04EFB216851F8202F6846F3
:20355C0090471D494A6B086BC96A24681B4B019200900293ADF810106B46194A19491A4870
:20357C0003921A4A07922568194AA8471949086005F002FB87F4005000E0002009B0BDE8D9
:20359C00F08F00BF9A230020480F0020680F0020880E0020D70F0020780E00204DE5011041
:2035BC00403500204C0F0020C70F00207C052043380F0020200F00209C1D0020F19D0100E7
:2035DC00019E010044220020280800201EFB0080EC0A00201C0F00202DE9F043044685B097
:2035FC00084611F801CBDFF8A483DFF8A4332C22BCF1030F4FF0000904F5A47704F1660517
:20361C0004F1F40600F0C380BCF1070F00F08081BCF10F0F0CD0BCF1110F00F02481BCF102
:20363C001A0F00F03681BCF11B0F00F061818EE1707A820703D40F2184F8191159E00878AD
:20365C004A7800EB02233B808878CA7800EB02237B8008794A7900EB0223BB808879CA79A1
:20367C0000EB0223FB80087A38724A7A887A02EB00237B81C87A0A7B00EB0223BB81487BCF
:20369C008A7B00EB0223FB81C87B0A7C00EB02233B82487C8A7C00EB02237B82C87C0A7D45
:2036BC0000EB0223BB82487D897D00EB0122B948FA8201788A0658BF4FF01A0913D504F5E8
:2036DC00AA70049079890391387A029021890191F8880090BB887A883988204617F010FA7D
:2036FC00C8B14FF01E09707A410706D40F2084F81901204617F000FAF0E04A460F212046A1
:20371C0017F0F6F9F8880090BB887A88A179484611F01CFFE9E004F1860079888180BA88F6
:20373C00C2800222F98801810270A0F80290A18EC91DE983628E8188B1EB520F02BFC188E7
:20375C00A28E914202BF0089E18EB0EB111F1CD0287C012804BF687C0F2809D0687D002849
:20377C001CBF687C1A2803D00F21A976FE2176E0FC21204617F060FAF8880090BB887A885C
:20379C003988A07917F0B0F9AFE0102167E0707AC20709D431781A200129707002D1FF220B
:2037BC000D213BE00D215AE085F8009085F8069001233371082204F1B00017F091F90146AD
:2037DC00022204F1B80017F08BF904F1A80801460822404617F084F907460821404617F04E
:2037FC007BF904F19C0804223946404617F078F90421404617F070F904F1A00017F068F9E5
:20381C0004F1980017F060F96348018841F0800101803078012805D1FF220421204617F0DE
:20383C004FF962E06E7C0F2E18BF142E04D00E2E1CBF0C2E1A2E11D12F7C204617F03CF906
:20385C000421204617F0F8F9012F05D11A2EAE7614BFFD21FB2102E0314600E00421204686
:20387C0017F0EAF941E00E783E761A2E497879766DD11868A679411C564301F8069019680C
:20389C00A37912FB03F20A4482F80490A179787E56E0A77918680E785743074406F01F012B
:2038BC0017F8210FB60938B17878F040C00703D594F89601042805D120221A21204617F037
:2038DC0017F912E0F970A179186812FB01F28118204681F82360002116F049FD28B998F8EE
:2038FC0000004FF480410AF0FBFF4FF0010932E0A179186851430144C88808B981F80190CB
:20391C00A179186812FB01F2811881F80490ECE709780F2917D01A2919D1A179186851437D
:20393C0001441A2081F80190A1791B6812FB01F2991881F80490F17A01F0FB01F172A179B2
:20395C000EF03CFAD1E7717A01F0FD0171720146204617F0ADF8687C1A2812D1A87C1728DD
:20397C001CBF1028FC280CD12E7C204617F0A4F8012E03BF1A20A876FB211A21204617F057
:20399C005BF9484605B0BDE8F08300BFC70F002040350020200E00209C0F00202DE9F84F9C
:2039BC000422FF21684616F0C9F8DFF88C63B0780024FF2800F0BE8116F052F80546B07805
:2039DC0016F0F0F9064605F217100178012908BF417800F0008105F1740005F5927A817B72
:2039FC00022904BF05F174018C7395F89201022805F1740008BF85F89241017F022904BF1A
:203A1C0005F174010C77BAF80E1019B19AF80C000AF066FF6889C94F288105F58D7BBA7A1D
:203A3C00F879397B80184118F87A0818797B00EB0109BBF80400BBF80010401CABF804005C
:203A5C004944BBF80200ABF800101018ABF80200DAF80000F0B1BA4995F806E00B681C21EF
:203A7C0003F10E0C11FB0EFE0E331CF80E1030F811C0CC4420F811C01C2195F806C011FB03
:203A9C000CFC13F80C3000EB4300B0F84A105218A0F84A2014F03AFAF879002804BFF87A19
:203ABC00002805D1387B002804BF787B002840D0F481A046F07EC00910D0307F00F007010A
:203ADC00022907DA00F0F802401C00F007001043307703E0A879002112F06EFC2989E889D3
:203AFC002C744118287FA981012804BF688CE883A9790122072009F032FC787805F17406A2
:203B1C0058B101212977B078002804BFB07B002803D1307F08B9688CE8839AF814000028E7
:203B3C0062D0022804BFF87A002858D18AF814405AE0A9790022072009F011FCEC83317FE7
:203B5C0011F0070F02D1F07EC00903D0A879002112F032FCB87A38B1287F01284FF00108B0
:203B7C0027D1688CE88324E0BBF80600401CABF806004FF00208287CD8B172490868AB794B
:203B9C0095F82E6000F1140268694FEA400C40F6C4105B0110FB06CC0CF5F660D050096866
:203BBC00A87901EB4010C17C01F0F00141F00401C174A8892989814206D088429DD2081A2B
:203BDC0041F2AB02904298DA287C08B1052901D0082100E03E21284614F0B6FDAAE0787A40
:203BFC0010B102218AF81410F87BC1070DD538692968C86000F59070C86052480168A87967
:203C1C0001F114024001145014E04E48AB79026802F114015B01C858CAF810004848AB79B9
:203C3C0001681C2001F108024343D0582968C860EC832C77444A50690078810702D5B87BFD
:203C5C00802800D181203070404991F8200018B12946012000F004FE28460BF0CBFD0228B6
:203C7C001BD1F079022805DB6A463949284610F00BFD0446284616F017FF01285AD02000DA
:203C9C000DD022466946284611F082F938B928460BF0B0FD012802D14CE001284AD0012196
:203CBC00284616F0FDFEFEF7F3FD012842D0284616F063FB00F09EFF264F3868002839D0B4
:203CDC00B888AA7990421CBF4FF6FD71884231D12148007B16F0CEF804002BD084F800808E
:203CFC00A8791E4960800A68A879115C217105F5C9721079607196F90010A171A4F808903A
:203D1C00BBF80200608116F075F8050005D1FF204FF0FF312073216109E02878207316F0DE
:203D3C00BBFE0146A86816F0B3FE80082061204639688847BDE8F18F780E0020980C002032
:203D5C00980E00209C0E0020ECDF0100E8320020FC1E0020800E0020542200205835002086
:203D7C002DE9F04F0546AC4CDFF8A892A978A068ADF15C0D002900F09380491F4FD0491E34
:203D9C0000F0328113392BD0491E16D0491E40F03A81E97879B900200090012101910290F5
:203DBC009A490390A2781423102005F097FDC0B200282AD127E199A30BE0E97841B994496B
:203DDC00A3781020012205F089FDC0B2E8B91AE19CA3E97800220091042114F0D4FB12E192
:203DFC00E978A9B903200B2704F12006BF498DF81000A2788DF8117004AB0596102005F048
:203E1C006DFDC0B2002800F0FE8015F0A4FDFAE0E978002296A3044600910421E2E0B44919
:203E3C00102005F05BFDC7B20097A068022100229BA314F0A8FB687808BB0DF08BFB002061
:203E5C0080460090AB49CDF804806A894346102005F044FDA8496A891020012305F03EFD69
:203E7C00404610F02DFFA668281D11F03DFD009002218FA34246304614F085FB02E001207C
:203E9C0010F01EFF627837B9002349461020009305F024FDB7E09949102005F01FFDB2E048
:203EBC006978002940F0AF800221002284A314F06AFBDFF84CA25146CCC90EA8CCC00EC99E
:203EDC00671C80E80E000EAB1020DFF83CB28D4900975A4605F002FDC0B208B115F03BFDB6
:203EFC00122704F1380000978849019062780023102005F0F3FC04F13808C0B208B115F0D1
:203F1C002AFD182004F14A0600908049019662780123102005F0E2FCC0B208B115F01BFDA8
:203F3C0062787B491020922305F0D8FC00260096627810204946334605F0D0FCC0B208B15F
:203F5C0015F009FD50461C30B0E80C5006A9A1E80C500DC881E80D00A01C5A4606AB6949C6
:203F7C000090102005F0BAFCC0B208B115F0F3FC0097CDF804806549A2781020334605F055
:203F9C00ADFCC0B208B115F0E6FCA27860491020922305F0A3FC0096A27810204946334626
:203FBC0005F09CFCC0B208B115F0D5FCF0204027ADF810005749A278ADF8120004ABADF866
:203FDC001470102005F08AFCC0B208B115F0C3FCA468A81D11F088FC3FA132463BA300918A
:203FFC00012101902046F8E6022100223BA314F0CAFA0023009362784946102005F06EFC15
:20401C00032010F05DFE17B0BDE8F08FAB590100958A0100ED740110D01B0020456E616203
:20403C006C6520506572696F646963204164766572746973696E67206661696C65643A20C5
:20405C00256400C053657420506572696F646963204164766572746973696E6720446174A7
:20407C0061206661696C65643A20256400C046C053657420506572696F64696320416476DF
:20409C006572746973696E6720506172616D6574657273206661696C65643A20256400C043
:2040BC004E756D20436F6E6E733A20256400C046436F6E6E656374656420746F202573005C
:2040DC00496E697469616C697A656400257320416464723A20257300446576004469736387
:2040FC006F6E6E656374656400C046C051790100496B01007B9C0100C7A301006502021012
:20411C00B0D9010099010110038A01002DDC00001DEF0110496101002DE9F84FDFF8940324
:20413C000278112A03D0122A00F0BE81C0E1DFF888331878002116F09BFD05000AD10020EE
:20415C0014F072F9002014F06FF9BDE8F24FFF2016F08ABD05F14C0A9AF8000008B9012135
:20417C00E972401CDAF808108AF800004A78D106DCD4E97DDAF80470C2B28A424FF0000884
:20419C00D4D305F1280407F1900907F17306C34640F08C80A87F7075E97FB175DAF808205F
:2041BC005278930710D5EA7FD30604D5C01E707501F0EF01B175C7F874B086F800800022B2
:2041DC00B17D01F0FE016AE1910608D4E08B00B1E07E3076E08B00B1206AC9F80000DAF88E
:2041FC0008004178CA070DD5E08B00281CBF206A002807D0C9F80000A17EE08B814238BF33
:20421C0008463076E87FC1060CD5B86B217800EB8100B863B86BA98CA63100EB81007867C2
:20423C00022002E0C7F874B000203070DAF80800417811F0030F22D1007816F090F85FEAD3
:20425C0000081CD098F8B000032809D1E87F810615D440F02000E877B07D40F020000DE019
:20427C0068B9E87F81060AD500F0DF00E877707DA0F112017175B07D00F0DF00B075E97F06
:20429C00002201F0FC01284609F000FFB8F1000F36D0E87F810633D598F8B00002282FD16E
:2042BC0041462846BDE8F44F16F065B8E87F81060AD500F0DF00E877707DA0F11201717570
:2042DC00B07D00F0DF00B075DAF808004178C80717D5B07D717D00F0F700891E01F03F0179
:2042FC0082075CBF891D40F00200420644BF491E00F0BF00B0757175C9F800B086F8188033
:20431C00D6E09AF80020E87D121AD2B28907009240F18280012A07F140083FD1B86BA98CDC
:20433C0000EB8100B863A87F00F03F00A8777075E97FB175DAF8082053785A0703D5801F55
:20435C00707501F0FD01B1750023707DE17E00F03F00421898F80000521CC0F3800192B2D9
:20437C0000F0030016F028FC00F59B70A8841E21A88C90FBF1F18AB2B17D01F0FE01284630
:20439C0009F084FE86F800B0E08B00B1E07E3076E08B00B1206AC9F8000089E0B86BA98C10
:2043BC00022A00EB8100B86326D1E87FC10706D5707D811F7175B07D00F0FE00B075002357
:2043DC00707DE17E00F03F00421898F80000521CC0F3800192B200F0030016F0EDFB00F5A0
:2043FC009B70A8840022B17D01F0FE01284609F04DFE607FA8F81A00617F0098491C081AE0
:20441C00C0B201281CDDB96BAA8CA63201EB820179670221317014E0B86BA98C00EB8100EF
:20443C00B863617F0098081AE97FCA06C0B207D5B96BAA8CA63201EB8201796702213170E0
:20445C00B0B395F81F80A97FD9F80020E37E1A44C9F8002028F00108DAF8082052785307B9
:20447C0048BF28F00208920748BF28F00808012807D1207F3076C7F874B028F0100886F858
:20449C0000B001F0C004404616F09AFB00F03F002043707586F81680002208F0FC0128466A
:2044BC00BDE8F84F09F0F2BDBDE8F14F08F0D4BCBDE8F18FC80F0020D50F00202DE9F04178
:2044DC00FF2806462AD115F0E5FD10F01F0F22D0042013F0DFF808B1042016E0012013F056
:2044FC00D9F808B1012010E0022013F0D3F808B102200AE0102013F0CDF808B1102004E08B
:20451C00082013F0C7F820B10820BDE8F04113F067BB13F089FF0020BDE8F08113F060FB82
:20453C008046012ED8F8044046F2A81740F6C4100BD0022E5DD0042E00F0AB80082E00F0AA
:20455C00F380102E00F04281E5E7DFF8000301688F88102013F09EF8E8B1102013F040FBE5
:20457C0005466E6846B9022013F094F820B1022013F036FB05466E68012013F08BF840B16E
:20459C00B068A0EB8701A06814F0C2FC08B94046C2E72846C0E7022013F07CF890B1022009
:2045BC0013F01EFB06460120756813F073F838B1A868A0EB8701A06814F0AAFC0028E6D06F
:2045DC003046A9E7042013F065F808B10420E7E7082013F05FF830B1082013F001FB416857
:2045FC00002999D1D3E7012013F054F8002893D0CDE797490A689749D3690A7802EB820242
:20461C009E18F7884743042013F044F807F5166788B1042013F0E4FA06460220756813F057
:20463C0039F80028CCD0A868C11BA06814F070FC0028C5D1ABE7082013F02CF8D8B10820B5
:20465C0013F0CEFA05466E6846B9012013F022F820B1012013F0C4FA05466E68022013F01C
:20467C0019F8002895D0B068C11BA06814F050FC00288ED18BE7012013F00CF808B1012039
:20469C00C8E7102013F006F808B11020A5E70220AAE771490A68714953690A7803EB0216CC
:2046BC00B7894743082012F0F5FF07F5166780B1082013F095FA05466E6846B9012012F04F
:2046DC00E9FF20B1012013F08BFA05466E680420C5E7012012F0DEFF28B1012013F080FAF4
:2046FC00064604209AE7102012F0D4FF80B1102013F076FA05466E6846B9022012F0CAFFC7
:20471C0020B1022013F06CFA05466E680420A6E7022012F0BFFF28B1022013F061FA0646C8
:20473C0004207BE704205FE715F015FE08B1D0F89070042012F0AEFF58B1042013F050FA87
:20475C0006460820756812F0A5FF002818BF002C68E7012012F09EFF60B1012013F040FA9D
:20477C000646082012F096FF002818BF002C3FF427AF0CE7102012F08DFFA8B1102013F0A1
:20479C002FFA05466E6846B9022012F083FF20B1022013F025FA05466E68082012F07AFF35
:2047BC00002818BF002C5DE7022012F073FF58B1022013F015FA06460820756812F06AFFDF
:2047DC00002818BF002C2DE708200DE7032015F0C4FD08B1D0F89870022012F05BFF50B171
:2047FC00022013F0FDF90646102012F053FF002818BF002CBBE7042012F04CFF28B1042077
:20481C0013F0EEF90646102008E7082012F042FF80B1082013F0E4F905466E6846B9012042
:20483C0012F038FF20B1012013F0DAF905466E68102014E7012012F02DFF28B1012013F0C3
:20485C00CFF906461020E9E61020CDE654350020500F0020D80F0020540F0020D90F00208C
:20487C002DE9F0470024002501288AB0074603D0022808BF0D4600E00C46DFF86883DFF8F4
:20489C00689398F820002C2600281CBFD8F81C00002810D0D8F8140016F062F998F82020F3
:2048BC000146002A1CBFD8F81C00002803D011B1087903280ED0002C0BD0A07916FB00F636
:2048DC00D9F80000411D8A5D012A02D1401D0021815568E1501E88F82000887A00F01F02EA
:2048FC0080094FEAC20C032FACF10C032ED1BF4A1478012C04BF5478012C40F06B8110B9CC
:20491C009268527806E0012808BF012202D0022846D1022201F110050595550093FBF5F31B
:20493C000833B34CDBB2002604930396A47BC97A663C01F0010102910192009004EBD4745A
:20495C00E40500230022210E00206DE0022F6ED1002D53D005F180042278012A20D105F18B
:20497C00A906327894F810E0002A07BF94F80C9094F80EC094F80D9094F80FC05FEACE72C7
:20499C0048BF4FF0010A10D420B9A26892F801A001270AE0012802D10127BA4605E0022873
:2049BC0040F0FD8001274FF0020A4FEA4A0293FBF2F257430837B9F1010FD8BFBCF1010FDD
:2049DC001DDD01F110020892CDF81CE0CDF818C0CDF81490BFB20497238C0393CA7ACDF802
:2049FC0004A002F0010202920090487B7379A97C60F0FF0082B2A08B01F078FCEAE001F13B
:204A1C0010020592FFB20497238C0393CA7ACDF804A002F0010202920090487B7379A97CA6
:204A3C0060F0FF0082B2A08B03F0F6F9D2E0012FFCD1002CFAD0A379D9F80050734305F13C
:204A5C00050E1EF80370012FF0D16D1D0027EF54A379D9F800507343EF5C012F24D12B44E7
:204A7C009B7E9B1E132B80F09A8094F89631042B00F09580CD7AC5F340156D1CAB4213D14B
:204A9C00A379D9F80050734305EB030E9EF81A70974202BF05F11B02D25C824201BFACF1EA
:204ABC00040217010A89974279D191F80DC005F116026CF0FF0C22F803C005F11403A57933
:204ADC00CA7A754302F001025A55D9F80030A27903F11205724394F89631AB54D9F80020FB
:204AFC00A379278902F1180573431332EF52A37994F838507343D554A479D9F8002016FB54
:204B1C0004F63244957C92F81090012D07BF137B967B537BD67B5FEAC9772CD54FF0020E43
:204B3C004FF0010C977EFF000C3F4FEA4C0A97FBFAF0012B00FB0EF0D8BF012E00F10807B8
:204B5C0033DD01F110000990CDF8209007960693B8B20590118B0491107D0390CDF808C006
:204B7C00D17E01912946507D00902046D38AD27C01F01CF92EE028B9D06990F801C04FF0A5
:204B9C00010ECFE7012803D14FF0010EF446C9E7022804D14FF0010E4FF0020CC2E7D8F8EC
:204BBC00140015F0D1FF002019E001F110000690F8B20590118B0491107D0390CDF808C022
:204BDC00D17E01912946507D00902046D38AD27C05F0D6F8D8F8140015F0B6FF01200AB0BF
:204BFC00BDE8F087E832002040350020DC340020940B00202DE9FE4FDFF818536F681FB96B
:204C1C00BDE8F74F15F040BF3878DFF80CB3C34EDFF80C83012818BF02280AD004281CBFC1
:204C3C000828102805D0402818BF802800F0A78069E115F035FA0028FAD0012012F02AFD63
:204C5C0020B1012012F0CCFF12F0B4FC082012F021FD20B1082012F0C3FF12F0ABFC387869
:204C7C00FFF72CFC814698F80100D9F80440002850D006F051F814F0F3FE8246DAF8000077
:204C9C00009047689AF8060088F80300BCB10099484608F065FB022811D099F800100129DC
:204CBC0002D0082965D02EE128B915F0F5FE00F5E8504C30A0600120A87011215CE00098D0
:204CDC00017880290BD10820964930700A787869012A1ABFDBF824100978012114E00720E7
:204CFC0030709AF8060015F05DF80446207BC10748BF9AF8060067D48A4801787869012929
:204D1C001CBFDBF824104978C1729AF8060088F80200BFE0B9F1000F11D099F800004F4529
:204D3C0009D1012818BF082801D134BBF0E0002013F07AFB21E0012802D0082817D0E2E04F
:204D5C00002CF3D015F0A8FE0146A06801F5C241A83114F0DDF828B915F09EFE00F5E850F4
:204D7C004C30A060112030700121A97005E0002CDCD00820A870122131704846BFE098F801
:204D9C000100002800F0888005F0C6FF14F068FE8146D9F800000090D0F804A098F802008C
:204DBC0014F05EFE019099F8060088F803003978402913D199F8060014F0F4FF0446207B5B
:204DDC00C1070BD599F8060014F04AFE052113F0BBFC207B00F0FE00207399E015F05AF95F
:204DFC0010F01F0F32D0012012F054FC20B1012012F0F6FE12F0DEFB082012F04BFC20B1EF
:204E1C00082012F0EDFE12F0D5FBA878FFF756FB07467C68D4B1009908F0A2FA022815D036
:204E3C003978012902D008290BD00CE028B915F033FE00F5E8504C30A060112030700121FE
:204E5C0056E0082057E0002013F0EEFA0198484520D0009933480A78802A0BD1082131709A
:204E7C0000780128DAF814001ABFDBF82410097801210AE00722327000780128DAF81400D0
:204E9C000EBF0121DBF824104978C17299F8060088F80200009832E015F0FCF810F01F0F22
:204EBC0036D0012012F0F6FB20B1012012F098FE12F080FB082012F0EDFB20B1082012F0A8
:204EDC008FFE12F077FBA878FFF7F8FA074638787C68012802D008280CD019E0C4B115F052
:204EFC00DBFD00F5E8504C30A060012111203070A97003E064B1A870122131703846BDE802
:204F1C00FE4F08F01BBDBDE8FE4F002013F08CBABDE8F78FF4340020ECDF0100C80F0020C7
:204F3C00780E0020CC0F00202DE9F84F05004ED0DFF8E48298F80000092818BF0A2804D059
:204F5C000B281CBF0C280D2801D1212062E1A878002115F08DFE040008BF4220F6D0AF4FA6
:204F7C00A978DFF8BCA2397098F8000010B9A8788AF8000004F14806F068417801F01201C3
:204F9C00022902BF706900280C2012D0607AF0B1A07B012804D1B5F8030008B1812816DA64
:204FBC006878402813DA204615F06AFDB06808B907202FE1B561287801281FD1A07B0028AC
:204FDC001CBF0128042819D19648007808B9122020E195494A78824208BF0920F8D0F068DD
:204FFC00417848070AD504F1220180204A7F04F1380107F0ABF808B10B200BE1687808B9F4
:20501C00112007E12878DFF82492DFF824B2012840F0AF8000212173F166217A012903D154
:20503C00B16968794871F4E0012000212072E172617325460AF0C6FA6060DBF80000804752
:20505C007C4A0146106802E06A68426000680028FAD10846D9F800108847696876484861C8
:20507C000021387815F06FF939780122112008F076F9F0684178C80605D5284601F078FAE0
:20509C00010024D0C6E0688C10F0DEFA85F82100F068007815F063F904001CBF94F8B000A3
:2050BC00002807D0E87F40F02000E877687D40F0180068752846FCF71BFF0100E2D134B1A1
:2050DC0094F8B000012804BF284615F052F9F0684178C8071CD505F14204A18800291CBF94
:2050FC003068002814D022788A4211D20F2015F0C3FC68B1F06801788DF800100F20A288DC
:20511C00ADF8012021788DF80310694615F0B0FC98F80000A0B94949087800281EBFF068C4
:20513C00417811F0030F03D04548006815F09CFC112088F8000001212972FFF75BFD68E01E
:20515C00284612F019FD00281CBFB168002960D0AA7B012A04D02A69808802EB800202E028
:20517C00486E2A69821895F8B81010460AF0C6FE4FE0207A00284CD0DBF8001088470546BD
:20519C003878012115F0DFF800202E4920720A683E7811460B68187A002802BF586D03786F
:2051BC00B3421FD0C9689142F4D138789AF80010884224D114F01EFE616888421FD112F070
:2051DC00A5FE40F2014015F0D3FC1F491F4A204808600121107809F083FBD9F800102846B8
:2051FC00884716E01B4E30780128DEDD084612F0C5F914F02FFE3078411E3170D5E72046D0
:20521C0015F02EFCD9F8001028468847204611F09FFF0020BDE8F28FC80F0020D60F0020DE
:20523C00D50F0020D40F0020780E00208C1C0020881C00204C0F002001910000880E002056
:20525C006C0F002054350020480F0020C70F002095550000CE3500202DE9F043A24CA34951
:20527C00A34E20700A22002008600D23A14840F2222102704380818085B09F4A9F481060A4
:20529C0037789F480770FF2F7178417008BFFF29B2788270F378C3703579057176794671AA
:2052BC0014D1FF2A08BFFF2B10D1FF2D08BFFF2E0CD194490A7802704B7843708A788270BA
:2052DC00CB78C3700A790271497941718E4902788E4D8F4E8F4F0A7043784B7082788A7007
:2052FC00C378CB7002790A7140798B4A4871FF2028706870A870E87028716871002087497E
:20531C000880F06B8649407808708649F06B007808701388844885490380F06BC06C0860CE
:20533C008349F06B90F83C0008708249F06B90F83D0008708049F06B90F860000870F06BAC
:20535C00406901797D484A1E0270F06B7C49C0783870F06B8069086008B913F065F8F06B47
:20537C007849C069086008B913F05EF8F06B416D75480C2214F0CEFB15F06EFBF06B73495F
:20539C00006A086008B913F04FF8F06BDFF8C081406AC8F8000008B913F046F8F06B6D4924
:2053BC00806A086008B913F03FF8F06B6A49C06D002840D001220A75F06BC06D02681378F2
:2053DC00C3F3400048B1F06BC06D02681378C3F3C00000280CBF01200220487500208860D4
:2053FC00C8600861F06BC06D426890780870F06BC06D4268D0784870F06BC06D426813785F
:20541C008B70F06BC06D42685078C870F06BC06D426810790871F06BC06D4268507948715B
:20543C00F06BC06D426890798871F06BC06D4268D079C87101E000220A7501F065FD072864
:20545C000AD106F013FF20784FF4804109F048FA002012F0E9FF43E04048016888478146C2
:20547C000EF0A8F8D8F8000001688847684614F08DFBD8F8002004208DF80000694652F89E
:20549C00043F002098473649086010F071FBF068344A01883878344B0143118048461968E9
:2054BC0088470C21314814F06CFF284615F0D0FA15F0CAFA2E4800214FF6FF720160828036
:2054DC00F06B90F858102B48006814F063FC0121FF2014F038FF20784FF4005109F000FA8C
:2054FC0005B0BDE8F08300BFC70F0020380F0020D04F0050700E00203C0F0020B63F0050EA
:20551C00400E0020E8120050500E0020480E0020ECDF0100C40F00209C2300209E0F002058
:20553C00C60F0020D40F0020BC35002048350020CF350020D0350020CC350020CB0F002045
:20555C00200F0020240F0020E8340020280F00202C0F0020300F002074340020881C0020B4
:20557C004C350020A00F00208C1C0020FC0D0020800E0020603500202DE9F84FDFF8A092E5
:20559C0099F80000002115F073FB040004F1500602D112F049FF33E1207A08B9002140E0AE
:2055BC00217B491C21733069407920B1C9B2814208BF432135D004F14508002088F80700C0
:2055DC0014F00BFE7168D1F80320D4F810C022F07F4240F6C41303FB02CC4FF00B0E90FBB2
:2055FC00FEFE0B2202FB1E00376880B24FF47A6148431CFA80F0B86033688A489968216143
:20561C0033690268B3F8030000281FBF706E0028A37B012B0CD0938801EB8301814207D360
:20563C003C21204611F0B4F8BDE8F14FFFF7E2BA7D4D2878022809DBD06801681068096964
:20565C00006913F065FC08B10EF046FB70684178CA0604F122071BD5A07B01280CD10021B8
:20567C002172287810B1204615F0FAF96F480078022109F035F9AEE0306890F8631001F031
:20569C00E00141F0860180F8631069494166A2E0356805F1020A0021AAF8001005F1730BA9
:2056BC00407A11F053F825302076207E8AF80C0020460CF0A3FD207D8BF815000020617D7C
:2056DC008BF816108BF81800C5F890003888401C388080B20FF0B8FF84F821007068417833
:2056FC0011F0030F42D1007814F039FE00283DD000F1B0010878032806D1E27F930603D48B
:20571C0042F02002E27731E001280ED1E07F40F02000E077607D40F0180060752046FCF74E
:20573C00E7FB204614F025FE20E008B10879E8B1E07F00F0DF00E077B068002804BFF0682B
:20575C00002810D17068007D83280CD0617D03280A4607D0C80648BF01F0EF02100748BF43
:20577C0002F0F70262752046FCF7C2FB617D002201F0FE01204608F089FC0020AAF8300070
:20579C0005F13E0094F8211001F03F010170A968628B01EB8201A9630021018298F800208D
:2057BC00828371684A78910709D5BA887A80A17F01F03F0141F08001A17701218183E07FDB
:2057DC00C10608D5A86B7988A63100EB8100686702218BF80010174A107888B1387F02282A
:2057FC0018BF03280CD1144F38680D3015F09CF930B93868C11D062204F1300014F08AF999
:20581C00FFF7F8F94CB17068017E480605D54946BDE8F44F032015F02BB9BDE8F18F00BFA2
:20583C00D50F002054350020CE350020C70F002000204E00880E0020680F00202DE9FE4F68
:20585C0001200190A24EA348A34F0278112A02D0122A0DD036E1A14C2078002115F008FA49
:20587C009F490546087810B100220A70F2E0002D00F01B819B48DFF87082DFF87092386054
:20589C0001222178112007F06AFD286D696D009141F60802009B96495C78E30640F1DC80A0
:2058BC00044641F20443B4F802C09C451FBFB4F81AE09E45B4F832C09C454FF4A05A1CD0AA
:2058DC0095F80EC0BCF1010F04BFB5F89EE09E4513D0B4F802E041F20A439E451FBFB4F865
:2058FC001AB09B45B4F832E09E4506D0BCF1010F04BFB5F89EC09C4503D13380C7F8008039
:20591C003DE0002340F2FE3B4FF0180C0CFB03FCA444BCF802E0A6F800E0BEF1010FF3D0D9
:20593C00BEF1000F55D0AEF1020EBEF1010F50D9BEEB0B0E1AD04FF48063BEEB030359D027
:20595C004FF4406BB3EB0B0343D09B1E012B40D91B1F3ED040F2FA3BB3EB0B036FD05B1E6D
:20597C0061D0D81E46D0001F44D06DE0B4F800C040F6010EF4452CD15B1C022BC4DD386882
:20599C00404525D1A06C0168A06C026810790831032804BF94F86C00012811D1D1F80E00FB
:2059BC0000281CBF088B00280AD091F8220010F0E00F05D101F11E0015F042F8012870D00B
:2059DC00A6F800A0C7F80090A06C01680020087167E0A87B01281CBF0428A6F800A0C7F879
:2059FC000090087D0028CAD08868401C002288600A82C4E7A87B012806BF41F20243ACF8FA
:205A1C000230ACF802A03088904215D1CA68088A4D8A521CCA60401C82B2AA4238BF2A466C
:205A3C004A82088208E000994A78D1064CBF816CC16E086800210171C7F800909FE70020BB
:205A5C0012F0F2FC832003E0002012F0EDFC842015F00AF9012038E0438E41F204455C1B00
:205A7C001CD0A41F1AD03380408890420CD1CA68088A4C8A521CCA60401C82B2A24238BFAA
:205A9C0022464A82088206E0087D20B18868401C002288600A8241F20643C846C7F8008045
:205ABC00338001211348007809E014F054FC58B1C08811490F4A308039600121107808F0F6
:205ADC000FFF01E0002001900198BDE8FE8F00BF9A0F0020C80F0020480F0020D50F002045
:205AFC00D2350020756B0210950B00009555000074340020C70F0020DD870000F8B51446BE
:205B1C0000254FF48067DFF89862C21B84B006F18C0334D0921E39D0521E47D0521E52D0DC
:205B3C00521E58D0521E5CD0521E00F08280921E00F08480D21E00F0B480521E00F0BF805C
:205B5C00921E00F0C880521E00F08380521E00F0C980521E00F0D780521E00F0DA80521E54
:205B7C0046D0521E5ED0521E53D0921E00F0E580921E00F0E980521E00F0F48003E10129D2
:205B9C0015D12078022822DC707006E101290ED1207802281BDA012804BFF178032900F04B
:205BBC00FB800028B070F0D17574E7E0012940F0E880207805280ADA0328F0700AD10020A4
:205BDC00B0707074DAE001296CD12078022880F2D8807073E1E0102964D110222146714894
:205BFC0014E001295ED12078022863DA3071D4E0012957D1207802285CDA00287071F6D0CF
:205C1C000120B074602206F12C01184613F082FFC3E00129FCD12078022802DAB07114F03E
:205C3C00F1F8BAE001293DD12078022842DAF072B3E0012936D12078B073AEE0002931D115
:205C5C0014F0DEFF10B9FAF722FC1DE001207075A3E0072926D10622611C02A813F02CFD47
:205C7C0000950023217801AA02A809F07BFEB0B9F07A10B914F0C4FF10B1F07A012808D160
:205C9C009DF80400FAF714FC0546502013F000FA1EE0716A9DF80420012088547DE0342551
:205CBC007BE001296DD1317C2078022903D0C11F0A2902D365E0102863D1F0736DE001294F
:205CDC005FD1317D20783075002908BF012864D1FAF76AFB61E0012953D12078032850DC6B
:205CFC00F0745AE001294CD12078022849DC002847D03074022803BF1020F0730120002019
:205D1C0014F09AFE49E001293BD1207813F0DCFA43E07079002834D1602908D1002C30D034
:205D3C0060222146184613F0F5FE012003E0012927D134B32078B0742FE0012921D104B35F
:205D5C0020781949087028E0D9B914F059FF30B9FAF743FC0546502013F09AF91DE0012037
:205D7C00B0751AE001290CD12178022909DA012904BFB07800280FD07174084614F04AF8A5
:205D9C000BE0182509E00F2806DA022904D1218810F08CFE054600E00225284605B0F0BD6A
:205DBC00D81A00203C330020D53500202DE9F84F0746A4480C46C179880688B04FF00009CC
:205DDC0002D5A1498878810640F139811B98179900B90021DDF86080DDF864B0464616FBFC
:205DFC000BF611FB06F1ADF85C106021BDF85C5095FBF1F1602606FB115606B101260695B7
:205E1C008DF810208DF81140ADF8123071188F4D2A78129B139C149EDDF854C0DDF858E0E9
:205E3C00DDF868A0002AC9B266D08DF850600025BDF85C60ADF814708DF848308DF84C408C
:205E5C008DF854C0ADF858E01B9007910799E8B2884280F2F480B0B26028ACBF6027F7B2FE
:205E7C0078001C3080B212F0A9FEF61B040041D0912020703E2181226170A2705B460698DC
:205E9C00A080A5714246BDF8140020819DF81110A1729DF81000E072BDF81210A1819DF870
:205EBC004800A0739DF84C10E1739DF8500020749DF854106174BDF858006082277504F15F
:205EDC001C0084F8158084F816B084F817A0A0610390CDF80490CDF800A01B989DF850100A
:205EFC000290384602F088FA814658480078214604F0A6FD6D1CA9E78DF850608DF8608072
:205F1C008DF864B0BDF85C60DDF81880ADF814708DF848308DF84C408DF854C0ADF858E041
:205F3C001B900791CB4684E0B0B26028ACBF6025F5B26F00143707F10B00C0B212F03EFE9F
:205F5C00761B040073D001202070FF2104F1080261706260042010703E22606842708120CB
:205F7C0061688F706168C8704FEA2821606880F8048060684171616881F806B06168BDF806
:205F9C001400C8716168BDF81400000A087261689DF81100487261689DF810008872616828
:205FBC00BDF81200C8726168BDF81200000A087361689DF84800487361689DF84C008873A9
:205FDC0061689DF85000C87361689DF8540008746168BDF8580048746168BDF85800000A1C
:205FFC0088746068C57460689DF86010017560689DF864104175616881F816A060681B9A49
:20601C009DF86430029200F117010391CDF804909DF860209DF85010CDF800A0284602F0E2
:20603C00EBF981460A480078214604F009FD0BF1010B07995FFA8BF08842FFF675AF09B056
:20605C00BDE8F08F280E0020200E0020C5350020C33500202DE9F04FDFF84C9204460D4683
:20607C000020ADF1440D01461F460D9016460E9183460F91D9F808A0CDF840B00CF0C6F95F
:20609C00262803D00CF0C2F9252825D1308843F6070181420ED040F60201814206D0B0F5B8
:2060BC00C15F19D1F07B022816DD43E0F07B022812DD3FE096F8240002280DDD307C0F28C3
:2060DC0038D13169C1F31421B1F5803F04D00F2830D1B1F5A02F2DD1002D2BD056B3287863
:2060FC004FF0010808FA00F01AEA000F22D03046594614F044F965606C4DA660A86980B129
:20611C0010A800900DA90EAA0FAB304607F024FA0E980B214FF6FF72502312F0B1FAFF2899
:20613C0008D014F0F0F882462878022804DB504614F036FD5C46B2E000286DD104F056F865
:20615C005B495C4E086840F00200086009A8C9F8006013F097FE584E5849707809AA0B90E4
:20617C0005F1DC000FF096FB554905F58C7009AA0FF090FB09A813F0DDFD192109AB3078AC
:20619C00504A0A9005F15C0010F0D0FE4E4A05F178001A2109AB10F0C9FE4C495A4605F5A4
:2061BC00AA70134610F002FC49495A4605F5CC70134610F0FBFB47480068C0F3814030B14F
:2061DC00454A05F1300004215B4612F0D1FAB078012802D10E2009F069FB05F19C0013F017
:2061FC0021FC05F1940013F01DFC594685F82C1085F82010072085F84002A962A960374B3F
:20621C00197085F82D100526E960354A2E6104206A6212F08BFC287805EB8001401CC1F8FE
:20623C00B440C0B22870504614F0BAFC1FB901A813F034FC01AF38684FF4FA76E660206077
:20625C00B86941466062388A6175E082F869E062786800280CBF40F6C410594620612148B5
:20627C00E06120622175A061F86800B1E061786900B12062B86800B1A061C82204F1300061
:20629C0059460CF0BAFB04F14800594612F0A0F815495A4604F1B000134610F087FB204638
:2062BC0011B0BDE8F08FC046CC210840E00F002000200940110000E0ECDE0100A596010032
:2062DC0031E80000814C01005D3D0100CD8F010055930100B44F005019600100DB350020DD
:2062FC003DDB00006B380100C5A201002DE9F84F05469B480C46C179880688B016464FF0E6
:20631C00000902D597498878C10640F125811A98002800F02181DDF85C80DDF860B0169952
:20633C00914FDDF854E0DDF864A0ADF81260424612FB0BF211FB02F1ADF858106021BDF894
:20635C005820139E8DF8103092FBF1F14FF0600C0CFB112C8DF81140BCF1000F3B78129CE2
:20637C008DF84C6018BF4FF0010C6144DDF850C0BDF85860ADF81450002BC9B28DF84840FA
:20639C008DF850C0ADF854E056D01A90069107920025069AE8B2904280F2DE80B0B2602888
:2063BC00ACBF6027F7B278001C3080B212F006FCF61B04003ED0912020703E2184226170F2
:2063DC00A2705B460798A080A5714246BDF8140020819DF81110A172BDF81200A0819DF8E1
:2063FC001010A1739DF84800E0739DF84C1021749DF85000607404F11C00BDF854106182D1
:20641C00277584F8158084F816B084F817A0A0610390CDF80490CDF800A01A989DF84C1049
:20643C000290384601F0E8FF81464F480078214604F006FB6D1CACE78DF85C808DF860B014
:20645C001A9006919346984680E0B0B26028ACBF6025F5B26F00133707F10B00C0B212F017
:20647C00ADFB761B04006FD001202070FF2104F1080261706260042010703E2260684270A3
:20649C00842061688F706168C8704FEA1B21606880F804B060684171616881F806806168FF
:2064BC00BDF81400C8716168BDF81400000A087261689DF8110048726168BDF812008872F5
:2064DC006168BDF81200000AC87261689DF81000087361689DF84800487361689DF84C00D8
:2064FC00887361689DF85000C8736168BDF8540008746168BDF85400000A487460688574F5
:20651C0060689DF85C10C17460689DF860100175616881F815A060681A9A9DF860300292F2
:20653C0000F116010391CDF804909DF85C209DF84C10CDF800A0284601F05EFF81460B480D
:20655C000078214604F07CFA08F1010806995FFA88F08842FFF679AF09B0BDE8F08F00BFE1
:20657C00280E0020200E0020C5350020C33500202DE9F84F0446002000900CB911F054FFB9
:20659C0004F1500569462E68204608F073FA08B9072015E1A04641F28839DFF828B2DFF845
:2065BC0028A2002469684A7A1820604301233718A3401A420AD098F80E103AF8110038802C
:2065DC0000211BF80420BA73F97302E040F6010038800021798007F118007860387B00F038
:2065FC00EF00387340F08000387398F80E10012916D1397B002C0CBF0220052001F0F001F7
:20661C000843387324B914F047FA00F57A6000E04846B860787B00F0F00040F0020017E0F5
:20663C00002C0CBF0221002100F0F0000843387324B914F031FA00F57A6000E00020B8603A
:20665C00022C797B0CBF0120022001F0F00108437873641C06F14800386106F16801032CEF
:20667C0079619FDB98F80E000024012808F1A80718D108F19C0070631822314613F04AFACE
:20669C0006F118002865C5F85490397801F0F00141F005013970787800F0F00040F002002C
:2066BC00787000E07463B068C8F8100047480178397414F07DFAB064454881690978CA072A
:2066DC00826912784CBF1F210F2193078269127848BF41F0200153078269107848BF41F041
:2066FC004001020706F14C0248BF41F08001117054706968887C00F0030008F13E01507031
:20671C000B7863F3820050704978947061F3C3005070D47040F0100050703465746508F1F7
:20673C003800F06598F80E00012818BF042815D0A86830B1B0F803009070A968D1F8050086
:20675C003065E86830B1B0F80300D070E968D1F8050070651F4801684868F06508F130007A
:20677C00B065D07D00F0EF00D07540F08000D07500F0F00040F00600D0752869B0F80300EB
:20679C0000280EBF144849F64041484370661349087838B15078117840F0400001F0FE01F5
:2067BC00507011700E498B78507859064CBF40F0200000F0DF005070009807F015FB002052
:2067DC00BDE8F28F506E0210F46B0210CB350020ECDF01006C0F002000204E00880E00208B
:2067FC00C00C00202DE9F0470646B078ADF1180D022840F00881944C30882188222814DCAF
:20681C00222800F0E180002800F0FD80C01E00F0F680401E00F0F080DFF83082401F0C280E
:20683C000DD9173800F0D78018E0273860D0401E2CD00A3817D0001F00F0BE800EE0DFE8B4
:20685C0010F0D900D700B200D500D300D100CF00CD000D000D008D0085006400B0680028D5
:20687C0000F0D1804CE0B0680028014600F0CB80206A002800F0C7800A88805C400803D259
:20689C0062A013F03DF9BEE00920BAE0B768B878012823D1A08CB7F8009097F803A007F13F
:2068BC0004080125000A1AD3B8F1000F17D0206A19F80000400812D3042013F015F8041CD8
:2068DC000DD0A4F80090A01C414652460AF06EFA0820214612F0BCFB002500E0062538881E
:2068FC00ADF80000B8788DF803508DF8020006E0B06828B18178028808200FF061F9B06855
:20691C0011F084F80020B0607DE0B5682879AB7A70B12878207768786077287AA0776878C6
