:2000000000380120657A000039FB021039FB021039FB021039FB021039FB021039FB021004
:1C00200039FB021039FB021039FB021039FB021039FB021039FB021011FB021002
:20003C002DE9F04F0746B878ADF1440D022840F0B482C44C38882188222815DC222800F065
:20005C003682002800F0A282801E012840F29A82801E00F08C82DFF8F092401F0C280ED90C
:20007C00173800F0388219E0273800F09E80401E52D00A3830D0001F00F011820EE0DFE8EC
:20009C0010F06A026002F90156024B02400236022D020D000D0065013101BA00062001217A
:2000BC008DF82D000DF12D020B46812005F038FFB868002800F071820AF0D2F909900AF0A4
:2000DC00CBF90A90B86809F033FE0020B8600A980AF0BEF9099865E00021B8688DF82E10E7
:2000FC00024690B1206A80B11188405C400806D2CBA009F037F901208DF82E0003E00920D7
:20011C00114609F0CDFB012302E001238DF82E3032200DF12E023DE2BE68B078012823D194
:20013C00A08CB6F8009096F803A006F104080125000A1AD3B8F1000F17D0206A19F80000AE
:20015C00400812D3042008F067FD041C0DD0A4F80090A01C4146524605F064FD08202146ED
:20017C0009F09EFB002500E006253088B4788DF81B50032106AAADF8180004238DF81A4036
:20019C00282005F0CDFE0AF06BF907900AF064F90890B86809F0CCFD0020B86008980AF0A3
:2001BC0057F907980AF050F9F7E10024B8688DF82F4040B181780288082007F041FE0128E6
:2001DC000AD0012302E001238DF82F30272003210DF12F0205F0A4FE0AF042F904900AF027
:2001FC003BF90590B86809F0A3FD0598BC600AF02FF90498D6E7BD68002695F80A806888DB
:20021C008DF8316009F0BEFC2B7933B9002833D08178012908BF86702EE020B1817801295C
:20023C0047D0012181702878207768786077287A4B46A077B5F802A069782C7A59736878BE
:20025C0005F10B0202280DD0287AA97A08F034FD30B9504606F02EFA5FEA000A03D006E0E1
:20027C00824604E0B24689F80C4008F0CDFF8DF831A09DF83100D0B908F10904204608F024
:20029C00CBFC5FEA000804BF0420012313D0A91C224605F0C7FC152003210DF131020123A9
:2002BC0005F03EFE1220414609F0FAFA0BE0012303E0012003468DF83100152003210DF1E2
:2002DC00310205F02DFE0AF0CBF802900AF0C4F80390B86809F02CFD0398BE600AF0B8F872
:2002FC0002985FE70020BF688DF8320077B9A08C00F0800100F48070084300F04E81012325
:20031C0014200DF132028DF8323043E1A18C01F0800201F48070104308D0142003210DF14A
:20033C003202012305F0FCFDA5480188080A03D30720394609F0B4FAB9783A88042007F0A2
:20035C007FFD2AE100240020E00F0020BD68A81C2978C679217769784FF00008617740798D
:20037C008DF833800836A077304608F055FC5FEA000B6FD0A91C324605F054FC94F82F60E5
:20039C00A07F617F4D460BF108024C4610900229697305D09BF8071008F08EFC002836D140
:2003BC00206868BBB00000EB4615284608F034FC206018B9012008F001F8206841462A4608
:2003DC0006F0B8FBE6B1C1464D46D4F800A0062008F022FC0AEB0901C86140B9012007F046
:2003FC00EDFF2168A80000EB45104018C0694146062206F09FFB09F124096D1C761EE4D1CB
:20041C001098207308F000FF8DF8338003E005288DF8330012D00620594609F041FA12E0C1
:20043C00436F6E6E48616E646C6520646F6573206E6F742065786973743A20009DF833100B
:20045C0057A008F08FFF132003210DF13302012305F066FD0AF004F8009009F0FDFF0190F1
:20047C00B86809F065FC4046B860019809F0F0FF009897E64FF6FF7600208E428DF839004A
:20049C0006D1B968088820800C2009F009FA02E001208DF839000B200DF1390265E0052061
:2004BC0001218DF82C000BAA0B46812073E0002094F83260BD688DF8300003210CAA01233D
:2004DC00701E84F83200222005F02AFD0520294609F0E6F961E009F0E9FC5EE0002111204B
:2004FC008DF8341009F0DCF910200DAA3DE0002110208DF8351009F0D3F90F200DF1350201
:20051C0033E00020B9688DF836000F2009F0C8F90E200DF1360228E00020B9688DF837005E
:20053C000E2009F0BDF90D200DF137021DE00020B9688DF838000D2009F0B2F90C200EAAAE
:20055C0013E000210B208DF83A1009F0A9F90A200DF13A0209E00020B9688DF83B000A205E
:20057C0009F09EF909200DF13B02012312E00025042003210FAA01238DF83C5005F0D0FC39
:20059C000320A4E7B86808F083FA06E004F1240200200C23032105F0C3FC11B0BDE8F08FEF
:2005BC00416F41206661696C656420746F20696E69742C20737461747573203D2000C0465F
:2005DC00242400202DE9FC47D44C0F460546F80B80F006826078DFF85883B90F80F0AA8196
:2005FC00B90880F09D81F90A80F00281390B80F0CC80380907D2F80FC0F0288227F0804741
:20061C0006F05AFE22E209F0D8FD814609F028F9002800F0B480082009F036FD002840F0C5
:20063C00AE80802009F030FD002840F0A880684605F046FB012803D10098002800F09F807A
:20065C0094F83102002840F09A8000250126E8B209F022FC48B1837A3BB1867290F90900E4
:20067C0006FA00F0C0B208F0F7F96D1C032DEED3032084F8200004F5C47009F09AFD484690
:20069C0009F0E2FED34800252A460168056050F8081CD14940F8085C04F15C0009F060F823
:2006BC0040460068006B8047A168401A010BA06AC1F1FF3282422CBF08444FF0FF30A06237
:2006DC0094F82C0020B12069A16AB1EBC02F25D909F0D6F8294600B13146081C1BD0BF48E4
:2006FC0040F6090101804580417B06F00F0221F00F010A434273017B05F00F0321F00F01CE
:20071C0043EA010202732946416009F033FC418811F4406FFBD084F82C60A56207F09EFCF8
:20073C00CE4829460560022008F056FF022008F009FC112004F0A2FC207818B960684830B9
:20075C0009F049FDC648007810B90E2004F096FC94F82D0020B184F82D50052008F0F2FBAE
:20077C00C048606284F82050B4F9B000B4F9B210884214BF0220072005F018FF02E0484679
:20079C0009F062FE27F008073AE720B1042008F0D9FB00206070656808F042F938B1284695
:2007BC00ED696FF4807100224FF00073A847E06858B140460068006B8047E2686168801A92
:2007DC00C860000BC8600026E660A74904F15C00002208F0C5FF0221D4F89C0084F82010E0
:2007FC0018B104F1DC0009F0FCFC27F4006707E709F0E3FC064609F033F8D4F89410002802
:20081C00894600F08480002900F081809749042504F15C00002284F8205008F0A1FF304669
:20083C0009F012FE04F5C47009F0C3FC40460068006B8047E0604FF0010884F8018028469B
:20085C0008F098FBD9F810006060D9F81000416AC90803D3036A294600229847404606F0C4
:20087C00C9FE606880F81580606804F027FD6568D5F808A040F60A02D01F564600F1010CD3
:20089C0000E01E46736833B119888A4203D0884218BF8C45F5D100217160727B08F00F03D8
:2008BC0022F00F0213437373D9F80C201288904224D06046904221D02B8E03B3696305F1C6
:2008DC003002518095F83C0001F00F0320F00F00034385F83C3095F83D0008F00F0320F0FB
:2008FC000F00034385F83D307260707B01F00F0520F00F0045EA0001717300E0E1605046F1
:20091C0009F038FB5146404608F066FE02E0304609F09AFD27F4806798E0C046081F002067
:20093C0002F04AFCD4F89C0008B927F002078DE08C0100104E4A116841F08001116020B10B
:20095C00042008F0FFFA0020607009F036FC8246D8F85400016804208847D0B1287DC0B16C
:20097C00A068B0B18146D8F800002E69006B8047A0EB09002861000B2861B04202D2801982
:20099C004008286140F6C41181422CBFB0F5967F2961504609F058FD08F042F880B1EE69CF
:2009BC0028466FF4807100224FF00073B047D4F89400002808BF47F0020701D006F07CFCC0
:2009DC002846AD6900214FF080630A46A84727F000573BE014100440E977000094410020AF
:2009FC0009F0EBFBD4F8AC6066B306F1280106C90A234FF0E0450B40154008BF002B21D107
:200A1C0006F1280191E8000306F1280595E8060006F1280322EA090221EA080183E80600B9
:200A3C0009F012FDB16879B1B9F1000F08BFB8F1000F09D03069B6F93010B5684B46424680
:200A5C00A84701E009F000FD27F4804727B104F1DC00394609F0C5FBBDE8FC870000046065
:200A7C00DAC5000081460000814200005D980000CC21084000202DE9F0470146ADF1180D90
:200A9C0009F0DEFCA34E06F10801086010B9032007F094FC06F11C0009F0AAFA9E4DF060B0
:200ABC004FF0010A85F800A09C48A86008F06CF9DFF86C9299F80000002840F0B880994F8C
:200ADC007868002838D107F14008404609F0D0F90624BC659448786597F87000002464F3E3
:200AFC00020087F8700097F8700064F3C30087F87000B7F8700020F47C7040F43470A7F84B
:200B1C00700097F871003C6464F3820087F87100204608F035FFA7F872008549834807F1AC
:200B3C0060024346786707F1900000F09FFD786000287CD02B7801E0002453467C853C638E
:200B5C0041F609003885A046C7F82C8097F8340020F00F0040F0020087F8340097F83400A1
:200B7C0064F3041087F8340097F8340064F3461087F83400204603B9504697F8341060F33A
:200B9C00C71187F8341097F835006AF3030087F8350097F83500252364F3071087F8350098
:200BBC00644A87F8363097F8370064F3060087F8370097F837004FF4867E4FF48A7C07F15F
:200BDC00140164F3C71087F8370007F10803FB632046B96310FB0CF18B181C7105285C71EB
:200BFC0001EB0203A3F806E008BFC2F8642503D0511801F58A711960401CC0B20628E9DBF7
:200C1C00C9F80C20C9F81080C9F81420C9F8188009F10C007861102008F09CFA071C05D097
:200C3C003C1D4146204609F007FC3C60EF60434F434A4148019743490292002400904423F0
:200C5C004FF4C85701F10C0220469446147010FB03C21471401C9781C0B208285471F6DB51
:200C7C00394888603949087818B1012818BF02280ED1081D6A4601460DCA81E80D00344836
:200C9C00344FC9F804005046C9F8087005F064F8DFF8C480B06821464FF080424FF0FF33C4
:200CBC0009F0C6FBF06809F0BFFB0028F2D109F0D7FB0490F06808F0B6FF0746049809F022
:200CDC00C3FB002FEED03888012819D112E0E868006809F0A5FB039060B1017A58F8211097
:200CFC00884709F0BDFB8146039809F021F8484609F0AAFBE868006809F096FB0028E6D098
:200D1C0009F0AEFB0490384609F012F8049809F09BFBC7E7F017002020320020D99B00001A
:200D3C00A02C0020A82900205B970000E83300204CC30000F8340020C98900000555000086
:200D5C001D4A00007427002065A1000048340020C58B0000ED94000060C400002DE9F04771
:200D7C0005469F4C9F488A46914604F10801ADF1200D0830086006F0FDF909F04FF90028D5
:200D9C00FBD0964A177B09F049F9012800F0238107F03007103F0CBF01260226507B002878
:200DBC0000F08580401E59D0401E40F01481892007F032FF071C00F00E81A46887F80490E6
:200DDC004FF40070A7F807003D804FF0000987F802A04FF00908A7F80590B7F80700B7F88F
:200DFC000510FE70401A202802DC86B20EB911E020262146354648464A883B18A3F80B2043
:200E1C0031F8043B6D1E07EB000200F10400A2F80930F1D108EB860083B201213A462420B1
:200E3C0005F07EF8B7F805008019A7F80500B7F80700B7F8051080348842D3DC09F010FB8F
:200E5C00069009F009FB0790384608F071FF079809F0FEFA069809F0F7FABCE011682420F5
:200E7C0015FB00F750680C46C9191C3101F064F9E119C869ADF800508DF802A08DF8049068
:200E9C008DF8036030F8021BADF8051030F8022B0DF1070727F8022B00883880BDF80000AD
:200EBC00400B38BF2520C0F09180342088E0116854682420884615FB00111C31204601F006
:200EDC003BF9A268A80000EB4510404490F82110515697B1102F02D001280CD119E0C26969
:200EFC00B2F90230B2F90020D21802EBD272C1EB62012D3909B202220CE0C269B2F90230CB
:200F1C00B2F90020D21802EBD27201EB62012D3109B20122037B20F8131001828273ADF86E
:200F3C00121090F92010817490F82170C774027B018A20F81210417B0629AEBF0621417BF4
:200F5C00491C002241731146426106E030F911404369491CC9B21B194361437B8B42F5DC20
:200F7C00416991FBF3F10183017B0429DCBF491C0A1C0273018BADF8101090F912108DF8F2
:200F9C001410C17C8DF81510807B04AF8DF8160097E8060002AC84E80600ADF800508DF8C2
:200FBC0005608DF804A0BDF808008DF80690BDF80030ADF80200580B38BF232006D3352058
:200FDC00BDF800106FF31F31ADF8001001216A460B2304F0A5FF08B0BDE8F087E00F00204E
:200FFC0040330020E80F00202DE9F04F0746F88916468A46ADF1440DC01D80B2054606F09D
:20101C0025F98F4CFF280BD1284602F073FE854204DD641C207800B905200EE1012000E059
:20103C0000206178D9B916B1022E18D1B8B1387AFE88BD888DF82C000023009309AAADF884
:20105C002A60E18E94F83300ADF82850032303F08BF99DF834003874BDF83060BE81BD89C3
:20107C0055B3FE8946B3AD1B4FF000091FFA85F84D463A7C761B202ED4BFB6B22026E06875
:20109C0008EB050189B2334601EB423101AA09F03AF80AEB050101A8324608F0D3FA58B960
:2010BC00AD19FE89ADB2AE42E3DCB9F1010F1CBF4846B88140F0BA8094F83310E58EE06869
:2010DC0001AA04238846490309F01DF8019800F0FF007E2806D140467C2107F0EBFE019859
:2010FC0000F0FF007C2840F0A580F88942F20102C11D8EB2A9198A4240F39A80F9883A7A06
:20111C00C1F301238DF83910B98843EA82038DF838308A1007468DF83A200423C0F38512F6
:20113C0001F0030142EA81128DF83B2010FB03F1FA1D01F0FC017B1990B28DF83C101FFA3B
:20115C0083FB0D282BDB50463946002208F084FF024605210EA808F07FFF9DF83C103B460C
:20117C0000F03F07524641EAA011B8008DF83C1040F0020096278DF83D0029468DF83E70CD
:20119C00404606F0B3FF074659460EAA07234046677006F0ABFF384360704DD135E004F1C7
:2011BC00240051463A4604F03DFD0EA90A68381900F124094846097902607B1D0171002274
:2011DC0004F1240099B208F047FF9DF83C10962300F03F078DF83E3041EAA011B8008DF875
:2011FC003C10334640F002000EAF49468DF83D003A68B8790A60BA88887140468A8004F1D1
:20121C002402294606F072FF6070E18EAD194FEA8807AAB28919E18607EBC8010919A1F80E
:20123C004C2048B14046594606F080FE607803E0052000E001206070C0B211B0BDE8F08F8C
:20125C00E42F00202DE9F04F824C4FF0FF0A00254FF0100BADF1240D84F834A004F1300908
:20127C0084F832A065E00C2015FB0096E068690306AA042308F047FF06F116079DF8180063
:20129C009DF8193038700698F375C0F38541032903D09621B1EB106F38D1C0F30140F870F7
:2012BC003878FF2830D0FE282ED07E282CD007A807F050FAE06869034FF088524FF4005322
:2012DC0008F021FF64484FF4005650F8041D361FB6B2B1F1FF3F06F1885201D1032EF4D8EF
:2012FC0010684FF00108414600F0FF03FF2B18BF8846491C000A0529F6DB1060079808F055
:20131C00DBFC4644FE8001E0A7F806B038787C280BD0782809D0702804D0FE2808BF84F81F
:20133C00325004E084F8345001E084F833506D1CEDB2E078A84296DC94F83310FF2920D187
:20135C0094F83420FF2A15D194F832200025FF2A18D0521C92FBF0F14143521A91B28A00D5
:20137C0002EBC1024A44978B002F08BF84F832A003D00A4684F833200225214691F8331061
:20139C0000E00125FF2910D1002684F83360304603F014FE6178084360707E21304607F072
:2013BC0089FD2146E07891F8331094F83220FF2A14D1491C91FBF0F24243891AC8B284F823
:2013DC00320003F0FBFD61780843607094F83200FE2107F06FFD204690F8331084F83110B2
:2013FC0094F8332010462F46810001EBC0014944898BA570781EE18602D0401E23D025E01E
:20141C00172923D91046C91F01AA89B204F0BCFB9DF80F00C00816D300200090BDF81220B9
:20143C00E18E94F833000323891AC91F01AA89B202F09AFF50B9BDF8101039B19DF81400CF
:20145C0006F074FD02E0002002F054FC09B0BDE8F08FC046E42F0020002000112DE9FE4F1B
:20147C009B4615468946824608F0A7FE7B49019008680CAF504508BF48687B4C6FF0010825
:20149C0028B1B03008F055FD002840F0D68008F091F8061C00F0DB8004F5C47008F089FEE5
:2014BC000023B4F9B000C6F80C90401C86F832306FF31F30A4F8B000C6F808B0B4F8B0002B
:2014DC0030866748C6F810A097E80C0020210027B8461940104006F1180383E8030042467B
:2014FC0086F8332006F1200383E88001E8683064287C86F8440028687063287986F83800F5
:20151C00A868F0636869B064A869F064287F86F85000687F86F851002F7C27B9EF6817B12D
:20153C00012086F844002F795FB999F80C0000F00F00022805D1012086F83800D9F80800A0
:20155C007063484608274568002D18BF002F70D100886FF30900B0F5305F18BF022506D1C2
:20157C0096F83300082540F0100086F8330006F1180090E80C00414606F1180745EA02000F
:20159C00194387E80300D4F8D400824507D194F8D800410824BF00F0FE0084F8D8003148D7
:2015BC000768002F39D004F19C000090D4F8A410D4F8A82004F194052B463046B84710F1BE
:2015DC00030F10D0B6F93010B4F9B020914207D0B4F9B01001F6FF716FF31F31A4F8B01005
:2015FC0010F1020F1BD010F1030F18D096F83300B6F9308040F0800086F8330000278AF8AD
:20161C00F4702868864205D0F068007B00F00F0002281CD105F050FE19E06FF00200B4F9EA
:20163C00B010804601F6FF716FF31F31A4F8B01005E07F1E2846FFB285E76FF0020894F891
:20165C00D80040F0040084F8D800C4F8D4A0019808F0FAFE4046BDE8FE8FC046BC1F00209C
:20167C00FFEFFF9F68340020081F00202DE9F047DFF8B4910E46D9F808101F46154604460F
:20169C00ADF1300DBEB1B5B130784FF0010808FA00F001420FD01046002108F094FDA56075
:2016BC00666008F08AFD614D82462878022804DB504608F0C9FE0020B3E000286DD101F04B
:2016DC0063FB5B495B4E086840F00200086008A8C9F8006008F05EFC574E5849707808AA36
:2016FC000A9005F1DC0006F02FFB554905F5887008AA06F029FB08A808F023FC192108AB32
:20171C003078504A099005F15C0007F003F84E4A05F178001A2108AB06F0FCFF4B490022F3
:20173C0005F5A270134606F015FF4949002205F5C470134606F00EFF46480068C0F3814076
:20175C0030B1454A05F130000421002307F05CFEB078012802D10E2003F00EFE05F19C005B
:20177C0008F067FB05F1940008F063FB002185F82C1085F82010072085F83002A962A960A2
:20179C00364B197085F82D100526E960344A2E6104206A6207F020FF287805EB8001401C75
:2017BC00C1F8B440C0B22870504608F04DFE1FB9684608F05DFB6F4638684FF4FA76E66059
:2017DC002060B86941466062388A6175E082F869E062786800280CBF40F6C41000212061E7
:2017FC002048E06120622175A061F86800B1E061786900B12062B86800B1A061C82204F1F4
:20181C003000002105F096F904F14800002107F011FD1549002204F1B000134606F09AFE68
:20183C0020460CB0BDE8F087CC210840081F002000200940110000E0D8C50000059D000039
:20185C00814D0000E9770000157400003D9800004D9B0000B44F0050957F0000C44100206C
:20187C00814600003B38000099A100002DE9F04F8246ADF11C0D01F087FA6448007805F069
:20189C00AFFC634C002601281AD90C3818D0401E1DD0401E012808D9093811D0801E16D00B
:2018BC00401E18BFB0F1020005D108F0C9F9022803D008F0C5F921680DE005211F2608E028
:2018DC0008F0BEF90228F6D101210E4601E003210726204601604F4AD068C0F3815001285F
:2018FC0004D112680120120E9040064308F03AFBDFF828B1DFF82081FF2240185B46401E56
:20191C00471CC8F800007F1E03F8012BFBD1DAF80020002702F0FF03FE2B1CD0D4463B463B
:20193C00012502F0FF04FF2C0ED0A04205D3A14203D805FA04F4264201D0022062E002F069
:20195C00FF0227430BF802305CF8042F5B1C02F0FF04FE2CE7D1092003F00EFD3048C0F89F
:20197C0000A03848012107F065FC374C00254FF00109A84609FA05F0064214D1074207BF9E
:20199C0005F0FF0141F4C0411BF805005AF82010244802F0CFFAE8B24FF0FF3107F020FF20
:2019BC00C4F8008001E0042020601B4800686D1C241D8542DED904A808F0C3FA1A4C2078D8
:2019DC001B4A05901948102104AB06F0A3FE684608F0E0FA6068184902901648CDF80C802F
:2019FC006A4606F0B1F9154951F80D0C20F4F85040F4005041F80D0C114AC1F8FF9F404651
:201A1C00C2F8009007B0BDE8F08FC046C541002074340020A84F00507034002038410020ED
:201A3C00B4410020007FC76704C6000078410020F99A000004410020A58400000D3009407E
:201A5C002C00094078400020FC3F00202DE9F04F704C002704F19400ADF1140DB946B84645
:201A7C00056802978246CDF80C9025B3D4F8A800B84203D1D4F8A400B8421AD0D4F8A460DD
:201A9C00F6B1D4F8A41028690969884218D195F83300400914D30127D4F8A400C0684088D5
:201ABC000028F9D0D4F8A400C06840880128F3D006E0012704E004F1DC00022108F091FB63
:201ADC00002D43D087F0010B03A802AA594604F0D7FB5FEA000809D0012F07D0039929B1C4
:201AFC0004F5A27008F084F94D462FE0002D2DD04948066856B3B8F1000F27D0039828BB49
:201B1C00CDF800B002980190D4F8A400D4F8A8100AF108035246B047401E02D0401E08D01A
:201B3C0014E0029800B9284601214B460091014605E001230093D4F8A400D4F8A410006954
:201B5C00B1F930104A4601F007FF60E0002F5ED0002D5CD060682969884252D1B8F1000F03
:201B7C000BD0039848B1D4F8A40030B9D4F8A80018B9082006F070FF49E0082007F0F4FF74
:201B9C0095F8330004F1DC06C0F3001028B9504607F0C4FDC4F8A40004E0504607F0BEFD14
:201BBC00C4F8A800A8691D49C0430860A8694A6810434860E869C04341F8080CE86951F8CA
:201BDC00042C104341F8040CEC680820294607F003FD204607F0DCFC2088A0F6020040B1D5
:201BFC0041F21E01401A04D041F6E671401A012803D80120214607F0EFFC4FF0804130467D
:201C1C0003E004F1DC004FF4806108F0EAFA05B0BDE8F08F081F00206C34002010100440B0
:201C3C002DE9FF415848574908605848FFF71EFE4FF08058D8F8D801554C036801210A469A
:201C5C0020469847D8F8D8014268012120469047022007F08FF9032007F08CF94D484E4905
:201C7C00016000258560C5600561856105628562C562456249494160494941614949C16135
:201C9C00494901634949416349498163284603F039FD05F0ADFE06F011FE40F20510454975
:201CBC00ADF8000005208DF80A000220ADF8080008208DF80B000A680DF102000260898843
:201CDC0081803D483D4C0390201D07F0DBF84FF42F70A0804FF0FF30A060E060C820E08047
:201CFC004FF4E120E06200F095FF354E042106F13400476827B1491E00F10800F9D103E057
:201D1C00192101702F4F476007F066FF592186F82E10802186F82F1008F0F0F82A482D4F19
:201D3C00039E20609DF80A30BE61BDF8082087F82830BDF80010FA840DF10204B9842268B6
:201D5C0007F129010A60A08888809DF80B0006F063FF29469DF80B20386204F0EBFE0126E6
:201D7C001A499DF80B000E60194987F82F004046086006F067FD08F04FFB28460090BDE899
:201D9C00FF81C04664340020D9830000C0C3000000400340C8400020215700000D7E00005C
:201DBC00D5690000B56C0000BD9C0000F56E00001D840000E81200506DA100008031002022
:201DDC0044300020417300005DA10000701A444290200240002400202DE9FC4F83F0004344
:201DFC0001E02DE9FC4F1F03FF0847EAD2574FEA42284FEA43095FEA595906D147EA080AC5
:201E1C001CBF00210020BDE8FC8F57F000575FF4E06E1EF1FF0EF14505D14FF00000190D8E
:201E3C000905BDE8FC8F002B05D55FF0000AD8F100086AEB07070C03E40844EAD0544FEA30
:201E5C0040254FEA4106760D08D144EA050A19BF00210020191C101CBDE8FC8F44F00054B6
:201E7C00764504D10020090D0905BDE8FC8F002904D55FF0000A6D426AEB0404B6EB090E23
:201E9C0008D5A2463C465746AA464546D046CEF1000E4E46BEF1360F5CBF4FF0000B23E0F4
:201EBC00BEF1000F04BF4FF0000B1AE0CEF1390ABAF120092EBF08FA09FB07FA0AFB4BEA3D
:201EDC00080BDEF1200A07FA0AFA38BFBA4647FA0EF72DBF28FA0EF8AEF1200E4AFA0EF86D
:201EFC00D04415EB08057C4154EA050A02BF00210020BDE8FC8F002C58BF4FF0000A06D502
:201F1C005FF0010A5FF0000E6D426EEB0404A6F101066D006441FAD515F4806E11D005F48E
:201F3C0080794BEA090B15F5806554F1000428BF761C0BD205F400795BEA090B08BF25F40A
:201F5C00006525F4E0656D0044EB0404B61CDEBF00210020BDE8FC8F5FF4E06E1EF1FF0E61
:201F7C0076450AD34FF0000013F00043FF21C900C91D09051943BDE8FC8F270547EA15301D
:201F9C00210B41EA065141EACA71BDE8FC8F70472DE9F04F0146804698F80000ADF1140D79
:201FBC00401E00F0A080401E0CD0C01E40F0A3804868008806F09AFE002800F0A68005F033
:201FDC0049FB98E0D8F80440208806F08FFE034607F092FBDFF858C100286DD0D4F80200FA
:201FFC0004F10C062378B4F8069094F80BA0277A0190D4F811B003966446207B0297092843
:20201C0054DA0127384607F077FB032803D07F1C092FF7DB4AE0781EC0B2860006EB801685
:20203C00A5190C35A5F84430019AAA6004F0C4FF4CF25031A5F80C9040186863B9F10C0F38
:20205C00A86333DBB9F5C85F30DCA4190C34C4F840B0029820745A266E8284F814A0039957
:20207C0084F815A00A6804F116031A6009791971A07E4FF4A07600F01F00A07696FBF9F0F7
:20209C00401C86B23846314603F08AFA761C207516FB09F0E881384602F0E6F930B9381CFE
:2020BC0005D02449002213310A5424E00020014617A007F057F91EE0E2885B1E0C34D9B2E9
:2020DC0023686746880000EB8110C01900F122010B6026790E7190F82610028301F01F01DE
:2020FC0080F8261007E0D8F804008078012802D110480121017008F0B3F90090D8F8040074
:20211C0007F016FE009808F09FF905B0BDE8F08F636D53746172745265713A20496E7661A9
:20213C006C69642073657373696F6E20696400C074270020F01700202DE9F04F0778ADF521
:20215C00A27D644D4E91BB4690222021B1FBF7F147784D908CB205F1240168464F9703F0B0
:20217C0061FD902224A805F1B40103F05BFD022C6DDB5948641E01274B94D0F800904C9796
:20219C0008274F98002858D04D984C9E4568DDF83C81BC0033464894701E0BFB00F0103DCD
:2021BC00800149900BFB03F080014A9015F8104F489849996E7800EB841043184B444A99F5
:2021DC00B3F9822040184844B3F98030B0F982C0B0F98010604601F0E7F90FFA80FA4A9A53
:2021FC0048988018484400EB861300EB8411B1F98200B3F98220B1F98010B3F9803001F0BA
:20221C00D3F900B26300509003EB8400801981006846A41B48BF644214FB0AF20E58509CDE
:20223C0092FBFBF3F21824AE12190A508859B8F1010800F101008851B8D17F1C102FA0DB6A
:20225C004C984B9F401C4C90781E4B9098D1BBF1000F14D05B4600220DEB02000DEB02012B
:20227C005F46903050F804CB0C687F1E94FBFCFC41F804CBF6D15B1E02F11802ECD14F9835
:20229C0020B34D984E9E18234F9F4168326808784C7891F9086010FB03F000EB84005DF81A
:2022BC00005091F90940D1ED030A05FB064000EE100AB8EEC00A20EE800ABDEEC00A103108
:2022DC0010EE100A7F1E22F8020BE0D151B0BDE8F08FC04624C000004833002001282DE96C
:2022FC00F84F40F0B080DFF88491D9F83401012840F0A6800220C9F8340107F0FDFB012082
:20231C0006F0FEFB5FEA000805D00120C9F8340107F000FC99E0112007F0B0FE00280CBF40
:20233C0000250125102007F0A9FE08B145F002050F2007F0A3FE08B145F00405444CA06A1B
:20235C000068014601208847012805D099F83801012818BF002703D1002001F05BFD01276E
:20237C0007F086FEDFF8ECA040080AD20026206A80680146504688478346BBF1040FF6D0AD
:20239C0000E00126304600214FF0FF3200F068FE012E0ED0BBF1010F05D1206A40680121CA
:2023BC0002465046904732496C39086840F003000860206840690146284688470B2007F04A
:2023DC005DFE254E30B12068C06A3146091D0246088890470A2007F051FE28B12068C06A39
:2023FC0031460246088890471C4903200124C9F834011B4E0C6000233360284605F070FD9D
:20241C000128FAD1174D2868042006F079FB0646154804602868012F02D1204601F0FAFC3D
:20243C0007F00EFE082006F06BFB0746C9F8344107F070FB57EA060018BF4FF0FF3804E09C
:20245C006FF0040801E06FF001084046BDE8F88FB80100100040034092C2000028200860AA
:20247C000C2008402C2009400C400940302B002090220840F8B5074661485F4C001DC26A96
:20249C000168B7F5C067C2F30722C4F81071C1F38441C4F81421C069C4F81811C0F38120FD
:2024BC00C4F8280100F0A38094F830616EB9C4F82C71D4F81801C4F82001D4F81461C4F8AC
:2024DC001C61D4F82851C4F82451D4F82C01D4F81451002854BF02236FF0010304F5907205
:2024FC00116800EB4000C018431000EB937001EBA0011160D4F82011C4F81C5100291CDDBD
:20251C001E293DDDD4F8240130B93429B4BF15391E21C4F8201125E02A29BABFD4F820015C
:20253C000B381E20C4F82001D4F81C013E28D4BF401C3F20C4F81C011FE0D4F82401032890
:20255C0012D011F10A0FA6BFD4F820010B300120C4F82001D4F81C010028CCBF401E0020BD
:20257C00C4F81C01032009E011F1140FA6BFD4F8200115300120C4F820010020C4F824019F
:20259C004FF08057D7F8A401B4F81C111B4D40684FF47F4208230646009128463021B047EA
:2025BC00D7F8A40101214FF40032112340680091064604212846B047D7F8A401B4F8201160
:2025DC0040684FF4F80212230646009104212846B047D7F8A401B4F8241140684FF440627C
:2025FC000A230446009120212846A047F8BD002084F83001F8BDC046302B002000A00C407D
:20261C0000A00C402DE9F8435F4CDFF868815B4DD4F83C0100286ED0574E401E0AD0401EA4
:20263C0060D0401E1CD0401E53D0401E1AD0401E33D02FE04E4801250221006884F83A517D
:20265C007022042340680091002107464046B847356004F1500007F0AAFD2846BDE8F88373
:20267C00022100E003214FF08059D9F8A40184F83A114068002570220423294607460095EB
:20269C004046B847D9F8A401C0687022294613460125DAE70320BDE8F88300262E606E60F5
:2026BC0028688008FCD268688008FCD2374834490127001D06600E200F6002F0DFFC0220BF
:2026DC0006F040FCC4F83C6184F83B610220BDE8F8830520C4F83C010027376030688008FD
:2026FC00FCD242E00320C4F83C010027376030688008FCD239E0234F01260F202E6042F65F
:20271C002A21C7F80B004FF08059C7F80F10D9F8A40140684FF4C072072302218446404662
:20273C0000910021E047D9F8A401C06800214FF4C072072384464046E0472E602868800829
:20275C00FCD394F83901C7F81B6018B9032100200E4602E0002028630321C4F83C6147F8DC
:20277C00011C686068688008FCD20020BDE8F883A401001000A00C4058600C4054600C404D
:20279C0004800C4001400C40302B002038500C402DE9F04F5F4C0C3C94F8318094F832A08E
:2027BC004FEA880000EBC8000019B0F84C00ADF1240D0025ADF81C0004F1300008904FEAD1
:2027DC008A0000EBCA000019B0F84C60657006A805F0C0FFAB46BDF81C106078162951DDE3
:2027FC00002840F09080BDF81C0001AAC01F81B2ADF81C10404603F0C7F9BDF81210BDF831
:20281C001C200D46E81D05F1100387B2934273D89DF80E0096286FD19DF80F00420827D21E
:20283C00800825D3BDF81C00CDF800B0401B1FFA80F99DF80D20BDF81C004346401A80B221
:20285C0006F020FA70B9E068C6F1885209EB48393B46D21B494602F5005207F054FCF61939
:20287C00B6B205E0BDF81C00401EADF81C0043E0BDF81C00401BADF81C00BDF81C10607836
:20289C001629ADDC00283ED14FF6F0704FF40051C6EA0040C6EA0141E1FA40F01FFAA0F24C
:2028BC0083B2102102F18852504605F01FFC617808436070069807F0FFF908994FEA8A003E
:2028DC0000EBCA0040188683BDF81C70A4F84470A4F84060B4F9422094F83D100123504657
:2028FC0006F07EFD94F83E10B4F944205046022306F076FD58460AE0404607A904F0E4FDA9
:20291C0001283FF468AF069807F0D6F9102009B0BDE8F08FF02F00202DE9FE4F06469346F0
:20293C000868DBF8004007784FF000081D46C246242F00F1010008602AD10778401C532FC2
:20295C00086025D1E41C24F00304241D54F8040CE861CBF80040288B0090A968EA693068BA
:20297C005B4607F055FD8246306838B1A8685045D8BFA0F1010A306850443060DBF8004061
:20299C00286846464FF00108EE60A0EB0A002860662F06D0B8F1000F6CD1E8690770012003
:2029BC0067E0288B012808D0E41D24F007040834A4F1080090E800030EE0E41C24F0030483
:2029DC00241D54F8040C01909DED010A10EE100A06F0CEF8804689462BA20CCA49464046F7
:2029FC0003F05EFD28BF002705D2286989F000490127401E286126A20CCA4946404603F080
:202A1C0092FD33D3404605F083FD064606F068FF0B46024649464046FFF7DEF91EA20CCA50
:202A3C0001F0A2FD05F074FD0146686904220A2304F068FB411EE9612E2300F8013C6969C1
:202A5C002A69E8690A23091AE960521A314604F059FB002F08BFE86105D0411EE9612D27A1
:202A7C0000F8017CE8696969081A02E004A0E8610720E860CBF800405046BDE8FE8FC04671
:202A9C00286572726F72290000000000000000000000C0FFFFFFDF41000000000088C34037
:202ABC002DE9F84F5A4C4FF6DF760025A6F1600808F170072C3C07F10809A06A4FF0FF31DF
:202ADC0007F0A2FC0028F8D0A088400A01D305F069F807F081F8E1882389E580A2882581FF
:202AFC00114343EA0102A28007F008FAA188080A04D308EA010021F08001A080C80907D3B9
:202B1C00606A07F0C1F8A188656221F04001A180480921D3E26907F099FAC0B9104607F0DC
:202B3C0083FC28B994F90030002B03D4E0690BE094F90030A18801F02000034307D1606948
:202B5C0007F072FC10B9606902F0D8F9A18807EA010021F01001A08088092BD394F9000026
:202B7C00002827DC07F038F88346206A07F041F88246584607F0C2F9BAF1000F0BD0504621
:202B9C0006F01AFC20B994F90000401C207002E0504607F01AFBA0883040A080206A07F0FE
:202BBC0043FC30B9A08840F02000A080A06A07F027FCA188080980D394F9000000287FF460
:202BDC007CAF07F009F88346A06907F012F88246584607F093F9BAF1000F06D0504606F0DE
:202BFC00EBFB10B1504607F0F0FAA08809EA0000A080A06907F018FC00287FF45EAFA0887C
:202C1C0040F00800A080A06A07F0FAFB55E7C046703000202DE9F043514C6078ADF17C0D63
:202C3C00002840F09A80012060700026A680314666620A46104607F0DFFBA062314608464C
:202C5C0007F0D6FB60613146084607F0D1FBA0613146084607F0CCFB20623146084607F085
:202C7C00C7FB404DE061AF680197EB6802932A7C8DF80C20697C8DF80D10E888ADF800001E
:202C9C0005F114008CC804A98CC18CC88CC10DC881E80D0034480D90344F0E9706F09CFF02
:202CBC00334F0DA906C9804607F1140080E80600BDF80000388006F0D9FEB8603A88B8687D
:202CDC00314603F037FFBDF8000006F0CFFEF8603A88F868314603F02DFF264F26489DF838
:202CFC000D90B86005F0F2FB2448254B079004A90893484605F0AEFC20213246786007F0B1
:202D1C0007FA06F069FF8146802278683E8007F10C0107F002FA484607F0F0F8404607F04F
:202D3C00EDF804F134003146202203F003FF0FA831463C22082307F057FBA88806F096FE01
:202D5C00206150B11690A88802270FA9324617900C48159707F044FBE0601FB0BDE8F083A2
:202D7C0044300020803100208D9C000071470000CC330020D02E0020BD970000E13B000044
:202D9C009D970000BD2A00002DE9F0435A4C94F84201ADF1140D002840F093804B484C4EE7
:202DBC004FF00108027B3368416884F84281814684F84121C3F38147C4F86C11BFB9D9F80A
:202DDC001000A0B156F8085C07F02EF964210246C5F306604143B1FBF2F23E49002304F108
:202DFC00940005F0B7FB3C494FF00040086001A807F07AF900252F4604F10C00029501AB1F
:202E1C008DF80470354903953A4605F0A3FB01A807F06AF904F150000822029501AB8DF83A
:202E3C0004702F49039505F095FB2E4A04F1D80032213B4605F06EFC2C4A2B4F04F1F4001C
:202E5C002C212B463D6005F065FC294899F80D3000783068C0F381501BB1032803D184F88B
:202E7C00398103281FD002281DD001281BD14FF08059D9F8A4011F4C406803214FF04052A0
:202E9C001C230746009129462046B847D9F8A401406829464FF4007209230746CDF8008025
:202EBC002046B84706E0386840F040003860022006F060F856F8040CC00802D2284606F035
:202EDC0059F805B00020BDE8F083C04680C50000B44F00507D9D000000A10C407F4D000027
:202EFC00E18100009D94000090220840296D0000C541002000A00C40302B00202DE9FF41B0
:202F1C0007467D68BE680C4607F057F92978012903D107F099FA002091E00121297007F038
:202F3C0093FA207868706078A87060686860A068A860E068E86020692861207D2875607D2F
:202F5C006875A07DA875A069A861207F2877607F4FF0000843466877A07F2B63C5F8208056
:202F7C00A8771C466C626C63AC62AC6385F82C4085F82D4085F8B04185F8B141706802F080
:202F9C00FBF9384602F054FA384602F037F978B92C480068C068014630688847706802F016
:202FBC006DF807F00AF92C7007F04EFA274645E0684606F0C6FF327B05F17C00B1680192F5
:202FDC00214A00976B4605F0A5FB684606F0E2FF316902911D49009705F198006A4604F0AC
:202FFC00B3FEA87830B905F1CC00214606F022F917482861687830B905F58E70214606F0BB
:20301C0019F91448E860684607F06EF801948DF8004005F5B670104902970A226B4605F095
:20303C0099FAB169F26905F13C0006F070FF0B4A05F1680004213B4606F0E6F93846009099
:20305C00BDE8FF81D001001029330000AD7500007DA100004BA1000049830000E19F00007A
:20307C002DE9F0478246484E4E4C56F80C0C9046894680082AD245480068810D28D20517C7
:20309C0004F134000068006880476D1CC0F13E0110F1020F4FEAE101D8BF07218D42B8BFA9
:2030BC000D1C3B480068C0F30320401B102803DA0028D8BF012000E00F20364900F00F002D
:2030DC0040F0F00081F84D00087801E03248306000203249324F256808603868A969272079
:2030FC008847324D304805F1300211682B460840106003F17800006820F48070A8672068B5
:20311C00016B4FF4806088472068016B4FF4816088472068016B4FF4C0608847244901209A
:20313C000860C5F88091286056F80C0C800806D2B8F1FF3F14BF40464FF0404030603868C0
:20315C00E8698008FCD3072004F002FD0228FAD1BAF1010F13D0206A164E816830468847E2
:20317C000428F8D0012804D1206A4268032130469047D5F8180220F00300C5F81802206843
:20319C00806B8047BDE8F0871C000940B44F00500C1300500D620840FD0000400C40094095
:2031BC002C200940B8010010FFFFFEFE0C20084028200860004003402DE9F84F504CD4F82F
:2031DC009C00D4F89C60002800F095800546E86840F6030108274A1C02E040687F1EFFB200
:2031FC0060B15FB10388994218BF9A42F5D129692CC830312CC189C881E8890006F128007D
:20321C0090E800034FF0000A06F12807D34687E8000CB16821B357464FF0E24A07EA080026
:20323C001AEA090508BF002813D036A090E80C0002EA080213EA090308BF002A04D0B56853
:20325C003069B6F93010A847504607EA080800EA0909B5683069B6F930104B464246A8479B
:20327C0006F0ABFF0546B4F9B200401C6FF31F30A4F8B200214886F833B06FF0020737869E
:20329C0006F04CFA284607F0DFF8B4F9B000B4F9B21088422FD16068D4F8B460D4F8B87068
:2032BC0090F8F41000290CBF0520072003F07EF958462EB196F8F45005B9306886F8F4B0F5
:2032DC005E462FB197F8F45005B93E6887F8F4B0864238BF061C66B1B6F1FF3F0BD006F046
:2032FC00A3FEB6FBF0F104F5C47006F081FDBDE8F88F06F01DFCBDE8F88FC046A41F00208E
:20331C00081F0020F0FFFFFFFFFFFF8E2DE9F0478046D8F808603068076CD8F804504764AD
:20333C006A6CA96B286C17F4F06FA0EB020937D1F8091FD2780979D3B9B196F82100464A83
:20335C00145C601E814294BF0C1C641E4046214605F0F2FBA86B001BA863A86B002865D12A
:20337C0005F19800012106F03CFF4046494605F0F1FC5BE00029F8D0404605F0DDFB014693
:20339C0095F82D00A96318B9A86B00284ED101E00020A86305F19800012106F022FF45E028
:2033BC00F80A21D24FF0000A544603E0A86B401EA863A96B91B14046012105F0BDFB306877
:2033DC00446814F00F04C0F804A0EFD0296BAB6B686B491E2963401E6863EBB905F1980028
:2033FC00012106F0FEFE13E0306844680022202904F00F044260CCBF4FF0200A8A46404608
:20341C00514605F099FBCAF120008145C8BF81464946404605F09EFCEC77404604F0D2FD31
:20343C00706A18B10246214640469047B80910D3AF6A77B14046394605F0D2FBA862AD6AF4
:20345C003DB996F820000549095C4046C91904F019FABDE8F087C0462CC6000038C6000078
:20347C002DE9F0470646880FC0F09080002004F0C1F8474806F07EFD464C40F60A09A4F8FC
:20349C00009000256580207B05F00F0120F00F00014321736560607B4FF0010808F00F07E9
:2034BC0020F00F0047EA00013046617301F006FFD6F808A04A462146D01F574600F1010C68
:2034DC0000E027467C6834B123889A4203D0984218BF9C45F5D179607A7B2F4C05F00F03B8
:2034FC0022F00F0213437B73D4F8943033B1DA681288904224D06046904221D0338E03B353
:20351C00756306F13002558096F83C0005F00F0320F00F00034386F83C3096F83D0008F0D6
:20353C000F0320F00F00034386F83D304A60487B05F00F0620F00F0046EA00054D7300E0A2
:20355C00A56006F09FFC1548606294F82D0080B91348006801684046884701280FD0787B2C
:20357C0008F00F0120F00F00014379730D4E666205E005F02FF80028FBD004F047FE5046F2
:20359C0006F0F8FC5146404606F026F8BDE8F08701010E0494410020081F0020E1050000A2
:2035BC00E0010010BD7C0000B0B503FB00F402FB01F54B4302FB00302F1B2A1B42D50028F2
:2035DC0025D441428A4210DC404207EBD7710225400100EB610090FBF7F111FB05F000B205
:2035FC0000EBD0704110403974E008462D1B022700EBD070401000EB451090FBF1F111FB73
:20361C0007F000B200EBD0704010414262E0874210DD0146022501EBD171491001EB4711B6
:20363C0091FBF0F111FB05F000B200EBD070411080394FE007EBD771491001EB40126FF0BA
:20365C003F010FE0002821D487420DDB002F08BF00213FD07F42404207EBD772410101EB7F
:20367C006202402138462BE04042794202460225490102EBD27201EB620191FBF0F111FBF1
:20369C0005F000B200EBD070411023E07A4282420FDC07EBD77102254910A1EB401191FB5A
:2036BC00F7F111FB05F000B200EBD0704110403110E0014601EBD171491001EB42128021C7
:2036DC0092FBF0F2022012FB00F000B200EBD070A1EB60012D2011FB00F0011100EBD160FF
:2036FC004011B0BD2DE9FC4706467568D6F808802F780FB1AF6B1FB14FF0FF30BDE8FC8731
:20371C0029630024EC77171C6C631BD005F13C0906F053FD82466946484604F07BFF002871
:20373C0020D4504606F090FE9DF80000296B0870686B296B7F1E00F10100686301F1010109
:20375C002963E5D169786A6B286B0129A0EB0200286305D1E868296B0346304698476A6B53
:20377C00144659E0AF63D8F80010086B40F400700863D8F80010886B40F4FA608863504644
:20379C0006F062FE05F5D87006F0CAF8687805F5D87768BB06F011FD95F82D1069B1696BB5
:2037BC0059B1A96B49B1AC6306F04EFE05F5D87006F0A6F8686BBDE8FC8706F045FE6968A9
:2037DC0005F58E76304606F0ABFB0028F2D0AC633046214606F0A4FB0028EBD0384606F0FB
:2037FC008FF81022696B286BEA77401A2863E1E706F0E3FC95F82D1061B1696B51B1A96BE4
:20381C0041B1AC6306F020FE05F19800012106F0E8FC01E006F018FE2046BDE8FC877047BB
:20383C002DE9F04F05468846ADF1140D1C46D5F808B00E990092DBF80400019108EB0401BE
:20385C00884238BF6FF003047BD3404E30684FF0FF3106F065FB3E48019F01684FF0000915
:20387C0078081CD23846CDF80C90800827D334B33046DBF800200099066823464244491EB0
:20389C00521E11F8010F12F8015F054085421CBF6FF00604301C52D15B1EF2D10FE034EA11
:2038BC00010701EA040202D02A480068121801EA0801284603F0B8FF002803903CD1DBF876
:2038DC00005004F0EBFC27464544DDF800A0029002E0BF1BB244AD1997B1082F8CBF082634
:2038FC003E1C06F06AFC049029463246504606F093F88146049806F0A7FDB9F1000FE8D0F6
:20391C00029805F0D1FDB9F1000F12D10198C00812D38CB1DBF8000000994044491E401E5A
:20393C0010F8012F11F8013F9A4202D1641EF7D102E04FF0FF3003900448039C006806F0C5
:20395C004AFC204605B0BDE8F08FC046A8410020B0410020AC4100202DE9FE4F0CAF1D4618
:20397C008B465FEA02083E78009014BF4FF0804A4FF0005A06F021FC0324DFF80491019015
:20399C00BBF1FF3F14D1D9F8A410009806F0FAFA58B9D9F8A810009806F0F4FA00280CBF2C
:2039BC00D9F89470D9F8A87008E0D9F8A47005E000985946002204F009FF0746002F59D081
:2039DC0097F8330030F07F0053D04C46D4F8A400B84219D0D4F8A800B84215D000982A4607
:2039FC003346394602F07AFB002842D094F8200001283CD094F82000042838D0214904F1F2
:203A1C00DC0006F0EEFB32E0D4F8A4005346002204F0FAFED4F8A8005346002204F0F4FE91
:203A3C00B8F1000F14BF1848184805F0B1FDB6B1D4F8A40000224FF0807304F0E5FED4F8AE
:203A5C00A80000224FF0807304F0DEFE3869C4F8D40094F8D80040F0010084F8D80035B17E
:203A7C00D4F8941000982A46334602F037FB832400E00424019806F0E7FC2046BDE8FE8F5C
:203A9C00081F0020020000400100020401000104464A2DE9F04178CAADF1280D02A978C1A4
:203ABC003CCA81E83C00434E414CD6F826100025E161D6F82A106585012884F820104FEAB6
:203ADC00112284F821204FEA114184F8221026D094F8340065F3030084F83400378C606A53
:203AFC0029462163A7B140F6C41101FB07F2824209D394F8230020F00F0040F0040084F841
:203B1C002300642001E001FB1700606201462DE094F8230020F00F0040F0010023E094F84A
:203B3C00340020F00F0040F0020084F83400D6F82200206394F83410012060F3C71184F829
:203B5C003410378C37B994F82320294660F30302104608E094F8232040F6C411794322F0D6
:203B7C000F0242F0040084F823006162059106F077FC8046104FB07F114BF8700F482946A3
:203B9C008DE80300606802AA04F12801FDF766FC2080404606F058FCB4F9000000284CBF59
:203BBC0002200120B8700AB0BDE8F081F0C40000A829002020320020A02C002002008080A9
:203BDC00195900002DE9F84F164606F005F8474D009047482F88B0F8009080465EB3B81961
:203BFC00814538BFA9EB07067FB905F10C0BD8F808009BF800100446FE2916D1F3190BF12B
:203C1C000101721E5B1E9A4609E0D8F8080005F10C0B05F10C01324607EB060A0446C0192F
:203C3C0002F000F81FFA8AF72F8058460021324602F080FF03E0D8F8084005F10C0B4FF046
:203C5C00000A2CE06078217801EB0021091D88B2514604469047641CA1B22F88D8F80840FA
:203C7C0008F108038F420ADD60187A1A401E10F8016FFE2E03D0521E01F10101F7D1B94264
:203C9C0003D07F1A7F1EBFB200E05746091918682F803A46491C01F0C5FFB8F8009060780E
:203CBC00267806EB0026701D81450EDBB8420ADC301D81B2204605F0CFFF361931798142B2
:203CDC0003D1504604E0032002E0A5F800A00420AA6808B9002AB5D168685946802206F08A
:203CFC001CFA009806F00AF9BDE8F88FD02E0020CC3300202DE9F84F454D8146686910B150
:203D1C008047002853D0002051D1012085F83F0095F8317095F83260E8686A460423790366
:203D3C0006F0F1F9009810F4403F40D138460621F82205F0A9FE009A05F13004B800F82369
:203D5C0000EBC700001900F1180802F0FF0088F80030702803D03846702105F0ABF8E86868
:203D7C0071036A46042306F0CEF9009800F0FF00FE2803D03046FE2105F09CF830460621E4
:203D9C00FE2205F081FE4FF0FE0BB00000EBC60004EB000A001900F1180484F800B0B8F8CF
:203DBC000400A5F84200FEF7F3FC102802D10020BDE8F88FB9F1000F0CBF10204846B5F8DA
:203DDC004010C1F500518842CCBF78217C21304605F070F8384601F0F1F868700621FC229D
:203DFC00304605F051FEFC20207085F8327085F8316085F83360BAF81C005946E8863846AB
:203E1C0005F058F8E88EC0F5005000B2BDE8F88FE42F00202DE9F843434D444C3E4EDFF8E1
:203E3C00FC80DFF800910746012F44D139480068006801460120884701283CD096F838016C
:203E5C00002838D108342068C0F38140C8B940460068B0B154F8080C000834BF4FF480509F
:203E7C004FF440502E4908600A2006F090F94846006901460120884706F1940006F097F98C
:203E9C0001E005F073FB0121206886F83811C0F3814010B94046006848B906F0E9F88009C5
:203EBC0005D28020A860286840F080002860032005F060F82BE057BB03F06AFAA068C0F300
:203EDC008140A8B94046006890B106F1940006F070F92068000834BF4FF482514FF441511D
:203EFC00134A48461160006910B101460020884796F8380158B12868802720F080002860CB
:203F1C000320AF6005F01EF8002086F838010020BDE8F883E0010010302B002090C5000070
:203F3C00A8A00C4080C5000090220840AC4F005028A10C402DE9F84F0E4607465FFA86F95C
:203F5C00300824BF3A484640DFF8E8A04FEA8908394C5AF8081007F4E02507EA0602B5F567
:203F7C00E02F04EA020486EA010007EA000021EA0701C0F3006044EA010401D1610E14D33F
:203F9C0007F4E021084310D004F4E020B0F5A02007D0B0F5803004BF24F4003444F4A0244A
:203FBC0003E024F4803444F4C0242448012505FA09FBC0F800B006F000F95146220A4144E6
:203FDC004A70230C8B70220ECA7006F03DFA1C4CDFF8708020682946002501FA09F40442C1
:203FFC0018BF0D1C35B9F80D04D34146C6F3805001F80900380E0DD306F0DFF8310E34BFA4
:20401C000021211C0E4A1268A24311430C4A116006F01AFA35B1F80D04D34046C6F3805178
:20403C0000F809100548C0F800B0BDE8F88FC046006000A000100840007F077FE0200260AD
:20405C00D0200240002002402DE9F047DDF820801D4691460E46044603F0C2F801270E280B
:20407C0004D003F0BDF80F2818BF00275FEA070A17D12088A0F6020040B141F21E01401A54
:20409C0004D004F11A003060E06903E004F1120030606069C9F8000000202860C8F80000DC
:2040BC0058E02088A0F60200E8B141F21E01401A16D041F6E671401A04D0A26AE06A94F8A3
:2040DC00247002E0226A606A002704F11A013160E169C9F800102A60C8F80000207E0FE03E
:2040FC00616AA06A01E0A169E06904F1120232606269C9F800202960C8F80000E77B207C0D
:20411C0000F00704286880B140F203714FF6FF72052305F03CF90646052E06DA38462146D5
:20413C0002F0A1FE296841F82600D8F8000088B140F203714FF6FF72052305F028F90446F5
:20415C00052C07DA3846FF2102F08DFED8F8001041F824005046BDE8F08770472DE9F8431F
:20417C003F4C3E4D407AE178A268AB6B66680E386ED0401E60D0401E07D0401E55D0401EE4
:20419C0051D0401E4AD0BDE8F88306F069F9814606F062F98046A86B0168084606F02DF82F
:2041BC00002833D00079032830D1084606F025F800F108010E78407A0830C7B2B00924BF2B
:2041DC007F1CFFB204F11C003A4601F02BFDA86B056806F045F9AB6804F11C062BB1A96802
:2041FC0000220A71A9680968A96006F02DF9484606F02AF9404606F02BF96FB3E1786468D1
:20421C003A4600203346A047BDE8F883484606F01BF9404606F01CF9BDE8F8830120FFF702
:20423C0037FCBDE8F8830220F9E7186804F0C6FDE178A26800200EE0022700220420A770DF
:20425C001346B047A86B006804F0B8FD3846E6E70220A07015209047BDE8F883A829002034
:20427C00A02C00203F482DE9F04F001FADF1140D00F1A40100F1940B8046029100F1A80163
:20429C0003914FF4804005F0DFFDE8B14FF00450D0F89813D8F8046090F88503C3F3885722
:2042BC00C1F31501C0F38002C1F31501B8050143B06841EAC2716A4600F0EAFCD8F8040048
:2042DC008168012005F088F9002702260DF10409234D049759F8044F236883B32068806907
:2042FC0005F0B2FD824620680023524604F08CFA1AF00A0F08D1BAF1000F20D0206847F410
:20431C008047C8F8AC001AE020681449AB688069014023EA0100A8602068C1692A6822EACC
:20433C00010028602168102005F056F921680BF1080005F0E1F8049847F002072060761E90
:20435C00C8D127B108F1DC00394605F04AFF01F029FBFDF77BFB05B0BDE8F08FFDBFFFFF2C
:20437C000C1004400C1F00202DE9F04715468046287A0C46ADF1180D00F03F01E8880E9F04
:20439C006FF39F2040EA0130A9889946172C6FF39F2141EA003A5FD3324EE41F40466A46C0
:2043BC00A4B2214601F0F0FB9DF80B1088083DD348083BD22A7AEB8819F00F0018D0401E26
:2043DC0012D0401E07D0401E18BF042047D1009850450DD02AE09DF80800904226D1BDF80A
:2043FC000600984204D021E09DF8080090421DD197B109F0F00010280ED1BA89BB68684633
:20441C00002103F087F978B9F988B868BA884018396805F017F938B968460EC80EC503C8C7
:20443C0085E8030000201AE09DF80B10C8080BD3BDF80E00844204DC2146404603F076FDBC
:20445C0002E0241AA4B205E00020FFF753FC96F83380F48E162CA0D80020A8810A2006B0DA
:20447C00BDE8F087E42F0020F8B58DF800009DF8000005F041F9012528B19DF8000005F052
:20449C003BF9032866D19DF80010334C442011FB0040A0F1340628380178102907DC0529A8
:2044BC0005DB4088B0F5077F01DC282801DA0420F8BD2A48DFF8ACC04178012912D1C27877
:2044DC0081788A4207DD9DF8003099420ADC9DF80010914206DC007861466F461C314018BE
:2044FC0039780170307C7368D6F834E07289F76B252803D0262818BF272802D11849994215
:20451C0028D16146C1F82630C877C1F822E04FF60123C1F82A7093421CDD0A84032001F0AA
:20453C001BFCB8B99DF8000005F0E6F8032810D1207B08280DDA9DF8000030709DF80010D7
:20455C00207B2F46401C207307FA01F0A1880843A08000252846F8BD7427002070C4000083
:20457C00D6BE898E203200202DE9FC4191EA03084CBF4FF000484FF000084FEAC32545EA00
:20459C0052554FEAC2264FEA43077F0D11BF45F0004500210020BDE8FC815FF4E06E1EF1CB
:2045BC00FF0E774555D04FEAC12343EA50534FEAC0224FEA4104640D11BF43F00043002193
:2045DC000020BDE8FC81744543D0E419A3FB0501A3FB06E7A2FB06631EEB030E57F1000716
:2045FC0051F10001A2FB05631EEB060E57F1000751F10001FF1851F10001C01951F1000132
:20461C004CBF4FF4806E4FF4007E10EB0E0051F1000148BF641C01D4400049415FF4407705
:20463C00FF37E41BDEBF00210020BDE8FC8117F58067BC420DD24FEAD02040EA41504FEA3C
:20465C0041014FEA113141EA045141EA0801BDE8FC810020FF21C900C91D090551EA08016A
:20467C00BDE8FC8170B5324C0D46A80850D2E8085DD301250420657004F07CFC2D480068AC
:20469C00006B8047A060606804F194060146306870B10069064649B18E4207D0716AC90873
:2046BC0003D3036A0421002298477575314661604868214900780860022004F05BFC1120BB
:2046DC0000F05AFE1D48007884F8205010B90E2000F052FE60684168886808B9C86810B163
:2046FC00174805F047FC17490720002608601649174B0E60154D4E600A68636245EA02004B
:20471C0008601A2005F05BFD192005F058FD70BDFEF752FD204600F19C01096811B902F079
:20473C00CBFD70BDDC3045F0020105F05AFD70BD081F00208C010010D0210840DAC50000EF
:20475C00510007060000046014100440024000407D3400002DE9FC41DFF8DC8000280E46DE
:20477C0047D034490878401C08706846012104F071FB9DF800406846012104F06BFB9DF871
:20479C00000004EB0024A4B204F1080080B205F06DF9071C03D03C8007F1080078605FB170
:2047BC00B81C012104F056FBF81C012104F052FB7868398804F04EFBDFB14346BD78D8889F
:2047DC001C6A996A9A696D116D1E07D06D1E09D06D1E03D0384605F0F8FC0AE040F02000EE
:2047FC00224601E040F00800D88010463A4604F0C9FC444666B1606AE18848B10F4A107887
:20481C0041F04001401C1070A06AE18005F0F8FDE06905F009FE18B1606905F005FE30B921
:20483C00E08840F01000E080A06A05F0E9FDBDE8FC81C046F134002044300020F03400202A
:20485C002DE9FC47804698F80000032858D1D8F80440314D207890B960784119C97C05F159
:20487C00140651B904F0F8FD0021C0B202F020F960780121801900F8011C002708E0207822
:20489C00032802D1607802F0E5FE05F11406012705F0E6FD814605F0DFFD8246607881196F
:2048BC0011F8011C012925D12E781EB3012F21D01A4D442610FB06F02F5802F07DFB617862
:2048DC0011FB06F16A18147B3F1ABE086D180C3515F91C7C15F8305C0C2004F09DF9011CB1
:2048FC0008D00C80002088704E600F7201204D7203F0B0FC504605F0ABFD484605F0A4FD1B
:20491C0005F0AEFD0090D8F8040005F011FA009805F09AFDBDE8FC87F01700207427002049
:20493C002DE9F84307467D68BE6890460C4605F044FC814630682B78026B02F4807203B14A
:20495C001AB1484605F080FD56E005F5B67005F030FC2C620024EC776C623168086B40F4D6
:20497C0080700863484605F06FFD05F2B11004F0D7FF4146384604F033F905F2B119A8625F
:20499C00A8B93846414602F07DFFA878D0B9A96805F1CC0005F0C4FAE8B1AC621020E877C2
:2049BC003146284601F024FA05F2B11022E005F004FC3268916B41F02001916305F044FD26
:2049DC00A87810B12046BDE8F883A96805F1CC0005F0A6FA10B9686ABDE8F883384641462C
:2049FC0002F050FF1020AC623146E877284601F0FFF9484604F084FF4FF0FF30BDE8F8835C
:204A1C002DE9F8430C46054605F02AFD0090022004F0A0FB0746009805F016FD002F5AD0E9
:204A3C002E4A3D7044207C70083A111D14FB0024B1F800C0508808234FF000084FF0010E41
:204A5C009146343C383911F8445F0EFA05F292B2024203D102EA0C06B24202D05B1EF2D17B
:204A7C0000E0A846754605FA08F1084380B20CEA00018C4508BF0020B8F1000FA9F8020012
:204A9C0002D0404600F0E6FE4046FFF7EDFCE0781E28C4BF03203870387803280DD099F834
:204ABC000000002804BF89F80050002004D0A078401CA070E078401CE0700320394603F00D
:204ADC0057FF40B905F0CCFC0090384605F030F9009805F0B9FCBDE8F883C0467C27002057
:204AFC002A4AB0B5D2F87C42B4F1FF3F08BF002404F084FF042847D1D2F878021268070FDC
:204B1C0002F0FF027F2A88BF002204F077FF4FF0FF3104280AD13846012835D9801E03D06E
:204B3C00401E03D1153200E00B3251B214292BDB2048174F0025103805603868806C80478A
:204B5C001448006820B114480068204600F034F8124813490560134F0A686FF35B4247EA3F
:204B7C000200086010490868C0F30130012806D10A680E48104040F400320A6008600C495D
:204B9C0008680028FCD1B0BDFEE7C046A0100050F001001080012843800520438C21084072
:204BBC00482003400000390128000940EFFFFCFC0C006842940460422D4A2DE9F041804629
:204BDC002E4C5068800806D2106804F14D01000C40F0F000087028484FF001214FF08057E1
:204BFC00C0F8041407F5F8760088D7F8F0019568204F016828468847A80E03D2680E24BF21
:204C1C0002202070306842682946404690471F48F4300068C0F305313970410A39BF40218F
:204C3C0084F823104021E174800900F0380040F46050A7F85C00306881682846884710494C
:204C5C00104A0AE0105C9478131D844299BF184410F8010C18444078086008684B68984244
:204C7C00FCD10228EED1084901200860BDE8F081AC4F00500EB00C4000A00C40096208407E
:204C9C0000600C40FCC500009404604218130050F0B50E460021ADF1140D01910291039144
:204CBC001446049103AB02AA04A9009101A9FFF7CBF98325310824D2E0B1039F87B104990E
:204CDC00C6F3150271B1019840F22B210280384604F033FB0298049902F08CF8039826E03F
:204CFC00C6F3150240B1019800884FF6FF71814202D132E0C6F3150201980280628010205C
:204D1C0029E0002829D00399A9B10499C6F3150699B101984FF6FF720280084632462B21B9
:204D3C0004F00BFB0298049902F07EF9049815212180606012E0C6F3150670B102982B21BD
:204D5C00324604F0FAFAFF2807D001984FF6FF71018066601420208000E00325284605B045
:204D7C00F0BD70472DE9FE4FDFF8C48098F83102002851D0002501212C4698F8312201FA92
:204D9C0004F0104203D1641C032CF6D344E098F831221020A040104218BF0D1C05F00DFA00
:204DBC0098F831221121A14081F0FF01114088F8311205F049FBE0B205F06EF860B3877A22
:204DDC0057B390F9099019490768012D446851F82960019710D0017A02290DD100F1100110
:204DFC0091E8000C00274FF0805317EA0B0703EA0A0108BF002901D101F01CFE012D04D0FF
:204E1C00009600224FF0006303E000224FF00073009201984946A04798F8310220B108F533
:204E3C008870002105F0DDF9BDE8FE8F94300440081F00202DE9F04105F0FCF84FF08058AA
:204E5C00D8F8E8014068804705F012F9054605F00C000C283FD0E80822D204F043FA234FF8
:204E7C003C6806460120014604F0B9FD39687143884215D21E4DF020B0FBF4F0311A28464B
:204E9C0005F0AAFA284605F0A3FA00BF00BF0120FDF724FA00BF00BF284605F095FA20E03C
:204EBC0000BF00BF280918D208F5EC74206880680146104888470428F8D0690903D200289F
:204EDC0018BF002000D1012003F0C2FE0A4801210160006803E000BF00BF05F05EF900BF71
:204EFC0000BF05F0ADF8BDE8F081C04654C600003C2B0020004003402C2009402DE9F84317
:204F1C00054604F069FE0446284604F072FE0746204604F0F3FF002F47D0254D686A18B1C7
:204F3C0004F0B2FE002068623888001D80B204F09DFD041C0DD0387820703888001260704B
:204F5C00B878A070F878E07079683A88201D00F069FE6C6234B3174E38883188001D1FFA35
:204F7C0080F905F073F898B9D6F8108049450FDBF06821464A46401C00F054FE0E48A6F834
:204F9C0006900121017008F10100306103F08AF8B8784011012818BF032803D195F90000BE
:204FBC00401E2870384605F010F9BDE8F883C04644300020CC330020F63400202DE9FC41ED
:204FDC002D4C05466069002710B1804700284CD0002F4AD1E068226A690305F08AF800280C
:204FFC0041D40C2004F1300815FB00F026184044173001783036FE29AEBF0121491CC9B2A9
:20501C000170009840F0FF0061F31F2019496A460423014300912846394603F067F860708C
:20503C0038B9A800FF2100EBC50040448175032444762846FF214FF0FF323B4604F0D0F954
:20505C002846FF214FF0FF32012304F0C9F92846FF214FF0FF32022304F0C2F91020B08327
:20507C00FF24347602E0012700E00B273846BDE8FC81C04600000F96E42F00202DE9B043A4
:20509C00044605F09AF828498146621892F84A01401EC7B2002F82F84A713ED1264800EBF9
:2050BC0084000478408834F07F07804614D1E0090BD21E4800688069014640468847404618
:2050DC0002F046FD0228FAD121E001EB8801D1F86011002088471AE04FF08055D5F8B80157
:2050FC00006A014640468847D5F8B801806A014640468847D5F8B801006B014640468847F5
:20511C0001210B4A0B48116001688908FCD304F03F00152801DAFFF7B1FF484605F094F96E
:20513C000020BDE8B083C046302B0020B8010010282008602820084068C20000FEB50546A9
:20515C002878002840D0401E41D168680028074650D097F90810284C7F2924DA11F17F0F34
:20517C0021DD204690F8312090F93030C2F1100616FB03F3066A12FB0131091180F830109C
:20519C003988885D00090ED3ADF8081097F908008DF80A00787A02AA042301218DF80B0008
:2051BC00832000F0BDFE3988206AA68C0A5C06EA0200C0080BD3BE784EB9C8B27A7A97F9CF
:2051DC000810FBF7CBFD02E06868FAF729FF686880B105F045F9009005F03EF901906868C5
:2051FC0004F0A6FD00206860019805F031F9009805F02AF9FEBDC04600240020F0B5856815
:20521C006A7D2C49ADF1140D42F000462B7DAC7D009646680027FF2C41EA03024FF0020304
:20523C00019202D0E87DFF2800D13FB1EA7DA87D11430423039140F000400290FE2106F1ED
:20525C0054004DF82310694600F006FA3066306E002808BF381C2AD0174C29688C4214BFC1
:20527C0013220F22697D03F055FE2868844214BF14221022297D306E03F04CFEA97DFF2920
:20529C0002D0E87DFF2800D187B12868844214BF15221122306E03F03DFE2868844214BF03
:2052BC0016221222E97D306E03F034FE012005B0F0BDC0460000C0A000100040034630B5D6
:2052DC000020ADF1140D019002460292039298685C7D428001880492A1F60201C9B141F2D0
:2052FC001E05491B15D041F6E675491B012920D8417E012C62F38201417606D0018B21F41C
:20531C007C7141F43471018313E0018B62F30911F9E7417C012C62F38201417405D0018A81
:20533C0021F47C7141F4347102E0018A62F3091101825A7504A902AA03AB009101A9FEF710
:20535C0083FE50B1019800884FF6FF71814204D10298049901F068FE03E00298049901F0A8
:20537C0049FD04481830016809B10298884705B030BDC046081F0020F8B5064604F01DFFB3
:20539C00264D0746711991F84A01421C002881F84A213DD1224C04EB8604267806F03F00A1
:2053BC00152801DAFFF7E8FF648836F07F0014D1F0090BD21B4800684069014620468847A0
:2053DC00204602F08DFD0128FAD121E005EB8405D5F86011012088471AE04FF08055D5F858
:2053FC00B801C069014620468847D5F8B801406A014620468847D5F8B801C06A014620462A
:20541C0088470121084A0948116001688908FCD3384605F019F80020F8BDC046302B0020C8
:20543C0068C20000B80100102820086028200840FEB54FF0805684684568D6F8D011206885
:20545C00C9688847216822488A6B1040886340F2F2712068204B41641E4994F8210094F840
:20547C002020085C9A5C216810434863684604F098FE1C4FDFF868E0D6F8D0112B7FDFF8FD
:20549C005CC06A7FA87F496857F823705EF82260AA695CF820300D46206801993E43334336
:2054BC00A8472168C86A40F01000C8622168086B40F001000863A07D0027FF2802D0E07D8A
:2054DC00FF2800D11FB1086B40F440400863FEBD0DF8FFFF32C600003EC6000094C5000043
:2054FC0014C60000BCC500002DE9FE4F1D462B4B904605EB0802521F127882468946442033
:20551C0019FB003401A802709DF8040005EB0801343CC71107D111F8060C802803D081281B
:20553C0018BF46B200D17F2651F804BC04F098FF0090082003F00EFE0746009804F084FF63
:20555C0057B387F8038015487D60007887F80290012805D0C4F82CB084F8246000200AE0C0
:20557C00C4F828B060780D4984F82360401C607000250D70012078703946012087F800A0B8
:20559C0003F0F6F940B904F06BFF0090384604F0CFFB009804F058FFBDE8FE8F742700201A
:2055BC002C4A4423F0B50C3210FB032010F82A3C002701253C46ADF12C0DA0F1400203F007
:2055DC001F0300F82A3C2F3810F801CF002305FA03F61CEA060F05D003EBC40607F80D60C1
:2055FC007E1CF7B25B1C082BF1DB641C052CEBDB27B910A0002103F0B5FEFEE7137B507CC9
:20561C00252601FB030090FBF6F1ADF101037143401AC0B23946507413F8012F824207D077
:20563C00491EF9D190FBF7F17943401A1DF800000BB0F0BD4E756D626572206F66206368CE
:20565C00616E6E656C732063616E6E6F74206265203000C0742700202DE9F0470E46071C94
:20567C0014BF002E002042D0DFF888A04FF0FF31504604F055FC3178DFF87C90FE2910D0FF
:20569C001F4802680020FF2906D08A422AD31E2928DC59F821502DBB401C16F82010FE2980
:2056BC00F1D100243C607C60BC603178FE291AD0351D4FF00108FF290ED01F290CDA08FACA
:2056DC0001F049F821707A680C49104356F824207860384603F088F915F8041B641CFE2932
:2056FC00E9D100E00027504604F075FD3846BDE8F087C04678400020FC3F0020007FC76751
:20571C0070340020F0B5284C06462078ADF11C0D032846D100256846182225700823657001
:20573C00294604F0CFFC6846294603F0E3FC20612E22294604F1300001F0FCF904F13C00B4
:20575C00FF210A2201F0F6F903F032FD3146284602F0F0FC04F11801E06004F0CFFC226A83
:20577C00E169B1FBF2F0C0B284F830000228C4BF022084F83000E070B2F5005F04D1E76822
:20579C00B1EB403F00D317B9012020700AE0FF2084F833004FF40050E086FBF753FD6078B3
:2057BC0000E0607007B0F0BDE42F00203EB50020014604F045FE264C211D086010B90320F1
:2057DC0002F0FCFD04F10C0004F012FC1F4BA060042084F8310018686FF03605006884F886
:2057FC0030508047062805D1002220200121134600F096FB606800214FF080424FF0FF3389
:20581C0004F016FEA06804F00FFE0028F2D104F027FE0090A06804F006FA0546009804F0F4
:20583C0013FE002DEED02846FFF788FC04F018FE019004F011FE0290284604F079FA0298C9
:20585C0004F006FE019804F0FFFDDBE7E8010010002400202DE9FC41804604F0FDFD264D32
:20587C000090442018FB00F701F0A6FBEC19ED1955F80C1C0C34A4F14006884204D854F8EF
:20589C00182C411A491E01E0B26A811A348940F6C413358932635C43B1FBF4F1491C89B261
:2058BC004D4303FB0522101A3263B0F5DA6F3CBF22443263F789306B4FF4C8747D43A0F684
:2058DC0098303063B5FBF4F0401CB063326B121A7263B26B42F20F4707EB4200B0FBF3F047
:2058FC00401C70814046FFF75BFE3074009804F0AFFDBDE8FC81C046742700202DE9F04164
:20591C001E46174604F0A8FD244DA978002480464FF4000014EA060300EA070008BF00286B
:20593C0008D0012906D1204610210246134601F0C1FEA9782046022210EA060402EA0702E6
:20595C0008BF002A09D14FF0004110EA060401EA070208BF002A11D11AE0012918D11049AF
:20597C000988B1F500610ED0A1F5406103290AD9891F022907D9A1F2FB3111B128700E2154
:20599C0002E00F2100E011210246134601F092FE404604F05DFDBDE8F081C046A02C0020C9
:2059BC00D22900202DE9F047254EDFF89890002501244FF0020A4FF01108E8B204F06CFA10
:2059DC00071C38D0B87A012835D197F90900113004FA00F0C14346F8041C31680843306081
:2059FC0097F9090004FA00F0C0B204F0BDF807F11000002103F0F2FB0146812909D1B869F4
:205A1C0018B1002103F0EAFB0146812908BF87F80AA081290FD0A9F1040097F9091090F86F
:205A3C00312208FA01F1114380F83112002100F5887004F0D6FB6D1C032DBED3BDE8F087BB
:205A5C000C1004400C1F0020F0B520480127F84201D002F0DDFA204D204F214EBD4206D254
:205A7C0003CD0478A4003459401CA047F6E71D48002800D08047164D164FBD4202D210CDD1
:205A9C00A047FAE7F0BD03251BE0416808300A1C2A400BD11A1C2A40AB4305D00468043002
:205ABC000C600431043BF9D1131C05D0047801300C700131013BF9D1021C2A4001D0A84377
:205ADC0004300368002BE0D17047C046FFFFFFFF0000000000000000E0C8000008C90000FD
:205AFC00B0C8000075F402102DE9F0470F46064604F066FCEFF311898246202080F31188C3
:205B1C00D6F80880474533D01D481E4B0068002F05D49C690125BD4004EBC70401E01C184F
:205B3C000025307D01281AD1304604F045FC306C04F07AFC18B1F1685868884358601869CC
:205B5C00864204D02046314604F032FC04E020685C61314604F0BCFA586828435860B7604A
:205B7C00F5603464002F44BF002058610120188189F31188504604F017FC4046BDE8F08703
:205B9C0050BD0000442E00207CB506462448006814460D4607236A4605EB463104F0B3FA6A
:205BBC009DF800009DF80010A58183109DF802209DF801009DF8045001F0030140EA012060
:205BDC0026749DF80310E080891141EA82019DF80320237240EA03309206120D42EAA5028B
:205BFC00E2819DF805509DF80420A18041EA003102F00302920142EAA50262729DF80650EA
:205C1C009DF805202160962DA57202F0030206BF42F00402101C42F00100E0727CBDC0466F
:205C3C00F02F0020002A4AD05FEA000C8B071CD1830722D1102A08D370B4103A78C978C078
:205C5C00103AFBD270BC103238D0042A2CD3082A05D30C2A24BF08C908C008C908C008C948
:205C7C0008C092072AD0920F22E00B780370491C401C521E22D08B07F7D1C30714D183075E
:205C9C00D8D0121F12D308C903801B0C4380001D121FF8D20AE008C903701B0A43701B0AA9
:205CBC0083701B0AC370001D121FF4D2121D05D00B780370491C401C521EF9D16046704717
:205CDC002DE9F84F8146002100200A46C9F80000684600F0D5FADFF87C8000264FF0FF3559
:205CFC004FF0190A34460746E0B204F0D5F8C8B1837ABBB1017A0126022917D04246516835
:205D1C0092F832324069CA8A0969891813FB0A1103F08EFB834604F087F9BBFBF0F085422A
:205D3C0088BF051C641C032CDED300E000251FB1012E04D0012F05D0012E04D005E0009822
:205D5C00854200D9009DC9F800503E43F0B2BDE8F88FC046081F00202DE9F843074604F0AB
:205D7C007BFB002406463846401E25D0401E21D0401E1DD11D4D103DEF7F04F071FB80466A
:205D9C0004F06AFB81461648224607701548EF771346032513210570184601F08BFC04467D
:205DBC00484604F055FB404604F04EFB8CB904E002240EE0022500E001250B48057044B903
:205DDC0001208DF8005007216A46034601F072FC0446304604F03CFB2046BDE8F883C046BA
:205DFC00DE290020A02C00204834002030320020F8B50C46054604F0E0F92268916B21F0A8
:205E1C002001916304F020FB286E217D012202F0B5F9286E217D012202F0BAFC286E217D18
:205E3C00002203F077F8286EA17D002203F072F8A878012807D005F1CC004FF0FF3104F04A
:205E5C006FF8206803E0206881690909FCD20D4E86420CBF10221422217D286E03F05AF833
:205E7C00A17D0027FF2902D0E07DFF2800D13FB12068864214BF15221122286E03F04AF82A
:205E9C00F8BDC046001000408B4208BF824204D90B1C021C002100207047002B08BF002A4D
:205EBC000BD10B1C021C00210020002B08BF002A1CBFC943C04300F010B9F0B51C46154643
:205EDC000B46024600200021B4FA84F6202E04BFB5FA85F62036B3FA83F7202F04BFB2FA2E
:205EFC0082F72037F61BB6F1200727BF05FA07F400257F42B4403EBF25FA07F73C43B5408F
:205F1C00A34208BFAA4201D3521BA341404149416D0845EAC4756408761EF1D5F0BD704796
:205F3C002DE9F041044608461D469046401E03D0801E3AD1792600E0592605F1080080B225
:205F5C0003F094FD071C30D03D80BE70B8F1000FFC7008D007F1080078602A46414607F1D0
:205F7C000800FFF75FFE03F037FE8046104DB878EC69AB88A96A6A6900264011401E05D017
:205F9C00401E04D0401E18BF042607D12246104643F010033A46AB8003F0F4F8404603F075
:205FBC00ADFF16B1384603F06FFEBDE8F081C046443000204FF00451002081F8E90301208A
:205FDC0081F8D503022081F8E603032081F82504042081F8EE03052081F85F04062081F8DD
:205FFC007704072081F82004082081F81204092081F814040A2081F82F040B2081F8230434
:20601C000C2081F860040D2081F86A040E2081F83F040F2081F8E103102081F8F303112001
:20603C0081F86C04122081F86B04132081F81D04142081F87804152081F8FC030148C1F89C
:20605C0084047047B54200212DE9F04106467468B56804F0B2F88046A06A58B92868816948
:20607C00090907D2006B400A04D2404604F0ECF9BDE8F08104F5B67004F09BF800274046C6
:20609C00A76204F0E1F9A97D3846FF2902D0E97DFF2900D118B120462946FFF7A9FE04F0E1
:2060BC008CF82A68916B21F0200191632A68116B21F48071116304F0C7F904F2B11003F0A6
:2060DC001FFC616A206A2769626A401A2062216A3B4630469847BDE8F08170472DE9FE4F6B
:2060FC000190214800F194063768994692460D460024804600E03F6897B3BD42FBD1D7F801
:20611C0000B00198394603F03DFF18B3384600224FF0805302F078FB06F10800B9F1000FD2
:20613C0000900ED0384600224FF0807302F06CFB286998F8D830C8F8D40043F0010088F839
:20615C00D8003046394603F0FDF90098394603F0D3F9641CBAF1000F18BF5FEA0B07CED18C
:20617C002046BDE8FE8FC046081F00202DE9F043054620480068ADF1140D05EB000904F00E
:20619C000FF9071C16D004F036F8064604F018F980466868012807D100246C60EF60404603
:2061BC00AE6004F001F921E0E868874204D1404604F0FAF801201AE0384603F02FFE02971A
:2061DC000024C7F818D0484669463246039402F028FEE86804F00FF8B04203DAE868314693
:2061FC00FFF782FC404604F0DFF8BC61204605B0BDE8F08348C60000F8B51C4ED6F860011A
:20621C0001680120884701282ED0D6F82401184DC4683C21012200232846A047002808BF77
:20623C00002022D02F8817F0010704D14FF00120C5F80404288830688047012F04BF4FF02F
:20625C008070C5F804040D4A0A480B4F936901681069D161A0EB9000C91A07FB01F3190C41
:20627C00814228BF081C10610120F8BD8000001000A00C403020094040420F00683300208C
:20629C00DFF880C0F8B50B1C04464FF000050FD0DCF894702E466FB1F868007B00F00F0044
:2062BC00022803D03F68002FF6D103E03E4601E0DCF8946016B302B11660F068007B01252D
:2062DC0000F00F00022819D1012B09D03069C28A9CF8323200691921801813FB010103E07F
:2062FC003169088DC9680918706B03F0A1F8206003F09AFE2168B1FBF0F000E000202060FA
:20631C002846F8BD081F0020F8B51F4CA0F5C060D4F81011C4F82C010029B8BF4942002801
:20633C00B8BF404281422BDA4FF08057D7F8A401B4F81411154D40684FF47F4208230646A0
:20635C00009128463021B047D7F8A401B4F8181140684FF4F8021223064600910421284607
:20637C00B047D7F8A401B4F8281140684FF440620A230646009120212846B047012000E073
:20639C00002084F83001F8BD302B002000A00C407CB5204C3C3CE06B0068014604208847F6
:2063BC001B4D02281AD0032818D001282FD12068406803214FF040521C230646009128465A
:2063DC000021B0472068406801214FF4007209230446009128460021A0477CBD206840689C
:2063FC0003214FF040521C230646009128460021B0472068406801214FF40072092304466D
:20641C00009128460021A047022002F09BFD7CBD00A00C40E00100101B49B0B509684BF220
:20643C00F52250430027040A01F44021B1F5802F03D116480068800C00D38FB14FF0805569
:20645C00D5F8EC010068804702F0A4F8D5F8E011C96888472111C01000B2484304EBE034A9
:20647C000B48007830B90B48006820F07F402418640802E0084880F8407108480460210CDE
:20649C00416001278760B0BDB44F00508C130050702C002010200940302B00207C600C40A9
:2064BC0010B5994201D1904233D050EA020404D141EA03046400002C2BD050EA410401D156
:2064DC009C4226E04C006415641C07D15C006415641C03D1DC0FB4EBD1741AE0002B0CD4A2
:2064FC00002916D4994214D190EA020401D490420FE0002A0DD101240BE0002909DC8B42A4
:20651C0007D190EA020401D4824202E0002800D10124EFF3008454BF44F0005424F0005405
:20653C0084F3008810BD10B58B4201D1824233D052EA000404D143EA01046400002C2BD076
:20655C0052EA430401D18C4226E05C006415641C07D14C006415641C03D1CC0FB4EBD374EF
:20657C001AE000290CD4002B16D48B4214D192EA000401D482420FE000280DD101240BE017
:20659C00002B09DC994207D192EA000401D4904202E0002A00D10124EFF3008454BF44F046
:2065BC00005424F0005484F3008810BDF8B5054603F003FE1D4C064604F1D8010878A8435D
:2065DC0004F1B40508702868002808BF002706D02868B03003F0ADFC002700B10127686821
:2065FC0038B1B03003F0A5FC0025384318BF01252F4694F8D800A0B9012F12D0D4F8D400A1
:20661C0078B1416A89080CD3056A304603F01CFFD4F8D40002210022A8470020C4F8D400A3
:20663C00F8BD304603F010FFF8BDC046081F0020F8B507460024081C08BF0124002302B903
:20665C000123002F33D01AB197F84460002E2ED080B190F844606EB17D6B016CAD08A5EB88
:20667C009105394603F0BDFC2D1AB5F1704F04DB002D02DC012C01D019E00124BAB1D068E8
:20669C00007B00F00F00022811D1516B386C8D081146A5EB9005384603F0A3FC01262D1A69
:2066BC00B5F1704F02DB002DD8BF002633431C40E0B2F8BD2DE9FC411E4CA568804603F0F6
:2066DC0061FA002832D12C2002F0A6FA071C18D000212C2200F02EFA062002F09DFA38625F
:2066FC00A66888B903F0BCFE009003F0B5FE0190384603F01DFB019803F0AAFE009803F073
:20671C00A3FE0420BDE8FC810021062200F012FA0023A7F800800120BB62B87016B9A760B3
:20673C0004E00546A86A0028FBD1AF620020BDE8FC81C046E00F002070B50646B5681D48AD
:20675C00296874688A6B10408863002020703046FFF77AFC304601F035FC2968C86A20F083
:20677C001000C862296814480A6B10400863206E03F026F96868FEF781FC04F17C0003F060
:20679C001AFD04F1980003F028FDA07818B904F1CC0003F01EFD607818B904F58E7003F0D6
:2067BC0018FD04F5B67003F0FAFC04F1680003F027F870BD0DF8FFFFFEFCFFFF2DE9F043C0
:2067DC0081461948194C0068ADF1140D04906068F8B9FE20039003A96846FEF73DFF04ADEF
:2067FC000027DFF84C80134E60606068002F07BF297848EA010129783143039100F0A4FBC8
:20681C0020B97F1C6D1C042FEFDB02E0606803F0D7F8B9F1020F14BF01200020064905B023
:20683C000870BDE8F083C04624C00000403300200004C0A0000480A01B200240F8B51C4D14
:20685C000446286818B901F001FA286818B116490978A14201DC002423E0144A0C2114FBCB
:20687C0001246668A7684FF0FF3103F059FB114831780268012908BF28680CD0396828684A
:20689C00531E0B4207D10C497B6809689A4202D81940994201D0002401E00121317003F027
:2068BC009AFC2046F8BDC04679C50000CCC50000A8410020AC410020B04100202DE9F843BE
:2068DC008146EFF31188202080F311880124164E164DF461164F6C60F86A016A14208847CC
:2068FC00D9F81000810C14BF000C0420A861386802682321002090470E480068C6F880427F
:20691C0000280CBF211C03210B4807680FB141F00401286820F4E02040EA01402860346024
