:20000000003C0120B590010039FB021039FB021039FB021039FB021039FB021039FB021099
:1C00200039FB021039FB021039FB021039FB021039FB021039FB021011FB021002
:20003C002DE9F04FADF15C0D1FF094F819F008FE071C0CD01DF06AFBC84C00268146062105
:20005C0034F80C0F28B1491E06F10106F8D11EF0A9FB4FF6F878A4F8008067600025A560C2
:20007C00BF4C26707868606048461DF0BFFD04F118001EF054F944F26826C949A0601B2251
:20009C004FF4A473FB200090102001960CF038F82E4602208DF8310001258DF83260C14FB3
:2000BC008DF833604FF480628DF834502B460DF131003946009010200CF022F80DF13200B9
:2000DC0040F2024200902B46394610200CF018F80DF1330040F2034200902B46394610207A
:2000FC000CF00EF80DA840F2064200902B46394610200CF005F8AC49102004F110020BF0E3
:20011C00FFFFAA493246102013460BF0F9FF217850201CF0CFFBA649024610200BF0F0FFAE
:20013C00217850201CF0C6FB009603460822A149019610200BF0E4FF9F4910200BF0E0FF43
:20015C009E49102008220BF0DBFF9D499D4A10200BF0D6FF04F19407109704F124000E90B2
:20017C00C94D0F957E48406800214FF040424FF0FF331EF0EBFF071CF4D000200A900CA99A
:20019C000AAA0BA81BF018FE002840F02581BDF82C00102840F01C8171489DF830100078D1
:2001BC00884240F015810A9C20884FF6FF71814200F00E812078913800F0C0800F3800F086
:2001DC00B780801E00F084802E3840F001812646B07800283CD0401F1FD0401E0FD0401E71
:2001FC0040F0F680B088814200F0F280082880F2EF807678002E40F0EB8004461FE0B08897
:20021C00814200F0E580082880F2E2800E99002201EB80018A70032117E074890846A0422E
:20023C0011D0082C0FDA707868B90E98012100EB84008170C249224610200BF061FF20460F
:20025C0013F016FAC4E00846022116F0F9F8BFE0C749C84A102000230BF052FFC3491020C7
:20027C004FF486020BF04CFF6426C82001220023BD490090102001960BF042FF06200022B8
:20029C000DF12E03B749ADF82E0010200BF038FF01200DF135030246B2498DF8350010205A
:2002BC000BF02EFF012006220DF13503AD498DF8350010200BF024FF4FF4006003220DF1B7
:2002DC002E03A849ADF82E0010200BF019FF7FE0002C7DD06079603802D0401E1DD077E00D
:2002FC0061884FF6FF7088420FD008290DDA62890E9820F82120CE4962894FF6FF731020B1
:20031C000BF0FEFE608800219FE76188CDA01CF0A8FA62880F991323D6E762880F991020F0
:20033C0013230BF0EDFE6188CEA01CF09AFA4FE0002C4DD0A06819F0D3F949E060780E38F2
:20035C0010D0801E40D02E3842D1A07882283FD1A4880846A0423BD071E7C046281D00207E
:20037C00D81A0020A08842F20301814230D1A168491C0A6806A80260496841609DF81A60DA
:20039C009DF81900C54906AA00F0BF008DF8190046F0C6008DF81A0010200BF0B1FE17E01C
:2003BC000D3D0210C57A000059CD0100D1AA0100D96C021069E500002D450210A9E7010029
:2003DC00DDDE0100D1E50100082000210CF0BCFE0A9808B11EF050F9F80FFFF4C3AEBD486D
:2003FC0080681EF0AFFE00287FF4BCAEB94880681DF035FA00281190F1D012900088801EC2
:20041C0000F02D84401E00F0A783401E00F05683401E00F02F84801E00F05E81401E35D0AF
:20043C00401E40F0318411984768002F00F02C84A848C068800821D379880E9800EB81008F
:20045C008678DEB1387802280CBF4FF001084FF00008B7F802903E6997F906503C790C2010
:20047C001DF006FC011C09D0A1F8009081F802804E600D7201204C7219F0ECFF002F00F018
:20049C0003843846F1E2C046A1F90110129840680028064600F0FD830078401E0B2800F286
:2004BC001381DFE810F0FD001101F500F1001101C70069004F000C00B400A5009F00706863
:2004DC00047A0778438804F1080189B2C56890F905B090F806A090F80790169104F10802A1
:2004FC00139790F9041014938046159190B21DF0BFFB071C1DD087F804B087F805A087F897
:20051C0006901398FC71149B3870159AA7F80130FA702DB107F108002946224614F0A2F87E
:20053C00169B862001213A4614F08CFF38461BF021FAD8F80C00002800F0C68007464DE0BF
:20055C004925021070680578448803201DF090FB071C00F0B9803D70A7F80140852003237F
:20057C0038E0C04695390110F5F90110C569011089610210F5C5010070680178477890F8D5
:20059C0004B090F805A0139100F1060890F80C90C58914974188047C159110201DF068FB0F
:2005BC00071C00F0918087F804B0139887F805A0149B3870159A7B7041467A800A68BB1D3D
:2005DC001A608988998087F80C908420A7F80D501023FC7301213A4614F034FF38461BF09C
:2005FC00C9F971E07068817882881BF02DFF6BE0002001218DF836000DF136020B46872044
:20061C0014F020FFB7494FF6FF7008805CE07168487A0090887A0190C87A0290087A03907C
:20063C00087C0490486905908A784B8A47E0C04699FB011072680F200121022314F002FF42
:20065C0042E0C0464C3243415020434F433A20636F756C64206E6F742065737461626C6929
:20067C00736800C04C3243415020434F433A207465726D696E6174656420636F6E6E48617E
:20069C006E646C653A2000C070688188A9A002E070680178ACA01CF0E4F815E0FD380210B4
:2006BC007168887B0090C87B0190087C0290087A0390487C049048690590CA788B8908882F
:2006DC0091F904101AF0ACF87068002800F0DC82CBE1C046D81A002012984068002800F036
:2006FC00D88207460078BEA4401E112800F2B981DFE810F061013801AC01FA00E400BB00F2
:20071C00AD00A401A5008200A201750069005B004D00A0019B01120078680028064600F088
:20073C00A081407A15F008FF38B9204600211CF098F8082000210CF007FD70793379009034
:20075C0001930290B079C04903903288102042F480520BF0D5FCF0780090F0790190307A38
:20077C0006F109050290B74903953288B37810200BF0C6FCC5B2002D00F073812946BCA009
:20079C001CF06FF8328829461BF05EFE69E17B68D879C94900901A7810205B1C0BF0B0FC3A
:2007BC00011C00F05E81BAA023E07B68D879C14900901A7810205B1C0BF0A2FC011C00F027
:2007DC005081C8A015E07868B9490288837810200BF096FC011C00F04481C8A009E07868A8
:2007FC00B249028810200BF08BFC011C00F03981C8A01CF036F834E17C6860788DF81800CF
:20081C00A0780622E11C8DF819000DF11A001DF039FBB4F80900ADF82000B4F80B00ADF8B2
:20083C002200607BCB498DF82400227806AB10200BF066FC011C00F01481BCA0D9E778686C
:20085C00002800F02182008812F012FF09E17E68002E00F01982B6F803000090707900254E
:20087C000190BB490295B07825E078680028064600F00A82007A15F05FFE38B920460021DF
:20089C001BF0EFFF082000210CF05EFCB0780090F07906F108050190AC4902953288B3797C
:2008BC0010200BF02DFC3179F07800910190029171790391644932880346CFE078680188BB
:2008DC004FF6FF768E4209D0082907DA0E9830F82120C54910200BF013FCC2E0BAA03146BD
:2008FC0087E7C046E814002078680028064600F0CB8130880E9931F82000ADF81800B0881F
:20091C001EF01CFC0028079000F0AB80B288314613F0A8FEB08806AAB249ADF82000102089
:20093C000BF0EEFBC0B2002800F09B80079818F0D7FE96E052544C532053657276696365EA
:20095C0073204572726F720052544C5320536572766963657320435445205265712046612A
:20097C00696C00C078680028064600F08D81B0F80700CA4907220323009010200BF0C0FBED
:20099C00B6F8070007220223C449009010200BF0B7FBC82007220523C049009010200BF0C1
:2009BC00AFFB002501200090C44901953278701C02F0010280E77968C3488E78C068012E1D
:2009DC0020D0002E4DD1C04930F00200C86048D14FF6FD70B749B84A009001206CE7C04695
:2009FC00416E74656E6E6120617272617920636F6E66696775726174696F6E20696E766171
:200A1C006C69640060B94FF6FD70AA49AA4A0090002310200BF074FBC6B2AB48C06806BB2E
:200A3C00A94940F00200C8601BE0A14910200BF067FB16E09D49F9E79B49F7E7786819F075
:200A5C000FF80EE039370100F1DE01009E4900201026C823024688709249009610200BF040
:200A7C004FFB7868002800F00F810646F3E0C046434C20416F4120656E61626C6520726545
:200A9C007175657374206661696C656400C046C052656D6F76652066726F6D206164762000
:200ABC006C697374206661696C6564001DC0010095D00100B1DD0100C5DD0100129844680D
:200ADC008078401E012800F2DF80A7782FB9208815F09EFE002800F0D78022880F991323E3
:200AFC00CFE0C04641646420746F20616476206C697374206661696C656400C0526563651E
:200B1C0069766520656E61626C65206661696C656400C0465465726D696E617465207379AE
:200B3C006E63206661696C656400C046536574206372656174652073796E632070617261DC
:200B5C006D73206661696C656400C04605DF01001FE30100958C01001298594945681CC926
:200B7C0006AF1CC7097839705748AE6987780D2206A9B01C1CF060F900286BD1102F69DAED
:200B9C008FB1DDF8408005F102093C4608F101084846414606221CF04FF900285AD0641E7A
:200BBC0008F10708F4D12E1C05F1020841D0EC8A0D34A0B21DF0A0FD071C17D100210420EE
:200BDC000A461CF069FB32E0436F6E6E656374696F6E2048616E646C6520696E76616C6908
:200BFC006400C046A9C30110A93D0210B11C0A68B81C026089888180707878703078387053
:200C1C00B07D387396F90C003872B07A7872B08A7881B169F28A07F10D0013F023FDE2B202
:200C3C00002039461CF038FB38461AF0A3FE26488778109C41460B68C7EBC7021019401C7E
:200C5C00898803607F1C8180FBB21F4968788B70AE69A054C6B130461AF08CFE14E012984E
:200C7C00407800280CBF0020012000210A461CF013FB09E01348129F009078680849C288E1
:200C9C00002310200BF03CFA1298406808B11AF071FE11981AF06EFEFFF7A1BBD5F40110E5
:200CBC009DBC0100E1F4001079E701007DE7010081E7010091DC01102DDA0100356102107C
:200CDC00FC1E020040E20100D81A002038B586B004468DF805104FF6FF720120ADF8022002
:200CFC00090ADFF8545AADF8000002238DF806108DF8043069462A7820461EF01BFA16280A
:200D1C0003D1297820461EF011FA07B030BD3EB504000D461ED0DFF8240A006822461EF004
:200D3C0001FAFF2815D000200090002301AA2946204612F0D1F860B99DF8040000F075F962
:200D5C00C00606D59DF8040000F06FF910F0040000D001203EBDFEB5164615244FF6FF72F7
:200D7C0090420D4615D100208DF80400DFF8C8799DF80400F97988421AD23246294600F0F3
:200D9C003AF800B100249DF80400401C8DF80400EEE71EF0C3F950B100F0A2FB40B99DF8F7
:200DBC0004003246294600F026F8002400E014242046FEBD7CB50D46044606214C431646E1
:200DDC0000F080F8A8B900F078F890B99DF80700002E14BF054320EA0505E9B2814206D058
:200DFC008DF807506A460821A0B21BF07BFE012076BD002076BD2DE9FC4106463446062363
:200E1C005C438846154600F05DF8002852D100F054F800284ED1DFF82079387A80001DF02C
:200E3C00EDF9040002D100F02BFA43E0397AE03689062246090EB0B21BF02CFE002835D105
:200E5C00204600F058F85FEA08000ED13A7A9206120E002120461CF0EAFA38BB3A7A920084
:200E7C00002120461DF022F816E0214600F030F858B9280004D02146002000F029F810B9C5
:200E9C0000F0DDFB16E0A0F800808178A9420DD085700DB900210180204600F02CF8397A15
:200EBC0089062246090EB0B21BF01CFE00F0C7FB012000E00020BDE8F6810622FF2168469C
:200EDC001CF0B5BA20346A460821A0B21BF0E2BD70B5DFF864381D7A002200E0521CD4B22D
:200EFC00AC4206D231F824608642F7D101EB840070BD002070BD10B50021DFF83C280AE0DE
:200F1C0030F82130DB4320F8213000EB8103491C9C78E4439C70137A9942F1DB10BD2DE983
:200F3C00FE4FDFF814480646207A0F4691469B4680001DF063F95FEA000803D100F0A0F98B
:200F5C000A206CE00C9D0297B246062717FB0AF7029A07F12000082100F064F88DF80400D3
:200F7C00304600F09FF8227A9200FF2140461CF09DFF9DF804000090E036217A89064246EB
:200F9C00090EB0B21BF0AEFD009E02990643206A082200EBCA001CF075FFBDB10299887991
:200FBC0000232A4600F001001EF0B4F800281CBF9DF93C00002803D0DFF8841701200870FC
:200FDC0007F123002A4600F02CF806435FEA090205D007F121001C2100F024F806435FEAF0
:200FFC000B0205D007F122001C2100F01BF806430D9A62B107F1240000F013F805462537D8
:20101C000EAA0421B8B21BF06DFD05432E43207D08B100F09AFA40461DF0E8F8F0B2BDE8AB
:20103C00FE8F102180B21BF05DBDE0B50623584320306A46082180B21BF02CFD10B99DF839
:20105C0007000EBD00200EBDDFF8EC060078082110F068BF38B50025DFF8DC4619E0206A98
:20107C00062313FB05F300EBC5022033082198B21BF010FD58B1206A0622FF2100EBC5000A
:20109C001CF014FF206A00EBC5010022CA716D1CEDB2E1798D42E2DB207D10B1BDE83140FB
:2010BC0053E231BDF8B5DFF89016DFF89836C9791E680C460A4600E02A46D5B23DB1551E80
:2010DC00D2B2324412F8017C8742F5D12C46E4B220464D1E07E01718165C7F7817541A689F
:2010FC000244401C5670A8421A68F4DBAC4204DABDE8F84005201BF0F5BCF1BD70B50024B0
:20111C00DFF8345600E0641CE879E3B283420BD22B6AE6B20622FF2103EBC6001CF087F9A5
:20113C000028F0D0E0B270BDDFF81C26117819B1DFF810060168087870BD38B5002000244C
:20115C00DFF8F45503E0E0B200F008F8641CEA79E1B2914201D20100F5D032BD2DE9F84FC0
:20117C0083465D46062313FB05F58EB005F1200701AA0821B8B21BF08DFC002873D10622F5
:20119C00FF2101A81CF053F900286CD1DFF8A865307A80001DF032F85FEA000903D100F052
:2011BC006FF80A2061E01C22FF2103A81CF07EFE327A9200FF2148461CF078FE05F1230425
:2011DC000AAA1021A0B21BF065FC60B91022FF210AA81CF02CF930B99DF80A0001A900F0E0
:2011FC0001001DF093FF082200F042F801AA0821B8B21BF077FC8DF8000003AA05F12100DA
:20121C0000F03AF8074605F1220003AA00F034F8804603AA1021A0B21BF064FC044605F1C1
:20123C00240003AA102100F028F88246253503AA0421A8B248EA07071BF054FC2743317A82
:20125C009DF800504AEA0707074389060BF1E0034A46090E98B21BF045FC074348461CF072
:20127C00C5FF3D4300E0002528460FB0BDE8F08FFF2101A81CF01ABE1C2180B21BF032BCA3
:20129C0004201BF0EBB92DE9F84187B0FF208DF80000DFF8A454E8791CF0B0FF040003D172
:2012BC00FFF7EEFF0A2030E01022FF2103A81CF0FDFDEA79FF2120461CF0F8FD0622FFF7EA
:2012DC00D7FF03AA102102201BF00CFC064603AA102103201BF006FC06436A460121042070
:2012FC001BF000FC0746E979224605201BF0FAFB054601AA062106201BF0F4FB804600F09C
:20131C009EF93E432E4348EA060008B0BDE8F081DFF82414408809781BF01CBBF0B5A9B0EA
:20133C0006460D4614461DF0F9FE08B91420ACE0A422002168461CF0B9FDADF800600DF1B9
:20135C002607DFF8F463F078B17B8DF80400F07B8DF8A000279861F30000B17B27908A07E2
:20137C004CBF0222002220F0020010432790CA064CBF4FF48072002220F4807010432790A4
:20139C008A064CBF4FF40072002220F40070104327904A064CBF4FF48062002220F480609B
:2013BC001043279049074CBF0421002120F0040008432790307C02280CBF01200020787482
:2013DC001DF0A0FE412807DB307C00B108209DF8991008438DF89900B07CB8B10121B974EB
:2013FC00202206F18C010DF139001CF04BFD202206F1AC010DF159001CF044FD202206F1BD
:20141C00CC010DF179001CF03DFD00E0B874707B8DF8050090B1DFF83473102207F11001AB
:20143C000DF106001CF02EFD9DF89900082805D1102239460DF116001CF024FD307B8DF8FF
:20145C00260030B11022DFF808130DF127001CF019FD307948B1022D18BF032D03D1279893
:20147C0040F002002790012100E000219DF899000143B0788DF8991000B1042001438DF8DE
:20149C009910684621461DF039FE29B0F0BD2DE9FC41154615244FF6FF72904288460DD18D
:2014BC000027A54EF179F8B2884216D22A464146FFF780FC00B100247F1CF3E71DF02EFE44
:2014DC0050B100F00DF840B99DF804002A464146FFF770FC002400E014242046BDE8F68151
:2014FC00002100910023417901AA01F00101801D11F0F2BC70B504460D4606204543082BB4
:20151C0088B0164603D1300758BF223500D521351C220021FFF7ADFE01AA1C21A8B21BF02A
:20153C00B9FA80B99DF81E00C01F0A280BD29DF830000090F20801AB02F0010206F001011A
:20155C0020461DF0D7FD08B070BD38B51DF0CEFD0024794D0FE0286A0622FF2100EBC4001C
:20157C001BF065FF28B9286A00EBC40100201DF0B9FD641CE4B2E8798442ECDB31BD3EB5F5
:20159C000C46002501460095002301AA204611F0A3FC38B99DF80400FFF747FDC00601D4A9
:2015BC0001203EBD00203EBD2DE9F041694F3C6806468846154603E02089B04224D02468C2
:2015DC00002CF9D10C201CF019FE040019D0268184F80A8000202060E07245B10821284691
:2015FC001CF05CF8606018B900F029F80AE06060396811B93C6004E0014608680028FBD18D
:20161C000C600CB9152018E01DF068FD08B1002013E00120E0722A4641463046FFF77EFEC0
:20163C0004464548C06900281CBF4368002B03D000220021304698472046BDE8F081204668
:20165C001CF0D4BD38B505464248046803E02089A84204D02468002CF9D1012032BDE07A6D
:20167C00012807D100F05CF820B133480078042110F058FCE17A491CE1722846C9B200F0E0
:20169C0002F8002032BD38B5022904462A4D02D003290DD01EE042F6C921FFF717FB020047
:2016BC001CBFE869002818D04368B3B105210CE042F6A621FFF70AFB01001CBFE969002960
:2016DC000BD04B684BB102460421204601B0BDE830401847BDE8324000E031BD10B51D4A5B
:2016FC001468002101E0214624686CB123898342F9D1206800290CBF10600860606808B130
:20171C001CF074FDFFF79BFF002010BD024604201049096819B10B899342FAD1C87A704786
:20173C000C48006828B1006818B1C17A0029FAD17047002070470000DC1B0020680F00205C
:20175C00903C0020143C00208F3C00200C3A00203C3A0020183C00202DE9F04385B00646EC
:20177C0000208946009090461C46B179002304AA304611F0B1FB20B1FFF7C0FC8DF8100060
:20179C001BE0D4B19DF810300620434323336A46102198B21BF07EF978B91022FF216846F8
:2017BC001BF045FE48B9B079314600F001001DF0ADFC10B1194901200870194F9DF81000AE
:2017DC00F979884227D201200390009443460C980D990E9D019002914A469DF81000314622
:2017FC00FFF79DFB044655B1397A9DF810008906E0302A46090E80B21BF074F90443200060
:20181C0005D09DF81000FFF7A9FCFFF723FC204605B0BDE8F0831520FAE700BF903C00208E
:20183C00DC1B00202DE9FE4FDFF82C57D5F804B0BBF1000F03D1BDE8F74F1DF04BBC9BF816
:20185C000000DFF81867DFF81877012818BF022846F2A81A40F6C41941F64C580AD0042898
:20187C001CBF0828102805D0402818BF802800F0A5816AE31CF0F2FD0028FAD0012019F0D3
:20189C000FFF20B101201AF093F919F099FE082019F006FF20B108201AF08AF919F090FEA3
:2018BC00102019F0FDFE20B110201AF081F919F087FE9BF8000004F0B1F900900078012863
:2018DC001CBF0828102802D10098446803E0009819F076FE0446DFF88C164878002800F0FF
:2018FC00D9800CF055F81CF07DFA8246DFF87416DAF800000190002CD0F804B09AF80600DB
:20191C00C87004D0019900980EF068FF022800F0928000990A78012A0AD0022A11D0042A81
:20193C0049D0082A00F0F280102A00F01B810CE318B91DF0CBFB4044A0600120A870112196
:20195C0013E105223A70C8B91DF0C0FB4044A060DFF814266069A1681368DE69DFF80C361B
:20197C001B78B21D03EB8303D25A09FB0219C0F82090A068DFF8F0150A6810616069616968
:20199C00C97F01F0EF01C17760696169C97F41F08001C17760696169C97F01F0F00141F017
:2019BC000201C177DFF8C8056169DBF8082082184A620221A6E006223A70C8B91DF086FB97
:2019DC004044A060DFF8AC256069A16813685E69DFF8A4351B7806F10C021B01D25A09FB17
:2019FC000219C0F82090A068DFF888150A68D060DFF880050168087C13F0BEFB6069616992
:201A1C00C97F01F0EF01C17760696169C97F41F08001C17760696169C97F01F0F00141F096
:201A3C000201C177DFF848056169DBF8082082184A62042166E00198017880290CD10820F5
:201A5C00DFF8381538700A78DBF81400012A1ABF716A0978012116E0072038709AF8060056
:201A7C001CF06CFB0446207BC10748BF9AF8060000F1CC80DFF804050178DBF814000129E4
:201A9C001CBF716A4978C1729AF80600DFF8D4148870B9E10098002822D000990078DFF8FD
:201ABC00D4648B4512D1012809D0022856D0042800F07F80082802D010284FD002E0002C4B
:201ADC004CD147E200201AF0C9FD47E0012808D002281FD004284AD0082815D010283FD0D1
:201AFC0033E2002CEDD01DF0F1FA0146A06851441BF022FB18B91DF0E9FA4044A060112052
:201B1C0038700121A97029E0002CDAD00820A87012212AE0052038700222AA701DF0D6FA82
:201B3C000146A06851441BF007FBB8B91DF0CEFA4044A060DFF830246069A1681368DD6910
:201B5C00DFF828341B78AE1D03EB8303F55A09FB0519C0F82090A068116808610098F0E138
:201B7C00002CAED01020A87013213970F6E7062038700422AA701DF0A9FA0146A0685144FB
:201B9C001BF0DAFAA8B91DF0A1FA4044A0606069A16832685369DFF8E023127803F10C052C
:201BBC001201AB5A09FB0319C0F82090A0683168C8603068007C13F0DFFACFE7DFF8A4136C
:201BDC004878002800F022810BF0E2FE1CF00AF9009001680191D1F804A0DFF8881388781A
:201BFC001CF000F90290DFF87C2300988179D1709BF80000402813D1009880791CF09EFAD5
:201C1C000446207BC1070BD5009880791CF0EAF805211AF0C7FE207B00F0FE00207399E111
:201C3C001CF016FC10F01F0F33D0012019F038FD20B1012019F0BCFF19F0C2FC082019F02C
:201C5C002FFD20B1082019F0B3FF19F0B9FC102019F026FD20B1102019F0AAFF19F0B0FC06
:201C7C00A87803F0DBFF83469BF8000001281CBF0828102802D1DBF8044003E0584619F01F
:201C9C009FFC0446002C04D0019958460EF0A6FD022800F096809BF80010012908D002296A
:201CBC0014D004294DD008290BD0102944D085E018B91DF00BFA4044A060112038700121BA
:201CDC0079E00820A8701221397075E005223A70B0B91DF0FBF94044A060A34A6069A168A0
:201CFC001368DE69A14B1B78B21D03EB8303D25A09FB0219C0F82090A0689B490A681061C2
:201D1C0060696169C97F01F0EF01C17760696169C97F41F08001C17760696169C97F01F022
:201D3C00F00141F00201C17791486169DAF8082082184A6202213EE01020A87013213970E1
:201D5C003AE006223A70B0B91DF0C0F94044A060884A6069A16813685E69874B1B7806F186
:201D7C000C021B01D25A09FB0219C0F82090A06880490A68D0607F480168087C13F0FCF94B
:201D9C0060696169C97F01F0EF01C17760696169C97F41F08001C17760696169C97F01F0A2
:201DBC00F00141F00201C17771486169DAF8082082184A620421A9705846C2E000201AF03F
:201DDC004DFC0298009988421ED001996B480A78802A0AD10821397000780128DAF8140006
:201DFC001ABF716A0978012109E007223A7000780128DAF814000EBF0121716A4978C1726F
:201E1C000098584A8179917001989AE01CF020FB10F01F0F35D0012019F042FC20B10120AA
:201E3C0019F0C6FE19F0CCFB082019F039FC20B1082019F0BDFE19F0C3FB102019F030FC9A
:201E5C0020B1102019F0B4FE19F0BAFBA87803F0E5FE0646307801281CBF0828102801D1C4
:201E7C00746803E0304619F0ABFB04463078012808D0022816D004283BD008280DD01028E3
:201E9C0032D067E0002C65D01DF020F94044A060012111203870A97052E0002C5AD0A8701E
:201EBC00122124E0052038701DF010F90146A06851441BF041F9A8B91DF008F94044A060D0
:201EDC00294A6069A1681368DB699F1D274B1B7803EB8303FB5A09FB0319C0F82090A068C8
:201EFC001168086102202AE0A4B3A8701321397026E0062038701DF0E9F80146A0681D4FEF
:201F1C0051441BF019F9A8B91DF0E0F84044A0606069A1683A685369174A127803F10C0C02
:201F3C0012013CF8023009FB0319C0F82090A0683968C8603868007C13F01EF90420A87041
:201F5C003046BDE8FE4F0EF0B3BFBDE8FE4F00201AF084BBBDE8F78FA83B0020842402005A
:201F7C00C80F0020780E0020500F0020D80F0020F0D8FFFF540F0020D90F0020CC0F0020D6
:201F9C002DE9F84F012019F0F9FD012816D1DFF89866307800211DF095F8040004BF002079
:201FBC001AF05CFB00202072201D12F0E3F807F00FFD050003D181201DF080F830E30120A2
:201FDC006871DFF86826DFF868064178491C4170A879A07240203178117010F0ADFD2860A4
:201FFC00616D4A78206DD10620D5816C0A681179032908D0816C0868007903280CBF012002
:20201C0000201AF02BFB206D816C0A6890F86C0002F1080701281CBF00201AF01FFB216D9C
:20203C00486F296800F5B060C8604AE0C16E0A681179032908D0C16E0868007903280CBFA8
:20205C00012000201AF00AFB206DC16E0A6890F8980002F1080701281CBF00201AF0FEFA9E
:20207C00226DB5F87401D2F8A0102A68DFF8C435DFF8C465D16097F82690B9F1030F1BD892
:20209C00DFE809F002050E1101F5B06101E001F53471D16005F59A711888088718880EE0C8
:2020BC0001F5355101E001F6B871D16005F59A7130880887308802E001F5B061D160A5F89B
:2020DC00740106222868DFF87465C168DFF8708501F59071C160B91C3878C0F3801085F8B5
:2020FC002E0105F594701BF0CDFE042207F10E0105F124001BF0C6FE306895F8069000F1FF
:20211C000C03042207F10E0103EB49101BF0BAFE3068AB7900EB4313032207F1120103F13C
:20213C0010001BF0AFFE05F12C09787D89F80200022207F1160105F130001BF0A3FE0222EF
:20215C0007F1180105F132001BF09CFE022207F11A0105F134001BF095FEB9F808006884E1
:20217C00022207F11C0105F136001BF08BFE99F80200B9F80A10400089F802000901B9F86E
:20219C000400A9F80A104000A9F8040089B2B9F806004000A9F8060003046A8C521CDB0B55
:2021BC005A438A4201D280B230B998F8000080210FF0B8FE3B2133E105F12E0128461CF0B7
:2021DC0079FF0520A8814FF01C0A28461CF06EFF052207F11E0105F161001BF053FE97F851
:2021FC002300400989F800001CF05CFF688205F59A72618D401AD08005F1610197F82300DD
:20221C00DFF8407400F01F0089F80F0028461CF045FF616D4A78206DD1064CBF816CC16E9F
:20223C0041F62102086800210171A97938681AFB01F142520021AB791AFB03F30344598058
:20225C00AA791AFB02F210444160616DDFF8F8034A78D1060DD5DFF8F4138A7851060AD510
:20227C00DFF8EC23138841F20A418B4208BFDFF8E403C5F89C01D5F89C11284688473A683E
:20229C00A97902F10E031AFB01F15854AA7938681AFB02F202440020D0733968A87901F120
:2022BC000E021AFB00F0115C89F80D10606D4178CA061DD595F8960108B91AF0CFF9A979C1
:2022DC0038681AFB01F1014495F89601421E0A74A87939681AFB00F00844002141743A6869
:2022FC00A97902F112001AFB01F1002242522BE0A97938681AFB01F10144206D90F8402050
:20231C000A74A87939681AFB00F00844216D91F841204274206D3968AB79403001F112021A
:20233C001AFB03F34188D15205F5CB710078012200F0030082400A70226D92F840008008A9
:20235C0014BF0120022008713968A879DFF808B301F1140231681AFB00F301EB4010D05079
:20237C00A87939681AFB00F00844BC498161DBF814000078C107DBF8141009784CBF1F205E
:20239C000F208A07DBF81410097848BF40F020004A07DBF81410097848BF40F040000A0741
:2023BC003168AA7901EB421348BF40F080001872A979306800EB41120B2050723168AA7922
:2023DC0001EB42100421A64A81721078012806D13168A87901EB40120121D17207E0DBF8FC
:2023FC0024003168AA79407801EB4213D8723168A87901EB40121F2111763068AA7900EB39
:20241C00421100204876A87910F0DAFAAA79316852018850AA7931685201885820B90721A3
:20243C0028461AF0BFFAFBE08E48AA79016801EB02101CF02FFEA87931688A4B01EB40120E
:20245C00196801EB00105060A979306800EB41125168C9F83C10AA7952018158C9F8441011
:20247C00042198F800000FF05DFD616D4A783868D10648BF02210AD4A9791AFB01F10144B5
:20249C000A7C02F00302022A14BF04210621B9F8042095F806C04FF4C8738A18698AAA6112
:2024BC005143B1FBF3F35B1C6B611AFB0CFCD5F800E06044DEF80CC040F6C41101FB02C2BC
:2024DC00D21AA2F5A8628260AA7938681AFB02F283189A682B689A6000F10C03AA791AFB43
:2024FC0002F20C309B5C03F0EF038354A8793A681AFB00F002F10C030C321B5C03F07F03E9
:20251C001354A8793A681AFB00F002F10C030C321B5C03F0F00343F002031354AB79386870
:20253C001AFB03F31844427B02F0F00242F001024273AA7938681AFB02F2024490682B68F0
:20255C0018613068AB7999F802C000F11402686940005B0111FB0C0000F5F660D05095F853
:20257C00960104280DD13068AA7900F114034FEA421C143053F80C20AB795B0102F561624F
:20259C00C2503068AA7900F114034FEA421C53F80C20C5F83421AA7900EB4210C37C03F098
:2025BC00F00343F00403C374DBF830003268AB79006802EB431CB9F8062042436423B2FB96
:2025DC00F3F35943A1F59661CCF81C103068A97900EB4110C27E02F0F00242F00402C27656
:2025FC00A97938682A681AFB01FA00EB0A01516028460E211CF04AFD1B490720087020465B
:20261C0018F0CAFD19488178880704D5AA79002120461CF037FD28681549164A4161826150
:20263C00BDE8F14FFFF7FEB8D50F0020D70F0020780E00208E0F0020900F00209C0E0020F7
:20265C00C70F0020980E002081010210C00C00209A0F00204DE5011084240200980C0020A8
:20267C00CC0F0020A40E0020C80F0020200E0020F5080100020480802DE9F84F054688B048
:20269C00A978DFF83C66002710294FF0060A3CD8DFE811F0110012031203120312033C0058
:2026BC00CF0012031203750215010001C70212034B028D020A036878002826D11CF0DEFCCB
:2026DC0004461CF0D7FC05461CF0D0FC8DF800002246102102201AF005FA2A461021032085
:2026FC001AF000FA6A46012104201AF0FBF99DF80000012818BF032807D101201CF0B2FC53
:20271C000246062106201AF0EDF9D5E268780028FBD195F80CB06C8900900023E97801AA90
:20273C0001F00101281D10F0D7FB00284FF0010875D19DF80400FEF778FC8146BBF1080F31
:20275C00307A08BFB84680001BF058FD050003D1042019F083FFAFE270789DF8041002283A
:20277C000CBF0120002000905B464A462046FEF7C1FE1422002102A81BF098FB9DF804001E
:20279C001AFB00F0243002AA102180B21AF082F9B0B91022FF2102A81AF049FE80B99DF8AC
:2027BC0004001AFB00FA0AF1250306AA042198B21AF070F902AA09F0010120461CF04EFCD2
:2027DC00317A9DF804008906E0302A46090E80B21AF060F998B92846FEF78DFBBA4609E0B9
:2027FC0005EB8000018819B1827820461AF054FC0AF1010A317A5FFA8AF08842F0D3B07A05
:20281C0030B95FEA897003D5317820461AF0A2F89DF80400FEF746FC28461BF0E7FC7078D2
:20283C00022805D1B8F1000F02D0204615F08AFE42E2A888FEF752FF1CF00CFC0028F7D161
:20285C00707D012808D1FEF778FC706A7775042200211BF02BFB17E0B07D012803D1FEF7B0
:20287C0012FDB77510E000240AE0706AE5B2415D012904D1E0B2FEF771FC716A4F55641C02
:20289C00E0B2F1798842F0D350201AF025FDFEF7E1FB11E21CF022FC00280CD0F069002884
:2028BC001CBF0468002C07D0286900906B7B2A7B6989E81CA047FEE168890121F1E1687885
:2028DC000024002840F01A81A879C10740F116810822002105A81BF0E9FAA8881CF01EFCD8
:2028FC00040076D06F694FB30622002107F111001AF09DFD68B30622002138461AF097FD22
:20291C00D0B9387C00F001084FF0000909F1010987F811900020009000230022414607F185
:20293C00110010F0D9FA00285FFA89F002D10028ECD101E000280CD1002068610622607915
:20295C0000F001008DF81A00A11D05A81BF09AFA1FE06F69EFB1387C00F001008DF81A0006
:20297C00062207F1110105A81BF08CFA6079012805D10622A11D04F10C001BF083FA06225C
:20299C0007F11101A01D1BF07DFA387C40F002006071A879410720794CBF40F0020000F0EC
:2029BC00FD002071A9790A0754BF00F0DF0040F020002071A9799DF81B00890801F0010121
:2029DC0008438DF81B00A9790A074CBF0821002108E0FEF7A5FE0028ECD0307804210FF038
:2029FC00A1FAE7E708438DF81B000020009000239DF81A1004AA05A810F06EFA20B1FEF74C
:202A1C007DFB8DF810001AE06869C0B19DF810001AFB00FA0AF123036A46102198B21AF047
:202A3C0039F860B91022FF2168461AF000FD30B99DF81A0005A900F001001CF067FB9DF8EF
:202A5C001000F179884255D2E8680021039105A90269019002924FF6FF78686900902B69FB
:202A7C00AA689DF81000FEF75AFA0446AF88B06A48B906F1180100910223924A4146012054
:202A9C001CF0E4FAB062B16A19B3FF200390022200230292019307A800900DF11203328B07
:202ABC00384607F0C1FB68B99DF812009DF8131000EB012290B228B1B06A418992B238467A
:202ADC00FEF749F9328BB06A002341461CF0BAFAB062200005D09DF81000FEF73FFBFEF792
:202AFC00B9FA200007D1707A0028A88804D1FEF7A9FD03E01524A888FEF7F0FDF0690028AE
:202B1C001CBF4368002B0FD06A78A888012198476878002808D1A879C10705D5F369A888C6
:202B3C0022465C680321A047BEE0687806281BD1A8881CF0F3FAB8B1F17C012904D013D3C7
:202B5C00032907D00CD30FE04179A8880022FEF72BFD09E00022002140F2094004F0A4FF21
:202B7C00A88805211CF06AFAF06900281CBF4368002B03D06A78A888022198479BE0009748
:202B9C000023E97801AA01F00101281D10F0A4F90028F3D19DF804001AFB00FA0AF125035E
:202BBC0005F10C02042198B219F09CFF83E0F06900281CBF4368002B03D0A8880022002107
:202BDC009847707810B9A88805216AE0A8881CF0A5FA040070D0A87AC10712D500970023FF
:202BFC006179002201F00101A01D10F075F900281EBF60790028012803D0E868C0F340203A
:202C1C0028B1307C022807D1A87A010704D4A88803211CF00FFA4FE06179A88805F108026D
:202C3C0027E02F7BAD8828461CF078FA040042D01CF054FA00283ED100900023617901AAC7
:202C5C0001F00101A01D10F047F928BB9DF80400FEF7EBF907F00C07042F11D0082F0BD0E3
:202C7C000C2F0FD100F0090109290BD0617900222846FEF799FC1EE010F0090F02D1F5E75D
:202C9C00C107F3D501220092A37C9DF8041002462846FEF72FFC0EE070780028E6D105215A
:202CBC0028461CF0C7F906E0FEF73AFD18B1307804210FF037F90127384609B0BDE8F08F64
:202CDC00DC1B00205A2502002DE9F04FDFF81815086885B000254FF0FF0841F2883B049548
:202CFC008DF80080CDF80CB01CF0A0F9002800F077820179032940F07382DFF8F014096865
:202D1C0000291CBF097B002956D000F1080111F8010B019010F00F0F1CBF00F00F000128FF
:202D3C0004D002281CBF0428062801D1002058E24F780A7807F03F00121A531EDBB24E1C05
:202D5C000293BF0916F8010B10F03F0FDFF8A004417818BF16F8015BC80608D504201CF042
:202D7C0061F95FEA000904D04FF0010901E04FF000098FB928070FD5DFF87814886818B1CE
:202D9C0090F8A800012804D091F890A4BAF1000F04D04FF0010A01E04FF0000A5AEA0900DE
:202DBC000AD0DFF85404807A1BF030FA04000ED104201CF037F9002800F00E82DFF83004C9
:202DDC004178C80640F1088200210E20F7E10D202070012161700020C4F81A006780E807F2
:202DFC0009D506223146601D1BF04CF80198C0F38010B61D05E006220021601D1BF056F8BB
:202E1C00FF202071A8070ED50622314604F113001BF038F86188019841F00401C0F3C01037
:202E3C00B61D618006E00622002104F113001BF03DF8FF20A074680748BF761C2807DFF80A
:202E5C00BC730AD53188090B617336F8020BC0F30B00E083607B387004E04FF6FF7184F8B3
:202E7C000D80E183E8060ED53178B6F80120C9094FF4877041431E31C2F30C0251438B44F7
:202E9C00F61CCDF80CB0A80643BF0496708812360020208268064CBF16F9010B7F20A073F1
:202EBC00029961760298A8B15FEA090010D0029880B21BF0ABF9C4F81A00D4F81A0030B147
:202EDC00D4F81A00029A31461AF0DCFF00E060760298361816F9011BDFF82423DFF80C83AB
:202EFC00E173136858794118E17316F8011B01F03F01252980F207812807039A0DD5617B3C
:202F1C00012011F095FCB0B9039AFF21012011F08FFC80B94FF0000960E03978012011F07B
:202F3C0087FC0028F6D0417902290FD1C1790029F0D03A7862738179E172317801F00301AA
:202F5C008DF80010032918BF491C05E0032904BFC1790029DED1ECE7217331784A07417957
:202F7C0048BF4FF00009012906D004D3032900F09F80C0F07D80B8E0EA0609D502214171EC
:202F9C00E907628842F02002628000F19F8084E0A278910767D5D8F800209A4BD1691A7802
:202FBC0002EB82028A18D17801295CD103224271618841F020016180A90754BF0021042145
:202FDC0001725FEA09001CBF0298002806D0607E20B96188022060F3461161808A4D2878D9
:202FFC0000283FD02079894E611D1CF017F8E0B13168601D1CF00EF80746FF2F15D03168C3
:20301C001E2010FB07F701F10D02D0191BF0FEFF58B93068411C0622C919601D1AF032FF93
:20303C003068C15D41F00201217104F11301A07C1BF0F4FF002815D0306800F10D0104F13C
:20305C0013001BF0DFFF002800F08C803068411C062204F113001AF015FF3068017841F0AF
:20307C000201A17480E00021EA074171A9D414E0C179002905D0027A618842F00A02114358
:20309C006180E90604D5628842F02002628002E000214171C171E90793D400F109010622EA
:2030BC00601D1AF0EFFE0198C0F38010207188E7E90611D502224271027A618842F02A0235
:2030DC00114361800121EA07C17104D50622611D09301AF0D7FE74E700214171007A628831
:2030FC0040F00A00024362806BE700214171C07918B1608840F00A0060808946608840F043
:20311C00400060806AE73078032818BF401CE0720020E9062073E7D5039A617B814611F02B
:20313C0087FB28B93048C17A01F0DF01C17255E780F80790E27A8271618841F020016180A3
:20315C00E90705D50622611D09301AF09BFE04E00622002109301AF0A9FE2348C17A41F019
:20317C002001E3E74FF00009049800281EBFBAF1000F9DF80000FF2806D0034624484269B3
:20319C00049821461BF0D8FAD8F80000C1694978012903D0287868B103290BD11D482279BA
:2031BC00006802F00102611D1BF028FF1A490A78904207D0B9F1000F04D0214604201BF035
:2031DC0019FF09E0D4F81A0018B1D4F81A001BF00DF820461BF00AF8034800681BF006FFF7
:2031FC00012005B0BDE8F08F8C0A0020500F0020200E00206825002004240020873C00205E
:20321C00400F0020D80F0020880E0020680F0020680C00206C0F0020893C00202DE9FE4F58
:20323C0004460020009000250CB919F017FA04F1500841F62300D8F8007038807D800222B4
:20325C003A737A73694620460EF036FF08B9072051E2009901B1B860B8682061DFF89C04DA
:20327C00017884F8B810D8F80400407A17F050FA25302076207EB873FD73D8F80400017D20
:20329C00022904BF002019F0E9F9D8F80400007D012802D10020002104E083280CBF06200B
:2032BC00022020213874797404F12406DFF850A4DAF83C0041690868717901EB4101084480
:2032DC00B0F801207A82D8F80400417848060AD5607DC10604D5E07F40F04000E07702E0CE
:2032FC0040F04000607507F15C0904F1300089F80050B17E890001F0040189F80010B866BD
:20331C00607DC10656D5D8F8042051788A060CD500F0FE006075D8F80400417811F0030F31
:20333C0003D1E07F00F0FE00E077607D1BF05AFEA075421C387CC0F38001002392B200F007
:20335C0003001BF04BFEA0831E20A28B02F59B7393FBF0F01E2101FB1030C0B208B1C0F1A2
:20337C001E00821802F59B7262831E20A28B02F5967293B293FBF0F001FB1030A283C0B2A0
:20339C0008B1C0F11E008018A08380B2E27D618B521E50434018608307F13005608BB43017
:2033BC0080003866062089F80300E17F41F00801E17720E040F001006075D8F804104A788B
:2033DC00510744BF40F002006075607D1BF00AFEA0750023401C82B2387CC0F3800100F0DF
:2033FC0003001BF0FBFDA083A08B00F59670A0833D6689F80350A17D207D61F3050007F1BC
:20341C008801207508700322607D48708A70B07E800000F0040040F003008870F27ED20037
:20343C0002F00802104388700020C870C7F89000B08BC0F30B00B083D8F80410CA7D40EA01
:20345C000230B0830022617D01F0FE0120460EF0D5F8019700271EE01C2010FB07F004EBE0
:20347C00000B01991C220BF164001AF00BFD0BF16C00052101717F1CA28B92000260FFB26E
:20349C00DAF83C104A691168737903EB43031944B1F801204281E07D401E8742DCDB019FE1
:2034BC00204612F0D1FBE07D012809D013D3032808D03EBF04F164007860C8F818500AE034
:2034DC007D6008E004F16400786004F18001C8F81810C8F8345041F62400388600217986FF
:2034FC0007F13C05B868618B00EB8100B8630221822028706970002194F82100E97000F097
:20351C003F00A870D8F80400807D012818BF022803D100F07F00401E04E083280CBF06201C
:20353C0002202021287169714FF0000BDAF83C0041690868727902EB42021044B0F80110FE
:20355C00E980C7F86CB0D8F80400417811F0030F20D01BF03FFDF866DAF818000078C107AC
:20357C00DAF8181009784CBF1F200F208A07DAF81810097848BF40F020004A07DAF818108D
:20359C00097848BF40F040000A0748BF40F0800089F8140089F815B0D8F80410594A897CE8
:2035BC0001F0030189F81510B07E800000F00400014389F81510F07EC00000F0080001435E
:2035DC0041F0100189F81510107838B199F8140000F0FE0041F0400189F8140089F8151036
:2035FC00E07F1BF0FFFC84F8200020461BF0EEFCE07FC10636D5D8F8040094F820204178C9
:20361C00521C88074EBFD21EF07F12182879C0F380010023D2B200F003001BF0DFFC3080F6
:20363C001E22308800F59670C0F11E0190FBF2F21E2000FB02113171D8F804104878810722
:20365C0031884CBF00204FF49B70401830807080B86B318832795218A63200EB820078670F
:20367C00022002E0C7F874B0002089F8170004F13000C7F8800007F18400D8F804104A7809
:20369C00510707D504F13802026099F8150040F0200007E01C490A685168016099F81500D5
:2036BC0000F0DF0089F81500A17F94F8200060F30501A17740F60B002882A5F812B0DAF830
:2036DC003800008880007865DAF83800008800B1072028770220687794F84510E983D8F88A
:2036FC0004004178880744BF0121E983009808B10DF032FE0020BDE8FE8F00BF823C002064
:20371C0084240200880E00206C0F00202DE9FC47D44C0F460546F80B80F006826078DFF8CF
:20373C005883B90F80F0AA81B90880F09D81F90A80F00281390B80F0CC80380907D2F80FC9
:20375C00C0F0288227F0804713F0B0FF22E21AF0CBFF814619F060FD002800F0B4800820EA
:20377C001AF09AFE002840F0AE8080201AF094FE002840F0A880684611F0A6F8012803D1FF
:20379C000098002800F09F8094F84102002840F09A8000250126E8B21AF06AFB48B1837AB2
:2037BC003BB1867290F9090006FA00F0C0B218F019FA6D1C032DEED3032084F8200004F5C8
:2037DC00CC701AF08BFF48461BF0FCFBD34800252A460168056050F8081CD14940F8085CCD
:2037FC0004F15C0019F0F8FB40460068006B8047A168401A010BA06AC1F1FF3282422CBF35
:20381C0008444FF0FF30A06294F82C0020B12069A16AB1EBC02F25D919F00EFD294600B1F6
:20383C003146081C1BD0BF4840F6090101804580417B06F00F0221F00F010A434273017BF7
:20385C0005F00F0321F00F0143EA01020273294641601AF0B3FC418811F4406FFBD084F8F2
:20387C002C60A56216F0FEFBCE4829460560022019F040FA022018F03BFC11200EF064FE59
:20389C00207818B9606848301AF074FFC648007810B90E200EF058FE94F82D0020B184F80F
:2038BC002D50052018F024FCC048606284F82050B4F9B000B4F9B210884214BF02200720BA
:2038DC0012F004FA02E048461BF07CFB27F008073AE720B1042018F00BFC002060706568D2
:2038FC0017F032FF38B12846ED696FF4807100224FF00073A847E06858B140460068006B06
:20391C008047E2686168801AC860000BC8600026E660A74904F15C00002219F05DFB022169
:20393C00D4F89C0084F8201018B104F1DC001AF035FF27F4006707E71AF0D6FE064619F0DC
:20395C006BFCD4F894100028894600F08480002900F081809749042504F15C00002284F877
:20397C00205019F039FB30461BF02CFB04F5CC701AF0B4FE40460068006B8047E0604FF046
:20399C00010884F80180284618F0CAFBD9F810006060D9F81000416AC90803D3036A29461A
:2039BC0000229847404614F09DFD606880F8158060680FF01FF96568D5F808A040F60A028E
:2039DC00D01F564600F1010C00E01E46736833B119888A4203D0884218BF8C45F5D10021A6
:2039FC007160727B08F00F0322F00F0213437373D9F80C201288904224D06046904221D0BE
:203A1C002B8E03B3696305F13002518095F83C0001F00F0320F00F00034385F83C3095F8AF
:203A3C003D0008F00F0320F00F00034385F83D307260707B01F00F0520F00F0045EA0001C3
:203A5C00717300E0E16050461AF0B8FB5146404619F050F902E030461BF0B4FA27F4806770
:203A7C0098E0C046E00F00200AF03EF8D4F89C0008B927F002078DE08C0100104E4A116809
:203A9C0041F08001116020B1042018F031FB002060701AF029FE8246D8F854000168042024
:203ABC008847D0B1287DC0B1A068B0B18146D8F800002E69006B8047A0EB09002861000B93
:203ADC002861B04202D280194008286140F6C41181422CBFB0F5967F296150461BF072FA07
:203AFC0017F032FE80B1EE6928466FF4807100224FF00073B047D4F89400002808BF47F0D8
:203B1C00020701D013F0D2FD2846AD6900214FF080630A46A84727F000573BE014100440E6
:203B3C00758A0100683B00201AF0DEFDD4F8AC6066B306F1280106C90A234FF0E0450B4005
:203B5C00154008BF002B21D106F1280191E8000306F1280595E8060006F1280322EA090294
:203B7C0021EA080183E806001BF02CFAB16879B1B9F1000F08BFB8F1000F09D03069B6F9D7
:203B9C003010B5684B464246A84701E01BF01AFA27F4804727B104F1DC0039461AF0FEFD95
:203BBC00BDE8FC870000046082230200B1100100F503010015D20100CC2108402DE9F84F81
:203BDC00DFF85854A9780024FF2904BF002018F045FDA8781AF006F9054605F1680605F5DA
:203BFC00C9773168086805F1900808B1EC8311E0B07B002804BFB07E00280BD198F80010D1
:203C1C00002904BF3878002804D1287F012804BF688CE8832989E88B4118491C69812846C2
:203C3C001BF0CCF901281EBFDFF8F4030178012903D12989EC83491C69814FF6FF79B07EF2
:203C5C0001280DD1B28B698928891BF0B3F938B1298968894A1C93B298422FD0B08B23E05C
:203C7C0098F8000001280FD1B8F80220698928891BF0A0F940B1298968894A1C93B298425D
:203C9C001CD0B8F802000FE03878012816D17A88698928891BF08EF980B1298968894A1C4A
:203CBC0093B298420AD0788892B2904206D04844688180B21BF07AF94844E883387801280E
:203CDC000FD128897988401C80B2884209DB7C793C71022038702346A979224600200EF07D
:203CFC0055F805F59A71087920B128890021401CE9836881B07E012813D12989B08B4B1CF2
:203D1C009BB298420DD168811BF050F9804605F12E008188308C01FB0808284612F014FB0B
:203D3C0003E005F12E01B1F80480EA8BDFF8F492501C00FB08F040F6C41808FB00F100916A
:203D5C002B68D3F80CE07144D960B74B196809788909032940F0168199F80F30B349DB07D8
:203D7C0040F10081B5F812C000230CFB00FC4FF4C87EBCFBFEFC0CF1010C0B80A861C5F83B
:203D9C0014C085F820204FF01C0BDFF8A4A2AB79DAF8000000F108021BFB03F3D1582A683B
:203DBC00116100F10801AB79D26868691BFB03F3121ACA50DAF80000AB7900F108021BFBF3
:203DDC0003F3D1582A68916000F10C02A9791BFB01F10C30535C03F0F00343F0020343545C
:203DFC00DAF80010AB798A1C1BFB03F30021D152387908B918F032FCDAF80000AA7900F11D
:203E1C00100138791BFB02F240088854A879DAF800101BFB00F0084400214174387904288E
:203E3C0014D1A879DAF800101BFB00F001F110021031135C3A7A43EA82030B54AA79DAF80A
:203E5C0000001BFB02F2024420205074DAF80010A87901F112021BFB00F0002111527549A1
:203E7C00A8790A6802F114034FEA401C143253F80C00AB79D5F814C05B0100EB4C00D050DF
:203E9C00B07E02280DD10A68AE7902F11403760114329859AB7995F82E605B0118FB0600CB
:203EBC00D05005F12E0299F80F00C30773D5DAF80000AE7900F108041BFB06F60830A359B2
:203EDC00AC791BFB04F4A3F5A8630351DAF80000AE7900F108041BFB06F6A3592C68A36001
:203EFC0000981B1A23610868AE7900F1140476011430A359AC79640103F5F663035138791E
:203F1C0004280BD10868AE7900F1140476011430A359AC79640103F5616303510868AC79F7
:203F3C0000F1140364011859C5F83401424B186B0C68AE799288006804EB4617424364240F
:203F5C00B2FBF4F408FB04F0A0F59660F8613B480278012A48D10868A97900EB41120120A3
:203F7C00D07248E00B885B1C1FFA83FCBCF1010F11BFB5F812C005F59A7EBEF806C00CF281
:203F9C00DC5CF2E6698A41434FF4C873B1FBF3FC0CF1010CF2E6042C0BD10868AE7900F1EF
:203FBC00140476011430A359AC79640103F56163035138790B68AE7904280CBF4FF4AA50FD
:203FDC004FF4E66003F114047601A359181A938808FB03F3A3F516739842A7D3082128466B
:203FFC0018F0E0FC012016E0586A0968AA79407801EB4213D872A879DAF800102A681BFB66
:20401C0000FB01EB0B00506007210D480170284613F046F80020BDE8F28F00BF780E00209A
:20403C00D10F0020980C00203C0F0020743C0020980E00209C0E002084240200CC0F002030
:20405C00C80F00202DE9FE4F0546DFF82404DFF824640278002A4CD0052A73D0062A00F0EF
:20407C008080072A18BF082A00F0F7800A2A00F0D381112A02D0132A70D0F1E1DFF8F833AD
:20409C00187800211BF01EF804001EBF606D407810F00C0F2DD0216DC0064CBF886CC86E2B
:2040BC000622016801F10805A91C684619F0EAFE287800F00F0105291BD145096946C0F386
:2040DC0080101AF0ABFF002813D0316868461AF0A1FF0746316804F138001AF09BFF874204
:2040FC000DD0606D4178C80604D440F201401AF059FFBBE1607B40F002006073B6E1336818
:20411C001E2010FB07F6981906226946C01D19F0B9FE606D4178C806F0D5A17B0129EDD1FB
:20413C00DFF858038178480605D5E90703D4206D41F20A4102E0206D41F2044141804183D2
:20415C00418693E1FEF7C0FD0028FAD112F070FF012802D001201AF021FF87E103F046FB10
:20417C0084E1DFF81C5328681AF060FF0400F7D020790328F4D1207A00F00F01072937D159
:20419C00C04800684169497A4A1E11425ED0617A04F10A035A5C02F03F02252A56DBA17ADC
:2041BC008A09012A52D111F03F0F4FD0007C19F019FEE17ACA074CBF04F1110204F10B02B7
:2041DC008B0748BF921D0B0748BF921CC90648BFD21C1621127852094A43AB498B180A3175
:2041FC00EB608A5A428699898186DA89C2862DE000F00F00082829D1A17A880926D129B323
:20421C00A0480168087C19F0EDFDE17A074688071CD5062201F001015143601800F10C016D
:20423C00684619F02FFE207AC009FF280ED069461AF0F4FE50B1306800F10D0168461AF01B
:20425C00E1FE18B90521384618F0ACFB2079032802D0002018F002FAFEE0DFF830B29BF85B
:20427C0002000024FF281BD019F0BCFD804608F16C09D9F804001AF0D9FE2A460179032928
:20429C0001D011000CD08368197801F003008D06009003D50124009818B9BAE01000FAD0D7
:2042BC00E4E05D7803F1020A34B31AF8010B784B01902C2098F806C01F6810FB0CFC674409
:2042DC004FF0010E87F805E0002A1F6898F806E007F11A0C019F10FB0EFE07F01F070CF8F3
:2042FC000E7098F806701B6810FB07F01844019BC3F38113C3761AD10098032808F2171748
:20431C001AD0ADB199F8000068B108F1F4000278012A0DD1564B1A78072A04D0082A04BFF2
:20433C00C078012804D13D217970012038709DE0584A1378012BFAD098F8940070B32D1FE8
:20435C00EDB253462A46404611F006FE00281EBF51490878002807D13D21797001203870DF
:20437C0030681AF017FE81E04C4801688847064698F80610DBF804204FF4D07041435018E5
:20439C00002280F8412108F59E7001688079490812F07AFA42490A683046904700980328C4
:2043BC0019D04048416909788A0708D541690878C1074CBFE81C28461AF8000000E08120D5
:2043DC0089F808002A460098C3B29BF80200514608F006FE1DE09AF800001CB11B2804BF31
:2043FC00022D01251C2803D22F490B5C9D4205D0B870072140461AF049FE0AE01C480178B2
:20441C0008295146404602D11AF06AF901E000F091FCD9F8040020E0244C207830B3244D63
:20443C0028681AF003FE08B3017903291ED1017A8A0611D5807AE178C0F38112914202BF57
:20445C00217900F01F00814206D1A078002801BF607800280121A17028681AF0C7FD05E087
:20447C00002018F0FBF886201AF028FEBDE8F78FC80F0020680F0020D50F0020C00C002086
:20449C00BC0A0020540F0020E0070020780E0020F03B0020D20F00208B3C0020D81C0020A3
:2044BC00DC1C0020842402001C250200903B0020AC0C00202DE9F04F0F46380589B018D50B
:2044DC00DFF8EC532888FF280ED0C0B219F08AFC040009D0A07916211AF058FD204619F0F9
:2044FC0077FC20461AF04EFDFF20288087F40060DAE1F80508D502201AF01AF908B11AF039
:20451C000FF987F48070CFE1B80604D50EF052FE87F02000C8E1F8070CD519F037FE30B138
:20453C0000218160DFF88C03006800B1804787F00100B9E1380704D508F09CFC87F00800DE
:20455C00B2E1F8060FD5002100220023069105920491039302910192009102201AF00EFD1D
:20457C0087F01000A0E1B8070FD500210023069105910491039302910191009101223C20A3
:20459C001AF0FCFC87F002008EE179074FF01E08C94EDFF828A340F1CD80C94800220021A5
:2045BC000892079100781AF08DFD0446C5488178FF2904BF002018F051F8A07A19F012FCC4
:2045DC0005469AF8000095F82E91002805F5947B69D0606D807A022818BF032807D13068C9
:2045FC000D301AF013FD10B93068C11D0791594648461AF013FDA0B3606D807C336800284B
:20461C0018BF012804D1194658461AF003FD04E05A46494618461AF085FDFF2843D018FB58
:20463C0000F83068404406225946C01D19F02AFC306810F80810404400F1010BC01D41F030
:20465C00020908900622616DC87A00F0010085F82E01606D00F10C0105F5947019F012FCE6
:20467C0021E0594648461AF085FCE0B130685A4649461AF057FDFF2815D018FB00F8306800
:20469C0040440D301AF0C2FC58B9306840440D301AF0BCFC002801BF30684044417F01295B
:2046BC0001D149F0020905F12C004B46017806914289120905920122698C0491C0880899F2
:2046DC00029140080390CDF800B0079801900020A9791AF053FCD5F89C017B498842A879F7
:2046FC000CBF002101211AF041FC7848AB7902682C214B43134401221A73AB7904684B43FB
:20471C0023445A73AB7904684B4323449A73AB7904684B432344DA73AB79006811FB03F159
:20473C000144002008740720A9790BF0D2FD87F00400B9E038060FD50021002306910591C2
:20475C000491039302910191009101223B201AF015FC87F08000A7E0F8045DD55C493068DA
:20477C000C680D301AF052FC002844D13068C11D0D301AF0F7FB3EE0606D4178480704F140
:20479C003E0526D5287802281EBF03286878012830D16978306804F138021AF0C3FC8146AB
:2047BC00B9F1FF0F15D0306818FB09F948440D301AF02CFC68B930684844C11D0D301AF02E
:2047DC00D1FB30684844C11D062204F1380019F059FB2878022818BF03280BD130680D30C0
:2047FC001AF014FC30B93068C11D062204F1300019F048FB2468002CBED13648DAF80420D0
:20481C0000784FF4805116F04FF810B18E201AF0A5FB87F4805047E0B80505D519F0D0FDAB
:20483C002D4901200860FEE7780504D515F027F887F4806038E0780405D581201AF08EFB01
:20485C0087F4804030E0B9042DD5244C206810B1002017F003FF4FF0FF3020600020204CD6
:20487C0011F09AFF216851F8202F684690471D494A6B086BC96A24681B4B01920090029371
:20489C00ADF810106B46194A19491A4803921A4A07922568194AA8471949086006F08AFCA8
:2048BC0087F4005000E0002009B0BDE8F08F00BF3E250020480F0020680F0020880E00202E
:2048DC00D70F0020780E00204DE50110F03B00204C0F0020C70F00207C052043380F0020C6
:2048FC00200F0020E41E002089E1010099E10100F4230020280800201EFB0080EC0A00200F
:20491C001C0F00202DE9F0470646B078ADF1300D022840F0EE81CB4C30882188222814DC19
:20493C00222800F06D81002800F0DC81C01E00F04881401E00F0CA81DFF83483401F0C286D
:20495C000ED9173800F0718119E0273800F08480401E44D00A3820D0001F00F046810EE06F
:20497C00DFE810F0A8019E011B01930188017B01720166010D000D00EC00C3008F000620FF
:20499C0001218DF8180006AA0B46812010F05AFDB068002800F0AD8159E00021B0688DF8EE
:2049BC0019100246A0B1206A90B11188405C400806D2D1A017F055FF01208DF8190003E08B
:2049DC000920114618F058FC32200DF119027BE1012332200DF119028DF8193086E1B76835
:2049FC00B878012823D1A08CB7F8009097F803A007F104080125000A1AD3B8F1000F17D0F1
:204A1C00206A19F80000400812D3042019F030F9041C0DD0A4F80090A01C414652460FF059
:204A3C0021FE0820214618F027FC002500E006253888ADF800006A46B8788DF8035004230D
:204A5C008DF802002820032110F0FCFCB06816F091FF0020B0604CE100208DF81A00B0686D
:204A7C0040B181780288082015F022F80128EDD0012302E001238DF81A3027200DF11A021F
:204A9C00E1E70020B5688DF81C00AB7A287968B12878207768786077287AA0776878E8B94D
:204ABC0041464871287A087117F0CCFF03F10904204619F0DDF8071C08BF04200FD0A91CB6
:204ADC0022460FF0CFFD1520032107AA012310F0B9FC1220394618F0CFFBB7E705208DF8D9
:204AFC001C0007AA15200123ADE70020B7688DF81D0077B9A08C00F0800100F48070084303
:204B1C0000F0F780012314200DF11D028DF81D30ECE0A18C01F0800201F48070104308D04F
:204B3C00142003210DF11D02012310F08BFC24342188080AC0F0DD80072072E0B768002061
:204B5C0039788DF81E00B81CC57921777978617740790835A077284619F08AF85FEA00091A
:204B7C003FF474AFB91C2A460FF07CFD607F50B941464871A07F087117F064FF0620494627
:204B9C0018F07AFB05E0052162A08DF81E1017F068FE13200DF11E02A5E74FF6FF77002097
:204BBC008F428DF8240006D1B168088820800C2018F062FB02E001208DF824000B2009AA24
:204BDC0082E000208DF82800B768A08C010A04D2400A08D30220032101E0032001460AAAF4
:204BFC00012310F02FFC02201BE002A812F008F90298039F6A46009008230197362075E096
:204C1C00002094F83250B7688DF81B0003210DF11B020123681E84F83200222010F012FCA4
:204C3C000520394618F028FB63E019F071F960E0002111208DF81F1018F01EFB10200DF13E
:204C5C001F0241E0E8140020002110208DF8201018F012FB0F2008AA36E00020B1688DF80A
:204C7C0021000F2018F008FB0E200DF121022BE0A02400200020B1688DF822000E2018F069
:204C9C00FBFA0D200DF122021EE00020B1688DF823000D2018F0F0FA0C200DF1230213E074
:204CBC0000210B208DF8251018F0E6FA0A200DF1250209E00020B1688DF826000A2018F09C
:204CDC00DBFA09200DF1260201230FE00027042003210DF1270201238DF8277010F0B2FBFE
:204CFC0003209EE704F1240200200C23032110F0A9FB0CB0BDE8F087436F6E6E48616E64DD
:204D1C006C6520646F6573206E6F742065786973743A2000416F41206661696C65642074B9
:204D3C006F20696E69742C20737461747573203D200070472DE9F043044685B0084611F8D1
:204D5C0001CBDFF8A483DFF8A4332C22BCF1030F4FF0000904F5A47704F1660504F1F40607
:204D7C0000F0C380BCF1070F00F08081BCF10F0F0CD0BCF1110F00F02481BCF11A0F00F061
:204D9C003681BCF11B0F00F061818EE1707A820703D40F2184F8191159E008784A7800EBA2
:204DBC0002233B808878CA7800EB02237B8008794A7900EB0223BB808879CA7900EB0223C7
:204DDC00FB80087A38724A7A887A02EB00237B81C87A0A7B00EB0223BB81487B8A7B00EB78
:204DFC000223FB81C87B0A7C00EB02233B82487C8A7C00EB02237B82C87C0A7D00EB0223AE
:204E1C00BB82487D897D00EB0122B948FA8201788A0658BF4FF01A0913D504F5AA700490D2
:204E3C0079890391387A029021890191F8880090BB887A88398820461AF08CF8C8B14FF07E
:204E5C001E09707A410706D40F2084F8190120461AF07CF8F0E04A460F2120461AF072F8F0
:204E7C00F8880090BB887A88A179484614F0BEFAE9E004F1860079888180BA88C28002226F
:204E9C00F98801810270A0F80290A18EC91DE983628E8188B1EB520F02BFC188A28E9142D3
:204EBC0002BF0089E18EB0EB111F1CD0287C012804BF687C0F2809D0687D00281CBF687C16
:204EDC001A2803D00F21A976FE2176E0FC2120461AF0DCF8F8880090BB887A883988A0794D
:204EFC001AF02CF8AFE0102167E0707AC20709D431781A200129707002D1FF220D213BE0A7
:204F1C000D215AE085F8009085F8069001233371082204F1B0001AF00DF80146022204F1E7
:204F3C00B8001AF007F804F1A8080146082240461AF000F807460821404619F0F7FF04F106
:204F5C009C0804223946404619F0F4FF0421404619F0ECFF04F1A00019F0E4FF04F19800BD
:204F7C0019F0DCFF6348018841F0800101803078012805D1FF220421204619F0CBFF62E062
:204F9C006E7C0F2E18BF142E04D00E2E1CBF0C2E1A2E11D12F7C204619F0B8FF042120460A
:204FBC001AF074F8012F05D11A2EAE7614BFFD21FB2102E0314600E0042120461AF066F8B4
:204FDC0041E00E783E761A2E497879766DD11868A679411C564301F806901968A37912FB56
:204FFC0003F20A4482F80490A179787E56E0A77918680E785743074406F01F0117F8210F9E
:20501C00B60938B17878F040C00703D594F89601042805D120221A21204619F093FF12E078
:20503C00F970A179186812FB01F28118204681F82360002119F082FB28B998F800004FF4FB
:20505C0080410CF06FFF4FF0010932E0A179186851430144C88808B981F80190A179186886
:20507C0012FB01F2811881F80490ECE709780F2917D01A2919D1A1791868514301441A2021
:20509C0081F80190A1791B6812FB01F2991881F80490F17A01F0FB01F172A17910F072FB4D
:2050BC00D1E7717A01F0FD0171720146204619F029FF687C1A2812D1A87C17281CBF102802
:2050DC00FC280CD12E7C204619F020FF012E03BF1A20A876FB211A21204619F0D7FF484608
:2050FC0005B0BDE8F08300BFC70F0020F03B0020200E00209C0F00202DE9F84F0422FF210B
:20511C00684618F0D3FEDFF88C63B0780024FF2800F0BE8118F066FE0546B07819F00EF896
:20513C00064605F217100178012908BF417800F0008105F1740005F5927A817B022904BFFB
:20515C0005F174018C7395F89201022805F1740008BF85F89241017F022904BF05F1740125
:20517C000C77BAF80E1019B19AF80C000CF0DAFE6889C94F288105F58D7BBA7AF879397B77
:20519C0080184118F87A0818797B00EB0109BBF80400BBF80010401CABF804004944BBF8CA
:2051BC000200ABF800101018ABF80200DAF80000F0B1BA4995F806E00B681C2103F10E0CAA
:2051DC0011FB0EFE0E331CF80E1030F811C0CC4420F811C01C2195F806C011FB0CFC13F887
:2051FC000C3000EB4300B0F84A105218A0F84A2016F04EFFF879002804BFF87A002805D19C
:20521C00387B002804BF787B002840D0F481A046F07EC00910D0307F00F00701022907DA84
:20523C0000F0F802401C00F007001043307703E0A879002115F036F82989E8892C744118A7
:20525C00287FA981012804BF688CE883A979012207200BF03EF8787805F1740658B10121EE
:20527C002977B078002804BFB07B002803D1307F08B9688CE8839AF81400002862D002283F
:20529C0004BFF87A002858D18AF814405AE0A979002207200BF01DF8EC83317F11F0070FAB
:2052BC0002D1F07EC00903D0A879002114F0FAFFB87A38B1287F01284FF0010827D1688C97
:2052DC00E88324E0BBF80600401CABF806004FF00208287CD8B172490868AB7995F82E60A5
:2052FC0000F1140268694FEA400C40F6C4105B0110FB06CC0CF5F660D0500968A87901EBFD
:20531C004010C17C01F0F00141F00401C174A8892989814206D088429DD2081A41F2AB02E0
:20533C00904298DA287C08B1052901D0082100E03E21284617F036FBAAE0787A10B1022143
:20535C008AF81410F87BC1070DD538692968C86000F59070C86052480168A87901F11402CB
:20537C004001145014E04E48AB79026802F114015B01C858CAF810004848AB7901681C20A5
:20539C0001F108024343D0582968C860EC832C77444A50690078810702D5B87B802800D1B2
:2053BC0081203070404991F8200018B12946012000F006FE28460DF0D7FC02281BD1F07954
:2053DC00022805DB6A463949284612F0FBFF0446284619F093FD01285AD020000DD0224602
:2053FC006946284613F024FD38B928460DF0BCFC012802D14CE001284AD00121284619F038
:20541C0079FDFEF7DBFB012842D0284619F09CF9FCF708FA264F3868002839D0B888AA794A
:20543C0090421CBF4FF6FD71884231D12148007B18F0ECFE04002BD084F80080A8791E49CB
:20545C0060800A68A879115C217105F5C9721079607196F90010A171A4F80890BBF8020095
:20547C00608118F093FE050005D1FF204FF0FF312073216109E02878207319F027FE014687
:20549C00A86819F033FD80082061204639688847BDE8F18F780E0020980C0020980E002073
:2054BC009C0E002084240200C839002020250020800E002004240020083C00202DE9F84F1F
:2054DC00DFF87C730446386808B90720B5E1C07A012804D0042016F051FB012801D10C20AE
:2054FC00ABE1DFF860030078092818BF0A2804D00B281CBF0C280D2801D121209DE1002C10
:20551C0005D0207810B101280BD102E0E01C00F0BC80A078002818BF012804D0022818BF1D
:20553C00032840F0B2806078002818BF012803D0022818BF032874D1607A10F0050F70D050
:20555C000025A84640F67B4243F6FD7340F67746607A0121A940084236D004EB0810418987
:20557C00A1F1040E9E453EBFB0F80CC0ACF1040E9E4510D2614522BF018BB0F816C061456C
:20559C000BD3C189A1F1060E96453EBFB0F810C0ACF1060E964578D28C4576D3B0F812C067
:2055BC00BCF5FA7F71DA808AA0F10A0EB6453FBF0CF1010C490001FB0CF1B1EBC00F64D2C1
:2055DC0008F101005FFA80F86D1CE8B20228BFDD39684C61607A9C4906280CBF01200020B4
:2055FC00087004F0F5F9050008BF09200BD03A68A9791174E01C07D0A278E11C402009F0D9
:20561C0051FE08B10B2018E105F16101284619F045FD05F12C06B07B012803DC28460EF06A
:20563C0023FA32E039686078DFF82082DFF820B2DFF82092DFF820A288726078002818BF91
:20565C00012807D1C0073B6854BF594641460622181D40E0DAF800000D3019F0D7FC30B939
:20567C0099F80010002904BF2078002813D16078C10754BF5946414619F07CFC28B16078D2
:20569C00C10754BF5946414601E01220D5E038680622001D0EE0DAF800003B68C11D0622D7
:2056BC00181D18F0EFFB6D4801680868DAF800300622D91D18F0E6FB6078DAF8001000F066
:2056DC00010008706078C107DAF8000054BF594641460622401C18F0D5FB207870BBA07853
:2056FC0085F82E0105F594780622E11C404618F0C9FBA178DAF80000E21C01F0010119F080
:20571C0011FD0146FF291CBF99F80000002815D0A07840F0020085F82E011E22DAF800303F
:20573C0051431944487F48B901F10D0019F06EFC20B906224A49404618F0A4FB19F0D2FB8B
:20575C00A86218F01DF9686204F11001DFF8F88098F80000000104F114030A5AF280195A00
:20577C0071812044428A328102223868417C3170B2700020B08018F00EFF0C2290FBF2F2F2
:20579C000C2101FB1200401DF07304200DF0D4F93968344A344B086042608361334A426158
:2057BC000120C872A87917F0DFFE99F80000002801BF386841690A78012A0ED1807A0228FA
:2057DC000BD1DAF8001001F10D0019F01FFC20B92748417941F0040141711A4C2078C8B963
:2057FC0099F8001049B12348006819F077FB38680068816941F4802181613868007C0FF0DF
:20581C00BBFC06202070012200210AF062FDFCF709F811E03A68117ED068526998F8004089
:20583C0002F10C03240140F6C4121D5B02FB050000F516600DF01AFE0020BDE8F28F00BF1A
:20585C00540F0020C80F0020D90F0020480E0020400E0020880E0020680F0020103C00200D
:20587C00006E0210040C0020020080805D760100BC0A00206C0F00202DE9F84FDFF894033A
:20589C000278112A03D0122A00F0BE81C0E1DFF888331878002119F015FC05000AD10020FB
:2058BC0016F0DCFE002016F0D9FEBDE8F24FFF2019F004BC05F14C0A9AF8000008B9012160
:2058DC00E972401CDAF808108AF800004A78D106DCD4E97DDAF80470C2B28A424FF000080D
:2058FC00D4D305F1280407F1900907F17306C34640F08C80A87F7075E97FB175DAF80820E8
:20591C005278930710D5EA7FD30604D5C01E707501F0EF01B175C7F874B086F8008000223A
:20593C00B17D01F0FE016AE1910608D4E08B00B1E07E3076E08B00B1206AC9F80000DAF816
:20595C0008004178CA070DD5E08B00281CBF206A002807D0C9F80000A17EE08B814238BFBB
:20597C0008463076E87FC1060CD5B86B217800EB8100B863B86BA98CA63100EB810078674B
:20599C00022002E0C7F874B000203070DAF80800417811F0030F22D1007818F0CBFE5FEA19
:2059BC0000081CD098F8B000032809D1E87F810615D440F02000E877B07D40F020000DE0A2
:2059DC0068B9E87F81060AD500F0DF00E877707DA0F112017175B07D00F0DF00B075E97F8F
:2059FC00002201F0FC0128460BF008FEB8F1000F36D0E87F810633D598F8B00002282FD1EE
:205A1C0041462846BDE8F44F18F09CBEE87F81060AD500F0DF00E877707DA0F112017175B9
:205A3C00B07D00F0DF00B075DAF808004178C80717D5B07D717D00F0F700891E01F03F0101
:205A5C0082075CBF891D40F00200420644BF491E00F0BF00B0757175C9F800B086F81880BB
:205A7C00D6E09AF80020E87D121AD2B28907009240F18280012A07F140083FD1B86BA98C65
:205A9C0000EB8100B863A87F00F03F00A8777075E97FB175DAF8082053785A0703D5801FDE
:205ABC00707501F0FD01B1750023707DE17E00F03F00421898F80000521CC0F3800192B262
:205ADC0000F0030019F08AFA00F59B70A8841E21A88C90FBF1F18AB2B17D01F0FE01284656
:205AFC000BF08CFD86F800B0E08B00B1E07E3076E08B00B1206AC9F8000089E0B86BA98C90
:205B1C00022A00EB8100B86326D1E87FC10706D5707D811F7175B07D00F0FE00B0750023DF
:205B3C00707DE17E00F03F00421898F80000521CC0F3800192B200F0030019F04FFA00F5C4
:205B5C009B70A8840022B17D01F0FE0128460BF055FD607FA8F81A00617F0098491C081A5F
:205B7C00C0B201281CDDB96BAA8CA63201EB820179670221317014E0B86BA98C00EB810078
:205B9C00B863617F0098081AE97FCA06C0B207D5B96BAA8CA63201EB820179670221317069
:205BBC00B0B395F81F80A97FD9F80020E37E1A44C9F8002028F00108DAF808205278530742
:205BDC0048BF28F00208920748BF28F00808012807D1207F3076C7F874B028F0100886F8E1
:205BFC0000B001F0C004404619F0FCF900F03F002043707586F81680002208F0FC01284690
:205C1C00BDE8F84F0BF0FABCBDE8F14F0EF08BBFBDE8F18FC80F0020D50F00202DE9F04137
:205C3C00FF2806462AD118F013FC10F01F0F22D0042015F035FD08B1042016E0012015F04F
:205C5C002FFD08B1012010E0022015F029FD08B102200AE0102015F023FD08B1102004E0FE
:205C7C00082015F01DFD20B10820BDE8F04115F09FBF16F0F3FC0020BDE8F08115F098FFC8
:205C9C008046012ED8F8044046F2A81740F6C4100BD0022E5DD0042E00F0AB80082E00F033
:205CBC00F380102E00F04281E5E7DFF8000301688F88102015F0F4FCE8B1102015F078FFD4
:205CDC0005466E6846B9022015F0EAFC20B1022015F06EFF05466E68012015F0E1FC40B101
:205CFC00B068A0EB8701A06817F026FA08B94046C2E72846C0E7022015F0D2FC90B10220D1
:205D1C0015F056FF06460120756815F0C9FC38B1A868A0EB8701A06817F00EFA0028E6D0F8
:205D3C003046A9E7042015F0BBFC08B10420E7E7082015F0B5FC30B1082015F039FF4168E9
:205D5C00002999D1D3E7012015F0AAFC002893D0CDE797490A689749D3690A7802EB82026E
:205D7C009E18F7884743042015F09AFC07F5166788B1042015F01CFF06460220756815F043
:205D9C008FFC0028CCD0A868C11BA06817F0D4F90028C5D1ABE7082015F082FCD8B1082024
:205DBC0015F006FF05466E6846B9012015F078FC20B1012015F0FCFE05466E68022015F0CA
:205DDC006FFC002895D0B068C11BA06817F0B4F900288ED18BE7012015F062FC08B10120A8
:205DFC00C8E7102015F05CFC08B11020A5E70220AAE771490A68714953690A7803EB0216F9
:205E1C00B7894743082015F04BFC07F5166780B1082015F0CDFE05466E6846B9012015F040
:205E3C003FFC20B1012015F0C3FE05466E680420C5E7012015F034FC28B1012015F0B8FE57
:205E5C00064604209AE7102015F02AFC80B1102015F0AEFE05466E6846B9022015F020FC65
:205E7C0020B1022015F0A4FE05466E680420A6E7022015F015FC28B1022015F099FE06467F
:205E9C0004207BE704205FE718F050FC08B1D0F89070042015F004FC58B1042015F088FE40
:205EBC0006460820756815F0FBFB002818BF002C68E7012015F0F4FB60B1012015F078FE3E
:205EDC000646082015F0ECFB002818BF002C3FF427AF0CE7102015F0E3FBA8B1102015F07E
:205EFC0067FE05466E6846B9022015F0D9FB20B1022015F05DFE05466E68082015F0D0FB9A
:205F1C00002818BF002C5DE7022015F0C9FB58B1022015F04DFE06460820756815F0C0FB7F
:205F3C00002818BF002C2DE708200DE7032018F0FFFB08B1D0F89870022015F0B1FB50B168
:205F5C00022015F035FE0646102015F0A9FB002818BF002CBBE7042015F0A2FB28B1042016
:205F7C0015F026FE0646102008E7082015F098FB80B1082015F01CFE05466E6846B90120F8
:205F9C0015F08EFB20B1012015F012FE05466E68102014E7012015F083FB28B1012015F061
:205FBC0007FE06461020E9E61020CDE6043C0020500F0020D80F0020540F0020D90F002021
:205FDC002DE9F0470024002501288AB0074603D0022808BF0D4600E00C46DFF86883DFF87D
:205FFC00689398F820002C2600281CBFD8F81C00002810D0D8F8140019F018F898F82020C4
:20601C000146002A1CBFD8F81C00002803D011B1087903280ED0002C0BD0A07916FB00F6BE
:20603C00D9F80000411D8A5D012A02D1401D0021815568E1501E88F82000887A00F01F0272
:20605C0080094FEAC20C032FACF10C032ED1BF4A1478012C04BF5478012C40F06B8110B954
:20607C009268527806E0012808BF012202D0022846D1022201F110050595550093FBF5F3A4
:20609C000833B34CDBB2002604930396A47BC97A663C01F0010102910192009004EBD474E3
:2060BC00E40500230022210E00206DE0022F6ED1002D53D005F180042278012A20D105F114
:2060DC00A906327894F810E0002A07BF94F80C9094F80EC094F80D9094F80FC05FEACE7250
:2060FC0048BF4FF0010A10D420B9A26892F801A001270AE0012802D10127BA4605E00228FC
:20611C0040F0FD8001274FF0020A4FEA4A0293FBF2F257430837B9F1010FD8BFBCF1010F65
:20613C001DDD01F110020892CDF81CE0CDF818C0CDF81490BFB20497238C0393CA7ACDF88A
:20615C0004A002F0010202920090487B7379A97C60F0FF0082B2A08B02F09EF8EAE001F1A0
:20617C0010020592FFB20497238C0393CA7ACDF804A002F0010202920090487B7379A97C2F
:20619C0060F0FF0082B2A08B04F050F9D2E0012FFCD1002CFAD0A379D9F80050734305F16A
:2061BC00050E1EF80370012FF0D16D1D0027EF54A379D9F800507343EF5C012F24D12B4470
:2061DC009B7E9B1E132B80F09A8094F89631042B00F09580CD7AC5F340156D1CAB4213D1D4
:2061FC00A379D9F80050734305EB030E9EF81A70974202BF05F11B02D25C824201BFACF173
:20621C00040217010A89974279D191F80DC005F116026CF0FF0C22F803C005F11403A579BB
:20623C00CA7A754302F001025A55D9F80030A27903F11205724394F89631AB54D9F8002083
:20625C00A379278902F1180573431332EF52A37994F838507343D554A479D9F8002016FBDC
:20627C0004F63244957C92F81090012D07BF137B967B537BD67B5FEAC9772CD54FF0020ECC
:20629C004FF0010C977EFF000C3F4FEA4C0A97FBFAF0012B00FB0EF0D8BF012E00F1080741
:2062BC0033DD01F110000990CDF8209007960693B8B20590118B0491107D0390CDF808C08F
:2062DC00D17E01912946507D00902046D38AD27C01F042FD2EE028B9D06990F801C04FF004
:2062FC00010ECFE7012803D14FF0010EF446C9E7022804D14FF0010E4FF0020CC2E7D8F875
:20631C00140018F073FE002019E001F110000690F8B20590118B0491107D0390CDF808C006
:20633C00D17E01912946507D00902046D38AD27C06F038F9D8F8140018F058FE01200AB03F
:20635C00BDE8F087C8390020F03B0020903B0020940B00202DE9F84F05004ED0DFF8E48232
:20637C0098F80000092818BF0A2804D00B281CBF0C280D2801D1212062E1A878002118F04D
:20639C00A1FE040008BF4220F6D0AF4FA978DFF8BCA2397098F8000010B9A8788AF8000057
:2063BC0004F14806F068417801F01201022902BF706900280C2012D0607AF0B1A07B0128AF
:2063DC0004D1B5F8030008B1812816DA6878402813DA204618F07EFDB06808B907202FE19C
:2063FC00B561287801281FD1A07B00281CBF0128042819D19648007808B9122020E195492D
:20641C004A78824208BF0920F8D0F068417848070AD504F1220180204A7F04F1380108F03C
:20643C0041FF08B10B200BE1687808B9112007E12878DFF82492DFF824B2012840F0AF8014
:20645C0000212173F166217A012903D1B16968794871F4E0012000212072E172617325468D
:20647C000CF06AFB6060DBF8000080477C4A0146106802E06A68426000680028FAD10846C1
:20649C00D9F8001088476968764848610021387818F044F939780122112009F01AFFF06873
:2064BC004178C80605D5284602F038F8010024D0C6E0688C13F018F885F82100F0680078BF
:2064DC0018F038F904001CBF94F8B000002807D0E87F40F02000E877687D40F0180068752D
:2064FC002846FCF79BFE0100E2D134B194F8B000012804BF284618F023F9F0684178C80753
:20651C001CD505F14204A18800291CBF3068002814D022788A4211D20F2018F083FD68B148
:20653C00F06801788DF800100F20A288ADF8012021788DF80310694618F05CFD98F80000E9
:20655C00A0B94949087800281EBFF068417811F0030F03D04548006818F0C0FC112088F84E
:20657C00000001212972FBF75DF968E0284615F0EBFA00281CBFB168002960D0AA7B012A95
:20659C0004D02A69808802EB800202E0486E2A69821895F8B81010460CF068FF4FE0207A65
:2065BC0000284CD0DBF80010884705463878012118F0B4F800202E4920720A683E78114650
:2065DC000B68187A002802BF586D0378B3421FD0C9689142F4D138789AF80010884224D1B3
:2065FC0017F0D4FD616888421FD115F051FD40F2014018F0D7FC1F491F4A204808600121C0
:20661C0010780BF08FFCD9F800102846884716E01B4E30780128DEDD084614F0B5FF17F03A
:20663C00E5FD3078411E3170D5E7204618F04EFCD9F8001028468847204614F0ADFD0020EE
:20665C00BDE8F28FC80F0020D60F0020D50F0020D40F0020780E0020DC1C0020D81C002023
:20667C004C0F0020B5BA0000880E00206C0F0020043C0020480F0020C70F002085720000FF
:20669C00863C00202DE9F043044685B0084611F801CBC24FC24B2C22BCF1070F4FF000099A
:2066BC0004F5A47604F1760504F1FD0800F03181BCF10F0F0CD0BCF1110F00F0D080BCF13E
:2066DC001A0F00F0E280BCF11B0F00F0128143E198F800309A0703D40F2188F81C1075E03C
:2066FC002878012804BF68780F280CD0687908B16A7812B12A7B012A07D1580703D40F21B2
:20671C0088F81C1062E0232265E010B16878012802D0A87E012807D1580703D40F2188F83C
:20673C001C1053E02A2256E008784A7800EB022333808878CA7800EB0223738008794A79CE
:20675C0000EB0223B3808879CA7900EB0223F380087A30724A7A887A02EB00237381C87AE3
:20677C000A7B00EB0223B381487B8A7B00EB0223F381C87B0A7C00EB02233382487C8A7C90
:20679C0000EB02237382C87C0A7D00EB0223B382487D897D00EB0122F28204F5AA700490D4
:2067BC0071890391307A029021890191F0880090B38872883188204618F0CCFBC0B198F88B
:2067DC000000410706D40F2088F81C00204618F0BDFB85E01E220F21204618F0B3FBF08821
:2067FC000090B3887288A179002012F0FFFD7DE07088A882B188E9820221F088297428837A
:20681C00A5F81290A18EA88AC91DE981618EB0EB510F02BFE88AA18E884202BF288BE18E73
:20683C00B0EB111F16D0687900281CBF68781A2803D00F21A972FE210DE0FC21204618F0D0
:20685C0025FCF0880090B38872883188A07918F075FB4BE00021204618F018FC46E00F78F9
:20687C0037761A2F4978717676D11868A779411C574301F807901968A37912FB03F20A4403
:20689C0082F80490A179707E5DE094F806C018680E7812FB0CFC604400F1210C06F01F0144
:2068BC009CF80000B60940B19CF80100F040C00703D594F89601042805D120221A2120460C
:2068DC0018F040FB12E08CF80310A179186812FB01F28118204681F82360002117F02EFFE6
:2068FC0020B938784FF480410BF01CFB4FF0010936E0A179186851430144C88808B981F881
:20691C000190A179186812FB01F2811881F80490ECE709780F2919D01A291DD1A17918684A
