:20000000003C0120958A010039FB021039FB021039FB021039FB021039FB021039FB0210BF
:1C00200039FB021039FB021039FB021039FB021039FB021039FB021011FB021002
:20003C002DE9F04FADF15C0D1EF0F6FB19F04AFB071C0CD01CF03AFFC84C0026814606218F
:20005C0034F80C0F28B1491E06F10106F8D11DF02FFF4FF6F878A4F8008067600025A56039
:20007C00BF4C26707868606048461DF083F904F118001DF0F0FC44F26826C949A0601B22F3
:20009C004FF4A473FB200090102001960BF0CCFF2E4602208DF8310001258DF83260C14F19
:2000BC008DF833604FF480628DF834502B460DF131003946009010200BF0B6FF0DF132001F
:2000DC0040F2024200902B46394610200BF0ACFF0DF1330040F2034200902B4639461020E0
:2000FC000BF0A2FF0DA840F2064200902B46394610200BF099FFAC49102004F110020BF0AF
:20011C0093FFAA493246102013460BF08DFF217850201BF0B7FFA649024610200BF084FF07
:20013C00217850201BF0AEFF009603460822A149019610200BF078FF9F4910200BF074FF30
:20015C00CB49102008220BF06FFFCA49CA4A10200BF06AFF04F19407109704F124000E9003
:20017C00C64D0F957E48406800214FF040424FF0FF331EF04DFB071CF4D000200A900CA93F
:20019C000AAA0BA81BF000FA002840F01F81BDF82C00102840F0168171489DF830100078F9
:2001BC00884240F00F810A9C20884FF6FF71814200F008812078913800F0C0800F3800F092
:2001DC00B780801E00F084802E3840F0FB802646B07800283CD0401F1FD0401E0FD0401E78
:2001FC0040F0F080B088814200F0EC80082880F2E9807678002E40F0E58004461FE0B088AF
:20021C00814200F0DF80082880F2DC800E99002201EB80018A70032117E074890846A0423A
:20023C0011D0082C0FDA707868B90E98012100EB84008170C049224610200BF0F5FE20467E
:20025C0013F0ECF8BEE00846022115F0C5FEB9E0C649C74A102000230BF0E6FEC24910209E
:20027C004FF486020BF0E0FE6426C82001220023BC490090102001960BF0D6FE0620002293
:20029C000DF12E03B649ADF82E0010200BF0CCFE01200DF135030246B1498DF835001020C9
:2002BC000BF0C2FE012006220DF13503AC498DF8350010200BF0B8FE4FF4006003220DF192
:2002DC002E03A749ADF82E0010200BF0ADFE79E0002C77D06079603802D0401E1DD071E08D
:2002FC0061884FF6FF7088420FD008290DDA62890E9820F82120CE4962894FF6FF731020B1
:20031C000BF092FE608800219FE76188CDA01BF07BFE62880F991323D6E762880F99102086
:20033C0013230BF081FE6188CEA01BF06DFE49E0002C47D0A06818F0EDFE43E060780E387C
:20035C0010D0801E3AD02E383CD1A078822839D1A4880846A04235D071E7C046141D0020AA
:20037C00C81A0020A08842F2030181422AD1A168491C0A6806A80260496841609DF81A60F0
:20039C009DF81900D24906AA00F0BF008DF8190046F0C6008DF81A0010200BF045FE11E081
:2003BC000D3D0210217B0000DDC4010035A40100D96C021039E300002D450210082000216D
:2003DC000CF06AFE0A9808B11DF0E6FCF80FFFF4C9AEC04880681CF012FE002811903FF4DA
:2003FC00C1AE12900088801E00F03A84401E00F0B383401E00F06283401E00F03C84801E99
:20041C0000F06A81401E3BD0401E40F03E8411984768002F00F03984AE48C068800821D35E
:20043C0079880E9800EB81008678DEB1387802280CBF4FF001084FF00008B7F802903E69E4
:20045C0097F906503C790C201CF0D6FF011C09D0A1F8009081F802804E600D7201204C72B2
:20047C0019F0A8FC002F00F010843846FDE2C046B5DE010029D60100F1DC0100A1F9011090
:20049C0012984668002E00F00584C84831780088491E0B2900F21681DFE811F000011401FE
:2004BC00FA00F6001401CC006C0050000C00B900A800A2007068047A0778438804F10801E6
:2004DC0089B2C56890F905B090F806A090F80790169104F10802139790F9041014938046B3
:2004FC00159190B21CF088FF071C1DD087F804B087F805A087F806901398FC71149B38707A
:20051C00159AA7F80130FA702DB107F108002946224613F03FFE169B862001213A4614F0E4
:20053C0029FD38461AF042FED8F80C00002800F0C980074650E0C0464925021070684588CC
:20055C000478284619F0EEF903201CF055FF071C00F0B8803C70A7F801508520032337E059
:20057C0095390110F5F90110C569011089610210C5BD010070680178477890F804B090F8EF
:20059C0005A0139100F1060890F80C90C58914974188047C159110201CF02EFF071C00F06F
:2005BC00918087F804B0139887F805A0149B3870159A7B7041467A800A68BB1D1A608988C5
:2005DC00998087F80C908420A7F80D501023FC7301213A4614F0CEFC38461AF0E7FD71E05C
:2005FC0070688178828817F0D1FA6BE000218DF8361019F097F9012187200DF136020B4612
:20061C0014F0B8FC69494FF6FF7008805AE07168487A0090887A0190C87A0290087A039037
:20063C00087C0490486905908A784B8A45E0C04699FB011072680F200121022314F09AFCAF
:20065C0040E0C0464C3243415020434F433A20636F756C64206E6F742065737461626C692B
:20067C00736800C04C3243415020434F433A207465726D696E6174656420636F6E6E48617E
:20069C006E646C653A2000C070688188A9A002E070680178ACA01BF0B7FC13E07168887B4B
:2006BC000090C87B0190087C0290087A0390487C049048690590CA788B89088891F904106D
:2006DC0019F080FD7068002800F0DF82CDE1C046FD380210C81A002012984068002800F0C0
:2006FC00D98207460078BEA4401E112800F2B981DFE810F061013801AC01FA00E700BE00EB
:20071C00B000A401A8008500A20178006C005E004D00A0019B01120078680028064600F076
:20073C00A081407A15F0D4FC38B9204600211BF06BFC082000210CF0AFFC707933790090EE
:20075C0001930290B079C04903903288102042F480520BF069FCF0780090F0790190307AA4
:20077C0006F109050290B74903953288B37810200BF05AFCC5B2002D00F073812946BCA075
:20079C001BF042FC3288294617F000FA69E17B68D879C94900901A7810205B1C0BF044FC36
:2007BC00011C00F05E81BAA026E0C046D81400207B68D879BF4900901A7810205B1C0BF0BF
:2007DC0033FC011C00F04D81C6A015E07868B8490288837810200BF027FC011C00F0418115
:2007FC00C6A009E07868B149028810200BF01CFC011C00F03681C7A01BF006FC31E17C68B9
:20081C0060788DF81800A0780622E11C8DF819000DF11A001CF0DCFEB4F80900ADF82000F4
:20083C00B4F80B00ADF82200607BCA498DF82400227806AB10200BF0F7FB011C00F0118180
:20085C00BAA0D9E77868002800F01F82008812F0E5FD06E17E68002E00F01782B6F8030028
:20087C000090707900250190B9490295B07825E078680028064600F00882007A15F028FCF6
:20089C0038B9204600211BF0BFFB082000210CF003FCB0780090F07906F108050190AB4911
:2008BC0002953288B37910200BF0BEFB3179F07800910190029171790391634932880346C7
:2008DC00CCE0786801884FF6FF768E4209D0082907DA0E9830F82120C24910200BF0A4FB8E
:2008FC00BFE0B9A0314687E778680028064600F0CC8130880E9931F82000ADF81800B088D1
:20091C001DF082FF0028079000F0AB80B288314613F040FCB08806AAD049ADF8200010206D
:20093C000BF082FBC0B2002800F09B80079818F0F1FB96E052544C5320536572766963653F
:20095C0073204572726F720052544C5320536572766963657320435445205265712046612A
:20097C00696C00C078680028064600F08E81B0F80700CB4907220323009010200BF054FB57
:20099C00B6F8070007220223C549009010200BF04BFBC82007220523C149009010200BF02B
:2009BC0043FB002501200090C54901953278701C02F0010283E77968C4488E78C068012E84
:2009DC0020D0002E4DD1C14930F00200C86048D14FF6FD70B849B94A009001206FE7C0468F
:2009FC00416E74656E6E6120617272617920636F6E66696775726174696F6E20696E766171
:200A1C006C69640060B94FF6FD70AB49AB4A0090002310200BF008FBC6B2AC48C06806BB97
:200A3C00AA4940F00200C8601BE0A24910200BF0FBFA16E09E49F9E79C49F7E7786818F0DF
:200A5C0079FD0EE0E53401003DD601009F4900201026C823024688709349009610200BF0E2
:200A7C00E3FA7868002800F010810646F1E0C046434C20416F4120656E61626C65207265B3
:200A9C007175657374206661696C656400C046C052656D6F76652066726F6D206164762000
:200ABC006C697374206661696C65640021B8010019C8010025D5010039D5010012984468BD
:200ADC008078401E012800F2E080A7782FB9208815F06AFC002800F0D88022880F99132317
:200AFC00D0E0C04641646420746F20616476206C697374206661696C656400C0526563651D
:200B1C0069766520656E61626C65206661696C656400C0465465726D696E617465207379AE
:200B3C006E63206661696C656400C046536574206372656174652073796E632070617261DC
:200B5C006D73206661696C656400C04651D6010057DA0100D37C010012985A4945680CC995
:200B7C0006AF0CC7097839705848AE698778092206A9B01C1BF022FD002869D1102F67DA3F
:200B9C008FB1DDF8408005F102093C4608F101084846414606221BF011FD002858D0641EB7
:200BBC0008F10708F4D12E1C05F102083FD0EC8A0D34A0B21DF030F9071C15D10021042066
:200BDC000A461BF02BFF30E0436F6E6E656374696F6E2048616E646C6520696E76616C6945
:200BFC006400C046A93D0210B11C0A68B81C0260898881807078787030783870B07D3873F8
:200C1C0096F90C003872B07A7872B08A7881B169F28A07F10D0013F0BDFAE2B200203946A4
:200C3C001BF0FCFE38461AF0C1FA28488778109C41460B68C7EBC7021019401C89880360C7
:200C5C007F1C8180FBB2214968788B70AE69A054DEB130461AF0AAFA17E0C046A9C30110B2
:200C7C001298407800280CBF0020012000210A461BF0D4FE09E01448129F009078680949BC
:200C9C00C288002310200BF0CFF91298406808B11AF08CFA11981AF089FAFFF79ABBC046B6
:200CBC00D5F401106DB40100E1F4001085DE010089DE01008DDE010091DC0110B5D10100FA
:200CDC0035610210BC17020040E20100C81A002038B586B004468DF805104FF6FF72012078
:200CFC00ADF80220090ADFF80859ADF8000002238DF806108DF8043069462A7820461DF0E4
:200D1C007FFD162803D1297820461DF075FD07B030BD3EB504000D461ED0DFF8D8080068A8
:200D3C0022461DF065FDFF2815D000200090002301AA2946204612F051F860B99DF8040064
:200D5C0000F0F0F8C00606D59DF8040000F0EAF810F0040000D001203EBDFEB5164615245B
:200D7C004FF6FF7290420D4615D100208DF80400DFF87C789DF80400B97988421AD2324629
:200D9C00294600F03AF800B100249DF80400401C8DF80400EEE71DF027FD50B100F0FCFA66
:200DBC0040B99DF804003246294600F026F8002400E014242046FEBD7CB50D46044606213E
:200DDC004C43164600F081F8A8B900F079F890B99DF80700002E14BF054320EA0505E9B204
:200DFC00814206D08DF807506A460821A0B21BF04DFA012076BD002076BD2DE9FC4106469F
:200E1C00344606235C438846154600F05EF8002853D100F055F800284FD1DFF8D477F879A1
:200E3C0080001CF07FFD040003D104201AF0FEFF43E0F979E03689062246090EB0B21BF065
:200E5C00FDF9002835D1204600F058F85FEA08000ED1FA799206120E002120461BF0A9FE18
:200E7C0038BBFA799200002120461CF0C5FB16E0214600F030F858B9280004D02146002002
:200E9C0000F029F810B900F036FB16E0A0F800808178A9420DD085700DB9002101802046A9
:200EBC0000F02CF8F97989062246090EB0B21BF0EDF900F020FB012000E00020BDE8F681E7
:200EDC000622FF2168461BF074BE20346A460821A0B21BF0B3B970B5DFF81437DD7900220E
:200EFC0000E0521CD4B2AC4206D231F824608642F7D101EB840070BD002070BD10B500212F
:200F1C00DFF8EC260AE030F82130DB4320F8213000EB8103491C9C78E4439C70D3799942A0
:200F3C00F1DB10BDE0B50623584320306A46082180B21BF083F910B99DF807000EBD002071
:200F5C000EBDDFF8AC060078082111F08FB838B50025DFF89C4619E0E069062313FB05F3FC
:200F7C0000EBC5022033082198B21BF067F958B1E0690622FF2100EBC5001CF03DFBE0699B
:200F9C0000EBC5010022CA716D1CEDB2A1798D42E2DBE07C10B1BDE8314032E231BDF8B577
:200FBC00DFF84C16DFF8503689791E680C460A4600E02A46D5B23DB1551ED2B2324412F819
:200FDC00017C8742F5D12C46E4B220464D1E07E01718165C7F7817541A680244401C56703C
:200FFC00A8421A68F4DBAC4204DABDE8F84005201BF04CB9F1BD38B500200024DFF8F055C1
:20101C0003E0E0B200F008F8641CAA79E1B2914201D20100F5D032BD2DE9F84F83465D46F5
:20103C00062313FB05F58EB005F1200701AA0821B8B21BF003F9002874D10622FF2101A865
:20105C001BF0B7FD00286DD1DFF8A465F07980001CF068FC5FEA000904D104201AF0E6FEDD
:20107C000A2061E01C22FF2103A81CF0C5FAF2799200FF2148461CF0BFFA05F123040AAAD4
:20109C001021A0B21BF0DAF860B91022FF210AA81BF08FFD30B99DF80A0001A900F00100FD
:2010BC001DF09EFB082200F042F801AA0821B8B21BF0ECF88DF8000003AA05F1210000F0B4
:2010DC003AF8074605F1220003AA00F034F8804603AA1021A0B21BF0D9F8044605F124005E
:2010FC0003AA102100F028F88246253503AA0421A8B248EA07071BF0C9F82743F1799DF823
:20111C0000504AEA0707074389060BF1E0034A46090E98B21BF0BAF8074348461CF0FAFBE2
:20113C003D4300E0002528460FB0BDE8F08FFF2101A81CF061BA1C2180B21BF0A7B82DE9DE
:20115C00F84187B0FF208DF80000DFF8A454A8791CF0E8FB040004D104201AF067FE0A20EA
:20117C0030E01022FF2103A81CF046FAAA79FF2120461CF041FA0622FFF7D9FF03AA102136
:20119C0002201BF083F8064603AA102103201BF07DF806436A46012104201BF077F80746B8
:2011BC00A979224605201BF071F8054601AA062106201BF06BF8804600F09DF93E432E4301
:2011DC0048EA060008B0BDE8F081DFF82414408809781AF0A7BFF0B5A9B006460D4614462E
:2011FC001DF002FB08B91420ABE0A422002168461CF002FAADF800600DF12607DFF8F06352
:20121C00F078717B8DF80400B07B8DF8A000279861F30000717B27908A074CBF02220022ED
:20123C0020F0020010432790CA064CBF4FF48072002220F48070104327908A064CBF4FF458
:20125C000072002220F40070104327904A064CBF4FF48062002220F4806010432790490760
:20127C004CBF0421002120F0040008432790F07B02280CBF0120002078741DF0ADFA412841
:20129C0007DBF07B00B108209DF8991008438DF89900707CB8B10121B974202206F18801FF
:2012BC000DF139001CF094F9202206F1A8010DF159001CF08DF9202206F1C8010DF17900FE
:2012DC001CF086F900E0B874307B8DF8050090B1DFF82873102207F110010DF106001CF028
:2012FC0077F99DF89900082805D1102239460DF116001CF06DF9F07A8DF8260028B11022D7
:20131C00BF490DF127001CF063F9307948B1022D18BF032D03D1279840F0020027900121A6
:20133C0000E000219DF899000143B0788DF8991000B1042001438DF89910684621461DF05F
:20135C0047FA29B0F0BD2DE9FC41154615244FF6FF72904288460DD10027A54EB179F8B2A1
:20137C00884216D22A464146FFF726FD00B100247F1CF3E71DF038FA50B100F00DF840B917
:20139C009DF804002A464146FFF716FD002400E014242046BDE8F68100210091002341794B
:2013BC0001AA01F00101801D11F018BD70B504460D4606204543082B88B0164603D13007BE
:2013DC0058BF223500D521351C220021FFF7B0FE01AA1C21A8B21AF031FF80B99DF81E00ED
:2013FC00C01F0A280BD29DF830000090F20801AB02F0010206F0010120461DF0E5F908B0F2
:20141C0070BD38B51DF0DCF90024794D0FE0E8690622FF2100EBC4001BF0CBFB28B9E86990
:20143C0000EBC40100201DF0C7F9641CE4B2A8798442ECDB31BD3EB50C46002501460095FB
:20145C00002301AA204611F0C9FC38B99DF80400FFF768FDC00601D401203EBD00203EBDBF
:20147C002DE9F041674F064638688846154603E00189B14226D000680028F9D10C201CF056
:20149C0051FA040019D0268184F80A8000202060E07245B1082128461BF0D0FC606018B964
:2014BC0000F029F80AE06060396811B93C6004E0014608680028FBD10C600CB9152018E061
:2014DC000120E0721DF074F908B1002011E02A4641463046FFF77FFE044645488069002871
:2014FC001CBF4368002B03D000220021304698472046BDE8F08120461CF00CBA38B50546C8
:20151C004048046803E02089A84204D02468002CF9D1012032BDE07A012807D100F05CF840
:20153C0020B133480078042110F0A0FDE17A491CE1722846C9B200F002F8002032BD38B527
:20155C00022904462A4D02D003290DD01EE042F6C921FFF7BDFB02001CBFA869002818D0DC
:20157C004368B3B105210CE042F6A621FFF7B0FB01001CBFA96900290BD04B684BB10246A5
:20159C000421204601B0BDE830401847BDE8324000E031BD10B51B4A1468002101E021468B
:2015BC0024686CB123898342F9D1206800290CBF10600860606808B11CF0ACF9FFF79BFF15
:2015DC00002010BD024604200E49096819B10B899342FAD1C87A70470A48006828B10068DC
:2015FC0018B1C17A0029FAD17047002070470000CC1B0020680F0020A83B0020AC390020A3
:20161C00DC390020AC3B002038B5264C049D2070E2712372A1716572C8001CF083F9E06180
:20163C00D8B1A279D20000211BF0E6FFA0791CF079F9206208B9E0690DE0A2791A4D002154
:20165C001BF0DAFFA0791CF06DF9286050B9E0691CF060F9206A1CF05DF9BDE83240042099
:20167C001AF0E4BBA27900211BF0C6FF04F1E8001DF09AF82178062018F0CEFEFFF767FC31
:20169C002A68A17905201AF0D9FD48B1A179002004E02B680A1A521E1A54401C8842F8DBD8
:2016BC0031BD00BFCC1B0020A83B00202DE9F84F054688B0A978DFF83C67002710294FF03D
:2016DC00060A3CD8DFE811F0110092039203920392033C00CF0092039203F502150100015A
:2016FC0047039203CB020D038A036878002826D11DF056F804461DF04FF805461DF048F8F5
:20171C008DF800002246102102201AF0BFFD2A46102103201AF0BAFD6A46012104201AF022
:20173C00B5FD9DF80000012818BF032807D101201DF02AF80246062106201AF0A7FD55E378
:20175C0068780028FBD195F80CB06C8900900023E97801AA01F00101281D11F03FFB002801
:20177C004FF0010875D19DF80400FFF7DBFB8146BBF1080FF07908BFB84680001CF0D2F84C
:20179C00050003D104201AF051FB2FE370789DF8041002280CBF0120002000905B464A4640
:2017BC002046FFF703FE1422002102A81BF024FF9DF804001AFB00F0243002AA102180B280
:2017DC001AF03CFDB0B91022FF2102A81BF0F1F980B99DF804001AFB00FA0AF1250306AA9C
:2017FC00042198B21AF02AFD02AA09F0010120461CF0C6FFF1799DF804008906E0302A463D
:20181C00090E80B21AF01AFD98B92846FFF776FBBA4609E005EB8000018819B18278204610
:20183C001AF0FCFF0AF1010AF1795FFA8AF08842F0D3707A30B95FEA897003D531782046BB
:20185C001AF070FC9DF80400FFF7A9FB28461CF061F87078022805D1B8F1000F02D0204618
:20187C0016F06EFCC2E2A888FFF794FE1CF084FF0028F7D1307D012808D1FFF7BCFB306A0B
:20189C003775042200211BF0B7FE17E0707D012803D1FFF754FC777510E000240AE0306ACE
:2018BC00E5B2415D012904D1E0B2FFF7B5FB316A4F55641CE0B2B1798842F0D350201BF01D
:2018DC00CDF8FFF744FB91E21CF072FF00280CD0B06900281CBF0468002C07D02869009052
:2018FC006B7B2A7B6989E81CA0477EE26889012171E26878002840F0EB80A879C10740F1E1
:20191C00E7800822002105A81BF076FEA8881CF06BFF04006FD0D5F81480B8F1000F27D0D4
:20193C000622002108F111001BF043F958B30622002140461BF03DF9C8B998F8100000F0C5
:20195C000109BB460BF1010B88F811B0009700230022494608F1110011F040FA00285FFAE6
:20197C008BF002D10028EDD101E000280BD16F61607900F001008DF81A000622A11D05A866
:20199C001BF026FE24E0D5F81480B8F1000F1FD098F8100000F001008DF81A00062208F19F
:2019BC00110105A81BF014FE6079012805D10622A11D04F10C001BF00BFE062208F1110129
:2019DC00A01D1BF005FE98F8100040F002006071A879410720794CBF40F0020000F0FD0051
:2019FC002071A879010720794CBF40F0200000F0DF00207106E0FFF7EFFD18B1307804215F
:201A1C0010F034FBA9799DF81B00890801F0010108438DF81B00A97900970A074CBF08213C
:201A3C00002108438DF81B0000239DF81A1004AA05A811F0D3F9F0B1002400E0641CB17925
:201A5C00E0B288420AD2F069E3B20622FF2100EBC3001BF0AEF80028F0D009E0DFF898233A
:201A7C00107800281DBFDFF89413086804780C468DF8104019E06869B8B19DF810001AFB40
:201A9C0000F023306A46102180B21AF0D7FB60B91022FF2168461BF08CF830B99DF81A00B8
:201ABC0005A900F001001CF09BFE9DF81000B179884280F0D280F07980001BF033FF040041
:201ADC001DD104201AF0B2F90A27A888FFF762FDB06900281CBF4368002B0FD06A78A8888A
:201AFC00012198476878002808D1A879C10705D5B369A8885C683A460321A0476EE19DF8A6
:201B1C0010001AFB00F0203005AA082180B21AF0BDFB9DF81000FFF742FAF2799200FF2184
:201B3C0020461BF069FDF1799DF810008906E0302246090E80B21AF0A9FBF0699DF8103077
:201B5C00082205A900EBC3001BF042FD6A6992B1107C002302F1110100F001001CF008FECC
:201B7C006A6942B19DF810001AFB00F02330102180B21AF08BFBAA6842B19DF810001AFBD4
:201B9C0000F021301C2180B21AF080FB2A6942B19DF810001AFB00F022301C2180B21AF0F9
:201BBC0075FBEA68AAB19DF810001AFB00F02430102180B21AF06AFBE86800F110029DF834
:201BDC0010001AFB00FA0AF12503042198B21AF05DFBF07C08B1FFF714FCB5F80480706AA0
:201BFC004FF6FF7948B906F1160100910223844A494601201CF0B8FD7062716A11B3FF2078
:201C1C00039002220292019707A800900DF11203F28A404608F086FA68B99DF812009DF89C
:201C3C00131000EB012290B228B1706A418992B24046FFF792F8F28A706A002349461CF03A
:201C5C008FFD706220461BF065FE307A0028A8887FF43CAFFFF752FC3AE7152735E7687839
:201C7C0006281BD1A8881CF0BFFDB8B1B17C012904D013D3032907D00CD30FE04179A88801
:201C9C000022FFF7EDFB09E00022002140F2094005F038FFA88805211CF05EFDB069002857
:201CBC001CBF4368002B03D06A78A888022198479BE000970023E97801AA01F00101281DF7
:201CDC0011F08CF80028F3D19DF804001AFB00FA0AF1250305F10C02042198B21AF0D6FA5F
:201CFC0083E0B06900281CBF4368002B03D0A888002200219847707810B9A88805216AE0FD
:201D1C00A8881CF071FD040070D0A87AC10712D5009700236179002201F00101A01D11F081
:201D3C005DF800281EBF60790028012803D0E868C0F3402028B1F07B022807D1A87A01075D
:201D5C0004D4A88803211CF003FD4FE06179A88805F1080227E02F7BAD8828461CF044FD55
:201D7C00040042D01CF024FD00283ED100900023617901AA01F00101A01D11F02FF828BBDA
:201D9C009DF80400FFF7CEF807F00C07042F11D0082F0BD00C2F0FD100F0090109290BD080
:201DBC00617900222846FFF75BFB1EE010F0090F02D1F5E7C107F3D501220092A37C9DF893
:201DDC00041002462846FFF7F1FA0EE070780028E6D1052128461CF0BBFC06E0FFF7FCFB5D
:201DFC0018B13078042110F041F90127384609B0BDE8F08FCC1B00201A3C0020A83B0020F4
:201E1C00121D02002DE9FE4FDFF80057D5F804B0BBF1000F03D1BDE8F74F1CF095BC9BF8F9
:201E3C000000DFF8EC66DFF8EC76012818BF022846F2A81A40F6C41941F64C580AD004280C
:201E5C001CBF0828102805D0402818BF802800F09A8153E31BF098FE0028FAD0012019F069
:201E7C003BF820B1012019F08BFA18F0E1FF082019F032F820B1082019F082FA18F0D8FFF3
:201E9C00102019F029F820B1102019F079FA18F0CFFF9BF8000003F053FB00900078012874
:201EBC001CBF0828102802D10098446803E0009818F0BEFF0446DFF860164878002800F0FD
:201EDC00CE800DF07DF91BF03DFB8246002CDAF8000001900146D1F804B003D000980EF05E
:201EFC00A3FF022800F08C8000990A78012A0AD0022A11D0042A46D0082A00F0EC80102AC5
:201F1C0000F01581FAE218B91CF01AFC4044A0600120A87011210DE105223A70C8B91CF015
:201F3C000FFC8044DFF8F4256069C4F808801368DE69DFF8EC351978B21D01EB8101525A85
:201F5C00DFF8D81509FB0289C0F820900A68A06810616069C17F01F0EF01C1776069C17F94
:201F7C0041F08001C1776069C17F01F0F00141F00201C177DBF808206169DFF8A805821821
:201F9C004A620221A3E006223A70C8B91CF0D8FB8044DFF894256069C4F8088013685E69FE
:201FBC00DFF88835197806F10C020901525ADFF8781509FB0289C0F820900A68A068D06020
:201FDC00DFF864050168087C12F06EFE6069C17F01F0EF01C1776069C17F41F08001C17735
:201FFC006069C17F01F0F00141F00201C177DBF808206169DFF82C0582184A62042166E0F0
:20201C000198017880290CD10820DFF8241538700A78DBF81400012A1ABF716A0978012141
:20203C0016E0072038709AF806001BF01BFC0446207BC10748BF9AF8060000F1C780DFF8AA
:20205C00F0040178DBF8140001291CBF716A4978C1729AF80600DFF8C0148870AEE10098DA
:20207C00002822D000990078DFF8BC648B4512D1012809D0022856D0042800F07F800828D2
:20209C0002D010284FD002E0002C4CD13BE2002019F0CCFE47E0012808D002281FD0042853
:2020BC004AD0082815D010283FD027E2002CEDD01CF046FB0146A06851441AF0FFFB18B996
:2020DC001CF03EFB4044A060112038700121A97029E0002CDAD00820A87012212AE0052086
:2020FC0038700222AA701CF02BFB0146A06851441AF0E4FBB8B91CF023FB8044DFF81C2469
:20211C006069C4F808801368DD69DFF814341978AE1D01EB8101755A09FB0589C0F8209023
:20213C001168A06808610098E4E1002CAED01020A87013213970F6E7062038700422AA7082
:20215C001CF0FEFA0146A06851441AF0B7FBA8B91CF0F6FA8044C4F8088032685369DFF82D
:20217C00CC236069117803F10C0509016B5A09FB0389C0F820903168A068C8603068007C59
:20219C0012F092FDCFE7DFF890134878002800F017810DF015F81BF0D5F900900168019184
:2021BC00D1F804A0DFF8701388781BF0CBF902909BF80000402813D1009880791BF052FB13
:2021DC000446207BC1070BD5009880791BF0BAF905211CF0B1FA207B00F0FE00207392E19B
:2021FC001BF0CCFC10F01F0F33D0012018F074FE20B1012019F0C4F818F01AFE082018F01D
:20221C006BFE20B1082019F0BBF818F011FE102018F062FE20B1102019F0B2F818F008FE13
:20223C00A87803F08DF983469BF8000001281CBF0828102802D1DBF8044003E0584618F0AE
:20225C00F7FD0446002C04D0019958460EF0ECFD022800F090809BF80010012908D002290B
:20227C0014D004294AD008290BD0102941D07FE018B91CF065FA4044A060112038700121A7
:20229C0073E00820A870122139706FE005223A70B0B91CF055FA8044A04A6069C4F8088014
:2022BC001368DE699E4B1978B21D01EB8101525A9A4909FB0289C0F820900A68A068106118
:2022DC006069C17F01F0EF01C1776069C17F41F08001C1776069C17F01F0F00141F00201AE
:2022FC00C177DAF8082061698E4882184A6202213BE01020A8701321397037E006223A705E
:20231C00B0B91CF01DFA8044874A6069C4F8088013685E69854B197806F10C020901525A15
:20233C00814909FB0289C0F820900A68A068D0607D480168087C12F0B7FC6069C17F01F0B5
:20235C00EF01C1776069C17F41F08001C1776069C17F01F0F00141F00201C177DAF80820F5
:20237C006169704882184A620421A9705846C1E0002019F05BFD0298009988421ED00199F6
:20239C006B480A78802A0AD10821397000780128DAF814001ABF716A0978012109E00722A5
:2023BC003A7000780128DAF814000EBF0121716A4978C1720098584A81799170019899E0CB
:2023DC001BF0DCFB10F01F0F35D0012018F084FD20B1012018F0D4FF18F02AFD082018F0F6
:2023FC007BFD20B1082018F0CBFF18F021FD102018F072FD20B1102018F0C2FF18F018FDCA
:20241C00A87803F09DF80646307801281CBF0828102801D1746803E0304618F009FD044639
:20243C003078012808D0022816D004283BD008280DD0102832D066E0002C64D01CF080F91E
:20245C004044A060012111203870A97051E0002C59D0A870122124E0052038701CF070F9B1
:20247C000146A06851441AF029FAA8B91CF068F980442A4A6069C4F808801368DB699F1DA1
:20249C00274B1B7803EB8303FB5A09FB0389C0F820901168A0680861022029E09CB3A870DE
:2024BC001321397025E0062038701CF049F90146A0681D4F51441AF001FAA0B91CF040F90F
:2024DC008044C4F808803A685369184A6069127803F10C0112018B5A09FB0389C0F82090D4
:2024FC003968A068C8603868007C12F0DDFB0420A8703046BDE8FE4F0EF00EBDBDE8FE4F9A
:20251C00002019F093BCBDE8F78F00BF483B00203C1C0200C80F0020780E0020500F002024
:20253C00D80F0020F0D8FFFF540F0020D90F0020CC0F00202DE9F84F012018F007FF012877
:20255C0016D1DFF86066307800211CF0F1F8040004BF002019F06AFC00202072201D10F0D8
:20257C0029FB07F0A7F8050003D181201CF0DCF813E30120687105F59777DFF82C06DFF853
:20259C002C264178491C4170A879A07240203178117010F0F7F92860616D4A78206DD106D5
:2025BC0019D5816C0A681179032904D00CBF0120002019F03BFC206D816C90F86C000A68FC
:2025DC0002F1080A01281CBF002019F02FFC216D486F29683CE0C16E0A681179032904D065
:2025FC000CBF0120002019F021FC206DC16E90F898000A6802F1080A01281CBF002019F00D
:20261C0015FC216DDFF8A825D1F8A0002968DFF8A435C8609AF82660032E19D8DFE806F092
:20263C0002050C0F00F5B06001E000F53470C8601088F887118808E000F5355001E000F6CC
:20265C00B870C8601888F8871988A5F8741102E000F5B060C8602868DFF85C65C168DFF8F5
:20267C005C8501F59071C16006229AF80000C0F3801038700AF1020105F594701AF0A8FFF3
:20269C0004220AF10E0105F124001AF0A1FF306895F8069000F10C0304220AF10E0103EB51
:2026BC0049101AF095FF3068AB7900EB431303220AF1120103F110001AF08AFF05F12C0915
:2026DC009AF8150089F8020002220AF1160105F130001AF07DFF02220AF1180105F1320072
:2026FC001AF076FF02220AF11A0105F134001AF06FFFB9F80800688402220AF11C0105F18C
:20271C0036001AF065FF99F80200B9F80A10400089F802000901B9F80400A9F80A1040001E
:20273C00A9F8040089B2B9F806004000A9F8060003046A8C521CDB0B5A438A4201D280B240
:20275C0030B998F8000080210FF090FC3B2131E105F12E0128461BF0E3FF0520A88128460E
:20277C001BF0DAFF05220AF11E0105F161001AF02FFF9AF82300400989F800001BF0C8FF38
:20279C006882618D401AB88105F161019AF82300DFF82C7400F01F0089F80F004FF01C0A2A
:2027BC0028461BF0B1FF616D4A78206DD1064CBF816CC16E41F62102086800210171A9793A
:2027DC0038681AFB01F142520021AB791AFB03F303445980AA791AFB02F210444160616D43
:2027FC00DFF8E0034A78D1060DD5DFF8DC138A7851060AD5DFF8D423138841F20A418B42D6
:20281C0008BFDFF8CC03C5F89C01D5F89C11284688473A68A97902F10E031AFB01F15854A3
:20283C00AA7938681AFB02F202440020D0733968A87901F10E021AFB00F0115C89F80D1033
:20285C00606D4178CA061DD595F8960108B919F0EDFAA97938681AFB01F1014495F896010D
:20287C00421E0A74A87939681AFB00F00844002141743A68A97902F112001AFB01F1002283
:20289C0042522BE0A97938681AFB01F10144206D90F840200A74A87939681AFB00F0084469
:2028BC00216D91F841204274206D3968AB79403001F112021AFB03F34188D15205F5CB71D9
:2028DC000078012200F0030082400A70226D92F84000800814BF0120022008713968A879E0
:2028FC00DFF8F0B201F1140231681AFB00F301EB4010D050A87939681AFB00F00844B6492C
:20291C008161DBF814000078C107DBF8141009784CBF1F200F208A07DBF81410097848BF91
:20293C0040F020004A07DBF81410097848BF40F040000A073168AA7901EB421348BF40F0A6
:20295C0080001872A979306800EB41120B2050723168AA7901EB42100421A04A81721078E8
:20297C00012806D13168A87901EB40120121D17207E0DBF824003168AA79407801EB42134B
:20299C00D8723168A87901EB40121F2111763068AA7900EB421100204876A8791BF0B0FE61
:2029BC00AA79316852018850AA7931685201885820B9072128461BF0BFFEEEE08848AA792D
:2029DC00016801EB02101BF097FEA8793168844B01EB4012196801EB00105060A979306826
:2029FC0000EB41125168C9F83C10AA7952018158C9F84410042198F800000FF037FB616D9F
:202A1C004A783868D10648BF02210AD4A9791AFB01F101440A7C02F00302022A14BF04214A
:202A3C000621B9F8042095F806C04FF4C8738A18698AAA615143B1FBF3F35B1C6B611AFB8F
:202A5C000CFCD5F800E06044DEF80CC040F6C41101FB02C2D21AA2F5A8628260AA79386862
:202A7C001AFB02F283189A682B689A6000F10C03AA791AFB02F20C309B5C03F0EF038354EC
:202A9C00A8793A681AFB00F002F10C030C321B5C03F07F031354A8793A681AFB00F002F104
:202ABC000C030C321B5C03F0F00343F002031354AB7938681AFB03F31844427B02F0F002E5
:202ADC0042F001024273AA7938682B681AFB02F20244906818613068AB7999F802C000F1DA
:202AFC001402686940005B0111FB0C0000F5F660D05095F8960104280DD13068AA7900F1DA
:202B1C0014034FEA421C143053F80C20AB795B0102F56162C2503068AA7900EB4210C37CAD
:202B3C0003F0F00343F00403C374DBF830003268AB79006802EB431CB9F8062042436423CA
:202B5C00B2FBF3F35943A1F59661CCF81C103068A97900EB4110C27E02F0F00242F004025B
:202B7C00C276A97938682A681AFB01FA00EB0A01516028460E211BF0BBFD1A490720087094
:202B9C00204617F041FFAA79002120461BF0ACFD28681549154A41618261BDE8F14FFFF761
:202BBC0031B900BFD50F0020780E0020D70F00208E0F0020900F00209C0E0020C70F002064
:202BDC00980E002081010210C00C00209A0F00204DE501103C1C0200980C0020CC0F00206E
:202BFC00A40E0020C80F0020650A0100020480802DE9F04F0646B078ADF1340D022840F078
:202C1C00A982BA4C30882188222814DC222800F02C82002800F09782C01E00F00782401EFE
:202C3C0000F08582DFF8C892401F0C280ED9173800F0308219E0273800F08480401E44D027
:202C5C000A3820D0001F00F005820EE0DFE810F063025902DA014E02430238022F02250219
:202C7C000D000D00520124018F00062001218DF8180006AA0B46812012F07CF9B0680028D9
:202C9C0000F0688259E00021B0688DF819100246A0B1206A90B11188405C400806D2D2A0F3
:202CBC0019F0B2F901208DF8190003E00920114619F0A4FE32200DF1190236E2012332207E
:202CDC000DF119028DF8193041E2B768B878012823D1A08CB7F8009097F803A007F10408C1
:202CFC000125000A1AD3B8F1000F17D0206A19F80000400812D304201AF07EFB041C0DD090
:202D1C00A4F80090A01C4146524611F043FA0820214619F073FE002500E006253888ADF8B4
:202D3C0000006A46B8788DF8035004238DF802002820032112F01EF9B06818F037FA00201B
:202D5C00B06007E200208DF81A00B06840B181780288082016F0C6FB0128EDD0012302E038
:202D7C0001238DF81A3027200DF11A02E1E7B568A87A00270B9068888DF81C701AF034F8E3
:202D9C002B7933B9002867D08178012908BF877062E020B18178012977D001218170287817
:202DBC00207768786077287AA0776978287A4B460C90B5F802A059736878C84605F10B0234
:202DDC00022842D0287AA97A18F00EFB002835D1D8F8089050461AF007F8002835D12C2016
:202DFC001AF00AFB041C25D039462C2213F0EFF906201AF001FB2062D8F808B0B8B13946BD
:202E1C00062213F0E4F9A4F800A00120A762BBF1000FA07008BFC8F8084016D0D9F828307F
:202E3C00002B08BFC9F828400FD09946F6E7204618F0BCF904208DF81C0003E0C0B28DF8FE
:202E5C001C0048B1152007AACBE00C9888F80C0019F0CCF98DF81C700B9C093420461AF04D
:202E7C00CBFA071C04BF0420012310D0A91C224611F090F91520032107AA012312F07AF80A
:202E9C001220394619F0BAFD56E7012003468DF81C0007AA15204CE70020B7688DF81D0063
:202EBC0077B9A08C00F0800100F48070084300F05181012314200DF11D028DF81D3046E1CA
:202EDC00A18C01F0800201F48070104308D0142003210DF11D02012312F04CF8A7480188CF
:202EFC00080AC0F037810720D0E0C046D8140020CC230020B768002039788DF81E00B81CDD
:202F1C00C57921777978617740790835A07728461AF072FA5FEA00083FF40EAFB91C2A467F
:202F3C0011F038F9617F94F81EB094F82F704D46484608F108020229417306D098F807105E
:202F5C00584618F051FA00283AD1286880BBB80000EB471420461AF04FFA286020B901202D
:202F7C0000210AF099F828680021224613F02FF9F7B14FF000094C46D5F800A006201AF026
:202F9C003BFA0AEB0901C86148B9012000210AF083F82968A00000EB44104018C0690021EE
:202FBC00062213F014F909F12409641C7F1EE3D185F80CB019F01AF900208DF81E0003E0CA
:202FDC0005288DF81E0004D00620414619F016FD04E09DF81E1061A019F016F813200DF178
:202FFC001E020123A5E6C046436F6E6E48616E646C6520646F6573206E6F742065786973F1
:20301C00743A20004FF6FF7700208F428DF8240006D1B168088820800C2019F0EFFC02E04F
:20303C0001208DF824000B2009AA7EE000208DF82800B768A08C010A04D2400A08D302202E
:20305C00032101E0032001460AAA012311F092FF02201BE002A813F09FFC0298039F6A462A
:20307C00009008230197362071E0002094F83250B7688DF81B0003210DF11B020123681E64
:20309C0084F83200222011F075FF0520394619F0B5FC5FE01AF0E2FA5CE0002111208DF819
:2030BC001F1019F0ABFC10200DF11F023DE0002110208DF8201019F0A1FC0F2008AA34E008
:2030DC000020B1688DF821000F2019F097FC0E200DF1210229E00020B1688DF822000E20C4
:2030FC0019F08CFC0D200DF122021EE00020B1688DF823000D2019F081FC0C200DF12302F3
:20311C0013E000210B208DF8251019F077FC0A200DF1250209E00020B1688DF826000A20D8
:20313C0019F06CFC09200DF1260201230FE00027042003210DF1270201238DF8277011F0C9
:20315C0019FF0320A2E704F1240200200C23032111F010FF0DB0BDE8F08FC046416F4120F9
:20317C006661696C656420746F20696E69742C20737461747573203D2000C046FC14002054
:20319C002DE9F04FDFF82015086885B0002541F288380495CDF80C801BF0A2FA002800F04C
:2031BC007E820179032940F07A82DFF80015096800291CBF097B002957D000F1080111F8E9
:2031DC00010B019010F00F0F1CBF00F00F00012804D002281CBF0428062801D100205FE2AF
:2031FC004F780A78DFF8C8B407F03F00121A531EDBB24E1C0293BF0916F8010B10F03F0F88
:20321C009BF8010018BF16F8015BC10608D504201BF062FA5FEA000904D04FF0010901E03E
:20323C004FF000098FB928070FD5DFF88814886818B190F8A600012804D091F890A4BAF110
:20325C00000F04D04FF0010A01E04FF0000A5AEA09000AD0DFF86004807A1AF06BFB04002B
:20327C000DD104201BF038FA002800F014829BF80100C10640F10F8200210E2000E20D20CA
:20329C002070012100206170C4F81A006780E8074FF0FF0B0AD506223146601D1AF098F9E4
:2032BC000198C0F380102071B61D06E006220021601D1AF0A1F984F804B0A8070FD5062277
:2032DC00314604F113001AF083F90198C0F3C010A074B61D608840F00400608007E00622BF
:2032FC00002104F113001AF087F984F812B0680748BF761C2807DFF8C4730AD53188090BD0
:20331C00617336F8020BC0F30B00E083607B387004E04FF6FF7184F80DB0E183E8060ED5D7
:20333C003178B6F80120C9094FF4877041431E31C2F30C0251438844F61CCDF80C80A806E6
:20335C0004D5049670882082123601E000202082680647BF16F9011BA1737F20A073029959
:20337C006176029888B15FEA09000CD0029880B21AF0E0FAC4F81A0020B1029A31461AF0E5
:20339C0027F900E060760298361816F9011BDFF81C83E173DFF828130B68E27B5879821811
:2033BC00E27316F8011B01F03F01252980F20B812807039A0DD5617B012010F0D1FFB0B911
:2033DC00039AFF21012010F0CBFF80B94FF0000949E03978012010F0C3FF0028F6D0417943
:2033FC00022911D1C1790029F0D03A7862738179E172317801F00301217303298DF80010BA
:20341C000CBF0022012205E0032904BFC1790029DCD1EAE75118217331784A07417948BF13
:20343C004FF00009012906D004D3032900F0A080C0F07E80B9E0EA065AD502214171E907EA
:20345C00628842F02002628000F1A0805FEA09001CBF0298002806D0607E20B96188022098
:20347C0060F346116180974D287800283FD02079954E611D1BF02CF9E0B13168601D1BF00E
:20349C0023F90746FF2F15D031681E2010FB07F701F10D02D0191BF013F958B93068411CAD
:2034BC000622C919601D1AF093F83068C15D41F00201217104F11301A07C1BF009F90028FE
:2034DC0015D0306800F10D0104F113001BF0F4F8002800F0AA803068411C062204F11300EE
:2034FC001AF076F83068017841F00201A1749EE0A1788A0717D5D8F80010744BCA69197867
:20351C0001EB81015118CA78012A0CD103214171A907628842F02002628059BF002101721C
:20353C000422027292E70022EB0742718ED414E0C179002905D0027A618842F00A02114310
:20355C006180E90604D5628842F02002628002E000214171C171E90709D400F109010622AF
:20357C00601D1AF035F80198C0F3801020716DE7E90611D502224271027A618842F02A024B
:20359C00114361800121EA07C17104D50622611D09301AF01DF859E700214171007A628847
:2035BC0040F00A000243628050E700214171C07918B1608840F00A0060808946608840F099
:2035DC00400060804FE73078E07203280CBF002101210818E0720020E9062073E4D5039ADC
:2035FC00617B814610F0BCFE28B92F48C17A01F0DF01C17237E780F80790E27A8271618856
:20361C0041F020016180E90705D50622611D093019F0DEFF04E006220021093019F0ECFF72
:20363C002148C17A41F02001E3E74FF000090498002818BFBAF1000F07D0254842699DF88D
:20365C000030049821461AF0FFFBD8F80000C1694978012903D0287868B103290BD11D4839
:20367C002279006802F00102611D1BF021F81A490A78904207D0B9F1000F04D021460420EE
:20369C001BF012F807E0D4F81A0008B11AF042F920461AF03FF9044800681BF001F80120AD
:2036BC0005B0BDE8F08F00BF8C0A0020500F0020200E002020250020AC230020133C002010
:2036DC00400F0020880E0020680F0020D80F0020680C00206C0F0020153C00202DE9FE4F08
:2036FC0004460020009000250CB918F09FFB04F1500841F62300D8F8007038807D80022268
:20371C003A737A73694620460DF0C8FE08B9072051E2009901B1B860B8682061D8F8040028
:20373C00407A16F0A5FC25302076207EB873FD73D8F80400017D022904BF002018F076FB0F
:20375C00D8F80400007D012802D13D747D7406E083280CBF0620022038742020787404F1ED
:20377C002406DFF858A4DAF83C0041690868717901EB41010844B0F801207A82D8F804000B
:20379C00417848060AD5607DC10604D5E07F40F04000E07702E040F04000607507F15C0900
:2037BC0004F1300089F80050B17E890001F0040189F80010B866607DC10656D5D8F80420D7
:2037DC0051788A060CD500F0FE006075D8F80400417811F0030F03D1E07F00F0FE00E077B8
:2037FC00607D1AF059FFA075421C387CC0F38001002392B200F003001AF04AFFA0831E2005
:20381C00A28B02F59B7393FBF0F01E2101FB1030C0B208B1C0F11E00821802F59B726283F4
:20383C001E20A28B02F5967293B293FBF0F001FB1030A283C0B208B1C0F11E008018A08339
:20385C0080B2E27D618B521E50434018608307F13005608BB43080003866062089F80300CD
:20387C00E17F41F00801E17720E040F001006075D8F804104A78510744BF40F0020060752C
:20389C00607D1AF009FFA0750023401C82B2387CC0F3800100F003001AF0FAFEA083A08B2A
:2038BC0000F59670A0833D6689F80350A17D207D61F3050007F18801207508700322607DB3
:2038DC0048708A70B07E800000F0040040F003008870F27ED20002F00802104388700020A4
:2038FC00C870C7F89000B08BC0F30B00B083D8F80410CA7D40EA0230B0830022617D01F04E
:20391C00FE0120460DF088FF019700271EE01C2010FB07F004EB000B01991C220BF1640075
:20393C0019F056FE0BF16C00052101717F1CA28B92000260FFB2DAF83C104A69737911686B
:20395C0003EB43031944B1F801204281E07D401E8742DCDB019F204611F0C6FEE07D0128A1
:20397C0009D013D3032808D03EBF04F164007860C8F818500AE07D6008E004F16400786033
:20399C0004F18001C8F81810C8F8345041F6240038860021798607F13C05B868618B00EB00
:2039BC008100B8630221822028706970002194F82100E97000F03F00A870D8F80400807DDA
:2039DC00012818BF022805D100F07F00401E2871697106E083280CBF06200220287120200E
:2039FC0068714FF0000BDAF83C0041697279086802EB42021044B0F80110E980C7F86CB0F3
:203A1C00D8F80400417811F0030F20D01AF03CFEF866DAF818000078C107DAF818100978B3
:203A3C004CBF1F200F208A07DAF81810097848BF40F020004A07DAF81810097848BF40F08B
:203A5C0040000A0748BF40F0800089F8140089F815B0D8F804105A4A897C01F0030189F864
:203A7C001510B07E800000F00400014389F81510F07EC00000F0080040F01000014389F84E
:203A9C001510107848B199F8140041F0400100F0FE0089F8151089F81400E07F1AF0FCFDC2
:203ABC0084F8200020461AF0EBFDE07FC10638D5D8F8040094F820204178521C88074EBF60
:203ADC00D21EF07F12182879C0F380010023D2B200F003001AF0DCFD30801E22308800F552
:203AFC009670C0F11E0190FBF2F21E2000FB02113171D8F804104878810731884CBF002067
:203B1C004FF49B7040183080708031883279B86B5218A63200EB82007867022089F8170074
:203B3C0003E0C7F874B089F817B004F13000C7F8800007F18400D8F804104A78510707D5A1
:203B5C0004F13802026099F8150040F0200007E01C490A685168016099F8150000F0DF0075
:203B7C0089F81500A17F94F8200060F30501A17740F60B002882A5F812B0DAF8380000887A
:203B9C0080007865DAF83800008800281ABF0721297728770221697794F84500E883D8F8A3
:203BBC0004104878810744BF0120E883009808B10DF002FC0020BDE8FE8F00BF3C1C020047
:203BDC00880E00206C0F00202DE9FC47D44C0F460546F80B80F006826078DFF85883B90F12
:203BFC0080F0AA81B90880F09D81F90A80F00281390B80F0CC80380907D2F80FC0F028824E
:203C1C0027F0804713F052FB22E21AF0FDF8814618F0C4FE002800F0B480082019F0CCFF7E
:203C3C00002840F0AE80802019F0C6FF002840F0A880684610F02CFC012803D10098002861
:203C5C0000F09F8094F83102002840F09A8000250126E8B219F0B2FC48B1837A3BB1867291
:203C7C0090F9090006FA00F0C0B217F089F96D1C032DEED3032084F8200004F5C4701AF03B
:203C9C00BDF848461AF0F8FCD34800252A460168056050F8081CD14940F8085C04F15C00D6
:203CBC0018F05CFD40460068006B8047A168401A010BA06AC1F1FF3282422CBF08444FF0D1
:203CDC00FF30A06294F82C0020B12069A16AB1EBC02F25D918F072FE294600B13146081CBE
:203CFC001BD0BF4840F6090101804580417B06F00F0221F00F010A434273017B05F00F03C7
:203D1C0021F00F0143EA010202732946416019F0E9FD418811F4406FFBD084F82C60A5626B
:203D3C0015F0BCFECE4829460560022018F0A4FB022017F0C7FD11200EF0A6FC207818B9CE
:203D5C00606848301AF09CF8C648007810B90E200EF09AFC94F82D0020B184F82D500520B0
:203D7C0017F0B0FDC048606284F82050B4F9B000B4F9B210884214BF0220072011F0F6FC18
:203D9C0002E048461AF078FC27F008073AE720B1042017F097FD00206070656817F0D4F8B2
:203DBC0038B12846ED696FF4807100224FF00073A847E06858B140460068006B8047E26868
:203DDC006168801AC860000BC8600026E660A74904F15C00002218F0C1FC0221D4F89C00EA
:203DFC0084F8201018B104F1DC001AF05DF827F4006707E71AF008F8064618F0CFFDD4F89C
:203E1C0094100028894600F08480002900F081809749042504F15C00002284F8205018F06D
:203E3C009DFC30461AF028FC04F5C47019F0E6FF40460068006B8047E0604FF0010884F8EA
:203E5C000180284617F056FDD9F810006060D9F81000416AC90803D3036A2946002298474C
:203E7C00404614F03DF9606880F8158060680EF0E7FD6568D5F808A040F60A02D01F5646D8
:203E9C0000F1010C00E01E46736833B119888A4203D0884218BF8C45F5D100217160727BAE
:203EBC0008F00F0322F00F0213437373D9F80C201288904224D06046904221D02B8E03B348
:203EDC00696305F13002518095F83C0001F00F0320F00F00034385F83C3095F83D0008F025
:203EFC000F0320F00F00034385F83D307260707B01F00F0520F00F0045EA0001717300E070
:203F1C00E160504619F0EEFC5146404618F0B4FA02E030461AF0B0FB27F4806798E0C0465B
:203F3C00E00F002009F02AFCD4F89C0008B927F002078DE08C0100104E4A116841F0800121
:203F5C00116020B1042017F0BDFC0020607019F05BFF8246D8F85400016804208847D0B103
:203F7C00287DC0B1A068B0B18146D8F800002E69006B8047A0EB09002861000B2861B042A3
:203F9C0002D280194008286140F6C41181422CBFB0F5967F296150461AF06EFB16F0D4FFE8
:203FBC0080B1EE6928466FF4807100224FF00073B047D4F89400002808BF47F0020701D070
:203FDC0013F074F92846AD6900214FF080630A46A84727F000573BE0141004405D8501007B
:203FFC00083B002019F010FFD4F8AC6066B306F1280106C90A234FF0E0450B40154008BF52
:20401C00002B21D106F1280191E8000306F1280595E8060006F1280322EA090221EA0801D7
:20403C0083E806001AF028FBB16879B1B9F1000F08BFB8F1000F09D03069B6F93010B568CD
:20405C004B464246A84701E01AF016FB27F4804727B104F1DC00394619F026FFBDE8FC87E0
:20407C00000004603A1B0200251001006106010099C90100CC2108402DE9F84FDFF84C545F
:20409C00A9780024FF2904BF002017F0CFFEA87819F058FA054605F1680605F5C97A3168E0
:2040BC00086805F1900708B1EC8311E0B07B002804BFB07E00280BD13978002904BF9AF857
:2040DC000000002804D1287F012804BF688CE8832989E88B4118491C698128461AF0C8FACE
:2040FC0001281EBFDFF8E8030178012903D12989EC83491C69814FF6FF79B07E01280DD103
:20411C00B28B698928891AF0AFFA38B1298968894A1C93B298422FD0B08B23E038780128C9
:20413C000DD17A88698928891AF09EFA38B1298968894A1C93B298421ED0788812E09AF8BB
:20415C000000012818D1BAF80220698928891AF08BFA88B1298968894A1C93B298420BD0EF
:20417C00BAF8020092B2904206D04844688180B21AF076FA4844E8839AF80000012813D1CC
:20419C002889BAF80210401C80B288420CDB9AF805408AF8044002208AF800002346A97983
:2041BC00224600200DF0FCFE05F59A71087920B128890021401CE9836881B07E012813D14F
:2041DC002989B08B4B1C9BB298420DD168811AF047FA074605F12E008188308C01FB0707F6
:2041FC00284611F03FFE02E005F12E018F88E98BDFF8E092481C474340F6C41808FB07F220
:20421C0000922A680098D368C318D360B24A106803789B09032B23D199F80F20AF48D30737
:20423C000AD5002202804FF4C873688A7843B0FBF3F35B1C6B611BE00288521C028092B227
:20425C00012A03BF05F59A70C08800F2DC50688A78434FF4C872B0FBF2F0401C686107E028
:20427C00688A78434FF4C872B0FBF2F2521C6A61AF6185F820104FF01C0B994FAB79386861
:20429C0000F108021BFB03F3D1582A68116100F10801AB79D26868691BFB03F3121ACA5053
:2042BC003868AB7900F108021BFB03F3D1582A68916000F10C02A9791BFB01F10C30535C57
:2042DC0003F0F00343F0020343543968AB798A1C1BFB03F30021D1529AF8040008B917F0F4
:2042FC00A5FD3868AA7900F110019AF804001BFB02F240088854A87939681BFB00F0084463
:20431C00002141749AF80400042813D1A87939681BFB00F001F110021031135C9AF80820CF
:20433C0043EA82030B54AA7938681BFB02F20244202050743968A87901F112021BFB00F06B
:20435C00002111526749A8790A6802F114034FEA401C143253F80C00AB79D5F814C05B011D
:20437C0000EB4C00D050B07E02280DD10A68AE7902F11403760114329859AB7995F82E6004
:20439C005B0118FB0600D05005F12E0299F80F00C30759D53868AE7900F108041BFB06F6D8
:2043BC000830A359AC791BFB04F4A3F5A86303513868AE7900F108041BFB06F6A3592C681D
:2043DC00A36000981B1A23610868AE7900F1140476011430A359AC79640103F5F6630351E7
:2043FC009AF8040004280BD10868AE7900F1140476011430A359AC79640103F56163035112
:20441C000868AC7900F1140364011859C5F83401354B186B0C68AE799288006804EB4616B0
:20443C0042436424B2FBF4F408FB04F0A0F59660F0612E480278012A30D10868A97900EB52
:20445C0041120120D07230E0042C0BD10868AE7900F1140476011430A359AC79640103F595
:20447C00616303519AF804000B68AE7904280CBF4FF4AA504FF4E66003F114047601A3599C
:20449C00181A938808FB03F3A3F516739842BFD3082128461AF050F9012015E0586A0968FA
:2044BC00AA79407801EB4213D872A87939682A681BFB00FB01EB0B00506007210C48017081
:2044DC00284612F081FB0020BDE8F28F780E0020D10F0020980C00203C0F0020043C002059
:2044FC00980E00209C0E00203C1C0200CC0F0020C80F00202DE9F04F0F46780689B027D567
:20451C00DFF80824107800211AF012F904001FD0DFF8FC0301688847054619F0CBF96168DC
:20453C00884204BF40F201401AF096F800202072201D0EF03FFBDFF8DC130A682846904723
:20455C00204616F061FAFF223C2120461AF0CCF8F80508D5022019F073FC08B119F068FC2C
:20457C0087F48070CFE1B80604D50EF0FDFD87F02000C8E1F8070CD519F09CF930B10021B5
:20459C008160DFF89403006800B1804787F00100B9E1380704D508F0C9FC87F00800B2E1D7
:2045BC00F8060FD5002100220023069105920491039302910192009102201AF049F887F0A3
:2045DC001000A0E1B8070FD500210023069105910491039302910191009101223C201AF0B0
:2045FC0037F887F002008EE179074FF01E08CB4EDFF82CA340F1CD80CA4800220021089277
:20461C00079100781AF094F80446C7488178FF2904BF002017F00AFCA07A18F093FF05466F
:20463C009AF8000095F82E91002805F5947B69D0606D807A022818BF032807D130680D3076
:20465C001AF03EF810B93068C11D0791594648461AF03EF8A0B3606D807C3368002818BF04
:20467C00012804D1194658461AF02EF804E05A46494618461AF0BCF8FF2843D018FB00F87F
:20469C003068404406225946C01D18F0A1FF306810F80810404400F1010BC01D41F0020944
:2046BC0008900622616DC87A00F0010085F82E01606D00F10C0105F5947018F089FF21E017
:2046DC005946484619F0C0FFE0B130685A4649461AF08EF8FF2815D018FB00F830684044AE
:2046FC000D3019F0EDFF58B9306840440D3019F0E7FF002801BF30684044417F012901D153
:20471C0049F0020905F12C004B46017806914289120905920122698C0491C08808990291D0
:20473C0040080390CDF800B0079801900020A97919F08EFFD5F89C017C498842A8790CBF20
:20475C000021012119F07CFF7948AB7902682C214B43134401221A73AB7904684B432344C0
:20477C005A73AB7904684B4323449A73AB7904684B432344DA73AB79006811FB03F101441B
:20479C00002008740720A9790BF057FE87F00400B9E038060FD5002100230691059104918C
:2047BC00039302910191009101223B2019F050FF87F08000A7E0F8045DD55E4930680C685C
:2047DC000D3019F07DFF002844D13068C11D0D3019F032FF3EE0606D4178480704F13E05A6
:2047FC0026D5287802281EBF03286878012830D16978306804F1380219F0FAFF8146B9F1AB
:20481C00FF0F15D0306818FB09F948440D3019F057FF68B930684844C11D0D3019F00CFF40
:20483C0030684844C11D062204F1380018F0D0FE2878022818BF03280BD130680D3019F0A9
:20485C003FFF30B93068C11D062204F1300018F0BFFE2468002CBED13748DAF80420007859
:20487C004FF4805115F0F2FC10B18E2019F0E0FE87F4805047E0B80505D519F03DF92F49FF
:20489C0001200860FEE7780504D513F0D8FA87F4806038E0780405D5812019F0C9FE87F4AE
:2048BC00804030E0B9042DD5254C206810B1002017F0BCFA4FF0FF3020600020214C11F03A
:2048DC0037FD216851F8202F684690471E494A6B086BC96A24681D4B019200900293ADF8CF
:2048FC0010106B461A4A1B491B4803921B4A079225681B4AA8471B49086006F0B5FD87F43D
:20491C00005000E0002009B0BDE8F08FD50F0020C41C0020C81C0020480F0020680F002038
:20493C00880E0020D70F0020780E00204DE50110843B00204C0F0020C70F00207C05204382
:20495C00380F0020200F0020D01E0020B1D80100C1D801009C230020280800201EFB00808B
:20497C00EC0A00201C0F00202DE9F84F0546DFF81804DFF818640278002A84B04AD0052AAB
:20499C0058D0062A61D0072A18BF082A00F0DA800A2A00F0CB81112A02D0132A52D0E9E148
:2049BC00DFF8EC331878002119F0C2FE04001EBF606D407810F00C0F2CD0216DC0064CBF8F
:2049DC00886CC86E0622016801F10805A91C684618F0FEFD287800F00F0105291AD1694623
:2049FC00C0F3801019F074FE002813D03168684619F06AFE0546316804F1380019F064FE9E
:204A1C0085420DD0606D4178C80604D440F2014019F022FEB4E1607B40F002006073AFE109
:204A3C0033681E204543581906226946C01D18F0CFFDA5E1FEF7A4FB0028FAD1012019F0C9
:204A5C00F3FD9DE104F028FD9AE1DFF84853286819F046FE0400F7D020790328F4D1207AFB
:204A7C0000F00F01072938D1DFF82C0300684169497A4A1E11425ED0617A04F10A035A5C8A
:204A9C0002F03F02252A56DBA17A8A09012A52D111F03F0F4FD0007C18F054FDE17ACA07DC
:204ABC004CBF04F1110204F10B028B0748BF921D0B0748BF921CC90648BFD21C1621127831
:204ADC0052094A43B5498B180A31EB608A5A428699898186DA89C2862DE000F00F000828EF
:204AFC0029D1A17A880926D129B3AB480168087C18F028FDE17A074688071CD5062201F0D3
:204B1C0001015143601800F10C01684618F060FD207AC009FF280ED0694619F0D9FD50B163
:204B3C00306800F10D01684619F0C6FD18B90521384619F001FE2079032802D0002017F00E
:204B5C0075F913E1DFF8589299F802000024FF2821D018F0F7FC804608F16C07786819F031
:204B7C00BFFD029029460279032A01D0080012D00298826813788DF8003003F003000190AE
:204B9C009DF80000830604D50124019820B97868EDE00800F9D0F3E0557802F1020A24B377
:204BBC001AF8010B7F4A136803902C2098F806C010FB0CFC9C4401238CF80530002998F8B9
:204BDC0006C0136810FB0CFC9C44039B03F01F038CF81A3098F80630126810FB03F0104472
:204BFC00039AC2F38112C2761BD10198032808F2171B1BD0B5B1387868B108F1F400017820
:204C1C0001290FD1604A1178072904D0082904BFC078012806D13D2101208BF801108BF875
:204C3C000000ADE060490A78012AFAD098F8940090B32D1FEDB29DF8001053462A46404625
:204C5C0010F09AFE00281EBF58490878002809D101203D218BF800008BF80110306819F041
:204C7C00DFFC8DE0524801688847064698F80610D9F804204FF4D07041435018002280F80E
:204C9C00412108F59E7001688079490811F0C8FB48490A683046904702980021816001988F
:204CBC00032819D04448416909788A0709D541690878C1074CBFE81C28461AF80000387273
:204CDC0001E0812139722A460198C3B299F80200514608F0A7FE21E09AF800001CB11B28A2
:204CFC0004BF022D01251C2803D234490B5C9D4206D08BF802000721404619F0F9FC0AE0B3
:204D1C002148017808295146404602D119F078F801E000F059F8504614F0FCF9786819F061
:204D3C00BFFC0299404619F077FC29E0244C207830B3244D286819F0D3FC08B301790329D1
:204D5C001ED1017A8A0611D5807AE178C0F38112914202BF217900F01F00814206D1A078CF
:204D7C00002801BF607800280121A170286819F097FC05E0002017F059F8862019F0D4FCF4
:204D9C0005B0BDE8F08F00BFC80F0020680F0020D50F0020BC0A0020540F0020E00700205D
:204DBC00780E0020843B0020D20F0020173C0020C41C0020C81C00203C1C0200D41C02008E
:204DDC00303B0020AC0C00202DE9F043044685B0084611F801CBDFF8A483DFF8A4332C226F
:204DFC00BCF1030F4FF0000904F5A47704F1660504F1F40600F0C380BCF1070F00F0808146
:204E1C00BCF10F0F0CD0BCF1110F00F02481BCF11A0F00F03681BCF11B0F00F061818EE1D8
:204E3C00707A820703D40F2184F8191159E008784A7800EB02233B808878CA7800EB02239E
:204E5C007B8008794A7900EB0223BB808879CA7900EB0223FB80087A38724A7A887A02EBFE
:204E7C0000237B81C87A0A7B00EB0223BB81487B8A7B00EB0223FB81C87B0A7C00EB0223B7
:204E9C003B82487C8A7C00EB02237B82C87C0A7D00EB0223BB82487D897D00EB0122B94870
:204EBC00FA8201788A0658BF4FF01A0913D504F5AA70049079890391387A02902189019133
:204EDC00F8880090BB887A883988204619F0A0FBC8B14FF01E09707A410706D40F2084F800
:204EFC001901204619F090FBF0E04A460F21204619F086FBF8880090BB887A88A179484605
:204F1C0013F064FFE9E004F1860079888180BA88C2800222F98801810270A0F80290A18E53
:204F3C00C91DE983628E8188B1EB520F02BFC188A28E914202BF0089E18EB0EB111F1CD090
:204F5C00287C012804BF687C0F2809D0687D00281CBF687C1A2803D00F21A976FE2176E00C
:204F7C00FC21204619F0C4FBF8880090BB887A883988A07919F040FBAFE0102167E0707A66
:204F9C00C20709D431781A200129707002D1FF220D213BE00D215AE085F8009085F806909D
:204FBC0001233371082204F1B00019F021FB0146022204F1B80019F01BFB04F1A8080146F6
:204FDC000822404619F014FB07460821404619F00BFB04F19C0804223946404619F008FB12
:204FFC000421404619F000FB04F1A00019F0F8FA04F1980019F0F0FA6348018841F08001F0
:20501C0001803078012805D1FF220421204619F0DFFA62E06E7C0F2E18BF142E04D00E2E2C
:20503C001CBF0C2E1A2E11D12F7C204619F0CCFA0421204619F05CFB012F05D11A2EAE76D8
:20505C0014BFFD21FB2102E0314600E00421204619F04EFB41E00E783E761A2E49787976BE
:20507C006DD11868A679411C564301F806901968A37912FB03F20A4482F80490A179787EA7
:20509C0056E0A77918680E785743074406F01F0117F8210FB60938B17878F040C00703D5F7
:2050BC0094F89601042805D120221A21204619F0A7FA12E0F970A179186812FB01F2811894
:2050DC00204681F82360002118F0C0FE28B998F800004FF480410CF0C9FF4FF0010932E0D7
:2050FC00A179186851430144C88808B981F80190A179186812FB01F2811881F80490ECE7F3
:20511C0009780F2917D01A2919D1A1791868514301441A2081F80190A1791B6812FB01F252
:20513C00991881F80490F17A01F0FB01F172A17910F07CF8D1E7717A01F0FD017172014690
:20515C00204619F03DFA687C1A2812D1A87C17281CBF1028FC280CD12E7C204619F034FAC6
:20517C00012E03BF1A20A876FB211A21204619F0BFFA484605B0BDE8F08300BFC70F00203B
:20519C00843B0020200E00209C0F00202DE9F84FDFF8A4030278112A03D0122A00F0C58126
:2051BC00C7E1DFF898331878002119F0C1FA05000AD1002016F03AFE002016F037FEBDE8D6
:2051DC00F24FFF2019F0B0BA05F14C0A9AF8000008B90121E972401CDAF808108AF80000FC
:2051FC004A78D106DCD4E97DDAF80470C2B28A424FF00008D4D305F1280407F1900907F1C5
:20521C007306C34640F08C80A87F7075E97FB175DAF808205278930710D5EA7FD30604D5BC
:20523C00C01E707501F0EF01B175C7F874B086F800800022B17D01F0FE0171E1910608D4A2
:20525C00E08B00B1E07E3076E08B00B1206AC9F80000DAF808004178CA070DD5E08B0028D2
:20527C001CBF206A002807D0C9F80000A17EE08B814238BF08463076E87FC1060CD5B86B83
:20529C00217800EB8100B863A98CA63100EB810078670220307003E0C7F874B086F80080F5
:2052BC00DAF80800417811F0030F22D1007818F0C9FD5FEA00081CD098F8B000032809D171
:2052DC00E87F810615D440F02000E877B07D40F020000DE068B9E87F81060AD500F0DF0005
:2052FC00E877707DA0F112017175B07D00F0DF00B075E97F002201F0FC0128460CF08CFA33
:20531C00B8F1000F3DD0E87F81063AD598F8B000022836D141462846BDE8F44F18F09ABD02
:20533C00E87F81060AD500F0DF00E877707DA0F112017175B07D00F0DF00B075DAF80800E4
:20535C004178C8071ED5717D891E717501F03F01B07D00F0F700B0758207717504D4891DE4
:20537C00717540F00200B075B07D410605D5727D511E717500F0BF00B075C9F800B086F87F
:20539C001880D6E09AF80020E87D121AD2B28907009240F18280012A07F140083FD1B86BE9
:2053BC00A98C00EB8100B863A87F00F03F00A8777075E97FB175DAF8082053785A0704D52E
:2053DC00801F707501F0FD01B1750023707DE17E00F03F00421898F80000521CC0F38001EE
:2053FC0092B200F0030019F053F900F59B70A8841E21A88C90FBF1F18AB2B17D01F0FE019F
:20541C0028460CF009FA86F800B0E08B00B1E07E3076E08B00B1206AC9F8000089E0B86BC2
:20543C00A98C022A00EB8100B86326D1E87FC10706D5707D811F7175B07D00F0FE00B075B4
:20545C000023707DE17E00F03F00421898F80000521CC0F3800192B200F0030019F018F9B5
:20547C0000F59B70A8840022B17D01F0FE0128460CF0D2F9607FA8F81A00617F0098491CF9
:20549C00081AC0B201281CDDAA8CB96BA63201EB820179670221317014E0B86BA98C00EBBE
:2054BC008100B863617F0098081AE97FCA06C0B207D5AA8CB96BA63201EB82017967022170
:2054DC003170B0B3D9F80020E37E95F81F80A97F1A44C9F8002028F00108DAF808205278E2
:2054FC00530748BF28F00208920748BF28F00808012807D1207F3076C7F874B028F01008EC
:20551C0086F800B001F0C004404619F0C5F800F03F002043707586F81680002208F0FC019E
:20553C002846BDE8F84F0CF077B9BDE8F14F0EF0C0BABDE8F18F00BFC80F0020D50F00208D
:20555C002DE9F041FF2806462AD118F017FB10F01F0F22D0042015F0BFFC08B1042016E089
:20557C00012015F0B9FC08B1012010E0022015F0B3FC08B102200AE0102015F0ADFC08B138
:20559C00102004E0082015F0A7FC20B10820BDE8F04115F0F5BE16F049FC0020BDE8F08103
:2055BC0015F0EEFE8046012ED8F8044046F2A81740F6C4100BD0022E5DD0042E00F0AB804F
:2055DC00082E00F0F380102E00F04281E5E7DFF8000301688F88102015F07EFCE8B1102087
:2055FC0015F0CEFE05466E6846B9022015F074FC20B1022015F0C4FE05466E68012015F006
:20561C006BFC40B1B068A0EB8701A06817F056F908B94046C2E72846C0E7022015F05CFC09
:20563C0090B1022015F0ACFE06460120756815F053FC38B1A868A0EB8701A06817F03EF94C
:20565C000028E6D03046A9E7042015F045FC08B10420E7E7082015F03FFC30B1082015F0BF
:20567C008FFE4168002999D1D3E7012015F034FC002893D0CDE797490A689749D3690A7806
:20569C0002EB82029E18F7884743042015F024FC07F5166788B1042015F072FE06460220BC
:2056BC00756815F019FC0028CCD0A868C11BA06817F004F90028C5D1ABE7082015F00CFC96
:2056DC00D8B1082015F05CFE05466E6846B9012015F002FC20B1012015F052FE05466E68F2
:2056FC00022015F0F9FB002895D0B068C11BA06817F0E4F800288ED18BE7012015F0ECFB01
:20571C0008B10120C8E7102015F0E6FB08B11020A5E70220AAE771490A68714953690A7882
:20573C0003EB0216B7894743082015F0D5FB07F5166780B1082015F023FE05466E6846B968
:20575C00012015F0C9FB20B1012015F019FE05466E680420C5E7012015F0BEFB28B101206B
:20577C0015F00EFE064604209AE7102015F0B4FB80B1102015F004FE05466E6846B902207D
:20579C0015F0AAFB20B1022015F0FAFD05466E680420A6E7022015F09FFB28B1022015F0C1
:2057BC00EFFD064604207BE704205FE718F046FB08B1D0F89070042015F08EFB58B10420FC
:2057DC0015F0DEFD06460820756815F085FB002818BF002C68E7012015F07EFB60B10120AC
:2057FC0015F0CEFD0646082015F076FB002818BF002C3FF427AF0CE7102015F06DFBA8B1B6
:20581C00102015F0BDFD05466E6846B9022015F063FB20B1022015F0B3FD05466E680820E7
:20583C0015F05AFB002818BF002C5DE7022015F053FB58B1022015F0A3FD064608207568ED
:20585C0015F04AFB002818BF002C2DE708200DE7032018F0F5FA08B1D0F89870022015F0BD
:20587C003BFB50B1022015F08BFD0646102015F033FB002818BF002CBBE7042015F02CFB5A
:20589C0028B1042015F07CFD0646102008E7082015F022FB80B1082015F072FD05466E68CE
:2058BC0046B9012015F018FB20B1012015F068FD05466E68102014E7012015F00DFB28B1E5
:2058DC00012015F05DFD06461020E9E61020CDE6983B0020500F0020D80F0020540F002002
:2058FC00D90F00202DE9F84FDFF860730446386808B90720A8E1C07A012804D0042015F0C2
:20591C0025FD012801D10C209EE1DFF844030078092818BF0A2804D00B281CBF0C280D2888
:20593C0001D1212090E1002C1CD0207810B1012813D101E0E01C15D0A078002818BF012847
:20595C0003D0022818BF032807D16078002818BF012804D0022818BF032840F0B280607A18
:20597C0010F0050F00F0AD800025A84640F67B4243F6FD7340F67746607A0121A940084209
:20599C0036D004EB08104189A1F1040E9E453EBFB0F80CC0ACF1040E9E4524D2614522BF0D
:2059BC00018BB0F816C0614557D3C189A1F1060E96453EBFB0F810C0ACF1060E964512D241
:2059DC008C454AD3B0F812C0BCF5FA7F79DA808AA0F10A0EB6453FBF0CF1010C490001FBCB
:2059FC000CF1B1EBC00F6CD208F101005FFA80F86D1CE8B20228BFDD39684869417A0229F9
:205A1C0004BF002016F012FA38684461617A062990490CBF01200020087003F04BFE050088
:205A3C0008BF09200BD03A68A9791174E01C07D0A278E11C402009F0E5FC08B10B2003E14A
:205A5C0005F16101284618F05FFE05F12C06B07B012803DC28460DF089FE32E03968607827
:205A7C00DFF8F481DFF8F4B1DFF8F491DFF8F4A188726078002818BF012807D1C0073B683E
:205A9C0054BF594641460622181D40E0DAF800000D3018F015FE30B999F80010002904BF94
:205ABC002078002813D16078C10754BF5946414618F0CAFD28B16078C10754BF59464146CC
:205ADC0001E01220C0E038680622001D0EE0DAF800003B68C11D0622181D17F079FD62484D
:205AFC000168DAF8003008680622D91D17F070FD6078DAF8001000F0010008706078C1075A
:205B1C00DAF8000054BF594641460622401C17F05FFD207870BBA07885F82E0105F59478EA
:205B3C000622E11C404617F053FDA178DAF80000E21C01F0010118F05BFE0146FF291CBFC0
:205B5C0099F80000002815D0A07840F0020085F82E011E22DAF8003051431944487F48B99A
:205B7C0001F10D0018F0ACFD20B906223F49404617F02EFD18F020FDA86217F0C5FA686259
:205B9C0004F1100133480078000104F114030A5AF280195A71812044428A32810222386801
:205BBC00417C3170B2700020B08018F084F80C2290FBF2F20C2101FB1200401DF0730420B9
:205BDC000CF0E0FE39682A4A2A4B086042608361294A42610120C872A87918F0E9FC99F847
:205BFC000000002801BF386841690A78012A0ED1807A02280BD1DAF8001001F10D0018F0E2
:205C1C005FFD20B91D48417941F004014171104C2078C0B999F8001049B11948006818F053
:205C3C00C3FC38680068816941F4802181613868007C0FF039F806202070012200210AF09F
:205C5C00FCFBFCF7DFF80020BDE8F28F540F0020C80F0020D90F0020480E0020400E0020BB
:205C7C00880E0020680F0020A43B0020006E0210040C0020020080805D720100BC0A002054
:205C9C006C0F00202DE9FE4F0422FF21684617F0B3FCDFF85863B0780024FF2800F0A38127
:205CBC0017F050FC0546B07817F0DCFD019005F217100178012908BF417800F0DF8005F10B
:205CDC00740005F59279817B022904BF05F174018C7395F89201022805F1740008BF85F8E3
:205CFC009241017F022904BF05F174010C77B9F80E1019B199F80C000CF0B8F96889BC4E7B
:205D1C00288105F58D77B27AF079317B80184118F07A0818717B00EB010AB8883988401CC5
:205D3C00B88051447888398010187880D9F80000F0B1B04995F806E00B681C2103F10E0C05
:205D5C0011FB0EFE0E331CF80E1030F811C0D44420F811C01C2195F806C011FB0CFC13F8F3
:205D7C000C3000EB4300B0F84A105218A0F84A2015F078FDF079DFF880B2002804BFF07AEE
:205D9C00002805D1307B002804BF707B00282FD00199CC812A89E8892C748218287FAA812A
:205DBC00012804BF688CE883A979012207200AF044FBA046707878B1012105F174022977B2
:205DDC009078002802BF05F17401887B002803D1087F08B9688CE88399F81400002856D0B2
:205DFC00022804BFF07A00284CD189F814404EE0A979002207200AF020FBEC83B07A40B1DE
:205E1C00297F2C7401294FF0010825D1688CE88322E0F888401CF8804FF00208287CD8B18B
:205E3C00DBF80010AB7995F82EC001F114026969490040F6C4105B0110FB0C1101F5F661C6
:205E5C00D150A879DBF8001001EB4010C17C01F0F00141F00401C174A8892989814206D0BF
:205E7C008842A7D2081A41F2AB029042A2DA287C08B1052901D0082100E03E21284618F039
:205E9C005BFCB0E0707A10B1022189F81410F07BC1070DD529683069C86000F59070C86008
:205EBC00AA79DBF8000000F1140152018C5014E0DBF80010AB7901F114025B01D058C9F853
:205EDC0010004C48AB7901681C2001F1080243432968D058C860EC832C77484A5069007801
:205EFC00810702D5B07B802800D1812005F17409434989F8000091F8200018B12946012060
:205F1C0000F0D0FB28460CF0B1FE02281CD199F80700022805DB6A463A49284612F080F8BD
:205F3C000446284618F03CFB01285CD020000DD022466946284612F097FC38B928460CF087
:205F5C0095FE012802D14EE001284CD00121284618F022FB284618F01BFBFEF78DF801283F
:205F7C0041D0284613F082F8FBF74CFF264E3068002838D0B088AA7990421CBF4FF6FD71D5
:205F9C00884230D12148007B17F0D4FC04002AD084F80080A8791E4960800A68A879115CFD
:205FBC00217105F5C9721079607199F90010A171A4F808A07888608117F07CFC050005D171
:205FDC00FF204FF0FF312073216109E02878207318F0B6FB0146A86818F0D6FA80082061F5
:205FFC00204631688847BDE8F78F00BF780E0020980C0020980E00209C0E00203C1C020079
:20601C0068390020DC240020800E0020AC2300209C3B00202DE9F04F0546ADF12C0D95F9EA
:20603C0002002C8895F803B00A90CD482A7A417B520802D3022940F07E81067B06F030020D
:20605C00102A0CBF4FF0010A4FF0020A002900F0B880491E6AD0481E40F07181EE68892011
:20607C0017F0CAF9B046071C00F06981A88887F804B087F803A04FF0000B3C800A9BA7F878
:20609C0007004FF00909A7F805B04FEA243AB7F80510B7F80700BB70401A202802DC84B246
:2060BC000CB920E020245946A4460A46E879022809D0500018F900E07B184044A3F809E0A2
:2060DC0090F9010005E0705A7B18A3F809008B1958887B18BCF1010C02F1010201F1040176
:2060FC00A3F80B00E2D15FEA5A0038BF242004D338886FF31F303880332009EB84018BB244
:20611C003A4601210EF036FFB7F805000019A7F80500B7F80700B7F8051008F140088036AC
:20613C008842B9DC384615F041F808E1426806682713600B904606D2A00000EB441080195C
:20615C0000F11C0105E0C4F30B0016F04DFE01462031E8790090687A0190A87A0290E8681D
:20617C000390AA88AB79404601F05AFF780805D2A00000EB44108019C06904E0C4F30B00AC
:20619C0016F032FE006AADF810408DF814B08DF813A00A998DF8121030F8021BADF8151074
:2061BC0030F8022B0DF1170727F8022B00883880BDF81000400B38BF2520C0F0AE80342048
:2061DC00A5E0476801684FEA2439600B884606D2A20002EB4412521802F11C0105E0C4F364
:2061FC000B0016F001FE01462031EA7900926A7A0192AA7A0292EA680392AB79AA883846FC
:20621C0001F00EFF20465FEA590104D2810001EB4010404404E06FF31F3016F0E5FD001DAA
:20623C0090F82110BA68515606F03006102E12D0202E02D001280CD119E0C269B2F902304D
:20625C00B2F90020D21802EBD272C1EB62012D3909B202220CE0C269B2F90230B2F9002029
:20627C00D21802EBD27201EB62012D3109B20122037B20F8131001828273ADF8221090F9CB
:20629C002010817490F82170C774027B018A20F81210417B0629AEBF0621417B491C002265
:2062BC00417311464261437B8B423CDC416991FBF3F10183017B0429DCBF491C0A1C02738F
:2062DC00018BADF8201090F912108DF82410C17C8DF82510807B08AF8DF8260097E8060004
:2062FC0006AE86E80600ADF810408DF815A00A9D8DF816B0BDF818008DF81450BDF810308E
:20631C00ADF81200580B38BF232006D33520BDF810106FF31F31ADF81010012104AA0B2395
:20633C000EF028FE0BE030F911504369491CC9B25B194361B7E703A0012115F065FE0BB07E
:20635C00BDE8F08F524157205246206F6E6C7920696E20414F415F4D4F44455F52415700C4
:20637C00CC2300202DE9F84F05004ED0BD480078092818BF0A2804D00B281CBF0C280D2870
:20639C0001D121206CE1A878002118F0D1F9040008BF4220F6D0DFF8D082A978B14ADFF85F
:2063BC00CCA288F80010107810B9A8788AF8000004F14806F068417801F01201022902BF8C
:2063DC00706900280C2012D0607AF0B1A07B012804D1B5F8030008B1812816DA68784028B4
:2063FC0013DA204618F0CCF8B06808B9072037E1B561287801281FD1A07B00281CBF012834
:20641C00042819D19A48007808B9122028E199494A78824208BF0920F8D0F0684178480774
:20643C000AD504F1220180204A7F04F1380108F0E9FF08B10B2013E1687808B911200FE138
:20645C002878DFF834928D4FDFF834B2012840F0AF80207A0021012821734FF00A0A11D115
:20647C009BF80000402114F0C3FDB5F803000AFB00F1402018F080F80100E0D1B169687915
:20649C004871ECE001202072E17261730CF07AFA6060386880477B4A01461068274602E017
:2064BC007A68426000680028FAD10846D9F800108847796874484861002198F8000017F0E5
:2064DC00B5FC98F800100122112009F0B6FFF0684178C80605D5384602F0C0FD010025D071
:2064FC00BEE00020788412F043FD87F82100F068007817F0A7FC04001CBF94F8B000002827
:20651C0007D0F87F40F02000F877787D40F0180078753846FDF7E2F80100E1D134B194F8B8
:20653C00B000012804BF384617F092FCF0684178C8071CD507F14204A18800291CBF3068BC
:20655C00002814D022788A4211D20F2018F0C4F868B1F06801788DF80010A088ADF801008A
:20657C000F2021788DF80310694618F09DF83D4C2078002873D14549087800281EBFF0685B
:20659C00417811F0030F03D04148006818F00CF81120207001213972B5F803000AFB00F10F
:2065BC00402017F0E9FF01005AD1FBF72BFC56E0207A002854D038688047054698F80000CD
:2065DC00012117F033FC9BF80000402114F010FD0020304920720A6898F8006011460B68EB
:2065FC00187A002802BF586D0378B34220D0C9689142F4D198F800009AF80010884224D125
:20661C0017F058F9616888421FD115F02BF940F2014018F021F820492048086001219BF8D8
:20663C0000000BF023FDD9F800102846884716E01B4E30780128DDDD084614F0DDFB17F0EA
:20665C0069F93078411E3170D4E7204617F090FFD9F8001028468847204614F0D5F90020E7
:20667C00BDE8F28FC80F0020D60F0020D50F0020D40F0020780E0020C81C0020C41C00202B
:20669C00C70F00204C0F0020D5C10000880E00206C0F0020983B0020480F00203570000077
:2066BC00123C00202DE9F8430024002501288AB0814603D0022808BF0D4600E00C46DFF86C
:2066DC001083C44F98F820002C2600281CBFD8F81C00002810D0D8F8140018F001F898F88A
:2066FC0020200146002A1CBFD8F81C00002803D011B1087903280DD0002C0AD0A07916FB90
:20671C0000F63868411D8A5D012A02D1401D00218155DFE0501EB9F1030F88F8200028D1AE
:20673C00AD480278012A04BF4278012A73D1826852780579A94BC0789C7B01F110030593A5
:20675C00ED000C3D530095FBF3F60836F6B2002504960395663CC97A019201F001010291E0
:20677C00009004EBD474E40500230022210E002069E0B9F1020F69D1002D4CD005F18004B8
:20679C008A7A20789209012874D105F1A703187894F810C0002807BF267BA77B667BE77BB8
:2067BC005FEACC7003D54FF0020E022004E0A06840784FF0010E400091F80A9009F01F0979
:2067DC004FEAC909A9F10C0999FBF0F0012E00FB0EF0D8BF012F00F1080E1DDD01F110007D
:2067FC000890CDF81CC0069705961FFA8EF00490268C0396C87A00F001000290A6687078DB
:20681C0001900092487B5B79A97C60F0FF0082B2A08B01F0C3FAD3E001F1100005905FFA7E
:20683C008EF00490268C0396C87A00F001000290A668707801900092487B5B79A97C60F0F5
:20685C00FF0082B2A08B03F06FFDB9E0B9F1010FFBD1002CF9D0A0793A687043531D1D5CF4
:20687C00012DF2D1521D00231354A0793A687043135C012B2AD102F11A052B5C9B1E132B7E
:20689C0024D21B32105C08BB94F8960104281DD0CA7AC2F34012521C904217D1A0793A6800
:2068BC00704302F11A038D7A1B5C05F01F0C634502BF02F11B0E1EF80090B9EB951F05D102
:2068DC00DB001B1F0D891B01AB4205D0D8F8140017F0E6FE002078E04B7B104463F0FF035D
:2068FC00C3821432A079CB7A704303F0010313543868A37900F11202734394F89601D054C4
:20691C00A3793868258900F1180273431330D552A27994F8383072438354A0793A6816FB5F
