:20000000003C01209947010039FB021039FB021039FB021039FB021039FB021039FB0210FE
:1C00200039FB021039FB021039FB021039FB021039FB021039FB021011FB021002
:20003C0038B586B004468DF805104FF6FF720120ADF80220090ADFF80859ADF800000223EA
:20005C008DF806108DF8043069462A78204619F01DFF162803D12978204619F013FF07B069
:20007C0030BD3EB504000D461ED0DFF8D8080068224619F003FFFF2815D0002000900023CE
:20009C0001AA294620460FF093F960B99DF8040000F0F0F8C00606D59DF8040000F0EAF8A3
:2000BC0010F0040000D001203EBDFEB5164615244FF6FF7290420D4615D100208DF8040082
:2000DC00DFF87C789DF80400B97988421AD23246294600F03AF800B100249DF80400401CE5
:2000FC008DF80400EEE719F0C5FE50B100F0FCFA40B99DF804003246294600F026F8002428
:20011C0000E014242046FEBD7CB50D46044606214C43164600F081F8A8B900F079F890B936
:20013C009DF80700002E14BF054320EA0505E9B2814206D08DF807506A460821A0B217F068
:20015C00FBFC012076BD002076BD2DE9FC410646344606235C438846154600F05EF800286D
:20017C0053D100F055F800284FD1DFF8D477F879800018F07FFF040003D1042017F0C0FA64
:20019C0043E0F979E03689062246090EB0B217F0ABFC002835D1204600F058F85FEA080055
:2001BC000ED1FA799206120E0021204618F033F938BBFA7992000021204618F0D9FD16E00B
:2001DC00214600F030F858B9280004D02146002000F029F810B900F036FB16E0A0F80080E7
:2001FC008178A9420DD085700DB900210180204600F02CF8F97989062246090EB0B217F062
:20021C009BFC00F020FB012000E00020BDE8F6810622FF21684618F0FEB820346A46082102
:20023C00A0B217F061BC70B5DFF81437DD79002200E0521CD4B2AC4206D231F8246086425E
:20025C00F7D101EB840070BD002070BD10B50021DFF8EC260AE030F82130DB4320F8213017
:20027C0000EB8103491C9C78E4439C70D3799942F1DB10BDE0B50623584320306A46082105
:20029C0080B217F031FC10B99DF807000EBD00200EBDDFF8AC06007808210EF069B938B58A
:2002BC000025DFF89C4619E0E069062313FB05F300EBC5022033082198B217F015FC58B13A
:2002DC00E0690622FF2100EBC50018F051FDE06900EBC5010022CA716D1CEDB2A1798D4203
:2002FC00E2DBE07C10B1BDE8314032E231BDF8B5DFF84C16DFF8503689791E680C460A4683
:20031C0000E02A46D5B23DB1551ED2B2324412F8017C8742F5D12C46E4B220464D1E07E0B9
:20033C001718165C7F7817541A680244401C5670A8421A68F4DBAC4204DABDE8F8400520AB
:20035C0017F0FABBF1BD38B500200024DFF8F05503E0E0B200F008F8641CAA79E1B291425C
:20037C0001D20100F5D032BD2DE9F84F83465D46062313FB05F58EB005F1200701AA0821B0
:20039C00B8B217F0B1FB002874D10622FF2101A818F041F800286DD1DFF8A465F079800056
:2003BC0018F068FE5FEA000904D1042017F0A8F90A2061E01C22FF2103A818F0D9FCF27904
:2003DC009200FF21484618F0D3FC05F123040AAA1021A0B217F088FB60B91022FF210AA8EF
:2003FC0018F019F830B99DF80A0001A900F0010019F03CFD082200F042F801AA0821B8B2D1
:20041C0017F09AFB8DF8000003AA05F1210000F03AF8074605F1220003AA00F034F88046C5
:20043C0003AA1021A0B217F087FB044605F1240003AA102100F028F88246253503AA0421A1
:20045C00A8B248EA070717F077FB2743F1799DF800504AEA0707074389060BF1E0034A462A
:20047C00090E98B217F068FB0743484618F0FAFD3D4300E0002528460FB0BDE8F08FFF21C8
:20049C0001A818F075BC1C2180B217F055BB2DE9F84187B0FF208DF80000DFF8A454A879BE
:2004BC0018F0E8FD040004D1042017F029F90A2030E01022FF2103A818F05AFCAA79FF2135
:2004DC00204618F055FC0622FFF7D9FF03AA1021022017F031FB064603AA1021032017F0C4
:2004FC002BFB06436A460121042017F025FB0746A9792246052017F01FFB054601AA06211A
:20051C00062017F019FB804600F09DF93E432E4348EA060008B0BDE8F081DFF82414408863
:20053C00097817F041BAF0B5A9B006460D46144619F0A0FC08B91420ABE0A422002168466B
:20055C0018F016FCADF800600DF12607DFF8F063F078717B8DF80400B07B8DF8A00027981F
:20057C0061F30000717B27908A074CBF0222002220F0020010432790CA064CBF4FF480725A
:20059C00002220F48070104327908A064CBF4FF40072002220F40070104327904A064CBFB4
:2005BC004FF48062002220F480601043279049074CBF0421002120F0040008432790F07BB8
:2005DC0002280CBF01200020787419F04BFC412807DBF07B00B108209DF8991008438DF8F0
:2005FC009900707CB8B10121B974202206F188010DF1390018F0A8FB202206F1A8010DF11E
:20061C00590018F0A1FB202206F1C8010DF1790018F09AFB00E0B874307B8DF8050090B129
:20063C00DFF82873102207F110010DF1060018F08BFB9DF89900082805D1102239460DF17C
:20065C00160018F081FBF07A8DF8260028B11022BF490DF1270018F077FB307948B1022D4C
:20067C0018BF032D03D1279840F002002790012100E000219DF899000143B0788DF89910F0
:20069C0000B1042001438DF899106846214619F0E5FB29B0F0BD2DE9FC41154615244FF647
:2006BC00FF72904288460DD10027A54EB179F8B2884216D22A464146FFF726FD00B10024AA
:2006DC007F1CF3E719F0D6FB50B100F00DF840B99DF804002A464146FFF716FD002400E023
:2006FC0014242046BDE8F681002100910023417901AA01F00101801D0EF05ABE70B50446D5
:20071C000D4606204543082B88B0164603D1300758BF223500D521351C220021FFF7B0FE4E
:20073C0001AA1C21A8B217F0DFF980B99DF81E00C01F0A280BD29DF830000090F20801ABA7
:20075C0002F0010206F00101204619F083FB08B070BD38B519F07AFB0024794D0FE0E86929
:20077C000622FF2100EBC40017F055FE28B9E86900EBC401002019F065FB641CE4B2A8796A
:20079C008442ECDB31BD3EB50C46002501460095002301AA20460EF00BFE38B99DF80400B7
:2007BC00FFF768FDC00601D401203EBD00203EBD2DE9F041674F064638688846154603E0FB
:2007DC000189B14226D000680028F9D10C2018F051FC040019D0268184F80A800020206075
:2007FC00E07245B10821284617F03EFF606018B900F029F80AE06060396811B93C6004E083
:20081C00014608680028FBD10C600CB9152018E00120E07219F012FB08B1002011E02A46F0
:20083C0041463046FFF77FFE04464548806900281CBF4368002B03D0002200213046984728
:20085C002046BDE8F081204618F00CBC38B505464048046803E02089A84204D02468002C9C
:20087C00F9D1012032BDE07A012807D100F05CF820B13348007804210DF07AFEE17A491CC5
:20089C00E1722846C9B200F002F8002032BD38B5022904462A4D02D003290DD01EE042F61D
:2008BC00C921FFF7BDFB02001CBFA869002818D04368B3B105210CE042F6A621FFF7B0FBC5
:2008DC0001001CBFA96900290BD04B684BB102460421204601B0BDE830401847BDE832404C
:2008FC0000E031BD10B51B4A1468002101E0214624686CB123898342F9D1206800290CBF9F
:20091C0010600860606808B118F0ACFBFFF79BFF002010BD024604200E49096819B10B89A4
:20093C009342FAD1C87A70470A48006828B1006818B1C17A0029FAD1704700207047000081
:20095C00C81A0020680F0020E8340020BC320020EC320020EC34002038B5264C049D20708A
:20097C00E2712372A1716572C80018F083FBE061D8B1A279D200002118F0FAF9A07918F048
:20099C0079FB206208B9E0690DE0A2791A4D002118F0EEF9A07918F06DFB286050B9E06959
:2009BC0018F060FB206A18F05DFBBDE83240042016F0A6BEA279002118F0DAF904F1E80035
:2009DC0019F038FA2178062015F07CFAFFF767FC2A68A179052017F087F848B1A1790020A3
:2009FC0004E02B680A1A521E1A54401C8842F8DB31BD00BFC81A0020E83400202DE9F84F21
:200A1C00054688B0A978DFF83C67002710294FF0060A3CD8DFE811F0110092039203920341
:200A3C0092033C00CF0092039203F5021501000147039203CB020D038A036878002826D17A
:200A5C0019F0F4F9044619F0EDF9054619F0E6F98DF8000022461021022017F06DF82A46FC
:200A7C001021032017F068F86A460121042017F063F89DF80000012818BF032807D101208E
:200A9C0019F0C8F902460621062017F055F855E368780028FBD195F80CB06C89009000238A
:200ABC00E97801AA01F00101281D0EF081FC00284FF0010875D19DF80400FFF7DBFB814679
:200ADC00BBF1080FF07908BFB846800018F0D2FA050003D1042016F013FE2FE370789DF812
:200AFC00041002280CBF0120002000905B464A462046FFF703FE1422002102A818F038F938
:200B1C009DF804001AFB00F0243002AA102180B216F0EAFFB0B91022FF2102A817F07BFCE6
:200B3C0080B99DF804001AFB00FA0AF1250306AA042198B216F0D8FF02AA09F0010120468C
:200B5C0019F064F9F1799DF804008906E0302A46090E80B216F0C8FF98B92846FFF776FBC5
:200B7C00BA4609E005EB8000018819B18278204617F0C4FA0AF1010AF1795FFA8AF088427B
:200B9C00F0D3707A30B95FEA897003D53178204616F00AFF9DF80400FFF7A9FB284618F0C2
:200BBC0061FA7078022805D1B8F1000F02D0204613F046F9C2E2A888FFF794FE19F022F924
:200BDC000028F7D1307D012808D1FFF7BCFB306A37750422002118F0CBF817E0707D012848
:200BFC0003D1FFF754FC777510E000240AE0306AE5B2415D012904D1E0B2FFF7B5FB316A34
:200C1C004F55641CE0B2B1798842F0D3502017F075FBFFF744FB91E219F010F900280CD0A6
:200C3C00B06900281CBF0468002C07D0286900906B7B2A7B6989E81CA0477EE26889012111
:200C5C0071E26878002840F0EB80A879C10740F1E7800822002105A818F08AF8A88819F046
:200C7C0009F904006FD0D5F81480B8F1000F27D00622002108F1110017F0CDFB58B30622AE
:200C9C000021404617F0C7FBC8B998F8100000F00109BB460BF1010B88F811B000970023A9
:200CBC000022494608F111000EF082FB00285FFA8BF002D10028EDD101E000280BD16F6178
:200CDC00607900F001008DF81A000622A11D05A818F03AF824E0D5F81480B8F1000F1FD0B6
:200CFC0098F8100000F001008DF81A00062208F1110105A818F028F86079012805D10622A0
:200D1C00A11D04F10C0018F01FF8062208F11101A01D18F019F898F8100040F0020060712D
:200D3C00A879410720794CBF40F0020000F0FD002071A879010720794CBF40F0200000F0CD
:200D5C00DF00207106E0FFF7EFFD18B1307804210DF00EFCA9799DF81B00890801F001014C
:200D7C0008438DF81B00A97900970A074CBF0821002108438DF81B0000239DF81A1004AAD2
:200D9C0005A80EF015FBF0B1002400E0641CB179E0B288420AD2F069E3B20622FF2100EBD4
:200DBC00C30017F038FB0028F0D009E0DFF89823107800281DBFDFF89413086804780C466F
:200DDC008DF8104019E06869B8B19DF810001AFB00F023306A46102180B216F085FE60B93D
:200DFC001022FF21684617F016FB30B99DF81A0005A900F0010019F039F89DF81000B1797F
:200E1C00884280F0D280F079800018F033F904001DD1042016F074FC0A27A888FFF762FDCB
:200E3C00B06900281CBF4368002B0FD06A78A888012198476878002808D1A879C10705D50E
:200E5C00B369A8885C683A460321A0476EE19DF810001AFB00F0203005AA082180B216F082
:200E7C006BFE9DF81000FFF742FAF2799200FF21204617F07DFFF1799DF810008906E03062
:200E9C002246090E80B216F057FEF0699DF81030082205A900EBC30017F056FF6A6992B104
:200EBC00107C002302F1110100F0010018F0A6FF6A6942B19DF810001AFB00F023301021D0
:200EDC0080B216F039FEAA6842B19DF810001AFB00F021301C2180B216F02EFE2A6942B160
:200EFC009DF810001AFB00F022301C2180B216F023FEEA68AAB19DF810001AFB00F0243099
:200F1C00102180B216F018FEE86800F110029DF810001AFB00FA0AF12503042198B216F097
:200F3C000BFEF07C08B1FFF714FCB5F80480706A4FF6FF7948B906F1160100910223844A06
:200F5C004946012018F056FF7062716A11B3FF20039002220292019707A800900DF11203A3
:200F7C00F28A404606F094FC68B99DF812009DF8131000EB012290B228B1706A418992B23C
:200F9C004046FFF792F8F28A706A0023494618F02DFF7062204618F065F8307A0028A88854
:200FBC007FF43CAFFFF752FC3AE7152735E7687806281BD1A88818F05DFFB8B1B17C0129AC
:200FDC0004D013D3032907D00CD30FE04179A8880022FFF7EDFB09E00022002140F20940D9
:200FFC0004F0C2FEA888052118F0FCFEB06900281CBF4368002B03D06A78A88802219847F0
:20101C009BE000970023E97801AA01F00101281D0EF0CEF90028F3D19DF804001AFB00FAE2
:20103C000AF1250305F10C02042198B216F084FD83E0B06900281CBF4368002B03D0A8881F
:20105C00002200219847707810B9A88805216AE0A88818F00FFF040070D0A87AC10712D5A6
:20107C00009700236179002201F00101A01D0EF09FF900281EBF60790028012803D0E86806
:20109C00C0F3402028B1F07B022807D1A87A010704D4A888032118F0A1FE4FE06179A888A5
:2010BC0005F1080227E02F7BAD88284618F0E2FE040042D018F0C2FE00283ED10090002310
:2010DC00617901AA01F00101A01D0EF071F928BB9DF80400FFF7CEF807F00C07042F11D001
:2010FC00082F0BD00C2F0FD100F0090109290BD0617900222846FFF75BFB1EE010F0090FD4
:20111C0002D1F5E7C107F3D501220092A37C9DF8041002462846FFF7F1FA0EE07078002862
:20113C00E6D10521284618F059FE06E0FFF7FCFB18B1307804210DF01BFA0127384609B00F
:20115C00BDE8F08FC81A002056350020E834002056D201002DE9F84F012015F067FE01282C
:20117C0016D1DFF860663078002118F033FE040004BF002016F0C4FA00202072201D0EF035
:20119C0003F805F057FF050003D1812018F01EFE13E30120687105F59777DFF82C06DFF877
:2011BC002C264178491C4170A879A0724020317811700DF0D1FE2860616D4A78206DD106ED
:2011DC0019D5816C0A681179032904D00CBF0120002016F095FA206D816C90F86C000A689B
:2011FC0002F1080A01281CBF002016F089FA216D486F29683CE0C16E0A681179032904D004
:20121C000CBF0120002016F07BFA206DC16E90F898000A6802F1080A01281CBF002016F0AE
:20123C006FFA216DDFF8A825D1F8A0002968DFF8A435C8609AF82660032E19D8DFE806F02E
:20125C0002050C0F00F5B06001E000F53470C8601088F887118808E000F5355001E000F6C0
:20127C00B870C8601888F8871988A5F8741102E000F5B060C8602868DFF85C65C168DFF8E9
:20129C005C8501F59071C16006229AF80000C0F3801038700AF1020105F5947017F054FD40
:2012BC0004220AF10E0105F1240017F04DFD306895F8069000F10C0304220AF10E0103EB9E
:2012DC00491017F041FD3068AB7900EB431303220AF1120103F1100017F036FD05F12C09BB
:2012FC009AF8150089F8020002220AF1160105F1300017F029FD02220AF1180105F13200BF
:20131C0017F022FD02220AF11A0105F1340017F01BFDB9F80800688402220AF11C0105F131
:20133C00360017F011FD99F80200B9F80A10400089F802000901B9F80400A9F80A1040006B
:20135C00A9F8040089B2B9F806004000A9F8060003046A8C521CDB0B5A438A4201D280B234
:20137C0030B998F8000080210DF002F93B2131E105F12E01284618F025FD0520A881284658
:20139C0018F01CFD05220AF11E0105F1610017F0DBFC9AF82300400989F8000018F00AFD0C
:2013BC006882618D401AB88105F161019AF82300DFF82C7400F01F0089F80F004FF01C0A1E
:2013DC00284618F0F3FC616D4A78206DD1064CBF816CC16E41F62102086800210171A979F2
:2013FC0038681AFB01F142520021AB791AFB03F303445980AA791AFB02F210444160616D37
:20141C00DFF8E0034A78D1060DD5DFF8DC138A7851060AD5DFF8D423138841F20A418B42C9
:20143C0008BFDFF8CC03C5F89C01D5F89C11284688473A68A97902F10E031AFB01F1585497
:20145C00AA7938681AFB02F202440020D0733968A87901F10E021AFB00F0115C89F80D1027
:20147C00606D4178CA061DD595F8960108B916F047F9A97938681AFB01F1014495F89601AB
:20149C00421E0A74A87939681AFB00F00844002141743A68A97902F112001AFB01F1002277
:2014BC0042522BE0A97938681AFB01F10144206D90F840200A74A87939681AFB00F008445D
:2014DC00216D91F841204274206D3968AB79403001F112021AFB03F34188D15205F5CB71CD
:2014FC000078012200F0030082400A70226D92F84000800814BF0120022008713968A879D4
:20151C00DFF8F0B201F1140231681AFB00F301EB4010D050A87939681AFB00F00844B6491F
:20153C008161DBF814000078C107DBF8141009784CBF1F200F208A07DBF81410097848BF85
:20155C0040F020004A07DBF81410097848BF40F040000A073168AA7901EB421348BF40F09A
:20157C0080001872A979306800EB41120B2050723168AA7901EB42100421A04A81721078DC
:20159C00012806D13168A87901EB40120121D17207E0DBF824003168AA79407801EB42133F
:2015BC00D8723168A87901EB40121F2111763068AA7900EB421100204876A87918F0F2FB19
:2015DC00AA79316852018850AA7931685201885820B90721284618F0E1FBEEE08848AA7905
:2015FC00016801EB021018F0D5FBA8793168844B01EB4012196801EB00105060A9793068E2
:20161C0000EB41125168C9F83C10AA7952018158C9F84410042198F800000CF0A9FF616D1F
:20163C004A783868D10648BF02210AD4A9791AFB01F101440A7C02F00302022A14BF04213E
:20165C000621B9F8042095F806C04FF4C8738A18698AAA615143B1FBF3F35B1C6B611AFB83
:20167C000CFCD5F800E06044DEF80CC040F6C41101FB02C2D21AA2F5A8628260AA79386856
:20169C001AFB02F283189A682B689A6000F10C03AA791AFB02F20C309B5C03F0EF038354E0
:2016BC00A8793A681AFB00F002F10C030C321B5C03F07F031354A8793A681AFB00F002F1F8
:2016DC000C030C321B5C03F0F00343F002031354AB7938681AFB03F31844427B02F0F002D9
:2016FC0042F001024273AA7938682B681AFB02F20244906818613068AB7999F802C000F1CE
:20171C001402686940005B0111FB0C0000F5F660D05095F8960104280DD13068AA7900F1CD
:20173C0014034FEA421C143053F80C20AB795B0102F56162C2503068AA7900EB4210C37CA1
:20175C0003F0F00343F00403C374DBF830003268AB79006802EB431CB9F8062042436423BE
:20177C00B2FBF3F35943A1F59661CCF81C103068A97900EB4110C27E02F0F00242F004024F
:20179C00C276A97938682A681AFB01FA00EB0A01516028460E2118F0F9FA1A490720087050
:2017BC00204614F065FEAA790021204618F0EAFA28681549154A41618261BDE8F14F03F000
:2017DC00F5BC00BFD50F0020780E0020D70F00208E0F0020900F00209C0E0020C70F002091
:2017FC00980E002081010210C00C00209A0F00204DE5011080D10100980C0020CC0F00206A
:20181C00A40E0020C80F002025D10000020480802DE9F04FADF1240D18F0B0FA13F05AFDB7
:20183C00071C0CD016F04AFFC84C00268146062134F80C0F28B1491E06F10106F8D117F0C1
:20185C00BAFE4FF6F878A4F8008067600025A560CB4C26707868E060484617F03BF904F167
:20187C002C0017F099FC2A46C64920611346102007F0CAFD01208DF81900C34E8DF81A00CE
:20189C0003468DF81B504FF480621F4631468DF81C7010200DF11907009707F0B5FD0DF155
:2018BC001A0040F20242012300903146102007F0ABFD0DF11B0040F20342012300903146C7
:2018DC00102007F0A1FD07A840F20642012300903146102007F098FDC849102004F11802C7
:2018FC0007F092FD2178502016F022F8C4490246102007F089FDC3491020FB2240F6480341
:20191C0007F082FD2178502016F012F8009503460422C7490195102007F076FD4FF0FF306A
:20193C00294612F04BFBC349A060102007F06CFDC1491020012207F067FDC049C04A10203D
:20195C0007F062FDDFF800B3E068BE4A00214FF0FF3318F00FFA051CF6D00020029006A950
:20197C0002AA03A812F0CCFA002840F09E809DF80C000DF10E0115F0D9FB002840F09280C5
:20199C00BDF80E00ADF80C0016F072FDBDF80C00102840F0858020789DF8181088427FD1A5
:2019BC00029F38884FF6FF71814279D0387891384AD00F3815D0801E02D02E386DD06FE0C8
:2019DC00787960286CD17A89C14910204FF6FF7307F01AFDA06804210022BEA315F03FFF40
:2019FC005EE0002F5CD0B88917F099FDD4F80880061C03D1B86813F0BBF951E0B968BA899E
:201A1C000EF006FDB0780A210022B7A30090404615F025FFB8890090A0680B210022BAA317
:201A3C0015F01DFFA088401C80B2A0800090A0680C210022B8A315F012FFB86813F098F987
:201A5C00304615F057F92BE078780E3802D0801E1ED025E0B88842F20301814220D1B968AE
:201A7C00491C0A6804A80260496841609DF811009DF81270954904AA00F0BF008DF8110085
:201A9C0047F0C6008DF81200102007F0BDFC07E00820002107F07CF902E0384601F028FFA2
:201ABC00029810B1029817F0FAFCE80FFFF44CAF206918F05BF900287FF446AF206916F02F
:201ADC0072FE051CF4D028786769002800F0DA80401E00F0BB80401E00F09680401E6AD02E
:201AFC00401E35D0401E40F0E9806868002800F0E5800178052940F0E1804068018842F286
:201B1C0051028A4210D042F252028A4240F0D6808778A268002F04BF042187A300F0A68070
:201B3C0080788CA30421A0E08078A26860B9A278C1491020012307F067FCC0B2002800F046
:201B5C00BD8017F040F8B9E08CA3EBE7BC1C00206E683078012829D170688378012B15D0D6
:201B7C0023BB37F00200606120D14FF6FD70B049B04A00900123102007F046FC16E0C046D2
:201B9C00BC1B0020E15E0100855D00005FB94FF6FD70A749A74A00900023102007F034FC5B
:201BBC006769C3B213B947F0020060617068002800F0848080E06868B9087FD30178022923
:201BDC000CBF4FF001084FF00008B0F802A0D0F8109090F9067006790C2016F0BDFF011C54
:201BFC006CD0A1F800A081F80280C1F804900F7201204E7215F068F960E0C0461D7E010062
:201C1C00D96C02100D5202106E68707A38B1CDF800B0A0680421002264A315F020FECDF884
:201C3C0000B08249F2881020002307F0EDFB45E0B9B100002D450210B7950100A18D0100D2
:201C5C0063940100010000C040E2010069680879A268097899B1491E0DD0891E2ED1002853
:201C7C0008BF56A30CD05AA3022100901046002215F0F5FD22E0002818BF5BA3F4D15FA3C7
:201C9C000221F3E76E68A06831680246B1F1004105D06A48091A04D0C81E02D007E05BA36E
:201CBC0000E05FA310460221002215F0D8FD3068B0F1004F02D0706815F01CF8686808B1DD
:201CDC0015F018F8284615F015F8F1E6FD38021099FB01104C32434150204368616E6E65D1
:201CFC006C204F70656E00C052544C53205061636B65742052656365697665642C20636DCA
:201D1C0064496420256400C05061636B6574204C656E3A20256400C04E756D626572206FFB
:201D3C0066207061636B6574732072656365697665643A20256400C0436F6E6E65637469D9
:201D5C006F6E6C6573732043544520656E61626C656400C0456E61626C6520436F6E6E65D2
:201D7C006374696F6E6C65737320435445206661696C65643A20256400C046C053657420FD
:201D9C00436F6E6E656374696F6E6C6573732043544520706172616D657465727320666129
:201DBC00696C65643A20256400C046C050617373636F64653A20256400C046C0426F6E6462
:201DDC002073617665207375636365737300C046426F6E642073617665206661696C656422
:201DFC003A20256400C046C050616972696E67206661696C3A20256400C046C05061697263
:201E1C00696E67207374617274656400496E73756666696369656E74204D656D6F727900D1
:201E3C004164766572746973696E67004D6F010091DC01108B8B0100E96A010001000080DF
:201E5C002DE9FE4F04460020009000250CB915F057FC04F1500841F62300D8F80070388028
:201E7C007D8002223A737A73694620460BF002FE08B9072051E2009901B1B860B86820615C
:201E9C00D8F80400407A13F08DFE25302076207EB873FD73D8F80400017D022904BF002086
:201EBC0015F02EFCD8F80400007D012802D13D747D7406E083280CBF062002203874202058
:201EDC00787404F12406DFF858A4DAF83C0041690868717901EB41010844B0F801207A82B7
:201EFC00D8F80400417848060AD5607DC10604D5E07F40F04000E07702E040F04000607542
:201F1C0007F15C0904F1300089F80050B17E890001F0040189F80010B866607DC10656D526
:201F3C00D8F8042051788A060CD500F0FE006075D8F80400417811F0030F03D1E07F00F0D1
:201F5C00FE00E077607D17F00DFFA075421C387CC0F38001002392B200F0030017F0FEFE68
:201F7C00A0831E20A28B02F59B7393FBF0F01E2101FB1030C0B208B1C0F11E00821802F53E
:201F9C009B7262831E20A28B02F5967293B293FBF0F001FB1030A283C0B208B1C0F11E00BB
:201FBC008018A08380B2E27D618B521E50434018608307F13005608BB4308000386606204F
:201FDC0089F80300E17F41F00801E17720E040F001006075D8F804104A78510744BF40F038
:201FFC0002006075607D17F0BDFEA0750023401C82B2387CC0F3800100F0030017F0AEFEF9
:20201C00A083A08B00F59670A0833D6689F80350A17D207D61F3050007F18801207508701F
:20203C000322607D48708A70B07E800000F0040040F003008870F27ED20002F00802104372
:20205C0088700020C870C7F89000B08BC0F30B00B083D8F80410CA7D40EA0230B0830022BD
:20207C00617D01F0FE0120460BF0C2FE019700271EE01C2010FB07F004EB000B01991C2288
:20209C000BF1640016F060FE0BF16C00052101717F1CA28B92000260FFB2DAF83C104A6922
:2020BC007379116803EB43031944B1F801204281E07D401E8742DCDB019F20460FF0DAFB6C
:2020DC00E07D012809D013D3032808D03EBF04F164007860C8F818500AE07D6008E004F1A2
:2020FC006400786004F18001C8F81810C8F8345041F6240038860021798607F13C05B86854
:20211C00618B00EB8100B8630221822028706970002194F82100E97000F03F00A870D8F8BC
:20213C000400807D012818BF022805D100F07F00401E2871697106E083280CBF062002209E
:20215C002871202068714FF0000BDAF83C0041697279086802EB42021044B0F80110E980AD
:20217C00C7F86CB0D8F80400417811F0030F20D017F0F0FDF866DAF818000078C107DAF88A
:20219C00181009784CBF1F200F208A07DAF81810097848BF40F020004A07DAF818100978D2
:2021BC0048BF40F040000A0748BF40F0800089F8140089F815B0D8F804105A4A897C01F06B
:2021DC00030189F81510B07E800000F00400014389F81510F07EC00000F0080040F0100047
:2021FC00014389F81510107848B199F8140041F0400100F0FE0089F8151089F81400E07FB9
:20221C0017F0B0FD84F82000204617F09FFDE07FC10638D5D8F8040094F820204178521C4F
:20223C0088074EBFD21EF07F12182879C0F380010023D2B200F0030017F090FD30801E226A
:20225C00308800F59670C0F11E0190FBF2F21E2000FB02113171D8F804104878810731889D
:20227C004CBF00204FF49B7040183080708031883279B86B5218A63200EB8200786702209A
:20229C0089F8170003E0C7F874B089F817B004F13000C7F8800007F18400D8F804104A78F6
:2022BC00510707D504F13802026099F8150040F0200007E01C490A685168016099F81500C9
:2022DC0000F0DF0089F81500A17F94F8200060F30501A17740F60B002882A5F812B0DAF824
:2022FC003800008880007865DAF83800008800281ABF0721297728770221697794F84500D7
:20231C00E883D8F804104878810744BF0120E883009808B10BF03CFB0020BDE8FE8F00BFE7
:20233C0080D10100880E00206C0F00202DE9FC47D44C0F460546F80B80F006826078DFF81B
:20235C005883B90F80F0AA81B90880F09D81F90A80F00281390B80F0CC80380907D2F80FBD
:20237C00C0F0288227F0804710F08EFE22E217F0CEF8814615F072FF002800F0B4800820FB
:20239C0016F0B0FF002840F0AE80802016F0AAFF002840F0A88068460EF0B8F9012803D1BD
:2023BC000098002800F09F8094F83102002840F09A8000250126E8B216F0B2FC48B1837A71
:2023DC003BB1867290F9090006FA00F0C0B214F029FB6D1C032DEED3032084F8200004F5AF
:2023FC00C47017F08EF8484617F0ACFCD34800252A460168056050F8081CD14940F8085C23
:20241C0004F15C0015F04AFE40460068006B8047A168401A010BA06AC1F1FF3282422CBFD7
:20243C0008444FF0FF30A06294F82C0020B12069A16AB1EBC02F25D915F020FF294600B1DA
:20245C003146081C1BD0BF4840F6090101804580417B06F00F0221F00F010A434273017BEB
:20247C0005F00F0321F00F0143EA010202732946416016F0DFFD418811F4406FFBD084F8BD
:20249C002C60A56213F0ECF8CE4829460560022015F092FC022014F0C1FE11200CF03EFCBB
:2024BC00207818B96068483017F06BF8C648007810B90E200CF032FC94F82D0020B184F840
:2024DC002D50052014F0AAFEC048606284F82050B4F9B000B4F9B210884214BF022007202A
:2024FC000FF00AFA02E0484617F02CFC27F008073AE720B1042014F091FE00206070656892
:20251C0014F074FA38B12846ED696FF4807100224FF00073A847E06858B140460068006BBF
:20253C008047E2686168801AC860000BC8600026E660A74904F15C00002215F0AFFD02210D
:20255C00D4F89C0084F8201018B104F1DC0017F02EF827F4006707E716F0D9FF064615F0E5
:20257C007DFED4F894100028894600F08480002900F081809749042504F15C00002284F857
:20259C00205015F08BFD304617F0DCFB04F5C47016F0B7FF40460068006B8047E0604FF046
:2025BC00010884F80180284614F050FED9F810006060D9F81000416AC90803D3036A294689
:2025DC0000229847404611F00BFC606880F8158060680CF01FFD6568D5F808A040F60A0217
:2025FC00D01F564600F1010C00E01E46736833B119888A4203D0884218BF8C45F5D100219A
:20261C007160727B08F00F0322F00F0213437373D9F80C201288904224D06046904221D0B1
:20263C002B8E03B3696305F13002518095F83C0001F00F0320F00F00034385F83C3095F8A3
:20265C003D0008F00F0320F00F00034385F83D307260707B01F00F0520F00F0045EA0001B7
:20267C00717300E0E160504616F0E4FC5146404615F0A2FB02E0304617F064FB27F480673E
:20269C0098E0C046E00F002008F0F6F8D4F89C0008B927F002078DE08C0100104E4A116847
:2026BC0041F08001116020B1042014F0B7FD0020607016F02CFF8246D8F854000168042094
:2026DC008847D0B1287DC0B1A068B0B18146D8F800002E69006B8047A0EB09002861000B87
:2026FC002861B04202D280194008286140F6C41181422CBFB0F5967F2961504617F022FB4E
:20271C0014F074F980B1EE6928466FF4807100224FF00073B047D4F89400002808BF47F091
:20273C00020701D010F0B0FC2846AD6900214FF080630A46A84727F000573BE01410044000
:20275C005D4201003434002016F0E1FED4F8AC6066B306F1280106C90A234FF0E0450B4094
:20277C00154008BF002B21D106F1280191E8000306F1280595E8060006F1280322EA090288
:20279C0021EA080183E8060017F0DCFAB16879B1B9F1000F08BFB8F1000F09D03069B6F91F
:2027BC003010B5684B464246A84701E017F0CAFA27F4804727B104F1DC00394616F0F7FEE7
:2027DC00BDE8FC870000046082D00100E5D6000021CE000059820100CC2108402DE9F84FE6
:2027FC00DFF84C54A9780024FF2904BF002014F087FFA87816F058FA054605F1680605F54B
:20281C00C97A3168086805F1900708B1EC8311E0B07B002804BFB07E00280BD13978002988
:20283C0004BF9AF80000002804D1287F012804BF688CE8832989E88B4118491C69812846FD
:20285C0017F07CFA01281EBFDFF8E8030178012903D12989EC83491C69814FF6FF79B07E45
:20287C0001280DD1B28B6989288917F063FA38B1298968894A1C93B298422FD0B08B23E0A3
:20289C00387801280DD17A886989288917F052FA38B1298968894A1C93B298421ED078886E
:2028BC0012E09AF80000012818D1BAF802206989288917F03FFA88B1298968894A1C93B228
:2028DC0098420BD0BAF8020092B2904206D04844688180B217F02AFA4844E8839AF800002C
:2028FC00012813D12889BAF80210401C80B288420CDB9AF805408AF8044002208AF80000BA
:20291C002346A979224600200BF0CCFD05F59A71087920B128890021401CE9836881B07EBC
:20293C00012813D12989B08B4B1C9BB298420DD1688117F0FBF9074605F12E008188308CFB
:20295C0001FB070728460FF097FA02E005F12E018F88E98BDFF8E092481C474340F6C41878
:20297C0008FB07F200922A680098D368C318D360B24A106803789B09032B23D199F80F20C5
:20299C00AF48D3070AD5002202804FF4C873688A7843B0FBF3F35B1C6B611BE00288521CD5
:2029BC00028092B2012A03BF05F59A70C08800F2DC50688A78434FF4C872B0FBF2F0401CCB
:2029DC00686107E0688A78434FF4C872B0FBF2F2521C6A61AF6185F820104FF01C0B994F2E
:2029FC00AB79386800F108021BFB03F3D1582A68116100F10801AB79D26868691BFB03F38E
:202A1C00121ACA503868AB7900F108021BFB03F3D1582A68916000F10C02A9791BFB01F1B4
:202A3C000C30535C03F0F00343F0020343543968AB798A1C1BFB03F30021D1529AF8040089
:202A5C0008B914F05DFE3868AA7900F110019AF804001BFB02F240088854A87939681BFBD9
:202A7C0000F00844002141749AF80400042813D1A87939681BFB00F001F110021031135C06
:202A9C009AF8082043EA82030B54AA7938681BFB02F20244202050743968A87901F1120270
:202ABC001BFB00F0002111526749A8790A6802F114034FEA401C143253F80C00AB79D5F800
:202ADC0014C05B0100EB4C00D050B07E02280DD10A68AE7902F11403760114329859AB79A8
:202AFC0095F82E605B0118FB0600D05005F12E0299F80F00C30759D53868AE7900F1080488
:202B1C001BFB06F60830A359AC791BFB04F4A3F5A86303513868AE7900F108041BFB06F653
:202B3C00A3592C68A36000981B1A23610868AE7900F1140476011430A359AC79640103F5BC
:202B5C00F66303519AF8040004280BD10868AE7900F1140476011430A359AC79640103F535
:202B7C00616303510868AC7900F1140364011859C5F83401354B186B0C68AE79928800689C
:202B9C0004EB461642436424B2FBF4F408FB04F0A0F59660F0612E480278012A30D10868CD
:202BBC00A97900EB41120120D07230E0042C0BD10868AE7900F1140476011430A359AC799E
:202BDC00640103F5616303519AF804000B68AE7904280CBF4FF4AA504FF4E66003F114046B
:202BFC007601A359181A938808FB03F3A3F516739842BFD30821284617F0D0F8012015E0F7
:202C1C00586A0968AA79407801EB4213D872A87939682A681BFB00FB01EB0B0050600721CB
:202C3C000C48017028460FF061FF0020BDE8F28F780E0020D10F0020980C00203C0F0020CB
:202C5C0042350020980E00209C0E002080D10100CC0F0020C80F00202DE9F04F0F467806C5
:202C7C0089B027D5DFF808241078002117F0B2F804001FD0DFF8FC0301688847054616F054
:202C9C00C1F96168884204BF40F2014017F04AF800202072201D0CF077FADFF8DC130A68B8
:202CBC0028469047204613F0E3FBFF223C21204617F068F8F80508D5022016F04AFC08B120
:202CDC000AF01DF887F48070CFE1B80604D50EF0DCFA87F02000C8E1F8070CD516F092F992
:202CFC0030B100218160DFF89403006800B1804787F00100B9E1380704D50EF0DEFB87F00F
:202D1C000800B2E1F8060FD50021002200230691059204910393029101920091022016F07C
:202D3C00FDFF87F01000A0E1B8070FD500210023069105910491039302910191009101225B
:202D5C003C2016F0EBFF87F002008EE179074FF01E08CB4EDFF82CA340F1CD80CA480022CD
:202D7C00002108920791007817F034F80446C7488178FF2904BF002014F0C2FCA07A15F0FB
:202D9C0093FF05469AF8000095F82E91002805F5947B69D0606D807A022818BF032807D127
:202DBC0030680D3016F0B6FF10B93068C11D07915946484616F0AAFFA0B3606D807C3368FD
:202DDC00002818BF012804D11946584616F09AFF04E05A464946184617F050F8FF2843D044
:202DFC0018FB00F83068404406225946C01D15F0ABFF306810F80810404400F1010BC01D27
:202E1C0041F0020908900622616DC87A00F0010085F82E01606D00F10C0105F5947015F01F
:202E3C0093FF21E05946484616F068FFE0B130685A46494617F022F8FF2815D018FB00F8B9
:202E5C00306840440D3016F065FF58B9306840440D3016F05FFF002801BF30684044417F01
:202E7C00012901D149F0020905F12C004B46017806914289120905920122698C0491C088C1
:202E9C000899029140080390CDF800B0079801900020A97916F042FFD5F89C017C498842E0
:202EBC00A8790CBF0021012116F024FF7948AB7902682C214B43134401221A73AB790468DD
:202EDC004B4323445A73AB7904684B4323449A73AB7904684B432344DA73AB79006811FB18
:202EFC0003F10144002008740720A97909F077FD87F00400B9E038060FD50021002306911A
:202F1C0005910491039302910191009101223B2016F004FF87F08000A7E0F8045DD55E4944
:202F3C0030680C680D3016F0F5FE002844D13068C11D0D3016F0DAFE3EE0606D4178480772
:202F5C0004F13E0526D5287802281EBF03286878012830D16978306804F1380216F08EFF0B
:202F7C008146B9F1FF0F15D0306818FB09F948440D3016F0CFFE68B930684844C11D0D3028
:202F9C0016F0B4FE30684844C11D062204F1380015F0DAFE2878022818BF03280BD13068E9
:202FBC000D3016F0B7FE30B93068C11D062204F1300015F0C9FE2468002CBED13748DAF8ED
:202FDC00042000784FF4805112F096FE10B18E2016F088FE87F4805047E0B80505D516F085
:202FFC0021F92F4901200860FEE7780504D510F0F2FA87F4806038E0780405D5812016F003
:20301C0071FE87F4804030E0B9042DD5254C206810B1002014F074FB4FF0FF3020600020C0
:20303C00214C0FF04FF9216851F8202F684690471E494A6B086BC96A24681D4B0192009041
:20305C000293ADF810106B461A4A1B491B4803921B4A079225681B4AA8471B49086005F0E9
:20307C00AFFD87F4005000E0002009B0BDE8F08FD50F00206C1C0020701C0020480F002011
:20309C00680F0020880E0020D70F0020780E00204DE50110C43400204C0F0020C70F00204F
:2030BC007C052043380F0020200F0020801D00200190010011900100E421002028080020F4
:2030DC001EFB0080EC0A00201C0F00202DE9F84F0546DFF81804DFF818640278002A84B014
:2030FC004AD0052A58D0062A61D0072A18BF082A00F0DA800A2A00F0CB81112A02D0132AA4
:20311C0052D0E9E1DFF8EC331878002116F062FE04001EBF606D407810F00C0F2CD0216D8F
:20313C00C0064CBF886CC86E0622016801F10805A91C684615F008FE287800F00F0105299C
:20315C001AD16946C0F3801016F0E0FD002813D03168684616F0D6FD0546316804F1380057
:20317C0016F0D0FD85420DD0606D4178C80604D440F2014016F0D6FDB4E1607B40F00200A2
:20319C006073AFE133681E204543581906226946C01D15F0D9FDA5E116F0E1F90028FAD1F6
:2031BC00012016F09BFD9DE10AF023F99AE1DFF84853286816F08EFD0400F7D02079032803
:2031DC00F4D1207A00F00F01072938D1DFF82C0300684169497A4A1E11425ED0617A04F1A7
:2031FC000A035A5C02F03F02252A56DBA17A8A09012A52D111F03F0F4FD0007C15F054FD01
:20321C00E17ACA074CBF04F1110204F10B028B0748BF921D0B0748BF921CC90648BFD21C7E
:20323C001621127852094A43B5498B180A31EB608A5A428699898186DA89C2862DE000F025
:20325C000F00082829D1A17A880926D129B3AB480168087C15F028FDE17A074688071CD568
:20327C00062201F001015143601800F10C01684615F06AFD207AC009FF280ED0694616F0D6
:20329C0045FD50B1306800F10D01684616F01EFD18B90521384616F081FD2079032802D0DA
:2032BC00002014F02DFA13E1DFF8589299F802000024FF2821D015F0F7FC804608F16C07F9
:2032DC00786816F007FD029029460279032A01D0080012D00298826813788DF8003003F0CD
:2032FC00030001909DF80000830604D50124019820B97868EDE00800F9D0F3E0557802F17F
:20331C00020A24B31AF8010B7F4A136803902C2098F806C010FB0CFC9C4401238CF8053047
:20333C00002998F806C0136810FB0CFC9C44039B03F01F038CF81A3098F80630126810FBB8
:20335C0003F01044039AC2F38112C2761BD10198032808F2171B1BD0B5B1387868B108F1FE
:20337C00F400017801290FD1604A1178072904D0082904BFC078012806D13D2101208BF855
:20339C0001108BF80000ADE060490A78012AFAD098F8940090B32D1FEDB29DF80010534640
:2033BC002A4640460EF0AEFB00281EBF58490878002809D101203D218BF800008BF8011096
:2033DC00306816F07FFC8DE0524801688847064698F80610D9F804204FF4D0704143501823
:2033FC00002280F8412108F59E700168807949080EF0A4FF48490A6830469047029800214B
:20341C0081600198032819D04448416909788A0709D541690878C1074CBFE81C28461AF85B
:20343C000000387201E0812139722A460198C3B299F80200514607F01DFC21E09AF800004D
:20345C001CB11B2804BF022D01251C2803D234490B5C9D4206D08BF802000721404616F03D
:20347C0095FC0AE02148017808295146404602D116F049F801E000F059F8504611F078FC3E
:20349C00786816F01BFC0299404616F013FC29E0244C207830B3244D286816F01BFC08B310
:2034BC00017903291ED1017A8A0611D5807AE178C0F38112914202BF217900F01F008142D1
:2034DC0006D1A078002801BF607800280121A170286816F0F3FB05E0002014F011F9862089
:2034FC0016F074FC05B0BDE8F08F00BFC80F0020680F0020D50F0020BC0A0020540F0020A7
:20351C00E0070020780E0020C4340020D20F0020533500206C1C0020701C002080D101007B
:20353C0018D201006C340020AC0C00202DE9F043044685B0084611F801CBDFF8A483DFF82C
:20355C00A4332C22BCF1030F4FF0000904F5A47704F1660504F1F40600F0C380BCF1070FCA
:20357C0000F08081BCF10F0F0CD0BCF1110F00F02481BCF11A0F00F03681BCF11B0F00F0F1
:20359C0061818EE1707A820703D40F2184F8191159E008784A7800EB02233B808878CA7816
:2035BC0000EB02237B8008794A7900EB0223BB808879CA7900EB0223FB80087A38724A7A96
:2035DC00887A02EB00237B81C87A0A7B00EB0223BB81487B8A7B00EB0223FB81C87B0A7C91
:2035FC0000EB02233B82487C8A7C00EB02237B82C87C0A7D00EB0223BB82487D897D00EB3D
:20361C000122B948FA8201788A0658BF4FF01A0913D504F5AA70049079890391387A029003
:20363C0021890191F8880090BB887A883988204616F03CFBC8B14FF01E09707A410706D48E
:20365C000F2084F81901204616F02CFBF0E04A460F21204616F022FBF8880090BB887A8888
:20367C00A179484611F034FAE9E004F1860079888180BA88C2800222F98801810270A0F85C
:20369C000290A18EC91DE983628E8188B1EB520F02BFC188A28E914202BF0089E18EB0EBA4
:2036BC00111F1CD0287C012804BF687C0F2809D0687D00281CBF687C1A2803D00F21A9761E
:2036DC00FE2176E0FC21204616F060FBF8880090BB887A883988A07916F0DCFAAFE01021AA
:2036FC0067E0707AC20709D431781A200129707002D1FF220D213BE00D215AE085F8009038
:20371C0085F8069001233371082204F1B00016F0BDFA0146022204F1B80016F0B7FA04F162
:20373C00A80801460822404616F0B0FA07460821404616F0A7FA04F19C08042239464046AF
:20375C0016F0A4FA0421404616F09CFA04F1A00016F094FA04F1980016F08CFA63480188EC
:20377C0041F0800101803078012805D1FF220421204616F07BFA62E06E7C0F2E18BF142EAA
:20379C0004D00E2E1CBF0C2E1A2E11D12F7C204616F068FA0421204616F0F8FA012F05D1BC
:2037BC001A2EAE7614BFFD21FB2102E0314600E00421204616F0EAFA41E00E783E761A2E23
:2037DC00497879766DD11868A679411C564301F806901968A37912FB03F20A4482F80490C0
:2037FC00A179787E56E0A77918680E785743074406F01F0117F8210FB60938B17878F0403F
:20381C00C00703D594F89601042805D120221A21204616F043FA12E0F970A179186812FBA0
:20383C0001F28118204681F82360002115F09BFE28B998F800004FF480410AF099FE4FF07A
:20385C00010932E0A179186851430144C88808B981F80190A179186812FB01F2811881F8F6
:20387C000490ECE709780F2917D01A2919D1A1791868514301441A2081F80190A1791B68A4
:20389C0012FB01F2991881F80490F17A01F0FB01F172A1790DF056FED1E7717A01F0FD0196
:2038BC0071720146204616F0D9F9687C1A2812D1A87C17281CBF1028FC280CD12E7C2046F4
:2038DC0016F0D0F9012E03BF1A20A876FB211A21204616F05BFA484605B0BDE8F08300BF82
:2038FC00C70F0020C4340020200E00209C0F00202DE9F04F0546AC4CDFF8A892A978A068B3
:20391C00ADF15C0D002900F09380491F4FD0491E00F0328113392BD0491E16D0491E40F09C
:20393C003A81E97879B9002000900121019102909A490390A2781423102005F065FDC0B267
:20395C0000282AD127E199A30BE0E97841B99449A3781020012205F057FDC0B2E8B91AE1FC
:20397C009CA3E97800220091042113F078FF12E1E978A9B903200B2704F12006BF498DF886
:20399C001000A2788DF8117004AB0596102005F03BFDC0B2002800F0FE8015F014F9FAE040
:2039BC00E978002296A3044600910421E2E0B449102005F029FDC7B20097A06802210022C8
:2039DC009BA313F04CFF687808BB0DF03FF9002080460090AB49CDF804806A894346102008
:2039FC0005F012FDA8496A891020012305F00CFD404610F053FCA668281D11F037FA009087
:203A1C0002218FA34246304613F029FF02E0012010F044FC627837B900234946102000938A
:203A3C0005F0F2FCB7E09949102005F0EDFCB2E06978002940F0AF800221002284A313F096
:203A5C000EFFDFF84CA25146CCC90EA8CCC00EC9671C80E80E000EAB1020DFF83CB28D49B6
:203A7C0000975A4605F0D0FCC0B208B115F0ABF80E2704F138000097884901906278002307
:203A9C00102005F0C1FC04F13808C0B208B115F09AF8142004F146060090804901966278F2
:203ABC000123102005F0B0FCC0B208B115F08BF862787B491020922305F0A6FC002600966C
:203ADC00627810204946334605F09EFCC0B208B115F079F850461C30B0E80C5006A9A1E87A
:203AFC000C500DC881E80D00A01C5A4606AB69490090102005F088FCC0B208B115F063F880
:203B1C000097CDF804806549A2781020334605F07BFCC0B208B115F056F8A278604910205B
:203B3C00922305F071FC0096A27810204946334605F06AFCC0B208B115F045F850204027CB
:203B5C00ADF810005749A278ADF8120004ABADF81470102005F058FCC0B208B115F033F877
:203B7C00A468A81D11F082F93FA132463BA30091012101902046F8E6022100223BA313F0F8
:203B9C006EFE0023009362784946102005F03CFC032010F083FB17B0BDE8F08F2F4F010016
:203BBC00217D0100ED740110BC1B0020456E61626C6520506572696F6469632041647665AB
:203BDC0072746973696E67206661696C65643A20256400C053657420506572696F64696326
:203BFC00204164766572746973696E672044617461206661696C65643A20256400C046C041
:203C1C0053657420506572696F646963204164766572746973696E6720506172616D657483
:203C3C00657273206661696C65643A20256400C04E756D20436F6E6E733A20256400C046BC
:203C5C00436F6E6E656374656420746F20257300496E697469616C697A656400257320418B
:203C7C006464723A2025730044657600446973636F6E6E656374656400C046C06F6C010068
:203C9C00615F01009B8E0100BB9501006502021060CB010099010110B37C0100D5D70000A0
:203CBC001DEF0110E95501002DE9F84FDFF8A4030278112A03D0122A00F0C581C7E1DFF838
:203CDC0098331878002116F085F805000AD1002013F016FD002013F013FDBDE8F24FFF207B
:203CFC0016F074B805F14C0A9AF8000008B90121E972401CDAF808108AF800004A78D106F9
:203D1C00DCD4E97DDAF80470C2B28A424FF00008D4D305F1280407F1900907F17306C346D0
:203D3C0040F08C80A87F7075E97FB175DAF808205278930710D5EA7FD30604D5C01E707570
:203D5C0001F0EF01B175C7F874B086F800800022B17D01F0FE0171E1910608D4E08B00B13E
:203D7C00E07E3076E08B00B1206AC9F80000DAF808004178CA070DD5E08B00281CBF206A7E
:203D9C00002807D0C9F80000A17EE08B814238BF08463076E87FC1060CD5B86B217800EB59
:203DBC008100B863A98CA63100EB810078670220307003E0C7F874B086F80080DAF8080094
:203DDC00417811F0030F22D1007815F0C4FB5FEA00081CD098F8B000032809D1E87F81065C
:203DFC0015D440F02000E877B07D40F020000DE068B9E87F81060AD500F0DF00E877707D9C
:203E1C00A0F112017175B07D00F0DF00B075E97F002201F0FC01284609F0EAFFB8F1000F5B
:203E3C003DD0E87F81063AD598F8B000022836D141462846BDE8F44F15F099BBE87F8106C7
:203E5C000AD500F0DF00E877707DA0F112017175B07D00F0DF00B075DAF808004178C8073F
:203E7C001ED5717D891E717501F03F01B07D00F0F700B0758207717504D4891D717540F04B
:203E9C000200B075B07D410605D5727D511E717500F0BF00B075C9F800B086F81880D6E03C
:203EBC009AF80020E87D121AD2B28907009240F18280012A07F140083FD1B86BA98C00EB0C
:203EDC008100B863A87F00F03F00A8777075E97FB175DAF8082053785A0704D5801F7075BF
:203EFC0001F0FD01B1750023707DE17E00F03F00421898F80000521CC0F3800192B200F033
:203F1C00030015F02BFF00F59B70A8841E21A88C90FBF1F18AB2B17D01F0FE01284609F086
:203F3C0067FF86F800B0E08B00B1E07E3076E08B00B1206AC9F8000089E0B86BA98C022A5D
:203F5C0000EB8100B86326D1E87FC10706D5707D811F7175B07D00F0FE00B0750023707DFA
:203F7C00E17E00F03F00421898F80000521CC0F3800192B200F0030015F0F0FE00F59B70E1
:203F9C00A8840022B17D01F0FE01284609F030FF607FA8F81A00617F0098491C081AC0B2F9
:203FBC0001281CDDAA8CB96BA63201EB820179670221317014E0B86BA98C00EB8100B863AB
:203FDC00617F0098081AE97FCA06C0B207D5AA8CB96BA63201EB8201796702213170B0B3FD
:203FFC00D9F80020E37E95F81F80A97F1A44C9F8002028F00108DAF808205278530748BF7A
:20401C0028F00208920748BF28F00808012807D1207F3076C7F874B028F0100886F800B013
:20403C0001F0C004404615F09DFE00F03F002043707586F81680002208F0FC012846BDE8D4
:20405C00F84F09F0D5BEBDE8F14F08F0C9BCBDE8F18F00BFC80F0020D50F00202DE9F041E9
:20407C00FF2806462AD115F01FF910F01F0F22D0042012F083FC08B1042016E0012012F0DE
:20409C007DFC08B1012010E0022012F077FC08B102200AE0102012F071FC08B1102004E0F9
:2040BC00082012F06BFC20B10820BDE8F04112F0D7BE13F025FB0020BDE8F08112F0D0FEC4
:2040DC008046012ED8F8044046F2A81740F6C4100BD0022E5DD0042E00F0AB80082E00F00F
:2040FC00F380102E00F04281E5E7DFF8000301688F88102012F042FCE8B1102012F0B0FE31
:20411C0005466E6846B9022012F038FC20B1022012F0A6FE05466E68012012F02FFC40B112
:20413C00B068A0EB8701A06814F028F808B94046C2E72846C0E7022012F020FC90B1022064
:20415C0012F08EFE06460120756812F017FC38B1A868A0EB8701A06814F010F80028E6D058
:20417C003046A9E7042012F009FC08B10420E7E7082012F003FC30B1082012F071FE4168FB
:20419C00002999D1D3E7012012F0F8FB002893D0CDE797490A689749D3690A7802EB820200
:2041BC009E18F7884743042012F0E8FB07F5166788B1042012F054FE06460220756812F0A4
:2041DC00DDFB0028CCD0A868C11BA06813F0D6FF0028C5D1ABE7082012F0D0FBD8B1082065
:2041FC0012F03EFE05466E6846B9012012F0C6FB20B1012012F034FE05466E68022012F0F6
:20421C00BDFB002895D0B068C11BA06813F0B6FF00288ED18BE7012012F0B0FB08B10120E8
:20423C00C8E7102012F0AAFB08B11020A5E70220AAE771490A68714953690A7803EB02168A
:20425C00B7894743082012F099FB07F5166780B1082012F005FE05466E6846B9012012F0A0
:20427C008DFB20B1012012F0FBFD05466E680420C5E7012012F082FB28B1012012F0F0FD34
:20429C00064604209AE7102012F078FB80B1102012F0E6FD05466E6846B9022012F06EFB79
:2042BC0020B1022012F0DCFD05466E680420A6E7022012F063FB28B1022012F0D1FD0646A9
:2042DC0004207BE704205FE715F041F908B1D0F89070042012F052FB58B1042012F0C0FDB3
:2042FC0006460820756812F049FB002818BF002C68E7012012F042FB60B1012012F0B0FD50
:20431C000646082012F03AFB002818BF002C3FF427AF0CE7102012F031FBA8B1102012F0C6
:20433C009FFD05466E6846B9022012F027FB20B1022012F095FD05466E68082012F01EFB74
:20435C00002818BF002C5DE7022012F017FB58B1022012F085FD06460820756812F00EFB91
:20437C00002818BF002C2DE708200DE7032015F0F0F808B1D0F89870022012F0FFFA50B10F
:20439C00022012F06DFD0646102012F0F7FA002818BF002CBBE7042012F0F0FA28B104202A
:2043BC0012F05EFD0646102008E7082012F0E6FA80B1082012F054FD05466E6846B9012022
:2043DC0012F0DCFA20B1012012F04AFD05466E68102014E7012012F0D1FA28B1012012F078
:2043FC003FFD06461020E9E61020CDE6D8340020500F0020D80F0020540F0020D90F0020FA
:20441C002DE9F04F0546A878ADF11C0D022840F0A681C74C28882188222814DC222800F098
:20443C007B81002800F09B81C01E00F09481401E00F08E81DFF81493401F0C280DD91738AA
:20445C0000F0718118E0273863D0401E2CD00A3817D0001F00F058810EE0DFE810F075013E
:20447C0073014C0171016F016D016B0167010D000D00E500DB006700A868002800F06F81E2
:20449C004FE0A8680028014600F06981206A002800F065810A88805C400803D2B1A014F010
:2044BC0049FC5CE1092058E1A8680746B978012925D1A18CB7F8009097F803A007F10408AC
:2044DC000126090A1CD3B8F1000F19D0216A19F80110490814D3042014F03EFB041C01D1BE
:2044FC00A8680DE0A4F80090A01C414652460BF08FFF0820214613F0E1FE0026F0E7062679
:20451C003988ADF80010B9788DF803608DF8021007E0A86828B181780288082010F012FECE
:20453C00A86812F0E7FB0020A86018E1AE68B07A0690708814F06EF837793FB9002858D01A
:20455C008178012904BF0021817052E020B181780129E5D00121817030782077707860775B
:20457C00307A4F46A07796F808B07078B6F802807873707806F10B02022836D0307AB17A8F
:20459C0012F0BCFC0028CBD1D9F80840404614F041F850BB2C2014F0DFFA071CC0D000219D
:2045BC002C220DF0A2FD062014F0D6FA3862D9F808A0B0B1002106220DF097FD0023A7F8EB
:2045DC0000800120BB62BAF1000FB87008BFC9F808700AD0A06A002808BFA76205D0044624
:2045FC00F8E7384612F086FB9AE789F80CB013F053FA069C0934204614F0AEFA5FEA00086F
:20461C008ED0B11C22460BF003FF1220414613F055FE85E7A968002900F0A180A08C000AF2
:20463C00C0F09D80072098E0AE68B01C3178C77921777178617740790837A077384614F03D
:20465C008BFA5FEA00083FF46BAFB11C3A460BF0DFFE94F81EB094F82F70607F08F108028F
:20467C004C460228607306D098F80710584612F045FC002837D1206880BBB80000EB47163E
:20469C00304614F069FA206020B90120002104F07FFB2068002132460DF027FDF7B1B9462F
:2046BC0000273E46D4F800A0062014F055FA0AEB0701C86148B90120002104F069FB216804
:2046DC00B00000EB46104018C069002106220DF00CFD2437761CB9F10109E3D184F80CB070
:2046FC0013F0DAF901E0052801D006208EE724A014F020FB14E74FF6FF7088422FD1A968E1
:20471C00088820800C2028E002A80EF00FF9039F01970298009022E094F83200401E84F86B
:20473C003200052018E014F041FB18E0112010E0D814002010200CE00F200DE00E200BE058
:20475C000D2009E00B2004E00A2005E0142200200320002101E00220A96813F0AFFD07B0F5
:20477C00BDE8F08F436F6E6E48616E646C6520646F6573206E6F742065786973743A20003C
:20479C00416F41206661696C656420746F20696E69742C20737461747573203D200070478C
:2047BC002DE9FE4F0422FF21684614F0E1FADFF85863B0780024FF2800F0A38114F074FA1C
:2047DC000546B07814F0F6FB019005F217100178012908BF417800F0DF8005F1740005F5D0
:2047FC009279817B022904BF05F174018C7395F89201022805F1740008BF85F89241017FF3
:20481C00022904BF05F174010C77B9F80E1019B199F80C0009F0ACFE6889BC4E288105F529
:20483C008D77B27AF079317B80184118F07A0818717B00EB010AB8883988401CB880514490
:20485C007888398010187880D9F80000F0B1B04995F806E00B681C2103F10E0C11FB0EFEAF
:20487C000E331CF80E1030F811C0D44420F811C01C2195F806C011FB0CFC13F80C3000EBD9
:20489C004300B0F84A105218A0F84A2012F096FCF079DFF880B2002804BFF07A002805D1F2
:2048BC00307B002804BF707B00282FD00199CC812A89E8892C748218287FAA81012804BF31
:2048DC00688CE883A9790122072008F088F8A046707878B1012105F1740229779078002824
:2048FC0002BF05F17401887B002803D1087F08B9688CE88399F81400002856D0022804BFEA
:20491C00F07A00284CD189F814404EE0A9790022072008F064F8EC83B07A40B1297F2C7438
:20493C0001294FF0010825D1688CE88322E0F888401CF8804FF00208287CD8B1DBF80010E5
:20495C00AB7995F82EC001F114026969490040F6C4105B0110FB0C1101F5F661D150A8795C
:20497C00DBF8001001EB4010C17C01F0F00141F00401C174A8892989814206D08842A7D2B3
:20499C00081A41F2AB029042A2DA287C08B1052901D0082100E03E21284615F0FFF9B0E0EC
:2049BC00707A10B1022189F81410F07BC1070DD529683069C86000F59070C860AA79DBF8EE
:2049DC00000000F1140152018C5014E0DBF80010AB7901F114025B01D058C9F810004C489A
:2049FC00AB7901681C2001F1080243432968D058C860EC832C77484A50690078810702D53B
:204A1C00B07B802800D1812005F17409434989F8000091F8200018B12946012000F028FAA1
:204A3C0028460AF00DFC02281CD199F80700022805DB6A463A4928460FF072F9044628466D
:204A5C0015F008F901285CD020000DD02246694628460FF08BFD38B928460AF0F1FB012868
:204A7C0002D14EE001284CD00121284615F0EEF8284615F0E7F8FDF7B1FE012841D02846BC
:204A9C0010F022F900F092FB264E3068002838D0B088AA7990421CBF4FF6FD71884230D1A0
:204ABC002148007B14F0EEFA04002AD084F80080A8791E4960800A68A879115C217105F51C
:204ADC00C9721079607199F90010A171A4F808A07888608114F096FA050005D1FF204FF07F
:204AFC00FF312073216109E02878207315F0A6F80146A86815F09EF880082061204631689C
:204B1C008847BDE8F78F00BF780E0020980C0020980E00209C0E002080D1010078320020AA
:204B3C0028230020800E0020F4210020DC3400202DE9F84F05004ED0BD480078092818BFD6
:204B5C000A2804D00B281CBF0C280D2801D121206CE1A878002115F03DF9040008BF4220B3
:204B7C00F6D0DFF8D082A978B14ADFF8CCA288F80010107810B9A8788AF8000004F1480603
:204B9C00F068417801F01201022902BF706900280C2012D0607AF0B1A07B012804D1B5F8A8
:204BBC00030008B1812816DA6878402813DA204615F03CF8B06808B9072037E1B5612878E2
:204BDC0001281FD1A07B00281CBF0128042819D19A48007808B9122028E199494A78824285
:204BFC0008BF0920F8D0F068417848070AD504F1220180204A7F04F1380107F077F908B1D3
:204C1C000B2013E1687808B911200FE12878DFF834928D4FDFF834B2012840F0AF80207A9F
:204C3C000021012821734FF00A0A11D19BF80000402111F02FFFB5F803000AFB00F140201C
:204C5C0014F0F0FF0100E0D1B16968794871ECE001202072E17261730AF07EF96060386868
:204C7C0080477B4A01461068274602E07A68426000680028FAD10846D9F8001088477968C0
:204C9C0074484861002198F8000014F058FC98F800100122112007F0A2FEF0684178C80620
:204CBC0005D5384602F0B6F8010025D0BEE0002078840FF0DFFF87F82100F068007814F0DF
:204CDC004AFC04001CBF94F8B000002807D0F87F40F02000F877787D40F01800787538467A
:204CFC00FDF7AEF80100E1D134B194F8B000012804BF384614F039FCF0684178C8071CD5B6
:204D1C0007F14204A18800291CBF3068002814D022788A4211D20F2014F080FF68B1F068FC
:204D3C0001788DF80010A088ADF801000F2021788DF80310694614F06DFF3D4C20780028B3
:204D5C0073D14549087800281EBFF068417811F0030F03D04148006814F058FF11202070DC
:204D7C0001213972B5F803000AFB00F1402014F059FF01005AD100F019FA56E0207A0028C1
:204D9C0054D038688047054698F80000012114F0D6FB9BF80000402111F07CFE0020304992
:204DBC0020720A6898F8006011460B68187A002802BF586D0378B34220D0C9689142F4D1B0
:204DDC0098F800009AF80010884224D114F01AF9616888421FD112F0F1F940F2014014F0C9
:204DFC00A1FF20492048086001219BF8000009F0BFFBD9F800102846884716E01B4E307831
:204E1C000128DDDD084611F049FD14F02BF93078411E3170D4E7204614F0F4FED9F8001036
:204E3C0028468847204611F023FB0020BDE8F28FC80F0020D60F0020D50F0020D40F00204B
:204E5C00780E0020701C00206C1C0020C70F00204C0F0020B5950000880E00206C0F002030
:204E7C00D8340020480F002005580000503500202DE9F8430024002501288AB0814603D0DA
:204E9C00022808BF0D4600E00C46DFF81083C44F98F820002C2600281CBFD8F81C000028EA
:204EBC0010D0D8F8140014F015FF98F820200146002A1CBFD8F81C00002803D011B10879B4
:204EDC0003280DD0002C0AD0A07916FB00F63868411D8A5D012A02D1401D00218155DFE092
:204EFC00501EB9F1030F88F8200028D1AD480278012A04BF4278012A73D18268527805791B
:204F1C00A94BC0789C7B01F110030593ED000C3D530095FBF3F60836F6B200250496039556
:204F3C00663CC97A019201F001010291009004EBD474E40500230022210E002069E0B9F120
:204F5C00020F69D1002D4CD005F180048A7A20789209012874D105F1A703187894F810C0F6
:204F7C00002807BF267BA77B667BE77B5FEACC7003D54FF0020E022004E0A06840784FF070
:204F9C00010E400091F80A9009F01F094FEAC909A9F10C0999FBF0F0012E00FB0EF0D8BF75
:204FBC00012F00F1080E1DDD01F110000890CDF81CC0069705961FFA8EF00490268C0396BB
:204FDC00C87A00F001000290A668707801900092487B5B79A97C60F0FF0082B2A08B01F07C
:204FFC000FF8D3E001F1100005905FFA8EF00490268C0396C87A00F001000290A6687078D3
:20501C0001900092487B5B79A97C60F0FF0082B2A08B02F03FFDB9E0B9F1010FFBD1002C6E
:20503C00F9D0A0793A687043531D1D5C012DF2D1521D00231354A0793A687043135C012B41
:20505C002AD102F11A052B5C9B1E132B24D21B32105C08BB94F8960104281DD0CA7AC2F302
:20507C004012521C904217D1A0793A68704302F11A038D7A1B5C05F01F0C634502BF02F122
:20509C001B0E1EF80090B9EB951F05D1DB001B1F0D891B01AB4205D0D8F8140014F00EFE7A
:2050BC00002078E04B7B104463F0FF03C3821432A079CB7A704303F0010313543868A37937
:2050DC0000F11202734394F89601D054A3793868258900F1180273431330D552A27994F876
:2050FC00383072438354A0793A6816FB00F69519AC7C2E7C012C07BF2F7BAB7B6F7BEB7B4B
:20511C00F20703D54FF0020C022204E0EA6952784FF0010C520095F81AE04FEACE0EAEF157
:20513C000C0E9EFBF2F202FB0CF20832012FD8BF012B17DD1031099108960793069791B2AD
:20515C0005912A8B0492297D0391EA6951780291EA7E0192697D0091EB8AEA7C214600F0C5
:20517C00AFFC13E010310691D1B205912A8B0492297D0391EA6951780291EA7E0192697D6F
:20519C000091EB8AEA7C214604F016FDD8F8140014F094FD01200BB0BDE8F08378320020E2
:2051BC00C43400206C340020940B00202DE9FE4FC24D6F681FB9BDE8F74F14F01FBD3878A0
:2051DC00DFF8FCB2BF4EDFF80083012818BF02280AD004281CBF0828102805D0402818BF40
:2051FC00802800F0A38061E114F064F80028FAD0012011F0C3FB20B1012011F031FE11F041
:20521C0069FB082011F0BAFB20B1082011F028FE11F060FB3878FEF721FF814698F8010097
:20523C00D9F8044000284CD006F03EFD13F03CFD8246DAF80000009001464F68B4B1484671
:20525C0008F052F9022811D099F80010012902D0082965D02AE128B914F0F0FC00F5E850D8
:20527C004C30A0600120A87011215CE00098017880290BD10820954930700A787869012A25
:20529C001ABFDBF824100978012114E0072030709AF8060013F08EFE0446207BC10748BFD9
:2052BC009AF8060063D489480178786901291CBFDBF824104978C1729AF8060088F80200BE
:2052DC00BBE0B9F1000F11D099F800004F4509D1012818BF082801D134BBECE0002012F09F
:2052FC000FFA21E0012802D0082817D0DEE0002CF3D014F0A3FC0146A06801F5C241A83105
:20531C0012F03CFF28B914F099FC00F5E8504C30A060112030700121A97005E0002CDCD048
:20533C000820A870122131704846BBE098F80100002800F0848006F0B7FC13F0B5FC814643
:20535C00D9F800000090D0F804A098F8020013F0ABFC01903878402813D199F8060013F001
:20537C0029FE0446207BC1070BD599F8060013F09BFC052114F012FD207B00F0FE002073D7
:20539C0099E013F091FF10F01F0F32D0012011F0F5FA20B1012011F063FD11F09BFA082093
:2053BC0011F0ECFA20B1082011F05AFD11F092FAA878FEF753FE07467C68D4B1009908F05F
:2053DC0093F8022815D03978012902D008290BD00CE028B914F032FC00F5E8504C30A060B6
:2053FC0011203070012156E0082057E0002012F087F90198484520D0009934480A78802A10
:20541C000BD10821317000780128DAF814001ABFDBF82410097801210AE007223270007893
:20543C000128DAF814000EBF0121DBF824104978C17299F8060088F80200009832E013F091
:20545C0033FF10F01F0F36D0012011F097FA20B1012011F005FD11F03DFA082011F08EFA39
:20547C0020B1082011F0FCFC11F034FAA878FEF7F5FD074638787C68012802D008280CD000
:20549C0019E0C4B114F0DAFB00F5E8504C30A060012111203070A97003E064B1A8701221B1
:2054BC0031703846BDE8FE4F08F096B8BDE8FE4F002012F025B9BDE8F78F00BF84340020C5
:2054DC0080D10100C80F0020780E0020CC0F00202DE9F843A04CA149A14E20700A220020D4
:2054FC0008600D239F484FF4087102704380818084B09D4A9D48106037789D480770FF2F76
:20551C007178417008BFFF29B2788270F378C370357905717679467114D1FF2A08BFFF2B63
:20553C0010D1FF2D08BFFF2E0CD192490A7802704B7843708A788270CB78C3700A790271CC
:20555C00497941718C4902788C4D8D4E8D4F0A7043784B7082788A70C378CB7002790A718C
:20557C004079894A4871FF2028706870A870E87028716871002085490880F06B8449407803
:20559C0008708449F06B007808701388824883490380F06BC06C08608149F06B90F83C00D3
:2055BC0008708049F06B90F83D0008707E49F06B90F860000870F06B406901797B484A1ECB
:2055DC000270F06B7A49C0783870F06B8069086008B912F095F8F06B7649C069086008B9D7
:2055FC0012F08EF8F06B416D73480C2213F0ACFB14F000FBF06B7149006A086008B912F0C2
:20561C007FF8F06BDFF8B881406AC8F8000008B912F076F8F06B6B49806A086008B912F0CD
:20563C006FF8F06B6849C06D00283CD001220A75F06BC06D02681378C3F3400028B1C3F3D6
:20565C00C00000280CBF01200220487500208860C8600861F06BC06D426890780870F06BD5
:20567C00C06D4268D0784870F06BC06D426813788B70F06BC06D42685078C870F06BC06DC5
:20569C00426810790871F06BC06D426850794871F06BC06D426890798871F06BC06D426828
:2056BC00D079C87101E000220A7501F075F907280AD106F0ABFC20784FF4804108F058FFD9
:2056DC00002012F01DF843E040480168884781460DF0B4FAD8F8000001688847684613F069
:2056FC00E1FCD8F8002004208DF80000694652F8043F00209847364908600FF0FBFCF068A8
:20571C00344A01883878344B014311804846196888470C21314813F02EFF284614F066FADC
:20573C0014F060FA2E4800214FF6FF7201608280F06B90F858102B48006813F033FC0121C5
:20575C00FF2013F0FCFE20784FF4005108F010FF05B0BDE8F08300BFC70F0020380F0020F5
:20577C00D04F0050700E00203C0F0020B63F0050400E0020E8120050500E0020480E0020A4
:20579C0080D10100C40F0020462300209E0F0020C60F0020D40F002040350020CC340020A5
:2057BC0051350020523500204F350020CB0F0020200F0020240F002078340020280F00201D
:2057DC002C0F0020300F0020043400206C1C0020D0340020A00F0020701C0020FC0D00202B
:2057FC00800E0020E43400202DE9F84FDFF8B49299F80000002114F0EDFA040004F1500641
:20581C0002D111F07DFF3EE1207ADFF89CA248B99AF8001011B1204614F0F4F9204610F02C
:20583C0027FE1DE0217BA14D491C217330694079D0B1C9B2814217D12878402111F02AF989
:20585C00002121729AF8000010B1204614F0DAF9204610F00DFEFF224321204614F092FAFC
:20587C00BDE8F14FFFF7A2BC04F14508002088F8070013F0B6FD7168D1F80320D4F810C0D3
:20589C0022F07F4240F6C41303FB02CC4FF00B0E90FBFEFE0B2202FB1E00376880B24FF405
:2058BC007A6148431CFA80F0B8603368986820619AF8000002280BDB7D490868C268006842
:2058DC0011680069096912F059FC08B10DF080FD70684178CA0604F122071BD5A07B01281B
:2058FC000CD1002121729AF8000010B1204614F089F92878022108F03BFEAFE0306890F819
:20591C00631001F0E00141F0860180F8631069494166A3E0356805F1020A0021AAF8001035
:20593C0005F1730B407A10F03DF925302076207E8AF80C0020460BF09DFF207D8BF815009E
:20595C000020617D8BF816108BF81800C5F890003888401C388080B20FF08CF984F8210075
:20597C007068417811F0030F43D1007813F0F3FD00283ED000F1B0010878032806D1E27F2D
:20599C00930603D442F02002E27732E001280ED1E07F40F02000E077607D40F018006075B4
:2059BC002046FCF74DFA204613F0DFFD21E008B10879F0B1E07F00F0DF00E077B068002845
:2059DC0004BFF068002811D17068007D832818BF03280BD0607DC10644BF00F0EF0060754E
:2059FC00607D010744BF00F0F70060752046FCF727FA617D002201F0FE01204608F0F8F92E
:205A1C000020AAF8300005F13E0094F8211001F03F010170628BA96801EB8201A96300214B
:205A3C00018298F80020828371684A78910709D5BA887A80A17F01F03F0141F08001A177AA
:205A5C0001218183E07FC10608D57988A86BA63100EB8100686702218BF80010164A10783D
:205A7C0088B1387F022818BF03280CD1134F38680D3014F04FF930B93868C11D062204F102
:205A9C00300013F061F9FFF791FB4CB17068017E480605D54946BDE8F44F032014F0BAB84F
:205ABC00BDE8F18FD50F002050350020C70F0020D834002000204E00880E0020680F00201F
:205ADC002DE9F84F0746A4480C46C179880688B04FF0000902D5A1498878810640F1398147
:205AFC001B98179900B90021DDF86080DDF864B0464616FB0BF611FB06F1ADF85C1060217C
:205B1C00BDF85C5095FBF1F1602606FB115606B1012606958DF810208DF81140ADF81230BD
:205B3C0071188F4D2A78129B139C149EDDF854C0DDF858E0DDF868A0002AC9B266D08DF801
:205B5C0050600025BDF85C60ADF814708DF848308DF84C408DF854C0ADF858E01B900791F3
:205B7C000799E8B2884280F2F480B0B26028ACBF6027F7B278001C3080B212F065F9F61B33
:205B9C00040041D0912020703E2181226170A2705B460698A080A5714246BDF81400208147
:205BBC009DF81110A1729DF81000E072BDF81210A1819DF84800A0739DF84C10E1739DF846
:205BDC00500020749DF854106174BDF858006082277504F11C0084F8158084F816B084F88C
:205BFC0017A0A0610390CDF80490CDF800A01B989DF850100290384602F042FA8146584833
:205C1C000078214604F01CFC6D1CA9E78DF850608DF860808DF864B0BDF85C60DDF8188053
:205C3C00ADF814708DF848308DF84C408DF854C0ADF858E01B900791CB4684E0B0B26028F9
:205C5C00ACBF6025F5B26F00143707F10B00C0B212F0FAF8761B040073D001202070FF21C5
:205C7C0004F1080261706260042010703E2260684270812061688F706168C8704FEA28210C
:205C9C00606880F8048060684171616881F806B06168BDF81400C8716168BDF81400000A4B
:205CBC00087261689DF81100487261689DF8100088726168BDF81200C8726168BDF8120063
:205CDC00000A087361689DF84800487361689DF84C00887361689DF85000C87361689DF8D6
:205CFC00540008746168BDF8580048746168BDF85800000A88746068C57460689DF860107C
:205D1C00017560689DF864104175616881F816A060681B9A9DF86430029200F1170103919B
:205D3C00CDF804909DF860209DF85010CDF800A0284602F0A5F981460A480078214604F095
:205D5C007FFB0BF1010B07995FFA8BF08842FFF675AF09B0BDE8F08F280E0020200E0020CD
:205D7C004935002047350020F8B5144600254FF48067A04EC21B84B006F1880332D0921E44
:205D9C0037D0521E45D0521E51D0521E56D0521E5AD0521E00F07780921E00F07980D21EBA
:205DBC0000F0A980521E00F0B480921E00F0BD80521E00F07880521E00F0BE80521E00F0E7
:205DDC00CC80521E00F0CF80521E44D0521E53D0D21E00F0DC80921E00F0E080521E00F0F9
:205DFC00EB80FAE0012915D12078022812DC7070FDE001290ED1207802280FDA012804BF25
:205E1C00F178032900F0F2800028B070F0D13574DEE0012940F0DF802078052880F2DB80B4
:205E3C000328F07009D10020B0703074D0E0012962D12078022867DA3073D8E010295BD12D
:205E5C00102221466C4814E0012955D1207802285ADA3071CBE001294ED12078022853DA1B
:205E7C0000287071F6D001207074602206F12801184612F069FFBAE001293DD12078022834
:205E9C0042DAB072B3E0012936D120787073AEE0002931D113F0B6FF10B9FAF754FA1DE0F3
:205EBC0001203075A3E0072926D10622611C02A812F03AFD00950023217801AA02A809F02F
:205EDC0077FAB0B9B07A10B913F09CFF10B1B07A012808D19DF80400FAF746FA05465020C9
:205EFC0012F00CFA1EE0316A9DF80420012088547DE034257BE001296DD1F17B2078022987
:205F1C0003D0C11F0A2902D365E0102863D1B0736DE001295FD1F17C2078F074002908BFD6
:205F3C00012864D1FAF7BBF961E0012953D12078032850DCB0745AE001294CD1207802285D
:205F5C0049DC002847D0F073022803BF1020B0730120002013F042FE49E001293BD12078A4
:205F7C0012F0E8FA43E07079002834D1602908D1002C30D060222146184612F0E5FE01200D
:205F9C0003E0012927D134B3207870742FE0012921D104B320781949087028E0D9B913F08C
:205FBC0031FF30B9FAF773FA0546502012F0A6F91DE0012070751AE001290CD1217802292A
:205FDC0009DA012904BFB07800280FD03174084613F020F80BE0182509E00F2806DA022945
:205FFC0004D121880FF06EFF054600E00225284605B0F0BDC81A0020CC32002056350020AE
:20601C002DE9F84F05469B480C46C179880688B016464FF0000902D597498878C10640F134
:20603C0025811A98002800F02181DDF85C80DDF860B01699914FDDF854E0DDF864A0ADF886
:20605C001260424612FB0BF211FB02F1ADF858106021BDF85820139E8DF8103092FBF1F181
:20607C004FF0600C0CFB112C8DF81140BCF1000F3B78129C8DF84C6018BF4FF0010C614429
:20609C00DDF850C0BDF85860ADF81450002BC9B28DF848408DF850C0ADF854E056D01A9098
:2060BC00069107920025069AE8B2904280F2DE80B0B26028ACBF6027F7B278001C3080B218
:2060DC0011F0C2FEF61B04003ED0912020703E2184226170A2705B460798A080A571424699
:2060FC00BDF8140020819DF81110A172BDF81200A0819DF81010A1739DF84800E0739DF8DB
:20611C004C1021749DF85000607404F11C00BDF854106182277584F8158084F816B084F841
:20613C0017A0A0610390CDF80490CDF800A01A989DF84C100290384601F0A2FF81464F4897
:20615C000078214604F07CF96D1CACE78DF85C808DF860B01A9006919346984680E0B0B20F
:20617C006028ACBF6025F5B26F00133707F10B00C0B211F069FE761B04006FD001202070C9
:20619C00FF2104F1080261706260042010703E2260684270842061688F706168C8704FEA0D
:2061BC001B21606880F804B060684171616881F806806168BDF81400C8716168BDF81400F4
:2061DC00000A087261689DF8110048726168BDF8120088726168BDF81200000AC8726168CF
:2061FC009DF81000087361689DF84800487361689DF84C00887361689DF85000C8736168AB
:20621C00BDF8540008746168BDF85400000A48746068857460689DF85C10C17460689DF829
:20623C0060100175616881F815A060681A9A9DF86030029200F116010391CDF804909DF8A6
:20625C005C209DF84C10CDF800A0284601F018FF81460B480078214604F0F2F808F1010801
:20627C0006995FFA88F08842FFF679AF09B0BDE8F08F00BF280E0020200E002049350020CD
:20629C00473500202DE9F04F0746F88916468A46ADF1440DC01D80B205460CF053FE8F4C86
:2062BC00FF280BD1284605F091FD854204DD641C207800B905200EE1012000E00020617847
:2062DC00D9B916B1022E18D1B8B1387AFE88BD888DF82C000023009309AAADF82A60E18E92
:2062FC0094F83300ADF82850032306F00DFE9DF834003874BDF83060BE81BD8955B3FE89B1
:20631C0046B3AD1B4FF000091FFA85F84D463A7C761B202ED4BFB6B22026E06808EB050118
:20633C0089B2334601EB423101AA13F055F80AEB050101A8324611F0E1FD58B9AD19FE89DA
:20635C00ADB2AE42E3DCB9F1010F1CBF4846B88140F0BA8094F83310E58EE06801AA0423F1
:20637C008846490313F038F8019800F0FF007E2806D140467C2110F0F1FE019800F0FF0015
:20639C007C2840F0A580F88942F20102C11D8EB2A9198A4240F39A80F9883A7AC1F301232A
:2063BC008DF83910B98843EA82038DF838308A1007468DF83A200423C0F3851201F00301E7
:2063DC0042EA81128DF83B2010FB03F1FA1D01F0FC017B1990B28DF83C101FFA83FB0D288B
:2063FC002BDB50463946002212F028FF024605210EA812F023FF9DF83C103B4600F03F073B
:20641C00524641EAA011B8008DF83C1040F0020096278DF83D0029468DF83E7040460FF08B
:20643C0043F9074659460EAA0723404667700FF03BF9384360704DD135E004F12400514678
:20645C003A4609F0E5FF0EA90A68381900F124094846097902607B1D0171002204F1240074
:20647C0099B212F0EBFE9DF83C10962300F03F078DF83E3041EAA011B8008DF83C10334629
:20649C0040F002000EAF49468DF83D003A68B8790A60BA88887140468A8004F1240229460E
:2064BC000FF002F96070E18EAD194FEA8807AAB28919E18607EBC8010919A1F84C2048B1B9
:2064DC00404659460EF078FF607803E0052000E001206070C0B211B0BDE8F08FE41D0020DD
:2064FC002DE9FE4F012001908A4D8B48DFF82CA20278112A02D0122A06D006E1884E30781E
:20651C00002113F067FC040000F0F1808548DFF818B2DFF81882CAF80000012231781120D5
:20653C0006F05DFA216D606D814A009041F608034078C00640F1B480084641F20447B0F8A3
:20655C0002C0BC451CBFB0F81AE0BE454FF4A0590AD0468EBE421CBF41F20A47BC4503D0BF
:20657C00BE4518BFBE4203D12F80CAF800B036E04FF0000C40F2FE37182606FB0CFE864455
:20659C00BEF802602E80012EF6D0002E1CBFB61E012E43D9F61B17D04FF48067F61B4ED0AB
:2065BC004FF44067F61B39D0B61E012E36D9361F34D040F2FA37F61B65D0761E57D0F61ED8
:2065DC003DD0361F3BD063E0B0F800E040F60106B64523D10CF1010CBCF1020FCCDDDAF8F8
:2065FC000010594510D1816C0B680A6819790832032904BF90F86C10012906D1D2F80E1076
:20661C0000291CBF118B002979D1A5F80090CAF80080816C08680021017170E0A17B012956
:20663C001CBF0429A5F80090CAF80080117D0029D5D09168491C002391601382CFE7A17B92
:20665C00012906BF41F20244AEF80240AEF802902988994214D1D368118A5B1CD360491C40
:20667C00538A11828CB2A3420AD2518208E0009A5378DA064CBF8A6CCA6E116800220A7140
:20669C00CAF80080ABE7002011F03AF8832003E0002011F035F8842013F098FB012037E071
:2066BC00488E288041F20444001B01D0801F02D1CAF800B023E0488898420BD1D168108A99
:2066DC00491CD160401C518A108283B2994208D2508206E0107D20B19068401C00219060DA
:2066FC00118241F206402880CAF8008007E012F02EFF60B1C0880F492880CAF80010012125
:20671C000D4A107807F034FF01E0002001900198BDE8FE8F9A0F0020C80F0020480F0020C0
:20673C00D50F0020756B021071110000055800000434002085820000C70F00202DE9F047C6
:20675C000D4629048F4EDFF8408240F1F1808F4F38780CF0ABFA040018D021780120B029D7
:20677C0017D0B12908D0C22900F0B580D02904BF2046FAF743F9D1E0207920B92289E188CE
:20679C006088F9F792FC204611F054FE85F40040F5E02179387A012910D009294DD01E2944
:2067BC0000F08D807D2908BF002806D16088FAF7B1F801466088FAF76AF886E00028FCD1F5
:2067DC00207AB4F80290082835D14846FAF7A2F802280FD003282ED1002204214846F9F77E
:2067FC005AFF0246B86900281CBF4368002B22D004211EE0002210214846F9F74CFF8246E9
:20681C00484613F037FB60B198F8001039B9811D4079012200F0010013F0DCF901E00120B1
:20683C003070B86900281CBF4368002B03D05246052148469847608805E0002845D16178C0
:20685C0060881A2902D1FAF701F83EE0FAF762F8022819D0032838D120896688012804BF01
:20687C006089032806D1E068827804213046F9F712FF00E01820B96900291CBF4B68002B17
:20689C0023D00246042117E0218966880120012904BF6189032907D1E268917821B90122A1
:2068BC0010213046F9F7F7FEB96900291CBF4B68002B0AD0024605213046984705E0787AB8
:2068DC0018B9608800210BF091FB217904F1080013F07CF957E7A07810BB012179742022BA
:2068FC00E11C07F1880012F02FFA202204F1230107F1A80012F028FA202204F1430107F142
:20691C00C80012F021FAB86900281CBF4368002B06D0627806210020984701E00028D9D1F3
